{
	"codes/FoodTraceability.sol": {
		"FoodTraceability": {
			"abi": [
				{
					"inputs": [],
					"stateMutability": "nonpayable",
					"type": "constructor"
				},
				{
					"anonymous": false,
					"inputs": [
						{
							"indexed": true,
							"internalType": "string",
							"name": "batchId",
							"type": "string"
						},
						{
							"indexed": false,
							"internalType": "string",
							"name": "productName",
							"type": "string"
						},
						{
							"indexed": false,
							"internalType": "address",
							"name": "producer",
							"type": "address"
						}
					],
					"name": "BatchRegistered",
					"type": "event"
				},
				{
					"anonymous": false,
					"inputs": [
						{
							"indexed": true,
							"internalType": "string",
							"name": "batchId",
							"type": "string"
						},
						{
							"indexed": false,
							"internalType": "address",
							"name": "handler",
							"type": "address"
						},
						{
							"indexed": false,
							"internalType": "string",
							"name": "action",
							"type": "string"
						},
						{
							"indexed": false,
							"internalType": "uint256",
							"name": "timestamp",
							"type": "uint256"
						}
					],
					"name": "RecordAdded",
					"type": "event"
				},
				{
					"anonymous": false,
					"inputs": [
						{
							"indexed": true,
							"internalType": "address",
							"name": "account",
							"type": "address"
						},
						{
							"indexed": false,
							"internalType": "enum FoodTraceability.Role",
							"name": "role",
							"type": "uint8"
						}
					],
					"name": "RoleAssigned",
					"type": "event"
				},
				{
					"anonymous": false,
					"inputs": [
						{
							"indexed": true,
							"internalType": "string",
							"name": "batchId",
							"type": "string"
						},
						{
							"indexed": false,
							"internalType": "int256",
							"name": "temperature",
							"type": "int256"
						},
						{
							"indexed": false,
							"internalType": "address",
							"name": "reporter",
							"type": "address"
						}
					],
					"name": "TemperatureAlert",
					"type": "event"
				},
				{
					"inputs": [
						{
							"internalType": "string",
							"name": "_batchId",
							"type": "string"
						},
						{
							"internalType": "string",
							"name": "_location",
							"type": "string"
						},
						{
							"internalType": "string",
							"name": "_action",
							"type": "string"
						},
						{
							"internalType": "int256",
							"name": "_temperature",
							"type": "int256"
						}
					],
					"name": "addTraceRecord",
					"outputs": [],
					"stateMutability": "nonpayable",
					"type": "function"
				},
				{
					"inputs": [
						{
							"internalType": "address",
							"name": "_addr",
							"type": "address"
						},
						{
							"internalType": "enum FoodTraceability.Role",
							"name": "_role",
							"type": "uint8"
						}
					],
					"name": "assignRole",
					"outputs": [],
					"stateMutability": "nonpayable",
					"type": "function"
				},
				{
					"inputs": [
						{
							"internalType": "string",
							"name": "",
							"type": "string"
						}
					],
					"name": "batches",
					"outputs": [
						{
							"internalType": "string",
							"name": "batchId",
							"type": "string"
						},
						{
							"internalType": "string",
							"name": "productName",
							"type": "string"
						},
						{
							"internalType": "string",
							"name": "origin",
							"type": "string"
						},
						{
							"internalType": "uint256",
							"name": "productionDate",
							"type": "uint256"
						},
						{
							"internalType": "address",
							"name": "producer",
							"type": "address"
						},
						{
							"internalType": "bool",
							"name": "isActive",
							"type": "bool"
						}
					],
					"stateMutability": "view",
					"type": "function"
				},
				{
					"inputs": [
						{
							"internalType": "string",
							"name": "_batchId",
							"type": "string"
						}
					],
					"name": "deactivateBatch",
					"outputs": [],
					"stateMutability": "nonpayable",
					"type": "function"
				},
				{
					"inputs": [
						{
							"internalType": "string",
							"name": "_batchId",
							"type": "string"
						}
					],
					"name": "getBatchHistory",
					"outputs": [
						{
							"components": [
								{
									"internalType": "address",
									"name": "handler",
									"type": "address"
								},
								{
									"internalType": "enum FoodTraceability.Role",
									"name": "role",
									"type": "uint8"
								},
								{
									"internalType": "string",
									"name": "location",
									"type": "string"
								},
								{
									"internalType": "string",
									"name": "action",
									"type": "string"
								},
								{
									"internalType": "int256",
									"name": "temperature",
									"type": "int256"
								},
								{
									"internalType": "uint256",
									"name": "timestamp",
									"type": "uint256"
								}
							],
							"internalType": "struct FoodTraceability.TraceRecord[]",
							"name": "",
							"type": "tuple[]"
						}
					],
					"stateMutability": "view",
					"type": "function"
				},
				{
					"inputs": [
						{
							"internalType": "string",
							"name": "_batchId",
							"type": "string"
						}
					],
					"name": "getBatchInfo",
					"outputs": [
						{
							"components": [
								{
									"internalType": "string",
									"name": "batchId",
									"type": "string"
								},
								{
									"internalType": "string",
									"name": "productName",
									"type": "string"
								},
								{
									"internalType": "string",
									"name": "origin",
									"type": "string"
								},
								{
									"internalType": "uint256",
									"name": "productionDate",
									"type": "uint256"
								},
								{
									"internalType": "address",
									"name": "producer",
									"type": "address"
								},
								{
									"internalType": "bool",
									"name": "isActive",
									"type": "bool"
								}
							],
							"internalType": "struct FoodTraceability.FoodBatch",
							"name": "",
							"type": "tuple"
						}
					],
					"stateMutability": "view",
					"type": "function"
				},
				{
					"inputs": [
						{
							"internalType": "address",
							"name": "_addr",
							"type": "address"
						}
					],
					"name": "getRole",
					"outputs": [
						{
							"internalType": "enum FoodTraceability.Role",
							"name": "",
							"type": "uint8"
						}
					],
					"stateMutability": "view",
					"type": "function"
				},
				{
					"inputs": [
						{
							"internalType": "string",
							"name": "_batchId",
							"type": "string"
						}
					],
					"name": "getTraceCount",
					"outputs": [
						{
							"internalType": "uint256",
							"name": "",
							"type": "uint256"
						}
					],
					"stateMutability": "view",
					"type": "function"
				},
				{
					"inputs": [],
					"name": "owner",
					"outputs": [
						{
							"internalType": "address",
							"name": "",
							"type": "address"
						}
					],
					"stateMutability": "view",
					"type": "function"
				},
				{
					"inputs": [
						{
							"internalType": "string",
							"name": "_batchId",
							"type": "string"
						},
						{
							"internalType": "string",
							"name": "_productName",
							"type": "string"
						},
						{
							"internalType": "string",
							"name": "_origin",
							"type": "string"
						},
						{
							"internalType": "uint256",
							"name": "_productionDate",
							"type": "uint256"
						}
					],
					"name": "registerBatch",
					"outputs": [],
					"stateMutability": "nonpayable",
					"type": "function"
				},
				{
					"inputs": [
						{
							"internalType": "address",
							"name": "",
							"type": "address"
						}
					],
					"name": "roles",
					"outputs": [
						{
							"internalType": "enum FoodTraceability.Role",
							"name": "",
							"type": "uint8"
						}
					],
					"stateMutability": "view",
					"type": "function"
				},
				{
					"inputs": [
						{
							"internalType": "string",
							"name": "",
							"type": "string"
						},
						{
							"internalType": "uint256",
							"name": "",
							"type": "uint256"
						}
					],
					"name": "traceHistory",
					"outputs": [
						{
							"internalType": "address",
							"name": "handler",
							"type": "address"
						},
						{
							"internalType": "enum FoodTraceability.Role",
							"name": "role",
							"type": "uint8"
						},
						{
							"internalType": "string",
							"name": "location",
							"type": "string"
						},
						{
							"internalType": "string",
							"name": "action",
							"type": "string"
						},
						{
							"internalType": "int256",
							"name": "temperature",
							"type": "int256"
						},
						{
							"internalType": "uint256",
							"name": "timestamp",
							"type": "uint256"
						}
					],
					"stateMutability": "view",
					"type": "function"
				}
			],
			"devdoc": {
				"details": "區塊鏈創新應用專題 — 食品供應鏈主題      使用平台：Remix IDE  語言：Solidity ^0.8.0",
				"kind": "dev",
				"methods": {
					"addTraceRecord(string,string,string,int256)": {
						"params": {
							"_action": "操作描述",
							"_batchId": "批次編號",
							"_location": "操作地點",
							"_temperature": "當前溫度（×10，例：42 = 4.2°C）"
						}
					},
					"assignRole(address,uint8)": {
						"params": {
							"_addr": "目標地址",
							"_role": "指派角色（1=Producer, 2=Processor, 3=Logistics, 4=Retailer, 5=Regulator）"
						}
					},
					"deactivateBatch(string)": {
						"params": {
							"_batchId": "批次編號"
						}
					},
					"getBatchHistory(string)": {
						"params": {
							"_batchId": "批次編號"
						},
						"returns": {
							"_0": "TraceRecord 陣列（依時間先後排列）"
						}
					},
					"getBatchInfo(string)": {
						"params": {
							"_batchId": "批次編號"
						},
						"returns": {
							"_0": "FoodBatch struct"
						}
					},
					"getRole(address)": {
						"params": {
							"_addr": "查詢地址"
						},
						"returns": {
							"_0": "角色編號"
						}
					},
					"getTraceCount(string)": {
						"params": {
							"_batchId": "批次編號"
						},
						"returns": {
							"_0": "記錄筆數"
						}
					},
					"registerBatch(string,string,string,uint256)": {
						"params": {
							"_batchId": "批次編號（需唯一）",
							"_origin": "產地描述",
							"_productName": "產品名稱",
							"_productionDate": "生產日期（Unix timestamp）"
						}
					}
				},
				"title": "FoodTraceability",
				"version": 1
			},
			"evm": {
				"assembly": "    /* \"codes/FoodTraceability.sol\":280:8620  contract FoodTraceability {... */\n  mstore(0x40, 0x80)\n    /* \"codes/FoodTraceability.sol\":3136:3229  constructor() {... */\n  callvalue\n  dup1\n  iszero\n  tag_1\n  jumpi\n  revert(0x00, 0x00)\ntag_1:\n  pop\n    /* \"codes/FoodTraceability.sol\":3168:3178  msg.sender */\n  caller\n    /* \"codes/FoodTraceability.sol\":3160:3165  owner */\n  0x03\n  0x00\n    /* \"codes/FoodTraceability.sol\":3160:3178  owner = msg.sender */\n  0x0100\n  exp\n  dup2\n  sload\n  dup2\n  0xffffffffffffffffffffffffffffffffffffffff\n  mul\n  not\n  and\n  swap1\n  dup4\n  0xffffffffffffffffffffffffffffffffffffffff\n  and\n  mul\n  or\n  swap1\n  sstore\n  pop\n    /* \"codes/FoodTraceability.sol\":3208:3222  Role.Regulator */\n  0x05\n    /* \"codes/FoodTraceability.sol\":3188:3193  roles */\n  0x02\n    /* \"codes/FoodTraceability.sol\":3188:3205  roles[msg.sender] */\n  0x00\n    /* \"codes/FoodTraceability.sol\":3194:3204  msg.sender */\n  caller\n    /* \"codes/FoodTraceability.sol\":3188:3205  roles[msg.sender] */\n  0xffffffffffffffffffffffffffffffffffffffff\n  and\n  0xffffffffffffffffffffffffffffffffffffffff\n  and\n  dup2\n  mstore\n  0x20\n  add\n  swap1\n  dup2\n  mstore\n  0x20\n  add\n  0x00\n  keccak256\n  0x00\n    /* \"codes/FoodTraceability.sol\":3188:3222  roles[msg.sender] = Role.Regulator */\n  0x0100\n  exp\n  dup2\n  sload\n  dup2\n  0xff\n  mul\n  not\n  and\n  swap1\n  dup4\n  0x05\n  dup2\n  gt\n  iszero\n  tag_4\n  jumpi\n  tag_5\n  tag_6\n  jump\t// in\ntag_5:\ntag_4:\n  mul\n  or\n  swap1\n  sstore\n  pop\n    /* \"codes/FoodTraceability.sol\":280:8620  contract FoodTraceability {... */\n  jump(tag_7)\n    /* \"#utility.yul\":7:187   */\ntag_6:\n    /* \"#utility.yul\":55:132   */\n  0x4e487b7100000000000000000000000000000000000000000000000000000000\n    /* \"#utility.yul\":52:53   */\n  0x00\n    /* \"#utility.yul\":45:133   */\n  mstore\n    /* \"#utility.yul\":152:156   */\n  0x21\n    /* \"#utility.yul\":149:150   */\n  0x04\n    /* \"#utility.yul\":142:157   */\n  mstore\n    /* \"#utility.yul\":176:180   */\n  0x24\n    /* \"#utility.yul\":173:174   */\n  0x00\n    /* \"#utility.yul\":166:181   */\n  revert\n    /* \"codes/FoodTraceability.sol\":280:8620  contract FoodTraceability {... */\ntag_7:\n  dataSize(sub_0)\n  dup1\n  dataOffset(sub_0)\n  0x00\n  codecopy\n  0x00\n  return\nstop\n\nsub_0: assembly {\n        /* \"codes/FoodTraceability.sol\":280:8620  contract FoodTraceability {... */\n      mstore(0x40, 0x80)\n      callvalue\n      dup1\n      iszero\n      tag_1\n      jumpi\n      revert(0x00, 0x00)\n    tag_1:\n      pop\n      jumpi(tag_2, lt(calldatasize, 0x04))\n      shr(0xe0, calldataload(0x00))\n      dup1\n      0x8da5cb5b\n      gt\n      tag_15\n      jumpi\n      dup1\n      0x8da5cb5b\n      eq\n      tag_9\n      jumpi\n      dup1\n      0x99374642\n      eq\n      tag_10\n      jumpi\n      dup1\n      0xa252d8a7\n      eq\n      tag_11\n      jumpi\n      dup1\n      0xa775e4cc\n      eq\n      tag_12\n      jumpi\n      dup1\n      0xa97e4d3e\n      eq\n      tag_13\n      jumpi\n      dup1\n      0xd54d5b92\n      eq\n      tag_14\n      jumpi\n      jump(tag_2)\n    tag_15:\n      dup1\n      0x1e0e5bc4\n      eq\n      tag_3\n      jumpi\n      dup1\n      0x44276733\n      eq\n      tag_4\n      jumpi\n      dup1\n      0x630a195b\n      eq\n      tag_5\n      jumpi\n      dup1\n      0x6e2be882\n      eq\n      tag_6\n      jumpi\n      dup1\n      0x798ac358\n      eq\n      tag_7\n      jumpi\n      dup1\n      0x7ef1446a\n      eq\n      tag_8\n      jumpi\n    tag_2:\n      revert(0x00, 0x00)\n        /* \"codes/FoodTraceability.sol\":6983:7167  function deactivateBatch(string memory _batchId)... */\n    tag_3:\n      tag_16\n      0x04\n      dup1\n      calldatasize\n      sub\n      dup2\n      add\n      swap1\n      tag_17\n      swap2\n      swap1\n      tag_18\n      jump\t// in\n    tag_17:\n      tag_19\n      jump\t// in\n    tag_16:\n      stop\n        /* \"codes/FoodTraceability.sol\":3879:3976  function getRole(address _addr) external view returns (Role) {... */\n    tag_4:\n      tag_20\n      0x04\n      dup1\n      calldatasize\n      sub\n      dup2\n      add\n      swap1\n      tag_21\n      swap2\n      swap1\n      tag_22\n      jump\t// in\n    tag_21:\n      tag_23\n      jump\t// in\n    tag_20:\n      mload(0x40)\n      tag_24\n      swap2\n      swap1\n      tag_25\n      jump\t// in\n    tag_24:\n      mload(0x40)\n      dup1\n      swap2\n      sub\n      swap1\n      return\n        /* \"codes/FoodTraceability.sol\":3608:3752  function assignRole(address _addr, Role _role) external onlyOwner {... */\n    tag_5:\n      tag_26\n      0x04\n      dup1\n      calldatasize\n      sub\n      dup2\n      add\n      swap1\n      tag_27\n      swap2\n      swap1\n      tag_28\n      jump\t// in\n    tag_27:\n      tag_29\n      jump\t// in\n    tag_26:\n      stop\n        /* \"codes/FoodTraceability.sol\":6054:6850  function addTraceRecord(... */\n    tag_6:\n      tag_30\n      0x04\n      dup1\n      calldatasize\n      sub\n      dup2\n      add\n      swap1\n      tag_31\n      swap2\n      swap1\n      tag_32\n      jump\t// in\n    tag_31:\n      tag_33\n      jump\t// in\n    tag_30:\n      stop\n        /* \"codes/FoodTraceability.sol\":8385:8618  function getTraceCount(string memory _batchId)... */\n    tag_7:\n      tag_34\n      0x04\n      dup1\n      calldatasize\n      sub\n      dup2\n      add\n      swap1\n      tag_35\n      swap2\n      swap1\n      tag_18\n      jump\t// in\n    tag_35:\n      tag_36\n      jump\t// in\n    tag_34:\n      mload(0x40)\n      tag_37\n      swap2\n      swap1\n      tag_38\n      jump\t// in\n    tag_37:\n      mload(0x40)\n      dup1\n      swap2\n      sub\n      swap1\n      return\n        /* \"codes/FoodTraceability.sol\":1620:1667  mapping(string => FoodBatch)     public batches */\n    tag_8:\n      tag_39\n      0x04\n      dup1\n      calldatasize\n      sub\n      dup2\n      add\n      swap1\n      tag_40\n      swap2\n      swap1\n      tag_18\n      jump\t// in\n    tag_40:\n      tag_41\n      jump\t// in\n    tag_39:\n      mload(0x40)\n      tag_42\n      swap7\n      swap6\n      swap5\n      swap4\n      swap3\n      swap2\n      swap1\n      tag_43\n      jump\t// in\n    tag_42:\n      mload(0x40)\n      dup1\n      swap2\n      sub\n      swap1\n      return\n        /* \"codes/FoodTraceability.sol\":1782:1802  address public owner */\n    tag_9:\n      tag_44\n      tag_45\n      jump\t// in\n    tag_44:\n      mload(0x40)\n      tag_46\n      swap2\n      swap1\n      tag_47\n      jump\t// in\n    tag_46:\n      mload(0x40)\n      dup1\n      swap2\n      sub\n      swap1\n      return\n        /* \"codes/FoodTraceability.sol\":1731:1776  mapping(address => Role)         public roles */\n    tag_10:\n      tag_48\n      0x04\n      dup1\n      calldatasize\n      sub\n      dup2\n      add\n      swap1\n      tag_49\n      swap2\n      swap1\n      tag_22\n      jump\t// in\n    tag_49:\n      tag_50\n      jump\t// in\n    tag_48:\n      mload(0x40)\n      tag_51\n      swap2\n      swap1\n      tag_25\n      jump\t// in\n    tag_51:\n      mload(0x40)\n      dup1\n      swap2\n      sub\n      swap1\n      return\n        /* \"codes/FoodTraceability.sol\":7906:8216  function getBatchHistory(string memory _batchId)... */\n    tag_11:\n      tag_52\n      0x04\n      dup1\n      calldatasize\n      sub\n      dup2\n      add\n      swap1\n      tag_53\n      swap2\n      swap1\n      tag_18\n      jump\t// in\n    tag_53:\n      tag_54\n      jump\t// in\n    tag_52:\n      mload(0x40)\n      tag_55\n      swap2\n      swap1\n      tag_56\n      jump\t// in\n    tag_55:\n      mload(0x40)\n      dup1\n      swap2\n      sub\n      swap1\n      return\n        /* \"codes/FoodTraceability.sol\":1673:1725  mapping(string => TraceRecord[]) public traceHistory */\n    tag_12:\n      tag_57\n      0x04\n      dup1\n      calldatasize\n      sub\n      dup2\n      add\n      swap1\n      tag_58\n      swap2\n      swap1\n      tag_59\n      jump\t// in\n    tag_58:\n      tag_60\n      jump\t// in\n    tag_57:\n      mload(0x40)\n      tag_61\n      swap7\n      swap6\n      swap5\n      swap4\n      swap3\n      swap2\n      swap1\n      tag_62\n      jump\t// in\n    tag_61:\n      mload(0x40)\n      dup1\n      swap2\n      sub\n      swap1\n      return\n        /* \"codes/FoodTraceability.sol\":4422:5757  function registerBatch(... */\n    tag_13:\n      tag_63\n      0x04\n      dup1\n      calldatasize\n      sub\n      dup2\n      add\n      swap1\n      tag_64\n      swap2\n      swap1\n      tag_65\n      jump\t// in\n    tag_64:\n      tag_66\n      jump\t// in\n    tag_63:\n      stop\n        /* \"codes/FoodTraceability.sol\":7460:7689  function getBatchInfo(string memory _batchId)... */\n    tag_14:\n      tag_67\n      0x04\n      dup1\n      calldatasize\n      sub\n      dup2\n      add\n      swap1\n      tag_68\n      swap2\n      swap1\n      tag_18\n      jump\t// in\n    tag_68:\n      tag_69\n      jump\t// in\n    tag_67:\n      mload(0x40)\n      tag_70\n      swap2\n      swap1\n      tag_71\n      jump\t// in\n    tag_70:\n      mload(0x40)\n      dup1\n      swap2\n      sub\n      swap1\n      return\n        /* \"codes/FoodTraceability.sol\":6983:7167  function deactivateBatch(string memory _batchId)... */\n    tag_19:\n        /* \"codes/FoodTraceability.sol\":7066:7080  Role.Regulator */\n      0x05\n        /* \"codes/FoodTraceability.sol\":2621:2626  _role */\n      dup1\n        /* \"codes/FoodTraceability.sol\":2600:2626  roles[msg.sender] == _role */\n      0x05\n      dup2\n      gt\n      iszero\n      tag_73\n      jumpi\n      tag_74\n      tag_75\n      jump\t// in\n    tag_74:\n    tag_73:\n        /* \"codes/FoodTraceability.sol\":2600:2605  roles */\n      0x02\n        /* \"codes/FoodTraceability.sol\":2600:2617  roles[msg.sender] */\n      0x00\n        /* \"codes/FoodTraceability.sol\":2606:2616  msg.sender */\n      caller\n        /* \"codes/FoodTraceability.sol\":2600:2617  roles[msg.sender] */\n      0xffffffffffffffffffffffffffffffffffffffff\n      and\n      0xffffffffffffffffffffffffffffffffffffffff\n      and\n      dup2\n      mstore\n      0x20\n      add\n      swap1\n      dup2\n      mstore\n      0x20\n      add\n      0x00\n      keccak256\n      0x00\n      swap1\n      sload\n      swap1\n      0x0100\n      exp\n      swap1\n      div\n      0xff\n      and\n        /* \"codes/FoodTraceability.sol\":2600:2626  roles[msg.sender] == _role */\n      0x05\n      dup2\n      gt\n      iszero\n      tag_76\n      jumpi\n      tag_77\n      tag_75\n      jump\t// in\n    tag_77:\n    tag_76:\n      eq\n        /* \"codes/FoodTraceability.sol\":2592:2659  require(roles[msg.sender] == _role, \"Unauthorized: incorrect role\") */\n      tag_78\n      jumpi\n      mload(0x40)\n      0x08c379a000000000000000000000000000000000000000000000000000000000\n      dup2\n      mstore\n      0x04\n      add\n      tag_79\n      swap1\n      tag_80\n      jump\t// in\n    tag_79:\n      mload(0x40)\n      dup1\n      swap2\n      sub\n      swap1\n      revert\n    tag_78:\n        /* \"codes/FoodTraceability.sol\":7102:7110  _batchId */\n      dup2\n        /* \"codes/FoodTraceability.sol\":2746:2753  batches */\n      0x00\n        /* \"codes/FoodTraceability.sol\":2754:2762  _batchId */\n      dup2\n        /* \"codes/FoodTraceability.sol\":2746:2763  batches[_batchId] */\n      mload(0x40)\n      tag_82\n      swap2\n      swap1\n      tag_83\n      jump\t// in\n    tag_82:\n      swap1\n      dup2\n      mstore\n      0x20\n      add\n      mload(0x40)\n      dup1\n      swap2\n      sub\n      swap1\n      keccak256\n        /* \"codes/FoodTraceability.sol\":2746:2772  batches[_batchId].isActive */\n      0x04\n      add\n      0x14\n      swap1\n      sload\n      swap1\n      0x0100\n      exp\n      swap1\n      div\n      0xff\n      and\n        /* \"codes/FoodTraceability.sol\":2738:2812  require(batches[_batchId].isActive, \"Batch does not exist or is inactive\") */\n      tag_84\n      jumpi\n      mload(0x40)\n      0x08c379a000000000000000000000000000000000000000000000000000000000\n      dup2\n      mstore\n      0x04\n      add\n      tag_85\n      swap1\n      tag_86\n      jump\t// in\n    tag_85:\n      mload(0x40)\n      dup1\n      swap2\n      sub\n      swap1\n      revert\n    tag_84:\n        /* \"codes/FoodTraceability.sol\":7155:7160  false */\n      0x00\n        /* \"codes/FoodTraceability.sol\":7126:7133  batches */\n      0x00\n        /* \"codes/FoodTraceability.sol\":7134:7142  _batchId */\n      dup5\n        /* \"codes/FoodTraceability.sol\":7126:7143  batches[_batchId] */\n      mload(0x40)\n      tag_88\n      swap2\n      swap1\n      tag_83\n      jump\t// in\n    tag_88:\n      swap1\n      dup2\n      mstore\n      0x20\n      add\n      mload(0x40)\n      dup1\n      swap2\n      sub\n      swap1\n      keccak256\n        /* \"codes/FoodTraceability.sol\":7126:7152  batches[_batchId].isActive */\n      0x04\n      add\n      0x14\n        /* \"codes/FoodTraceability.sol\":7126:7160  batches[_batchId].isActive = false */\n      0x0100\n      exp\n      dup2\n      sload\n      dup2\n      0xff\n      mul\n      not\n      and\n      swap1\n      dup4\n      iszero\n      iszero\n      mul\n      or\n      swap1\n      sstore\n      pop\n        /* \"codes/FoodTraceability.sol\":2669:2670  _ */\n      pop\n        /* \"codes/FoodTraceability.sol\":6983:7167  function deactivateBatch(string memory _batchId)... */\n      pop\n      pop\n      jump\t// out\n        /* \"codes/FoodTraceability.sol\":3879:3976  function getRole(address _addr) external view returns (Role) {... */\n    tag_23:\n        /* \"codes/FoodTraceability.sol\":3934:3938  Role */\n      0x00\n        /* \"codes/FoodTraceability.sol\":3957:3962  roles */\n      0x02\n        /* \"codes/FoodTraceability.sol\":3957:3969  roles[_addr] */\n      0x00\n        /* \"codes/FoodTraceability.sol\":3963:3968  _addr */\n      dup4\n        /* \"codes/FoodTraceability.sol\":3957:3969  roles[_addr] */\n      0xffffffffffffffffffffffffffffffffffffffff\n      and\n      0xffffffffffffffffffffffffffffffffffffffff\n      and\n      dup2\n      mstore\n      0x20\n      add\n      swap1\n      dup2\n      mstore\n      0x20\n      add\n      0x00\n      keccak256\n      0x00\n      swap1\n      sload\n      swap1\n      0x0100\n      exp\n      swap1\n      div\n      0xff\n      and\n        /* \"codes/FoodTraceability.sol\":3950:3969  return roles[_addr] */\n      swap1\n      pop\n        /* \"codes/FoodTraceability.sol\":3879:3976  function getRole(address _addr) external view returns (Role) {... */\n      swap2\n      swap1\n      pop\n      jump\t// out\n        /* \"codes/FoodTraceability.sol\":3608:3752  function assignRole(address _addr, Role _role) external onlyOwner {... */\n    tag_29:\n        /* \"codes/FoodTraceability.sol\":2494:2499  owner */\n      0x03\n      0x00\n      swap1\n      sload\n      swap1\n      0x0100\n      exp\n      swap1\n      div\n      0xffffffffffffffffffffffffffffffffffffffff\n      and\n        /* \"codes/FoodTraceability.sol\":2480:2499  msg.sender == owner */\n      0xffffffffffffffffffffffffffffffffffffffff\n      and\n        /* \"codes/FoodTraceability.sol\":2480:2490  msg.sender */\n      caller\n        /* \"codes/FoodTraceability.sol\":2480:2499  msg.sender == owner */\n      0xffffffffffffffffffffffffffffffffffffffff\n      and\n      eq\n        /* \"codes/FoodTraceability.sol\":2472:2528  require(msg.sender == owner, \"Only owner can call this\") */\n      tag_91\n      jumpi\n      mload(0x40)\n      0x08c379a000000000000000000000000000000000000000000000000000000000\n      dup2\n      mstore\n      0x04\n      add\n      tag_92\n      swap1\n      tag_93\n      jump\t// in\n    tag_92:\n      mload(0x40)\n      dup1\n      swap2\n      sub\n      swap1\n      revert\n    tag_91:\n        /* \"codes/FoodTraceability.sol\":3699:3704  _role */\n      dup1\n        /* \"codes/FoodTraceability.sol\":3684:3689  roles */\n      0x02\n        /* \"codes/FoodTraceability.sol\":3684:3696  roles[_addr] */\n      0x00\n        /* \"codes/FoodTraceability.sol\":3690:3695  _addr */\n      dup5\n        /* \"codes/FoodTraceability.sol\":3684:3696  roles[_addr] */\n      0xffffffffffffffffffffffffffffffffffffffff\n      and\n      0xffffffffffffffffffffffffffffffffffffffff\n      and\n      dup2\n      mstore\n      0x20\n      add\n      swap1\n      dup2\n      mstore\n      0x20\n      add\n      0x00\n      keccak256\n      0x00\n        /* \"codes/FoodTraceability.sol\":3684:3704  roles[_addr] = _role */\n      0x0100\n      exp\n      dup2\n      sload\n      dup2\n      0xff\n      mul\n      not\n      and\n      swap1\n      dup4\n      0x05\n      dup2\n      gt\n      iszero\n      tag_95\n      jumpi\n      tag_96\n      tag_75\n      jump\t// in\n    tag_96:\n    tag_95:\n      mul\n      or\n      swap1\n      sstore\n      pop\n        /* \"codes/FoodTraceability.sol\":3732:3737  _addr */\n      dup2\n        /* \"codes/FoodTraceability.sol\":3719:3745  RoleAssigned(_addr, _role) */\n      0xffffffffffffffffffffffffffffffffffffffff\n      and\n      0x4ac36fa53f167ceb85964be512e01de2a3b8bdb9862f917da079deeeff689b38\n        /* \"codes/FoodTraceability.sol\":3739:3744  _role */\n      dup3\n        /* \"codes/FoodTraceability.sol\":3719:3745  RoleAssigned(_addr, _role) */\n      mload(0x40)\n      tag_97\n      swap2\n      swap1\n      tag_25\n      jump\t// in\n    tag_97:\n      mload(0x40)\n      dup1\n      swap2\n      sub\n      swap1\n      log2\n        /* \"codes/FoodTraceability.sol\":3608:3752  function assignRole(address _addr, Role _role) external onlyOwner {... */\n      pop\n      pop\n      jump\t// out\n        /* \"codes/FoodTraceability.sol\":6054:6850  function addTraceRecord(... */\n    tag_33:\n        /* \"codes/FoodTraceability.sol\":6237:6245  _batchId */\n      dup4\n        /* \"codes/FoodTraceability.sol\":2746:2753  batches */\n      0x00\n        /* \"codes/FoodTraceability.sol\":2754:2762  _batchId */\n      dup2\n        /* \"codes/FoodTraceability.sol\":2746:2763  batches[_batchId] */\n      mload(0x40)\n      tag_99\n      swap2\n      swap1\n      tag_83\n      jump\t// in\n    tag_99:\n      swap1\n      dup2\n      mstore\n      0x20\n      add\n      mload(0x40)\n      dup1\n      swap2\n      sub\n      swap1\n      keccak256\n        /* \"codes/FoodTraceability.sol\":2746:2772  batches[_batchId].isActive */\n      0x04\n      add\n      0x14\n      swap1\n      sload\n      swap1\n      0x0100\n      exp\n      swap1\n      div\n      0xff\n      and\n        /* \"codes/FoodTraceability.sol\":2738:2812  require(batches[_batchId].isActive, \"Batch does not exist or is inactive\") */\n      tag_100\n      jumpi\n      mload(0x40)\n      0x08c379a000000000000000000000000000000000000000000000000000000000\n      dup2\n      mstore\n      0x04\n      add\n      tag_101\n      swap1\n      tag_86\n      jump\t// in\n    tag_101:\n      mload(0x40)\n      dup1\n      swap2\n      sub\n      swap1\n      revert\n    tag_100:\n        /* \"codes/FoodTraceability.sol\":2912:2921  Role.None */\n      0x00\n        /* \"codes/FoodTraceability.sol\":2891:2921  roles[msg.sender] != Role.None */\n      0x05\n      dup2\n      gt\n      iszero\n      tag_103\n      jumpi\n      tag_104\n      tag_75\n      jump\t// in\n    tag_104:\n    tag_103:\n        /* \"codes/FoodTraceability.sol\":2891:2896  roles */\n      0x02\n        /* \"codes/FoodTraceability.sol\":2891:2908  roles[msg.sender] */\n      0x00\n        /* \"codes/FoodTraceability.sol\":2897:2907  msg.sender */\n      caller\n        /* \"codes/FoodTraceability.sol\":2891:2908  roles[msg.sender] */\n      0xffffffffffffffffffffffffffffffffffffffff\n      and\n      0xffffffffffffffffffffffffffffffffffffffff\n      and\n      dup2\n      mstore\n      0x20\n      add\n      swap1\n      dup2\n      mstore\n      0x20\n      add\n      0x00\n      keccak256\n      0x00\n      swap1\n      sload\n      swap1\n      0x0100\n      exp\n      swap1\n      div\n      0xff\n      and\n        /* \"codes/FoodTraceability.sol\":2891:2921  roles[msg.sender] != Role.None */\n      0x05\n      dup2\n      gt\n      iszero\n      tag_105\n      jumpi\n      tag_106\n      tag_75\n      jump\t// in\n    tag_106:\n    tag_105:\n      sub\n        /* \"codes/FoodTraceability.sol\":2883:2964  require(roles[msg.sender] != Role.None, \"Caller is not a registered participant\") */\n      tag_107\n      jumpi\n      mload(0x40)\n      0x08c379a000000000000000000000000000000000000000000000000000000000\n      dup2\n      mstore\n      0x04\n      add\n      tag_108\n      swap1\n      tag_109\n      jump\t// in\n    tag_108:\n      mload(0x40)\n      dup1\n      swap2\n      sub\n      swap1\n      revert\n    tag_107:\n        /* \"codes/FoodTraceability.sol\":6284:6296  traceHistory */\n      0x01\n        /* \"codes/FoodTraceability.sol\":6297:6305  _batchId */\n      dup6\n        /* \"codes/FoodTraceability.sol\":6284:6306  traceHistory[_batchId] */\n      mload(0x40)\n      tag_111\n      swap2\n      swap1\n      tag_83\n      jump\t// in\n    tag_111:\n      swap1\n      dup2\n      mstore\n      0x20\n      add\n      mload(0x40)\n      dup1\n      swap2\n      sub\n      swap1\n      keccak256\n        /* \"codes/FoodTraceability.sol\":6312:6567  TraceRecord({... */\n      mload(0x40)\n      dup1\n      0xc0\n      add\n      0x40\n      mstore\n      dup1\n        /* \"codes/FoodTraceability.sol\":6351:6361  msg.sender */\n      caller\n        /* \"codes/FoodTraceability.sol\":6312:6567  TraceRecord({... */\n      0xffffffffffffffffffffffffffffffffffffffff\n      and\n      dup2\n      mstore\n      0x20\n      add\n        /* \"codes/FoodTraceability.sol\":6388:6393  roles */\n      0x02\n        /* \"codes/FoodTraceability.sol\":6388:6405  roles[msg.sender] */\n      0x00\n        /* \"codes/FoodTraceability.sol\":6394:6404  msg.sender */\n      caller\n        /* \"codes/FoodTraceability.sol\":6388:6405  roles[msg.sender] */\n      0xffffffffffffffffffffffffffffffffffffffff\n      and\n      0xffffffffffffffffffffffffffffffffffffffff\n      and\n      dup2\n      mstore\n      0x20\n      add\n      swap1\n      dup2\n      mstore\n      0x20\n      add\n      0x00\n      keccak256\n      0x00\n      swap1\n      sload\n      swap1\n      0x0100\n      exp\n      swap1\n      div\n      0xff\n      and\n        /* \"codes/FoodTraceability.sol\":6312:6567  TraceRecord({... */\n      0x05\n      dup2\n      gt\n      iszero\n      tag_112\n      jumpi\n      tag_113\n      tag_75\n      jump\t// in\n    tag_113:\n    tag_112:\n      dup2\n      mstore\n      0x20\n      add\n        /* \"codes/FoodTraceability.sol\":6432:6441  _location */\n      dup7\n        /* \"codes/FoodTraceability.sol\":6312:6567  TraceRecord({... */\n      dup2\n      mstore\n      0x20\n      add\n        /* \"codes/FoodTraceability.sol\":6468:6475  _action */\n      dup6\n        /* \"codes/FoodTraceability.sol\":6312:6567  TraceRecord({... */\n      dup2\n      mstore\n      0x20\n      add\n        /* \"codes/FoodTraceability.sol\":6502:6514  _temperature */\n      dup5\n        /* \"codes/FoodTraceability.sol\":6312:6567  TraceRecord({... */\n      dup2\n      mstore\n      0x20\n      add\n        /* \"codes/FoodTraceability.sol\":6541:6556  block.timestamp */\n      timestamp\n        /* \"codes/FoodTraceability.sol\":6312:6567  TraceRecord({... */\n      dup2\n      mstore\n      pop\n        /* \"codes/FoodTraceability.sol\":6284:6568  traceHistory[_batchId].push(TraceRecord({... */\n      swap1\n      dup1\n      0x01\n      dup2\n      sload\n      add\n      dup1\n      dup3\n      sstore\n      dup1\n      swap2\n      pop\n      pop\n      0x01\n      swap1\n      sub\n      swap1\n      0x00\n      mstore\n      keccak256(0x00, 0x20)\n      swap1\n      0x05\n      mul\n      add\n      0x00\n      swap1\n      swap2\n      swap1\n      swap2\n      swap1\n      swap2\n      pop\n      0x00\n      dup3\n      add\n      mload\n      dup2\n      0x00\n      add\n      exp(0x0100, 0x00)\n      dup2\n      sload\n      dup2\n      0xffffffffffffffffffffffffffffffffffffffff\n      mul\n      not\n      and\n      swap1\n      dup4\n      0xffffffffffffffffffffffffffffffffffffffff\n      and\n      mul\n      or\n      swap1\n      sstore\n      pop\n      0x20\n      dup3\n      add\n      mload\n      dup2\n      0x00\n      add\n      exp(0x0100, 0x14)\n      dup2\n      sload\n      dup2\n      0xff\n      mul\n      not\n      and\n      swap1\n      dup4\n      0x05\n      dup2\n      gt\n      iszero\n      tag_115\n      jumpi\n      tag_116\n      tag_75\n      jump\t// in\n    tag_116:\n    tag_115:\n      mul\n      or\n      swap1\n      sstore\n      pop\n      0x40\n      dup3\n      add\n      mload\n      dup2\n      0x01\n      add\n      swap1\n      dup2\n      tag_117\n      swap2\n      swap1\n      tag_118\n      jump\t// in\n    tag_117:\n      pop\n      0x60\n      dup3\n      add\n      mload\n      dup2\n      0x02\n      add\n      swap1\n      dup2\n      tag_119\n      swap2\n      swap1\n      tag_118\n      jump\t// in\n    tag_119:\n      pop\n      0x80\n      dup3\n      add\n      mload\n      dup2\n      0x03\n      add\n      sstore\n      0xa0\n      dup3\n      add\n      mload\n      dup2\n      0x04\n      add\n      sstore\n      pop\n      pop\n        /* \"codes/FoodTraceability.sol\":6683:6685  80 */\n      0x50\n        /* \"codes/FoodTraceability.sol\":6668:6680  _temperature */\n      dup3\n        /* \"codes/FoodTraceability.sol\":6668:6685  _temperature > 80 */\n      sgt\n        /* \"codes/FoodTraceability.sol\":6664:6769  if (_temperature > 80) {... */\n      iszero\n      tag_120\n      jumpi\n        /* \"codes/FoodTraceability.sol\":6723:6731  _batchId */\n      dup5\n        /* \"codes/FoodTraceability.sol\":6706:6758  TemperatureAlert(_batchId, _temperature, msg.sender) */\n      mload(0x40)\n      tag_121\n      swap2\n      swap1\n      tag_83\n      jump\t// in\n    tag_121:\n      mload(0x40)\n      dup1\n      swap2\n      sub\n      swap1\n      keccak256\n      0x26dc7d14878587176903d5487d42f16c5f65c16bdd4515f4d4b1759adca6644b\n        /* \"codes/FoodTraceability.sol\":6733:6745  _temperature */\n      dup4\n        /* \"codes/FoodTraceability.sol\":6747:6757  msg.sender */\n      caller\n        /* \"codes/FoodTraceability.sol\":6706:6758  TemperatureAlert(_batchId, _temperature, msg.sender) */\n      mload(0x40)\n      tag_122\n      swap3\n      swap2\n      swap1\n      tag_123\n      jump\t// in\n    tag_122:\n      mload(0x40)\n      dup1\n      swap2\n      sub\n      swap1\n      log2\n        /* \"codes/FoodTraceability.sol\":6664:6769  if (_temperature > 80) {... */\n    tag_120:\n        /* \"codes/FoodTraceability.sol\":6796:6804  _batchId */\n      dup5\n        /* \"codes/FoodTraceability.sol\":6784:6843  RecordAdded(_batchId, msg.sender, _action, block.timestamp) */\n      mload(0x40)\n      tag_124\n      swap2\n      swap1\n      tag_83\n      jump\t// in\n    tag_124:\n      mload(0x40)\n      dup1\n      swap2\n      sub\n      swap1\n      keccak256\n      0x6ab2ce4a47bf01ae08a862a18f5e8b1faf85f05c105bbb0298a7c831859da5e3\n        /* \"codes/FoodTraceability.sol\":6806:6816  msg.sender */\n      caller\n        /* \"codes/FoodTraceability.sol\":6818:6825  _action */\n      dup6\n        /* \"codes/FoodTraceability.sol\":6827:6842  block.timestamp */\n      timestamp\n        /* \"codes/FoodTraceability.sol\":6784:6843  RecordAdded(_batchId, msg.sender, _action, block.timestamp) */\n      mload(0x40)\n      tag_125\n      swap4\n      swap3\n      swap2\n      swap1\n      tag_126\n      jump\t// in\n    tag_125:\n      mload(0x40)\n      dup1\n      swap2\n      sub\n      swap1\n      log2\n        /* \"codes/FoodTraceability.sol\":6054:6850  function addTraceRecord(... */\n      pop\n      pop\n      pop\n      pop\n      pop\n      jump\t// out\n        /* \"codes/FoodTraceability.sol\":8385:8618  function getTraceCount(string memory _batchId)... */\n    tag_36:\n        /* \"codes/FoodTraceability.sol\":8471:8478  uint256 */\n      0x00\n        /* \"codes/FoodTraceability.sol\":8544:8545  0 */\n      0x00\n        /* \"codes/FoodTraceability.sol\":8508:8515  batches */\n      0x00\n        /* \"codes/FoodTraceability.sol\":8516:8524  _batchId */\n      dup4\n        /* \"codes/FoodTraceability.sol\":8508:8525  batches[_batchId] */\n      mload(0x40)\n      tag_128\n      swap2\n      swap1\n      tag_83\n      jump\t// in\n    tag_128:\n      swap1\n      dup2\n      mstore\n      0x20\n      add\n      mload(0x40)\n      dup1\n      swap2\n      sub\n      swap1\n      keccak256\n        /* \"codes/FoodTraceability.sol\":8508:8533  batches[_batchId].batchId */\n      0x00\n      add\n        /* \"codes/FoodTraceability.sol\":8502:8541  bytes(batches[_batchId].batchId).length */\n      dup1\n      sload\n      tag_129\n      swap1\n      tag_130\n      jump\t// in\n    tag_129:\n      swap1\n      pop\n        /* \"codes/FoodTraceability.sol\":8502:8545  bytes(batches[_batchId].batchId).length > 0 */\n      gt\n        /* \"codes/FoodTraceability.sol\":8494:8565  require(bytes(batches[_batchId].batchId).length > 0, \"Batch not found\") */\n      tag_131\n      jumpi\n      mload(0x40)\n      0x08c379a000000000000000000000000000000000000000000000000000000000\n      dup2\n      mstore\n      0x04\n      add\n      tag_132\n      swap1\n      tag_133\n      jump\t// in\n    tag_132:\n      mload(0x40)\n      dup1\n      swap2\n      sub\n      swap1\n      revert\n    tag_131:\n        /* \"codes/FoodTraceability.sol\":8582:8594  traceHistory */\n      0x01\n        /* \"codes/FoodTraceability.sol\":8595:8603  _batchId */\n      dup3\n        /* \"codes/FoodTraceability.sol\":8582:8604  traceHistory[_batchId] */\n      mload(0x40)\n      tag_134\n      swap2\n      swap1\n      tag_83\n      jump\t// in\n    tag_134:\n      swap1\n      dup2\n      mstore\n      0x20\n      add\n      mload(0x40)\n      dup1\n      swap2\n      sub\n      swap1\n      keccak256\n        /* \"codes/FoodTraceability.sol\":8582:8611  traceHistory[_batchId].length */\n      dup1\n      sload\n      swap1\n      pop\n        /* \"codes/FoodTraceability.sol\":8575:8611  return traceHistory[_batchId].length */\n      swap1\n      pop\n        /* \"codes/FoodTraceability.sol\":8385:8618  function getTraceCount(string memory _batchId)... */\n      swap2\n      swap1\n      pop\n      jump\t// out\n        /* \"codes/FoodTraceability.sol\":1620:1667  mapping(string => FoodBatch)     public batches */\n    tag_41:\n      0x00\n      dup2\n      dup1\n      mload\n      0x20\n      dup2\n      add\n      dup3\n      add\n      dup1\n      mload\n      dup5\n      dup3\n      mstore\n      0x20\n      dup4\n      add\n      0x20\n      dup6\n      add\n      keccak256\n      dup2\n      dup4\n      mstore\n      dup1\n      swap6\n      pop\n      pop\n      pop\n      pop\n      pop\n      pop\n      0x00\n      swap2\n      pop\n      swap1\n      pop\n      dup1\n      0x00\n      add\n      dup1\n      sload\n      tag_135\n      swap1\n      tag_130\n      jump\t// in\n    tag_135:\n      dup1\n      0x1f\n      add\n      0x20\n      dup1\n      swap2\n      div\n      mul\n      0x20\n      add\n      mload(0x40)\n      swap1\n      dup2\n      add\n      0x40\n      mstore\n      dup1\n      swap3\n      swap2\n      swap1\n      dup2\n      dup2\n      mstore\n      0x20\n      add\n      dup3\n      dup1\n      sload\n      tag_136\n      swap1\n      tag_130\n      jump\t// in\n    tag_136:\n      dup1\n      iszero\n      tag_137\n      jumpi\n      dup1\n      0x1f\n      lt\n      tag_138\n      jumpi\n      0x0100\n      dup1\n      dup4\n      sload\n      div\n      mul\n      dup4\n      mstore\n      swap2\n      0x20\n      add\n      swap2\n      jump(tag_137)\n    tag_138:\n      dup3\n      add\n      swap2\n      swap1\n      0x00\n      mstore\n      keccak256(0x00, 0x20)\n      swap1\n    tag_139:\n      dup2\n      sload\n      dup2\n      mstore\n      swap1\n      0x01\n      add\n      swap1\n      0x20\n      add\n      dup1\n      dup4\n      gt\n      tag_139\n      jumpi\n      dup3\n      swap1\n      sub\n      0x1f\n      and\n      dup3\n      add\n      swap2\n    tag_137:\n      pop\n      pop\n      pop\n      pop\n      pop\n      swap1\n      dup1\n      0x01\n      add\n      dup1\n      sload\n      tag_140\n      swap1\n      tag_130\n      jump\t// in\n    tag_140:\n      dup1\n      0x1f\n      add\n      0x20\n      dup1\n      swap2\n      div\n      mul\n      0x20\n      add\n      mload(0x40)\n      swap1\n      dup2\n      add\n      0x40\n      mstore\n      dup1\n      swap3\n      swap2\n      swap1\n      dup2\n      dup2\n      mstore\n      0x20\n      add\n      dup3\n      dup1\n      sload\n      tag_141\n      swap1\n      tag_130\n      jump\t// in\n    tag_141:\n      dup1\n      iszero\n      tag_142\n      jumpi\n      dup1\n      0x1f\n      lt\n      tag_143\n      jumpi\n      0x0100\n      dup1\n      dup4\n      sload\n      div\n      mul\n      dup4\n      mstore\n      swap2\n      0x20\n      add\n      swap2\n      jump(tag_142)\n    tag_143:\n      dup3\n      add\n      swap2\n      swap1\n      0x00\n      mstore\n      keccak256(0x00, 0x20)\n      swap1\n    tag_144:\n      dup2\n      sload\n      dup2\n      mstore\n      swap1\n      0x01\n      add\n      swap1\n      0x20\n      add\n      dup1\n      dup4\n      gt\n      tag_144\n      jumpi\n      dup3\n      swap1\n      sub\n      0x1f\n      and\n      dup3\n      add\n      swap2\n    tag_142:\n      pop\n      pop\n      pop\n      pop\n      pop\n      swap1\n      dup1\n      0x02\n      add\n      dup1\n      sload\n      tag_145\n      swap1\n      tag_130\n      jump\t// in\n    tag_145:\n      dup1\n      0x1f\n      add\n      0x20\n      dup1\n      swap2\n      div\n      mul\n      0x20\n      add\n      mload(0x40)\n      swap1\n      dup2\n      add\n      0x40\n      mstore\n      dup1\n      swap3\n      swap2\n      swap1\n      dup2\n      dup2\n      mstore\n      0x20\n      add\n      dup3\n      dup1\n      sload\n      tag_146\n      swap1\n      tag_130\n      jump\t// in\n    tag_146:\n      dup1\n      iszero\n      tag_147\n      jumpi\n      dup1\n      0x1f\n      lt\n      tag_148\n      jumpi\n      0x0100\n      dup1\n      dup4\n      sload\n      div\n      mul\n      dup4\n      mstore\n      swap2\n      0x20\n      add\n      swap2\n      jump(tag_147)\n    tag_148:\n      dup3\n      add\n      swap2\n      swap1\n      0x00\n      mstore\n      keccak256(0x00, 0x20)\n      swap1\n    tag_149:\n      dup2\n      sload\n      dup2\n      mstore\n      swap1\n      0x01\n      add\n      swap1\n      0x20\n      add\n      dup1\n      dup4\n      gt\n      tag_149\n      jumpi\n      dup3\n      swap1\n      sub\n      0x1f\n      and\n      dup3\n      add\n      swap2\n    tag_147:\n      pop\n      pop\n      pop\n      pop\n      pop\n      swap1\n      dup1\n      0x03\n      add\n      sload\n      swap1\n      dup1\n      0x04\n      add\n      0x00\n      swap1\n      sload\n      swap1\n      0x0100\n      exp\n      swap1\n      div\n      0xffffffffffffffffffffffffffffffffffffffff\n      and\n      swap1\n      dup1\n      0x04\n      add\n      0x14\n      swap1\n      sload\n      swap1\n      0x0100\n      exp\n      swap1\n      div\n      0xff\n      and\n      swap1\n      pop\n      dup7\n      jump\t// out\n        /* \"codes/FoodTraceability.sol\":1782:1802  address public owner */\n    tag_45:\n      0x03\n      0x00\n      swap1\n      sload\n      swap1\n      0x0100\n      exp\n      swap1\n      div\n      0xffffffffffffffffffffffffffffffffffffffff\n      and\n      dup2\n      jump\t// out\n        /* \"codes/FoodTraceability.sol\":1731:1776  mapping(address => Role)         public roles */\n    tag_50:\n      mstore(0x20, 0x02)\n      dup1\n      0x00\n      mstore\n      keccak256(0x00, 0x40)\n      0x00\n      swap2\n      pop\n      sload\n      swap1\n      0x0100\n      exp\n      swap1\n      div\n      0xff\n      and\n      dup2\n      jump\t// out\n        /* \"codes/FoodTraceability.sol\":7906:8216  function getBatchHistory(string memory _batchId)... */\n    tag_54:\n        /* \"codes/FoodTraceability.sol\":7994:8014  TraceRecord[] memory */\n      0x60\n        /* \"codes/FoodTraceability.sol\":8149:8150  0 */\n      0x00\n        /* \"codes/FoodTraceability.sol\":8113:8120  batches */\n      0x00\n        /* \"codes/FoodTraceability.sol\":8121:8129  _batchId */\n      dup4\n        /* \"codes/FoodTraceability.sol\":8113:8130  batches[_batchId] */\n      mload(0x40)\n      tag_151\n      swap2\n      swap1\n      tag_83\n      jump\t// in\n    tag_151:\n      swap1\n      dup2\n      mstore\n      0x20\n      add\n      mload(0x40)\n      dup1\n      swap2\n      sub\n      swap1\n      keccak256\n        /* \"codes/FoodTraceability.sol\":8113:8138  batches[_batchId].batchId */\n      0x00\n      add\n        /* \"codes/FoodTraceability.sol\":8107:8146  bytes(batches[_batchId].batchId).length */\n      dup1\n      sload\n      tag_152\n      swap1\n      tag_130\n      jump\t// in\n    tag_152:\n      swap1\n      pop\n        /* \"codes/FoodTraceability.sol\":8107:8150  bytes(batches[_batchId].batchId).length > 0 */\n      gt\n        /* \"codes/FoodTraceability.sol\":8099:8170  require(bytes(batches[_batchId].batchId).length > 0, \"Batch not found\") */\n      tag_153\n      jumpi\n      mload(0x40)\n      0x08c379a000000000000000000000000000000000000000000000000000000000\n      dup2\n      mstore\n      0x04\n      add\n      tag_154\n      swap1\n      tag_133\n      jump\t// in\n    tag_154:\n      mload(0x40)\n      dup1\n      swap2\n      sub\n      swap1\n      revert\n    tag_153:\n        /* \"codes/FoodTraceability.sol\":8187:8199  traceHistory */\n      0x01\n        /* \"codes/FoodTraceability.sol\":8200:8208  _batchId */\n      dup3\n        /* \"codes/FoodTraceability.sol\":8187:8209  traceHistory[_batchId] */\n      mload(0x40)\n      tag_155\n      swap2\n      swap1\n      tag_83\n      jump\t// in\n    tag_155:\n      swap1\n      dup2\n      mstore\n      0x20\n      add\n      mload(0x40)\n      dup1\n      swap2\n      sub\n      swap1\n      keccak256\n        /* \"codes/FoodTraceability.sol\":8180:8209  return traceHistory[_batchId] */\n      dup1\n      sload\n      dup1\n      0x20\n      mul\n      0x20\n      add\n      mload(0x40)\n      swap1\n      dup2\n      add\n      0x40\n      mstore\n      dup1\n      swap3\n      swap2\n      swap1\n      dup2\n      dup2\n      mstore\n      0x20\n      add\n      0x00\n      swap1\n    tag_156:\n      dup3\n      dup3\n      lt\n      iszero\n      tag_157\n      jumpi\n      dup4\n      dup3\n      swap1\n      0x00\n      mstore\n      keccak256(0x00, 0x20)\n      swap1\n      0x05\n      mul\n      add\n      mload(0x40)\n      dup1\n      0xc0\n      add\n      0x40\n      mstore\n      swap1\n      dup2\n      0x00\n      dup3\n      add\n      0x00\n      swap1\n      sload\n      swap1\n      0x0100\n      exp\n      swap1\n      div\n      0xffffffffffffffffffffffffffffffffffffffff\n      and\n      0xffffffffffffffffffffffffffffffffffffffff\n      and\n      0xffffffffffffffffffffffffffffffffffffffff\n      and\n      dup2\n      mstore\n      0x20\n      add\n      0x00\n      dup3\n      add\n      0x14\n      swap1\n      sload\n      swap1\n      0x0100\n      exp\n      swap1\n      div\n      0xff\n      and\n      0x05\n      dup2\n      gt\n      iszero\n      tag_159\n      jumpi\n      tag_160\n      tag_75\n      jump\t// in\n    tag_160:\n    tag_159:\n      0x05\n      dup2\n      gt\n      iszero\n      tag_161\n      jumpi\n      tag_162\n      tag_75\n      jump\t// in\n    tag_162:\n    tag_161:\n      dup2\n      mstore\n      0x20\n      add\n      0x01\n      dup3\n      add\n      dup1\n      sload\n      tag_163\n      swap1\n      tag_130\n      jump\t// in\n    tag_163:\n      dup1\n      0x1f\n      add\n      0x20\n      dup1\n      swap2\n      div\n      mul\n      0x20\n      add\n      mload(0x40)\n      swap1\n      dup2\n      add\n      0x40\n      mstore\n      dup1\n      swap3\n      swap2\n      swap1\n      dup2\n      dup2\n      mstore\n      0x20\n      add\n      dup3\n      dup1\n      sload\n      tag_164\n      swap1\n      tag_130\n      jump\t// in\n    tag_164:\n      dup1\n      iszero\n      tag_165\n      jumpi\n      dup1\n      0x1f\n      lt\n      tag_166\n      jumpi\n      0x0100\n      dup1\n      dup4\n      sload\n      div\n      mul\n      dup4\n      mstore\n      swap2\n      0x20\n      add\n      swap2\n      jump(tag_165)\n    tag_166:\n      dup3\n      add\n      swap2\n      swap1\n      0x00\n      mstore\n      keccak256(0x00, 0x20)\n      swap1\n    tag_167:\n      dup2\n      sload\n      dup2\n      mstore\n      swap1\n      0x01\n      add\n      swap1\n      0x20\n      add\n      dup1\n      dup4\n      gt\n      tag_167\n      jumpi\n      dup3\n      swap1\n      sub\n      0x1f\n      and\n      dup3\n      add\n      swap2\n    tag_165:\n      pop\n      pop\n      pop\n      pop\n      pop\n      dup2\n      mstore\n      0x20\n      add\n      0x02\n      dup3\n      add\n      dup1\n      sload\n      tag_168\n      swap1\n      tag_130\n      jump\t// in\n    tag_168:\n      dup1\n      0x1f\n      add\n      0x20\n      dup1\n      swap2\n      div\n      mul\n      0x20\n      add\n      mload(0x40)\n      swap1\n      dup2\n      add\n      0x40\n      mstore\n      dup1\n      swap3\n      swap2\n      swap1\n      dup2\n      dup2\n      mstore\n      0x20\n      add\n      dup3\n      dup1\n      sload\n      tag_169\n      swap1\n      tag_130\n      jump\t// in\n    tag_169:\n      dup1\n      iszero\n      tag_170\n      jumpi\n      dup1\n      0x1f\n      lt\n      tag_171\n      jumpi\n      0x0100\n      dup1\n      dup4\n      sload\n      div\n      mul\n      dup4\n      mstore\n      swap2\n      0x20\n      add\n      swap2\n      jump(tag_170)\n    tag_171:\n      dup3\n      add\n      swap2\n      swap1\n      0x00\n      mstore\n      keccak256(0x00, 0x20)\n      swap1\n    tag_172:\n      dup2\n      sload\n      dup2\n      mstore\n      swap1\n      0x01\n      add\n      swap1\n      0x20\n      add\n      dup1\n      dup4\n      gt\n      tag_172\n      jumpi\n      dup3\n      swap1\n      sub\n      0x1f\n      and\n      dup3\n      add\n      swap2\n    tag_170:\n      pop\n      pop\n      pop\n      pop\n      pop\n      dup2\n      mstore\n      0x20\n      add\n      0x03\n      dup3\n      add\n      sload\n      dup2\n      mstore\n      0x20\n      add\n      0x04\n      dup3\n      add\n      sload\n      dup2\n      mstore\n      pop\n      pop\n      dup2\n      mstore\n      0x20\n      add\n      swap1\n      0x01\n      add\n      swap1\n      jump(tag_156)\n    tag_157:\n      pop\n      pop\n      pop\n      pop\n      swap1\n      pop\n        /* \"codes/FoodTraceability.sol\":7906:8216  function getBatchHistory(string memory _batchId)... */\n      swap2\n      swap1\n      pop\n      jump\t// out\n        /* \"codes/FoodTraceability.sol\":1673:1725  mapping(string => TraceRecord[]) public traceHistory */\n    tag_60:\n      0x01\n      dup3\n      dup1\n      mload\n      0x20\n      dup2\n      add\n      dup3\n      add\n      dup1\n      mload\n      dup5\n      dup3\n      mstore\n      0x20\n      dup4\n      add\n      0x20\n      dup6\n      add\n      keccak256\n      dup2\n      dup4\n      mstore\n      dup1\n      swap6\n      pop\n      pop\n      pop\n      pop\n      pop\n      pop\n      dup2\n      dup2\n      sload\n      dup2\n      lt\n      tag_173\n      jumpi\n      0x00\n      dup1\n      revert\n    tag_173:\n      swap1\n      0x00\n      mstore\n      keccak256(0x00, 0x20)\n      swap1\n      0x05\n      mul\n      add\n      0x00\n      swap2\n      pop\n      swap2\n      pop\n      pop\n      dup1\n      0x00\n      add\n      0x00\n      swap1\n      sload\n      swap1\n      0x0100\n      exp\n      swap1\n      div\n      0xffffffffffffffffffffffffffffffffffffffff\n      and\n      swap1\n      dup1\n      0x00\n      add\n      0x14\n      swap1\n      sload\n      swap1\n      0x0100\n      exp\n      swap1\n      div\n      0xff\n      and\n      swap1\n      dup1\n      0x01\n      add\n      dup1\n      sload\n      tag_175\n      swap1\n      tag_130\n      jump\t// in\n    tag_175:\n      dup1\n      0x1f\n      add\n      0x20\n      dup1\n      swap2\n      div\n      mul\n      0x20\n      add\n      mload(0x40)\n      swap1\n      dup2\n      add\n      0x40\n      mstore\n      dup1\n      swap3\n      swap2\n      swap1\n      dup2\n      dup2\n      mstore\n      0x20\n      add\n      dup3\n      dup1\n      sload\n      tag_176\n      swap1\n      tag_130\n      jump\t// in\n    tag_176:\n      dup1\n      iszero\n      tag_177\n      jumpi\n      dup1\n      0x1f\n      lt\n      tag_178\n      jumpi\n      0x0100\n      dup1\n      dup4\n      sload\n      div\n      mul\n      dup4\n      mstore\n      swap2\n      0x20\n      add\n      swap2\n      jump(tag_177)\n    tag_178:\n      dup3\n      add\n      swap2\n      swap1\n      0x00\n      mstore\n      keccak256(0x00, 0x20)\n      swap1\n    tag_179:\n      dup2\n      sload\n      dup2\n      mstore\n      swap1\n      0x01\n      add\n      swap1\n      0x20\n      add\n      dup1\n      dup4\n      gt\n      tag_179\n      jumpi\n      dup3\n      swap1\n      sub\n      0x1f\n      and\n      dup3\n      add\n      swap2\n    tag_177:\n      pop\n      pop\n      pop\n      pop\n      pop\n      swap1\n      dup1\n      0x02\n      add\n      dup1\n      sload\n      tag_180\n      swap1\n      tag_130\n      jump\t// in\n    tag_180:\n      dup1\n      0x1f\n      add\n      0x20\n      dup1\n      swap2\n      div\n      mul\n      0x20\n      add\n      mload(0x40)\n      swap1\n      dup2\n      add\n      0x40\n      mstore\n      dup1\n      swap3\n      swap2\n      swap1\n      dup2\n      dup2\n      mstore\n      0x20\n      add\n      dup3\n      dup1\n      sload\n      tag_181\n      swap1\n      tag_130\n      jump\t// in\n    tag_181:\n      dup1\n      iszero\n      tag_182\n      jumpi\n      dup1\n      0x1f\n      lt\n      tag_183\n      jumpi\n      0x0100\n      dup1\n      dup4\n      sload\n      div\n      mul\n      dup4\n      mstore\n      swap2\n      0x20\n      add\n      swap2\n      jump(tag_182)\n    tag_183:\n      dup3\n      add\n      swap2\n      swap1\n      0x00\n      mstore\n      keccak256(0x00, 0x20)\n      swap1\n    tag_184:\n      dup2\n      sload\n      dup2\n      mstore\n      swap1\n      0x01\n      add\n      swap1\n      0x20\n      add\n      dup1\n      dup4\n      gt\n      tag_184\n      jumpi\n      dup3\n      swap1\n      sub\n      0x1f\n      and\n      dup3\n      add\n      swap2\n    tag_182:\n      pop\n      pop\n      pop\n      pop\n      pop\n      swap1\n      dup1\n      0x03\n      add\n      sload\n      swap1\n      dup1\n      0x04\n      add\n      sload\n      swap1\n      pop\n      dup7\n      jump\t// out\n        /* \"codes/FoodTraceability.sol\":4422:5757  function registerBatch(... */\n    tag_66:\n        /* \"codes/FoodTraceability.sol\":4601:4614  Role.Producer */\n      0x01\n        /* \"codes/FoodTraceability.sol\":2621:2626  _role */\n      dup1\n        /* \"codes/FoodTraceability.sol\":2600:2626  roles[msg.sender] == _role */\n      0x05\n      dup2\n      gt\n      iszero\n      tag_186\n      jumpi\n      tag_187\n      tag_75\n      jump\t// in\n    tag_187:\n    tag_186:\n        /* \"codes/FoodTraceability.sol\":2600:2605  roles */\n      0x02\n        /* \"codes/FoodTraceability.sol\":2600:2617  roles[msg.sender] */\n      0x00\n        /* \"codes/FoodTraceability.sol\":2606:2616  msg.sender */\n      caller\n        /* \"codes/FoodTraceability.sol\":2600:2617  roles[msg.sender] */\n      0xffffffffffffffffffffffffffffffffffffffff\n      and\n      0xffffffffffffffffffffffffffffffffffffffff\n      and\n      dup2\n      mstore\n      0x20\n      add\n      swap1\n      dup2\n      mstore\n      0x20\n      add\n      0x00\n      keccak256\n      0x00\n      swap1\n      sload\n      swap1\n      0x0100\n      exp\n      swap1\n      div\n      0xff\n      and\n        /* \"codes/FoodTraceability.sol\":2600:2626  roles[msg.sender] == _role */\n      0x05\n      dup2\n      gt\n      iszero\n      tag_188\n      jumpi\n      tag_189\n      tag_75\n      jump\t// in\n    tag_189:\n    tag_188:\n      eq\n        /* \"codes/FoodTraceability.sol\":2592:2659  require(roles[msg.sender] == _role, \"Unauthorized: incorrect role\") */\n      tag_190\n      jumpi\n      mload(0x40)\n      0x08c379a000000000000000000000000000000000000000000000000000000000\n      dup2\n      mstore\n      0x04\n      add\n      tag_191\n      swap1\n      tag_80\n      jump\t// in\n    tag_191:\n      mload(0x40)\n      dup1\n      swap2\n      sub\n      swap1\n      revert\n    tag_190:\n        /* \"codes/FoodTraceability.sol\":4659:4660  0 */\n      0x00\n        /* \"codes/FoodTraceability.sol\":4640:4648  _batchId */\n      dup6\n        /* \"codes/FoodTraceability.sol\":4634:4656  bytes(_batchId).length */\n      mload\n        /* \"codes/FoodTraceability.sol\":4634:4660  bytes(_batchId).length > 0 */\n      gt\n        /* \"codes/FoodTraceability.sol\":4626:4689  require(bytes(_batchId).length > 0, \"Batch ID cannot be empty\") */\n      tag_193\n      jumpi\n      mload(0x40)\n      0x08c379a000000000000000000000000000000000000000000000000000000000\n      dup2\n      mstore\n      0x04\n      add\n      tag_194\n      swap1\n      tag_195\n      jump\t// in\n    tag_194:\n      mload(0x40)\n      dup1\n      swap2\n      sub\n      swap1\n      revert\n    tag_193:\n        /* \"codes/FoodTraceability.sol\":4843:4844  0 */\n      0x00\n        /* \"codes/FoodTraceability.sol\":4806:4813  batches */\n      0x00\n        /* \"codes/FoodTraceability.sol\":4814:4822  _batchId */\n      dup7\n        /* \"codes/FoodTraceability.sol\":4806:4823  batches[_batchId] */\n      mload(0x40)\n      tag_196\n      swap2\n      swap1\n      tag_83\n      jump\t// in\n    tag_196:\n      swap1\n      dup2\n      mstore\n      0x20\n      add\n      mload(0x40)\n      dup1\n      swap2\n      sub\n      swap1\n      keccak256\n        /* \"codes/FoodTraceability.sol\":4806:4831  batches[_batchId].batchId */\n      0x00\n      add\n        /* \"codes/FoodTraceability.sol\":4800:4839  bytes(batches[_batchId].batchId).length */\n      dup1\n      sload\n      tag_197\n      swap1\n      tag_130\n      jump\t// in\n    tag_197:\n      swap1\n      pop\n        /* \"codes/FoodTraceability.sol\":4800:4844  bytes(batches[_batchId].batchId).length == 0 */\n      eq\n        /* \"codes/FoodTraceability.sol\":4792:4876  require(bytes(batches[_batchId].batchId).length == 0, \"Batch ID already registered\") */\n      tag_198\n      jumpi\n      mload(0x40)\n      0x08c379a000000000000000000000000000000000000000000000000000000000\n      dup2\n      mstore\n      0x04\n      add\n      tag_199\n      swap1\n      tag_200\n      jump\t// in\n    tag_199:\n      mload(0x40)\n      dup1\n      swap2\n      sub\n      swap1\n      revert\n    tag_198:\n        /* \"codes/FoodTraceability.sol\":4907:5164  FoodBatch({... */\n      mload(0x40)\n      dup1\n      0xc0\n      add\n      0x40\n      mstore\n      dup1\n        /* \"codes/FoodTraceability.sol\":4947:4955  _batchId */\n      dup7\n        /* \"codes/FoodTraceability.sol\":4907:5164  FoodBatch({... */\n      dup2\n      mstore\n      0x20\n      add\n        /* \"codes/FoodTraceability.sol\":4985:4997  _productName */\n      dup6\n        /* \"codes/FoodTraceability.sol\":4907:5164  FoodBatch({... */\n      dup2\n      mstore\n      0x20\n      add\n        /* \"codes/FoodTraceability.sol\":5027:5034  _origin */\n      dup5\n        /* \"codes/FoodTraceability.sol\":4907:5164  FoodBatch({... */\n      dup2\n      mstore\n      0x20\n      add\n        /* \"codes/FoodTraceability.sol\":5064:5079  _productionDate */\n      dup4\n        /* \"codes/FoodTraceability.sol\":4907:5164  FoodBatch({... */\n      dup2\n      mstore\n      0x20\n      add\n        /* \"codes/FoodTraceability.sol\":5109:5119  msg.sender */\n      caller\n        /* \"codes/FoodTraceability.sol\":4907:5164  FoodBatch({... */\n      0xffffffffffffffffffffffffffffffffffffffff\n      and\n      dup2\n      mstore\n      0x20\n      add\n        /* \"codes/FoodTraceability.sol\":5149:5153  true */\n      0x01\n        /* \"codes/FoodTraceability.sol\":4907:5164  FoodBatch({... */\n      iszero\n      iszero\n      dup2\n      mstore\n      pop\n        /* \"codes/FoodTraceability.sol\":4887:4894  batches */\n      0x00\n        /* \"codes/FoodTraceability.sol\":4895:4903  _batchId */\n      dup7\n        /* \"codes/FoodTraceability.sol\":4887:4904  batches[_batchId] */\n      mload(0x40)\n      tag_201\n      swap2\n      swap1\n      tag_83\n      jump\t// in\n    tag_201:\n      swap1\n      dup2\n      mstore\n      0x20\n      add\n      mload(0x40)\n      dup1\n      swap2\n      sub\n      swap1\n      keccak256\n        /* \"codes/FoodTraceability.sol\":4887:5164  batches[_batchId] = FoodBatch({... */\n      0x00\n      dup3\n      add\n      mload\n      dup2\n      0x00\n      add\n      swap1\n      dup2\n      tag_202\n      swap2\n      swap1\n      tag_118\n      jump\t// in\n    tag_202:\n      pop\n      0x20\n      dup3\n      add\n      mload\n      dup2\n      0x01\n      add\n      swap1\n      dup2\n      tag_203\n      swap2\n      swap1\n      tag_118\n      jump\t// in\n    tag_203:\n      pop\n      0x40\n      dup3\n      add\n      mload\n      dup2\n      0x02\n      add\n      swap1\n      dup2\n      tag_204\n      swap2\n      swap1\n      tag_118\n      jump\t// in\n    tag_204:\n      pop\n      0x60\n      dup3\n      add\n      mload\n      dup2\n      0x03\n      add\n      sstore\n      0x80\n      dup3\n      add\n      mload\n      dup2\n      0x04\n      add\n      exp(0x0100, 0x00)\n      dup2\n      sload\n      dup2\n      0xffffffffffffffffffffffffffffffffffffffff\n      mul\n      not\n      and\n      swap1\n      dup4\n      0xffffffffffffffffffffffffffffffffffffffff\n      and\n      mul\n      or\n      swap1\n      sstore\n      pop\n      0xa0\n      dup3\n      add\n      mload\n      dup2\n      0x04\n      add\n      exp(0x0100, 0x14)\n      dup2\n      sload\n      dup2\n      0xff\n      mul\n      not\n      and\n      swap1\n      dup4\n      iszero\n      iszero\n      mul\n      or\n      swap1\n      sstore\n      pop\n      swap1\n      pop\n      pop\n        /* \"codes/FoodTraceability.sol\":5220:5232  traceHistory */\n      0x01\n        /* \"codes/FoodTraceability.sol\":5233:5241  _batchId */\n      dup6\n        /* \"codes/FoodTraceability.sol\":5220:5242  traceHistory[_batchId] */\n      mload(0x40)\n      tag_205\n      swap2\n      swap1\n      tag_83\n      jump\t// in\n    tag_205:\n      swap1\n      dup2\n      mstore\n      0x20\n      add\n      mload(0x40)\n      dup1\n      swap2\n      sub\n      swap1\n      keccak256\n        /* \"codes/FoodTraceability.sol\":5248:5567  TraceRecord({... */\n      mload(0x40)\n      dup1\n      0xc0\n      add\n      0x40\n      mstore\n      dup1\n        /* \"codes/FoodTraceability.sol\":5287:5297  msg.sender */\n      caller\n        /* \"codes/FoodTraceability.sol\":5248:5567  TraceRecord({... */\n      0xffffffffffffffffffffffffffffffffffffffff\n      and\n      dup2\n      mstore\n      0x20\n      add\n        /* \"codes/FoodTraceability.sol\":5324:5337  Role.Producer */\n      0x01\n        /* \"codes/FoodTraceability.sol\":5248:5567  TraceRecord({... */\n      0x05\n      dup2\n      gt\n      iszero\n      tag_206\n      jumpi\n      tag_207\n      tag_75\n      jump\t// in\n    tag_207:\n    tag_206:\n      dup2\n      mstore\n      0x20\n      add\n        /* \"codes/FoodTraceability.sol\":5364:5371  _origin */\n      dup6\n        /* \"codes/FoodTraceability.sol\":5248:5567  TraceRecord({... */\n      dup2\n      mstore\n      0x20\n      add\n      mload(0x40)\n      dup1\n      0x60\n      add\n      0x40\n      mstore\n      dup1\n      0x2e\n      dup2\n      mstore\n      0x20\n      add\n      data_1226666703af27f64f82d0e5c2a4b4b54cb6d56ca6a543a6ff168a1b8128db96\n      0x2e\n      swap2\n      codecopy\n      dup2\n      mstore\n      0x20\n      add\n        /* \"codes/FoodTraceability.sol\":5473:5476  250 */\n      0xfa\n        /* \"codes/FoodTraceability.sol\":5248:5567  TraceRecord({... */\n      dup2\n      mstore\n      0x20\n      add\n        /* \"codes/FoodTraceability.sol\":5541:5556  block.timestamp */\n      timestamp\n        /* \"codes/FoodTraceability.sol\":5248:5567  TraceRecord({... */\n      dup2\n      mstore\n      pop\n        /* \"codes/FoodTraceability.sol\":5220:5568  traceHistory[_batchId].push(TraceRecord({... */\n      swap1\n      dup1\n      0x01\n      dup2\n      sload\n      add\n      dup1\n      dup3\n      sstore\n      dup1\n      swap2\n      pop\n      pop\n      0x01\n      swap1\n      sub\n      swap1\n      0x00\n      mstore\n      keccak256(0x00, 0x20)\n      swap1\n      0x05\n      mul\n      add\n      0x00\n      swap1\n      swap2\n      swap1\n      swap2\n      swap1\n      swap2\n      pop\n      0x00\n      dup3\n      add\n      mload\n      dup2\n      0x00\n      add\n      exp(0x0100, 0x00)\n      dup2\n      sload\n      dup2\n      0xffffffffffffffffffffffffffffffffffffffff\n      mul\n      not\n      and\n      swap1\n      dup4\n      0xffffffffffffffffffffffffffffffffffffffff\n      and\n      mul\n      or\n      swap1\n      sstore\n      pop\n      0x20\n      dup3\n      add\n      mload\n      dup2\n      0x00\n      add\n      exp(0x0100, 0x14)\n      dup2\n      sload\n      dup2\n      0xff\n      mul\n      not\n      and\n      swap1\n      dup4\n      0x05\n      dup2\n      gt\n      iszero\n      tag_209\n      jumpi\n      tag_210\n      tag_75\n      jump\t// in\n    tag_210:\n    tag_209:\n      mul\n      or\n      swap1\n      sstore\n      pop\n      0x40\n      dup3\n      add\n      mload\n      dup2\n      0x01\n      add\n      swap1\n      dup2\n      tag_211\n      swap2\n      swap1\n      tag_118\n      jump\t// in\n    tag_211:\n      pop\n      0x60\n      dup3\n      add\n      mload\n      dup2\n      0x02\n      add\n      swap1\n      dup2\n      tag_212\n      swap2\n      swap1\n      tag_118\n      jump\t// in\n    tag_212:\n      pop\n      0x80\n      dup3\n      add\n      mload\n      dup2\n      0x03\n      add\n      sstore\n      0xa0\n      dup3\n      add\n      mload\n      dup2\n      0x04\n      add\n      sstore\n      pop\n      pop\n        /* \"codes/FoodTraceability.sol\":5600:5608  _batchId */\n      dup5\n        /* \"codes/FoodTraceability.sol\":5584:5635  BatchRegistered(_batchId, _productName, msg.sender) */\n      mload(0x40)\n      tag_213\n      swap2\n      swap1\n      tag_83\n      jump\t// in\n    tag_213:\n      mload(0x40)\n      dup1\n      swap2\n      sub\n      swap1\n      keccak256\n      0xe187ef62f610f162883fdada619504c09c0981be2dc09fbc1029e7a09db45a93\n        /* \"codes/FoodTraceability.sol\":5610:5622  _productName */\n      dup6\n        /* \"codes/FoodTraceability.sol\":5624:5634  msg.sender */\n      caller\n        /* \"codes/FoodTraceability.sol\":5584:5635  BatchRegistered(_batchId, _productName, msg.sender) */\n      mload(0x40)\n      tag_214\n      swap3\n      swap2\n      swap1\n      tag_215\n      jump\t// in\n    tag_214:\n      mload(0x40)\n      dup1\n      swap2\n      sub\n      swap1\n      log2\n        /* \"codes/FoodTraceability.sol\":5662:5670  _batchId */\n      dup5\n        /* \"codes/FoodTraceability.sol\":5650:5750  RecordAdded(_batchId, msg.sender, \"Product harvested and registered on blockchain\", block.timestamp) */\n      mload(0x40)\n      tag_216\n      swap2\n      swap1\n      tag_83\n      jump\t// in\n    tag_216:\n      mload(0x40)\n      dup1\n      swap2\n      sub\n      swap1\n      keccak256\n      0x6ab2ce4a47bf01ae08a862a18f5e8b1faf85f05c105bbb0298a7c831859da5e3\n        /* \"codes/FoodTraceability.sol\":5672:5682  msg.sender */\n      caller\n        /* \"codes/FoodTraceability.sol\":5734:5749  block.timestamp */\n      timestamp\n        /* \"codes/FoodTraceability.sol\":5650:5750  RecordAdded(_batchId, msg.sender, \"Product harvested and registered on blockchain\", block.timestamp) */\n      mload(0x40)\n      tag_217\n      swap3\n      swap2\n      swap1\n      tag_218\n      jump\t// in\n    tag_217:\n      mload(0x40)\n      dup1\n      swap2\n      sub\n      swap1\n      log2\n        /* \"codes/FoodTraceability.sol\":4422:5757  function registerBatch(... */\n      pop\n      pop\n      pop\n      pop\n      pop\n      jump\t// out\n        /* \"codes/FoodTraceability.sol\":7460:7689  function getBatchInfo(string memory _batchId)... */\n    tag_69:\n        /* \"codes/FoodTraceability.sol\":7545:7561  FoodBatch memory */\n      tag_219\n      tag_220\n      jump\t// in\n    tag_219:\n        /* \"codes/FoodTraceability.sol\":7627:7628  0 */\n      0x00\n        /* \"codes/FoodTraceability.sol\":7591:7598  batches */\n      0x00\n        /* \"codes/FoodTraceability.sol\":7599:7607  _batchId */\n      dup4\n        /* \"codes/FoodTraceability.sol\":7591:7608  batches[_batchId] */\n      mload(0x40)\n      tag_222\n      swap2\n      swap1\n      tag_83\n      jump\t// in\n    tag_222:\n      swap1\n      dup2\n      mstore\n      0x20\n      add\n      mload(0x40)\n      dup1\n      swap2\n      sub\n      swap1\n      keccak256\n        /* \"codes/FoodTraceability.sol\":7591:7616  batches[_batchId].batchId */\n      0x00\n      add\n        /* \"codes/FoodTraceability.sol\":7585:7624  bytes(batches[_batchId].batchId).length */\n      dup1\n      sload\n      tag_223\n      swap1\n      tag_130\n      jump\t// in\n    tag_223:\n      swap1\n      pop\n        /* \"codes/FoodTraceability.sol\":7585:7628  bytes(batches[_batchId].batchId).length > 0 */\n      gt\n        /* \"codes/FoodTraceability.sol\":7577:7648  require(bytes(batches[_batchId].batchId).length > 0, \"Batch not found\") */\n      tag_224\n      jumpi\n      mload(0x40)\n      0x08c379a000000000000000000000000000000000000000000000000000000000\n      dup2\n      mstore\n      0x04\n      add\n      tag_225\n      swap1\n      tag_133\n      jump\t// in\n    tag_225:\n      mload(0x40)\n      dup1\n      swap2\n      sub\n      swap1\n      revert\n    tag_224:\n        /* \"codes/FoodTraceability.sol\":7665:7672  batches */\n      0x00\n        /* \"codes/FoodTraceability.sol\":7673:7681  _batchId */\n      dup3\n        /* \"codes/FoodTraceability.sol\":7665:7682  batches[_batchId] */\n      mload(0x40)\n      tag_226\n      swap2\n      swap1\n      tag_83\n      jump\t// in\n    tag_226:\n      swap1\n      dup2\n      mstore\n      0x20\n      add\n      mload(0x40)\n      dup1\n      swap2\n      sub\n      swap1\n      keccak256\n        /* \"codes/FoodTraceability.sol\":7658:7682  return batches[_batchId] */\n      mload(0x40)\n      dup1\n      0xc0\n      add\n      0x40\n      mstore\n      swap1\n      dup2\n      0x00\n      dup3\n      add\n      dup1\n      sload\n      tag_227\n      swap1\n      tag_130\n      jump\t// in\n    tag_227:\n      dup1\n      0x1f\n      add\n      0x20\n      dup1\n      swap2\n      div\n      mul\n      0x20\n      add\n      mload(0x40)\n      swap1\n      dup2\n      add\n      0x40\n      mstore\n      dup1\n      swap3\n      swap2\n      swap1\n      dup2\n      dup2\n      mstore\n      0x20\n      add\n      dup3\n      dup1\n      sload\n      tag_228\n      swap1\n      tag_130\n      jump\t// in\n    tag_228:\n      dup1\n      iszero\n      tag_229\n      jumpi\n      dup1\n      0x1f\n      lt\n      tag_230\n      jumpi\n      0x0100\n      dup1\n      dup4\n      sload\n      div\n      mul\n      dup4\n      mstore\n      swap2\n      0x20\n      add\n      swap2\n      jump(tag_229)\n    tag_230:\n      dup3\n      add\n      swap2\n      swap1\n      0x00\n      mstore\n      keccak256(0x00, 0x20)\n      swap1\n    tag_231:\n      dup2\n      sload\n      dup2\n      mstore\n      swap1\n      0x01\n      add\n      swap1\n      0x20\n      add\n      dup1\n      dup4\n      gt\n      tag_231\n      jumpi\n      dup3\n      swap1\n      sub\n      0x1f\n      and\n      dup3\n      add\n      swap2\n    tag_229:\n      pop\n      pop\n      pop\n      pop\n      pop\n      dup2\n      mstore\n      0x20\n      add\n      0x01\n      dup3\n      add\n      dup1\n      sload\n      tag_232\n      swap1\n      tag_130\n      jump\t// in\n    tag_232:\n      dup1\n      0x1f\n      add\n      0x20\n      dup1\n      swap2\n      div\n      mul\n      0x20\n      add\n      mload(0x40)\n      swap1\n      dup2\n      add\n      0x40\n      mstore\n      dup1\n      swap3\n      swap2\n      swap1\n      dup2\n      dup2\n      mstore\n      0x20\n      add\n      dup3\n      dup1\n      sload\n      tag_233\n      swap1\n      tag_130\n      jump\t// in\n    tag_233:\n      dup1\n      iszero\n      tag_234\n      jumpi\n      dup1\n      0x1f\n      lt\n      tag_235\n      jumpi\n      0x0100\n      dup1\n      dup4\n      sload\n      div\n      mul\n      dup4\n      mstore\n      swap2\n      0x20\n      add\n      swap2\n      jump(tag_234)\n    tag_235:\n      dup3\n      add\n      swap2\n      swap1\n      0x00\n      mstore\n      keccak256(0x00, 0x20)\n      swap1\n    tag_236:\n      dup2\n      sload\n      dup2\n      mstore\n      swap1\n      0x01\n      add\n      swap1\n      0x20\n      add\n      dup1\n      dup4\n      gt\n      tag_236\n      jumpi\n      dup3\n      swap1\n      sub\n      0x1f\n      and\n      dup3\n      add\n      swap2\n    tag_234:\n      pop\n      pop\n      pop\n      pop\n      pop\n      dup2\n      mstore\n      0x20\n      add\n      0x02\n      dup3\n      add\n      dup1\n      sload\n      tag_237\n      swap1\n      tag_130\n      jump\t// in\n    tag_237:\n      dup1\n      0x1f\n      add\n      0x20\n      dup1\n      swap2\n      div\n      mul\n      0x20\n      add\n      mload(0x40)\n      swap1\n      dup2\n      add\n      0x40\n      mstore\n      dup1\n      swap3\n      swap2\n      swap1\n      dup2\n      dup2\n      mstore\n      0x20\n      add\n      dup3\n      dup1\n      sload\n      tag_238\n      swap1\n      tag_130\n      jump\t// in\n    tag_238:\n      dup1\n      iszero\n      tag_239\n      jumpi\n      dup1\n      0x1f\n      lt\n      tag_240\n      jumpi\n      0x0100\n      dup1\n      dup4\n      sload\n      div\n      mul\n      dup4\n      mstore\n      swap2\n      0x20\n      add\n      swap2\n      jump(tag_239)\n    tag_240:\n      dup3\n      add\n      swap2\n      swap1\n      0x00\n      mstore\n      keccak256(0x00, 0x20)\n      swap1\n    tag_241:\n      dup2\n      sload\n      dup2\n      mstore\n      swap1\n      0x01\n      add\n      swap1\n      0x20\n      add\n      dup1\n      dup4\n      gt\n      tag_241\n      jumpi\n      dup3\n      swap1\n      sub\n      0x1f\n      and\n      dup3\n      add\n      swap2\n    tag_239:\n      pop\n      pop\n      pop\n      pop\n      pop\n      dup2\n      mstore\n      0x20\n      add\n      0x03\n      dup3\n      add\n      sload\n      dup2\n      mstore\n      0x20\n      add\n      0x04\n      dup3\n      add\n      0x00\n      swap1\n      sload\n      swap1\n      0x0100\n      exp\n      swap1\n      div\n      0xffffffffffffffffffffffffffffffffffffffff\n      and\n      0xffffffffffffffffffffffffffffffffffffffff\n      and\n      0xffffffffffffffffffffffffffffffffffffffff\n      and\n      dup2\n      mstore\n      0x20\n      add\n      0x04\n      dup3\n      add\n      0x14\n      swap1\n      sload\n      swap1\n      0x0100\n      exp\n      swap1\n      div\n      0xff\n      and\n      iszero\n      iszero\n      iszero\n      iszero\n      dup2\n      mstore\n      pop\n      pop\n      swap1\n      pop\n        /* \"codes/FoodTraceability.sol\":7460:7689  function getBatchInfo(string memory _batchId)... */\n      swap2\n      swap1\n      pop\n      jump\t// out\n    tag_220:\n      mload(0x40)\n      dup1\n      0xc0\n      add\n      0x40\n      mstore\n      dup1\n      0x60\n      dup2\n      mstore\n      0x20\n      add\n      0x60\n      dup2\n      mstore\n      0x20\n      add\n      0x60\n      dup2\n      mstore\n      0x20\n      add\n      0x00\n      dup2\n      mstore\n      0x20\n      add\n      and(0xffffffffffffffffffffffffffffffffffffffff, 0x00)\n      dup2\n      mstore\n      0x20\n      add\n      iszero(iszero(0x00))\n      dup2\n      mstore\n      pop\n      swap1\n      jump\t// out\n        /* \"#utility.yul\":7:82   */\n    tag_242:\n        /* \"#utility.yul\":40:46   */\n      0x00\n        /* \"#utility.yul\":73:75   */\n      0x40\n        /* \"#utility.yul\":67:76   */\n      mload\n        /* \"#utility.yul\":57:76   */\n      swap1\n      pop\n        /* \"#utility.yul\":7:82   */\n      swap1\n      jump\t// out\n        /* \"#utility.yul\":88:205   */\n    tag_243:\n        /* \"#utility.yul\":197:198   */\n      0x00\n        /* \"#utility.yul\":194:195   */\n      0x00\n        /* \"#utility.yul\":187:199   */\n      revert\n        /* \"#utility.yul\":211:328   */\n    tag_244:\n        /* \"#utility.yul\":320:321   */\n      0x00\n        /* \"#utility.yul\":317:318   */\n      0x00\n        /* \"#utility.yul\":310:322   */\n      revert\n        /* \"#utility.yul\":334:451   */\n    tag_245:\n        /* \"#utility.yul\":443:444   */\n      0x00\n        /* \"#utility.yul\":440:441   */\n      0x00\n        /* \"#utility.yul\":433:445   */\n      revert\n        /* \"#utility.yul\":457:574   */\n    tag_246:\n        /* \"#utility.yul\":566:567   */\n      0x00\n        /* \"#utility.yul\":563:564   */\n      0x00\n        /* \"#utility.yul\":556:568   */\n      revert\n        /* \"#utility.yul\":580:682   */\n    tag_247:\n        /* \"#utility.yul\":621:627   */\n      0x00\n        /* \"#utility.yul\":672:674   */\n      0x1f\n        /* \"#utility.yul\":668:675   */\n      not\n        /* \"#utility.yul\":663:665   */\n      0x1f\n        /* \"#utility.yul\":656:661   */\n      dup4\n        /* \"#utility.yul\":652:666   */\n      add\n        /* \"#utility.yul\":648:676   */\n      and\n        /* \"#utility.yul\":638:676   */\n      swap1\n      pop\n        /* \"#utility.yul\":580:682   */\n      swap2\n      swap1\n      pop\n      jump\t// out\n        /* \"#utility.yul\":688:868   */\n    tag_248:\n        /* \"#utility.yul\":736:813   */\n      0x4e487b7100000000000000000000000000000000000000000000000000000000\n        /* \"#utility.yul\":733:734   */\n      0x00\n        /* \"#utility.yul\":726:814   */\n      mstore\n        /* \"#utility.yul\":833:837   */\n      0x41\n        /* \"#utility.yul\":830:831   */\n      0x04\n        /* \"#utility.yul\":823:838   */\n      mstore\n        /* \"#utility.yul\":857:861   */\n      0x24\n        /* \"#utility.yul\":854:855   */\n      0x00\n        /* \"#utility.yul\":847:862   */\n      revert\n        /* \"#utility.yul\":874:1155   */\n    tag_249:\n        /* \"#utility.yul\":957:984   */\n      tag_338\n        /* \"#utility.yul\":979:983   */\n      dup3\n        /* \"#utility.yul\":957:984   */\n      tag_247\n      jump\t// in\n    tag_338:\n        /* \"#utility.yul\":949:955   */\n      dup2\n        /* \"#utility.yul\":945:985   */\n      add\n        /* \"#utility.yul\":1087:1093   */\n      dup2\n        /* \"#utility.yul\":1075:1085   */\n      dup2\n        /* \"#utility.yul\":1072:1094   */\n      lt\n        /* \"#utility.yul\":1051:1069   */\n      0xffffffffffffffff\n        /* \"#utility.yul\":1039:1049   */\n      dup3\n        /* \"#utility.yul\":1036:1070   */\n      gt\n        /* \"#utility.yul\":1033:1095   */\n      or\n        /* \"#utility.yul\":1030:1118   */\n      iszero\n      tag_339\n      jumpi\n        /* \"#utility.yul\":1098:1116   */\n      tag_340\n      tag_248\n      jump\t// in\n    tag_340:\n        /* \"#utility.yul\":1030:1118   */\n    tag_339:\n        /* \"#utility.yul\":1138:1148   */\n      dup1\n        /* \"#utility.yul\":1134:1136   */\n      0x40\n        /* \"#utility.yul\":1127:1149   */\n      mstore\n        /* \"#utility.yul\":917:1155   */\n      pop\n        /* \"#utility.yul\":874:1155   */\n      pop\n      pop\n      jump\t// out\n        /* \"#utility.yul\":1161:1290   */\n    tag_250:\n        /* \"#utility.yul\":1195:1201   */\n      0x00\n        /* \"#utility.yul\":1222:1242   */\n      tag_342\n      tag_242\n      jump\t// in\n    tag_342:\n        /* \"#utility.yul\":1212:1242   */\n      swap1\n      pop\n        /* \"#utility.yul\":1251:1284   */\n      tag_343\n        /* \"#utility.yul\":1279:1283   */\n      dup3\n        /* \"#utility.yul\":1271:1277   */\n      dup3\n        /* \"#utility.yul\":1251:1284   */\n      tag_249\n      jump\t// in\n    tag_343:\n        /* \"#utility.yul\":1161:1290   */\n      swap2\n      swap1\n      pop\n      jump\t// out\n        /* \"#utility.yul\":1296:1604   */\n    tag_251:\n        /* \"#utility.yul\":1358:1362   */\n      0x00\n        /* \"#utility.yul\":1448:1466   */\n      0xffffffffffffffff\n        /* \"#utility.yul\":1440:1446   */\n      dup3\n        /* \"#utility.yul\":1437:1467   */\n      gt\n        /* \"#utility.yul\":1434:1490   */\n      iszero\n      tag_345\n      jumpi\n        /* \"#utility.yul\":1470:1488   */\n      tag_346\n      tag_248\n      jump\t// in\n    tag_346:\n        /* \"#utility.yul\":1434:1490   */\n    tag_345:\n        /* \"#utility.yul\":1508:1537   */\n      tag_347\n        /* \"#utility.yul\":1530:1536   */\n      dup3\n        /* \"#utility.yul\":1508:1537   */\n      tag_247\n      jump\t// in\n    tag_347:\n        /* \"#utility.yul\":1500:1537   */\n      swap1\n      pop\n        /* \"#utility.yul\":1592:1596   */\n      0x20\n        /* \"#utility.yul\":1586:1590   */\n      dup2\n        /* \"#utility.yul\":1582:1597   */\n      add\n        /* \"#utility.yul\":1574:1597   */\n      swap1\n      pop\n        /* \"#utility.yul\":1296:1604   */\n      swap2\n      swap1\n      pop\n      jump\t// out\n        /* \"#utility.yul\":1610:1758   */\n    tag_252:\n        /* \"#utility.yul\":1708:1714   */\n      dup3\n        /* \"#utility.yul\":1703:1706   */\n      dup2\n        /* \"#utility.yul\":1698:1701   */\n      dup4\n        /* \"#utility.yul\":1685:1715   */\n      calldatacopy\n        /* \"#utility.yul\":1749:1750   */\n      0x00\n        /* \"#utility.yul\":1740:1746   */\n      dup4\n        /* \"#utility.yul\":1735:1738   */\n      dup4\n        /* \"#utility.yul\":1731:1747   */\n      add\n        /* \"#utility.yul\":1724:1751   */\n      mstore\n        /* \"#utility.yul\":1610:1758   */\n      pop\n      pop\n      pop\n      jump\t// out\n        /* \"#utility.yul\":1764:2189   */\n    tag_253:\n        /* \"#utility.yul\":1842:1847   */\n      0x00\n        /* \"#utility.yul\":1867:1933   */\n      tag_350\n        /* \"#utility.yul\":1883:1932   */\n      tag_351\n        /* \"#utility.yul\":1925:1931   */\n      dup5\n        /* \"#utility.yul\":1883:1932   */\n      tag_251\n      jump\t// in\n    tag_351:\n        /* \"#utility.yul\":1867:1933   */\n      tag_250\n      jump\t// in\n    tag_350:\n        /* \"#utility.yul\":1858:1933   */\n      swap1\n      pop\n        /* \"#utility.yul\":1956:1962   */\n      dup3\n        /* \"#utility.yul\":1949:1954   */\n      dup2\n        /* \"#utility.yul\":1942:1963   */\n      mstore\n        /* \"#utility.yul\":1994:1998   */\n      0x20\n        /* \"#utility.yul\":1987:1992   */\n      dup2\n        /* \"#utility.yul\":1983:1999   */\n      add\n        /* \"#utility.yul\":2032:2035   */\n      dup5\n        /* \"#utility.yul\":2023:2029   */\n      dup5\n        /* \"#utility.yul\":2018:2021   */\n      dup5\n        /* \"#utility.yul\":2014:2030   */\n      add\n        /* \"#utility.yul\":2011:2036   */\n      gt\n        /* \"#utility.yul\":2008:2120   */\n      iszero\n      tag_352\n      jumpi\n        /* \"#utility.yul\":2039:2118   */\n      tag_353\n      tag_246\n      jump\t// in\n    tag_353:\n        /* \"#utility.yul\":2008:2120   */\n    tag_352:\n        /* \"#utility.yul\":2129:2183   */\n      tag_354\n        /* \"#utility.yul\":2176:2182   */\n      dup5\n        /* \"#utility.yul\":2171:2174   */\n      dup3\n        /* \"#utility.yul\":2166:2169   */\n      dup6\n        /* \"#utility.yul\":2129:2183   */\n      tag_252\n      jump\t// in\n    tag_354:\n        /* \"#utility.yul\":1848:2189   */\n      pop\n        /* \"#utility.yul\":1764:2189   */\n      swap4\n      swap3\n      pop\n      pop\n      pop\n      jump\t// out\n        /* \"#utility.yul\":2209:2549   */\n    tag_254:\n        /* \"#utility.yul\":2265:2270   */\n      0x00\n        /* \"#utility.yul\":2314:2317   */\n      dup3\n        /* \"#utility.yul\":2307:2311   */\n      0x1f\n        /* \"#utility.yul\":2299:2305   */\n      dup4\n        /* \"#utility.yul\":2295:2312   */\n      add\n        /* \"#utility.yul\":2291:2318   */\n      slt\n        /* \"#utility.yul\":2281:2403   */\n      tag_356\n      jumpi\n        /* \"#utility.yul\":2322:2401   */\n      tag_357\n      tag_245\n      jump\t// in\n    tag_357:\n        /* \"#utility.yul\":2281:2403   */\n    tag_356:\n        /* \"#utility.yul\":2439:2445   */\n      dup2\n        /* \"#utility.yul\":2426:2446   */\n      calldataload\n        /* \"#utility.yul\":2464:2543   */\n      tag_358\n        /* \"#utility.yul\":2539:2542   */\n      dup5\n        /* \"#utility.yul\":2531:2537   */\n      dup3\n        /* \"#utility.yul\":2524:2528   */\n      0x20\n        /* \"#utility.yul\":2516:2522   */\n      dup7\n        /* \"#utility.yul\":2512:2529   */\n      add\n        /* \"#utility.yul\":2464:2543   */\n      tag_253\n      jump\t// in\n    tag_358:\n        /* \"#utility.yul\":2455:2543   */\n      swap2\n      pop\n        /* \"#utility.yul\":2271:2549   */\n      pop\n        /* \"#utility.yul\":2209:2549   */\n      swap3\n      swap2\n      pop\n      pop\n      jump\t// out\n        /* \"#utility.yul\":2555:3064   */\n    tag_18:\n        /* \"#utility.yul\":2624:2630   */\n      0x00\n        /* \"#utility.yul\":2673:2675   */\n      0x20\n        /* \"#utility.yul\":2661:2670   */\n      dup3\n        /* \"#utility.yul\":2652:2659   */\n      dup5\n        /* \"#utility.yul\":2648:2671   */\n      sub\n        /* \"#utility.yul\":2644:2676   */\n      slt\n        /* \"#utility.yul\":2641:2760   */\n      iszero\n      tag_360\n      jumpi\n        /* \"#utility.yul\":2679:2758   */\n      tag_361\n      tag_243\n      jump\t// in\n    tag_361:\n        /* \"#utility.yul\":2641:2760   */\n    tag_360:\n        /* \"#utility.yul\":2827:2828   */\n      0x00\n        /* \"#utility.yul\":2816:2825   */\n      dup3\n        /* \"#utility.yul\":2812:2829   */\n      add\n        /* \"#utility.yul\":2799:2830   */\n      calldataload\n        /* \"#utility.yul\":2857:2875   */\n      0xffffffffffffffff\n        /* \"#utility.yul\":2849:2855   */\n      dup2\n        /* \"#utility.yul\":2846:2876   */\n      gt\n        /* \"#utility.yul\":2843:2960   */\n      iszero\n      tag_362\n      jumpi\n        /* \"#utility.yul\":2879:2958   */\n      tag_363\n      tag_244\n      jump\t// in\n    tag_363:\n        /* \"#utility.yul\":2843:2960   */\n    tag_362:\n        /* \"#utility.yul\":2984:3047   */\n      tag_364\n        /* \"#utility.yul\":3039:3046   */\n      dup5\n        /* \"#utility.yul\":3030:3036   */\n      dup3\n        /* \"#utility.yul\":3019:3028   */\n      dup6\n        /* \"#utility.yul\":3015:3037   */\n      add\n        /* \"#utility.yul\":2984:3047   */\n      tag_254\n      jump\t// in\n    tag_364:\n        /* \"#utility.yul\":2974:3047   */\n      swap2\n      pop\n        /* \"#utility.yul\":2770:3057   */\n      pop\n        /* \"#utility.yul\":2555:3064   */\n      swap3\n      swap2\n      pop\n      pop\n      jump\t// out\n        /* \"#utility.yul\":3070:3196   */\n    tag_255:\n        /* \"#utility.yul\":3107:3114   */\n      0x00\n        /* \"#utility.yul\":3147:3189   */\n      0xffffffffffffffffffffffffffffffffffffffff\n        /* \"#utility.yul\":3140:3145   */\n      dup3\n        /* \"#utility.yul\":3136:3190   */\n      and\n        /* \"#utility.yul\":3125:3190   */\n      swap1\n      pop\n        /* \"#utility.yul\":3070:3196   */\n      swap2\n      swap1\n      pop\n      jump\t// out\n        /* \"#utility.yul\":3202:3298   */\n    tag_256:\n        /* \"#utility.yul\":3239:3246   */\n      0x00\n        /* \"#utility.yul\":3268:3292   */\n      tag_367\n        /* \"#utility.yul\":3286:3291   */\n      dup3\n        /* \"#utility.yul\":3268:3292   */\n      tag_255\n      jump\t// in\n    tag_367:\n        /* \"#utility.yul\":3257:3292   */\n      swap1\n      pop\n        /* \"#utility.yul\":3202:3298   */\n      swap2\n      swap1\n      pop\n      jump\t// out\n        /* \"#utility.yul\":3304:3426   */\n    tag_257:\n        /* \"#utility.yul\":3377:3401   */\n      tag_369\n        /* \"#utility.yul\":3395:3400   */\n      dup2\n        /* \"#utility.yul\":3377:3401   */\n      tag_256\n      jump\t// in\n    tag_369:\n        /* \"#utility.yul\":3370:3375   */\n      dup2\n        /* \"#utility.yul\":3367:3402   */\n      eq\n        /* \"#utility.yul\":3357:3420   */\n      tag_370\n      jumpi\n        /* \"#utility.yul\":3416:3417   */\n      0x00\n        /* \"#utility.yul\":3413:3414   */\n      0x00\n        /* \"#utility.yul\":3406:3418   */\n      revert\n        /* \"#utility.yul\":3357:3420   */\n    tag_370:\n        /* \"#utility.yul\":3304:3426   */\n      pop\n      jump\t// out\n        /* \"#utility.yul\":3432:3571   */\n    tag_258:\n        /* \"#utility.yul\":3478:3483   */\n      0x00\n        /* \"#utility.yul\":3516:3522   */\n      dup2\n        /* \"#utility.yul\":3503:3523   */\n      calldataload\n        /* \"#utility.yul\":3494:3523   */\n      swap1\n      pop\n        /* \"#utility.yul\":3532:3565   */\n      tag_372\n        /* \"#utility.yul\":3559:3564   */\n      dup2\n        /* \"#utility.yul\":3532:3565   */\n      tag_257\n      jump\t// in\n    tag_372:\n        /* \"#utility.yul\":3432:3571   */\n      swap3\n      swap2\n      pop\n      pop\n      jump\t// out\n        /* \"#utility.yul\":3577:3906   */\n    tag_22:\n        /* \"#utility.yul\":3636:3642   */\n      0x00\n        /* \"#utility.yul\":3685:3687   */\n      0x20\n        /* \"#utility.yul\":3673:3682   */\n      dup3\n        /* \"#utility.yul\":3664:3671   */\n      dup5\n        /* \"#utility.yul\":3660:3683   */\n      sub\n        /* \"#utility.yul\":3656:3688   */\n      slt\n        /* \"#utility.yul\":3653:3772   */\n      iszero\n      tag_374\n      jumpi\n        /* \"#utility.yul\":3691:3770   */\n      tag_375\n      tag_243\n      jump\t// in\n    tag_375:\n        /* \"#utility.yul\":3653:3772   */\n    tag_374:\n        /* \"#utility.yul\":3811:3812   */\n      0x00\n        /* \"#utility.yul\":3836:3889   */\n      tag_376\n        /* \"#utility.yul\":3881:3888   */\n      dup5\n        /* \"#utility.yul\":3872:3878   */\n      dup3\n        /* \"#utility.yul\":3861:3870   */\n      dup6\n        /* \"#utility.yul\":3857:3879   */\n      add\n        /* \"#utility.yul\":3836:3889   */\n      tag_258\n      jump\t// in\n    tag_376:\n        /* \"#utility.yul\":3826:3889   */\n      swap2\n      pop\n        /* \"#utility.yul\":3782:3899   */\n      pop\n        /* \"#utility.yul\":3577:3906   */\n      swap3\n      swap2\n      pop\n      pop\n      jump\t// out\n        /* \"#utility.yul\":3912:4092   */\n    tag_75:\n        /* \"#utility.yul\":3960:4037   */\n      0x4e487b7100000000000000000000000000000000000000000000000000000000\n        /* \"#utility.yul\":3957:3958   */\n      0x00\n        /* \"#utility.yul\":3950:4038   */\n      mstore\n        /* \"#utility.yul\":4057:4061   */\n      0x21\n        /* \"#utility.yul\":4054:4055   */\n      0x04\n        /* \"#utility.yul\":4047:4062   */\n      mstore\n        /* \"#utility.yul\":4081:4085   */\n      0x24\n        /* \"#utility.yul\":4078:4079   */\n      0x00\n        /* \"#utility.yul\":4071:4086   */\n      revert\n        /* \"#utility.yul\":4098:4209   */\n    tag_259:\n        /* \"#utility.yul\":4177:4178   */\n      0x06\n        /* \"#utility.yul\":4170:4175   */\n      dup2\n        /* \"#utility.yul\":4167:4179   */\n      lt\n        /* \"#utility.yul\":4157:4203   */\n      tag_379\n      jumpi\n        /* \"#utility.yul\":4183:4201   */\n      tag_380\n      tag_75\n      jump\t// in\n    tag_380:\n        /* \"#utility.yul\":4157:4203   */\n    tag_379:\n        /* \"#utility.yul\":4098:4209   */\n      pop\n      jump\t// out\n        /* \"#utility.yul\":4215:4338   */\n    tag_260:\n        /* \"#utility.yul\":4258:4265   */\n      0x00\n        /* \"#utility.yul\":4287:4292   */\n      dup2\n        /* \"#utility.yul\":4276:4292   */\n      swap1\n      pop\n        /* \"#utility.yul\":4293:4332   */\n      tag_382\n        /* \"#utility.yul\":4326:4331   */\n      dup3\n        /* \"#utility.yul\":4293:4332   */\n      tag_259\n      jump\t// in\n    tag_382:\n        /* \"#utility.yul\":4215:4338   */\n      swap2\n      swap1\n      pop\n      jump\t// out\n        /* \"#utility.yul\":4344:4467   */\n    tag_261:\n        /* \"#utility.yul\":4398:4407   */\n      0x00\n        /* \"#utility.yul\":4431:4461   */\n      tag_384\n        /* \"#utility.yul\":4455:4460   */\n      dup3\n        /* \"#utility.yul\":4431:4461   */\n      tag_260\n      jump\t// in\n    tag_384:\n        /* \"#utility.yul\":4418:4461   */\n      swap1\n      pop\n        /* \"#utility.yul\":4344:4467   */\n      swap2\n      swap1\n      pop\n      jump\t// out\n        /* \"#utility.yul\":4473:4612   */\n    tag_262:\n        /* \"#utility.yul\":4564:4605   */\n      tag_386\n        /* \"#utility.yul\":4599:4604   */\n      dup2\n        /* \"#utility.yul\":4564:4605   */\n      tag_261\n      jump\t// in\n    tag_386:\n        /* \"#utility.yul\":4559:4562   */\n      dup3\n        /* \"#utility.yul\":4552:4606   */\n      mstore\n        /* \"#utility.yul\":4473:4612   */\n      pop\n      pop\n      jump\t// out\n        /* \"#utility.yul\":4618:4848   */\n    tag_25:\n        /* \"#utility.yul\":4715:4719   */\n      0x00\n        /* \"#utility.yul\":4753:4755   */\n      0x20\n        /* \"#utility.yul\":4742:4751   */\n      dup3\n        /* \"#utility.yul\":4738:4756   */\n      add\n        /* \"#utility.yul\":4730:4756   */\n      swap1\n      pop\n        /* \"#utility.yul\":4766:4841   */\n      tag_388\n        /* \"#utility.yul\":4838:4839   */\n      0x00\n        /* \"#utility.yul\":4827:4836   */\n      dup4\n        /* \"#utility.yul\":4823:4840   */\n      add\n        /* \"#utility.yul\":4814:4820   */\n      dup5\n        /* \"#utility.yul\":4766:4841   */\n      tag_262\n      jump\t// in\n    tag_388:\n        /* \"#utility.yul\":4618:4848   */\n      swap3\n      swap2\n      pop\n      pop\n      jump\t// out\n        /* \"#utility.yul\":4854:4959   */\n    tag_263:\n        /* \"#utility.yul\":4933:4934   */\n      0x06\n        /* \"#utility.yul\":4926:4931   */\n      dup2\n        /* \"#utility.yul\":4923:4935   */\n      lt\n        /* \"#utility.yul\":4913:4953   */\n      tag_390\n      jumpi\n        /* \"#utility.yul\":4949:4950   */\n      0x00\n        /* \"#utility.yul\":4946:4947   */\n      0x00\n        /* \"#utility.yul\":4939:4951   */\n      revert\n        /* \"#utility.yul\":4913:4953   */\n    tag_390:\n        /* \"#utility.yul\":4854:4959   */\n      pop\n      jump\t// out\n        /* \"#utility.yul\":4965:5116   */\n    tag_264:\n        /* \"#utility.yul\":5017:5022   */\n      0x00\n        /* \"#utility.yul\":5055:5061   */\n      dup2\n        /* \"#utility.yul\":5042:5062   */\n      calldataload\n        /* \"#utility.yul\":5033:5062   */\n      swap1\n      pop\n        /* \"#utility.yul\":5071:5110   */\n      tag_392\n        /* \"#utility.yul\":5104:5109   */\n      dup2\n        /* \"#utility.yul\":5071:5110   */\n      tag_263\n      jump\t// in\n    tag_392:\n        /* \"#utility.yul\":4965:5116   */\n      swap3\n      swap2\n      pop\n      pop\n      jump\t// out\n        /* \"#utility.yul\":5122:5608   */\n    tag_28:\n        /* \"#utility.yul\":5196:5202   */\n      0x00\n        /* \"#utility.yul\":5204:5210   */\n      0x00\n        /* \"#utility.yul\":5253:5255   */\n      0x40\n        /* \"#utility.yul\":5241:5250   */\n      dup4\n        /* \"#utility.yul\":5232:5239   */\n      dup6\n        /* \"#utility.yul\":5228:5251   */\n      sub\n        /* \"#utility.yul\":5224:5256   */\n      slt\n        /* \"#utility.yul\":5221:5340   */\n      iszero\n      tag_394\n      jumpi\n        /* \"#utility.yul\":5259:5338   */\n      tag_395\n      tag_243\n      jump\t// in\n    tag_395:\n        /* \"#utility.yul\":5221:5340   */\n    tag_394:\n        /* \"#utility.yul\":5379:5380   */\n      0x00\n        /* \"#utility.yul\":5404:5457   */\n      tag_396\n        /* \"#utility.yul\":5449:5456   */\n      dup6\n        /* \"#utility.yul\":5440:5446   */\n      dup3\n        /* \"#utility.yul\":5429:5438   */\n      dup7\n        /* \"#utility.yul\":5425:5447   */\n      add\n        /* \"#utility.yul\":5404:5457   */\n      tag_258\n      jump\t// in\n    tag_396:\n        /* \"#utility.yul\":5394:5457   */\n      swap3\n      pop\n        /* \"#utility.yul\":5350:5467   */\n      pop\n        /* \"#utility.yul\":5506:5508   */\n      0x20\n        /* \"#utility.yul\":5532:5591   */\n      tag_397\n        /* \"#utility.yul\":5583:5590   */\n      dup6\n        /* \"#utility.yul\":5574:5580   */\n      dup3\n        /* \"#utility.yul\":5563:5572   */\n      dup7\n        /* \"#utility.yul\":5559:5581   */\n      add\n        /* \"#utility.yul\":5532:5591   */\n      tag_264\n      jump\t// in\n    tag_397:\n        /* \"#utility.yul\":5522:5591   */\n      swap2\n      pop\n        /* \"#utility.yul\":5477:5601   */\n      pop\n        /* \"#utility.yul\":5122:5608   */\n      swap3\n      pop\n      swap3\n      swap1\n      pop\n      jump\t// out\n        /* \"#utility.yul\":5614:5690   */\n    tag_265:\n        /* \"#utility.yul\":5650:5657   */\n      0x00\n        /* \"#utility.yul\":5679:5684   */\n      dup2\n        /* \"#utility.yul\":5668:5684   */\n      swap1\n      pop\n        /* \"#utility.yul\":5614:5690   */\n      swap2\n      swap1\n      pop\n      jump\t// out\n        /* \"#utility.yul\":5696:5816   */\n    tag_266:\n        /* \"#utility.yul\":5768:5791   */\n      tag_400\n        /* \"#utility.yul\":5785:5790   */\n      dup2\n        /* \"#utility.yul\":5768:5791   */\n      tag_265\n      jump\t// in\n    tag_400:\n        /* \"#utility.yul\":5761:5766   */\n      dup2\n        /* \"#utility.yul\":5758:5792   */\n      eq\n        /* \"#utility.yul\":5748:5810   */\n      tag_401\n      jumpi\n        /* \"#utility.yul\":5806:5807   */\n      0x00\n        /* \"#utility.yul\":5803:5804   */\n      0x00\n        /* \"#utility.yul\":5796:5808   */\n      revert\n        /* \"#utility.yul\":5748:5810   */\n    tag_401:\n        /* \"#utility.yul\":5696:5816   */\n      pop\n      jump\t// out\n        /* \"#utility.yul\":5822:5959   */\n    tag_267:\n        /* \"#utility.yul\":5867:5872   */\n      0x00\n        /* \"#utility.yul\":5905:5911   */\n      dup2\n        /* \"#utility.yul\":5892:5912   */\n      calldataload\n        /* \"#utility.yul\":5883:5912   */\n      swap1\n      pop\n        /* \"#utility.yul\":5921:5953   */\n      tag_403\n        /* \"#utility.yul\":5947:5952   */\n      dup2\n        /* \"#utility.yul\":5921:5953   */\n      tag_266\n      jump\t// in\n    tag_403:\n        /* \"#utility.yul\":5822:5959   */\n      swap3\n      swap2\n      pop\n      pop\n      jump\t// out\n        /* \"#utility.yul\":5965:7268   */\n    tag_32:\n        /* \"#utility.yul\":6080:6086   */\n      0x00\n        /* \"#utility.yul\":6088:6094   */\n      0x00\n        /* \"#utility.yul\":6096:6102   */\n      0x00\n        /* \"#utility.yul\":6104:6110   */\n      0x00\n        /* \"#utility.yul\":6153:6156   */\n      0x80\n        /* \"#utility.yul\":6141:6150   */\n      dup6\n        /* \"#utility.yul\":6132:6139   */\n      dup8\n        /* \"#utility.yul\":6128:6151   */\n      sub\n        /* \"#utility.yul\":6124:6157   */\n      slt\n        /* \"#utility.yul\":6121:6241   */\n      iszero\n      tag_405\n      jumpi\n        /* \"#utility.yul\":6160:6239   */\n      tag_406\n      tag_243\n      jump\t// in\n    tag_406:\n        /* \"#utility.yul\":6121:6241   */\n    tag_405:\n        /* \"#utility.yul\":6308:6309   */\n      0x00\n        /* \"#utility.yul\":6297:6306   */\n      dup6\n        /* \"#utility.yul\":6293:6310   */\n      add\n        /* \"#utility.yul\":6280:6311   */\n      calldataload\n        /* \"#utility.yul\":6338:6356   */\n      0xffffffffffffffff\n        /* \"#utility.yul\":6330:6336   */\n      dup2\n        /* \"#utility.yul\":6327:6357   */\n      gt\n        /* \"#utility.yul\":6324:6441   */\n      iszero\n      tag_407\n      jumpi\n        /* \"#utility.yul\":6360:6439   */\n      tag_408\n      tag_244\n      jump\t// in\n    tag_408:\n        /* \"#utility.yul\":6324:6441   */\n    tag_407:\n        /* \"#utility.yul\":6465:6528   */\n      tag_409\n        /* \"#utility.yul\":6520:6527   */\n      dup8\n        /* \"#utility.yul\":6511:6517   */\n      dup3\n        /* \"#utility.yul\":6500:6509   */\n      dup9\n        /* \"#utility.yul\":6496:6518   */\n      add\n        /* \"#utility.yul\":6465:6528   */\n      tag_254\n      jump\t// in\n    tag_409:\n        /* \"#utility.yul\":6455:6528   */\n      swap5\n      pop\n        /* \"#utility.yul\":6251:6538   */\n      pop\n        /* \"#utility.yul\":6605:6607   */\n      0x20\n        /* \"#utility.yul\":6594:6603   */\n      dup6\n        /* \"#utility.yul\":6590:6608   */\n      add\n        /* \"#utility.yul\":6577:6609   */\n      calldataload\n        /* \"#utility.yul\":6636:6654   */\n      0xffffffffffffffff\n        /* \"#utility.yul\":6628:6634   */\n      dup2\n        /* \"#utility.yul\":6625:6655   */\n      gt\n        /* \"#utility.yul\":6622:6739   */\n      iszero\n      tag_410\n      jumpi\n        /* \"#utility.yul\":6658:6737   */\n      tag_411\n      tag_244\n      jump\t// in\n    tag_411:\n        /* \"#utility.yul\":6622:6739   */\n    tag_410:\n        /* \"#utility.yul\":6763:6826   */\n      tag_412\n        /* \"#utility.yul\":6818:6825   */\n      dup8\n        /* \"#utility.yul\":6809:6815   */\n      dup3\n        /* \"#utility.yul\":6798:6807   */\n      dup9\n        /* \"#utility.yul\":6794:6816   */\n      add\n        /* \"#utility.yul\":6763:6826   */\n      tag_254\n      jump\t// in\n    tag_412:\n        /* \"#utility.yul\":6753:6826   */\n      swap4\n      pop\n        /* \"#utility.yul\":6548:6836   */\n      pop\n        /* \"#utility.yul\":6903:6905   */\n      0x40\n        /* \"#utility.yul\":6892:6901   */\n      dup6\n        /* \"#utility.yul\":6888:6906   */\n      add\n        /* \"#utility.yul\":6875:6907   */\n      calldataload\n        /* \"#utility.yul\":6934:6952   */\n      0xffffffffffffffff\n        /* \"#utility.yul\":6926:6932   */\n      dup2\n        /* \"#utility.yul\":6923:6953   */\n      gt\n        /* \"#utility.yul\":6920:7037   */\n      iszero\n      tag_413\n      jumpi\n        /* \"#utility.yul\":6956:7035   */\n      tag_414\n      tag_244\n      jump\t// in\n    tag_414:\n        /* \"#utility.yul\":6920:7037   */\n    tag_413:\n        /* \"#utility.yul\":7061:7124   */\n      tag_415\n        /* \"#utility.yul\":7116:7123   */\n      dup8\n        /* \"#utility.yul\":7107:7113   */\n      dup3\n        /* \"#utility.yul\":7096:7105   */\n      dup9\n        /* \"#utility.yul\":7092:7114   */\n      add\n        /* \"#utility.yul\":7061:7124   */\n      tag_254\n      jump\t// in\n    tag_415:\n        /* \"#utility.yul\":7051:7124   */\n      swap3\n      pop\n        /* \"#utility.yul\":6846:7134   */\n      pop\n        /* \"#utility.yul\":7173:7175   */\n      0x60\n        /* \"#utility.yul\":7199:7251   */\n      tag_416\n        /* \"#utility.yul\":7243:7250   */\n      dup8\n        /* \"#utility.yul\":7234:7240   */\n      dup3\n        /* \"#utility.yul\":7223:7232   */\n      dup9\n        /* \"#utility.yul\":7219:7241   */\n      add\n        /* \"#utility.yul\":7199:7251   */\n      tag_267\n      jump\t// in\n    tag_416:\n        /* \"#utility.yul\":7189:7251   */\n      swap2\n      pop\n        /* \"#utility.yul\":7144:7261   */\n      pop\n        /* \"#utility.yul\":5965:7268   */\n      swap3\n      swap6\n      swap2\n      swap5\n      pop\n      swap3\n      pop\n      jump\t// out\n        /* \"#utility.yul\":7274:7351   */\n    tag_268:\n        /* \"#utility.yul\":7311:7318   */\n      0x00\n        /* \"#utility.yul\":7340:7345   */\n      dup2\n        /* \"#utility.yul\":7329:7345   */\n      swap1\n      pop\n        /* \"#utility.yul\":7274:7351   */\n      swap2\n      swap1\n      pop\n      jump\t// out\n        /* \"#utility.yul\":7357:7475   */\n    tag_269:\n        /* \"#utility.yul\":7444:7468   */\n      tag_419\n        /* \"#utility.yul\":7462:7467   */\n      dup2\n        /* \"#utility.yul\":7444:7468   */\n      tag_268\n      jump\t// in\n    tag_419:\n        /* \"#utility.yul\":7439:7442   */\n      dup3\n        /* \"#utility.yul\":7432:7469   */\n      mstore\n        /* \"#utility.yul\":7357:7475   */\n      pop\n      pop\n      jump\t// out\n        /* \"#utility.yul\":7481:7703   */\n    tag_38:\n        /* \"#utility.yul\":7574:7578   */\n      0x00\n        /* \"#utility.yul\":7612:7614   */\n      0x20\n        /* \"#utility.yul\":7601:7610   */\n      dup3\n        /* \"#utility.yul\":7597:7615   */\n      add\n        /* \"#utility.yul\":7589:7615   */\n      swap1\n      pop\n        /* \"#utility.yul\":7625:7696   */\n      tag_421\n        /* \"#utility.yul\":7693:7694   */\n      0x00\n        /* \"#utility.yul\":7682:7691   */\n      dup4\n        /* \"#utility.yul\":7678:7695   */\n      add\n        /* \"#utility.yul\":7669:7675   */\n      dup5\n        /* \"#utility.yul\":7625:7696   */\n      tag_269\n      jump\t// in\n    tag_421:\n        /* \"#utility.yul\":7481:7703   */\n      swap3\n      swap2\n      pop\n      pop\n      jump\t// out\n        /* \"#utility.yul\":7709:7808   */\n    tag_270:\n        /* \"#utility.yul\":7761:7767   */\n      0x00\n        /* \"#utility.yul\":7795:7800   */\n      dup2\n        /* \"#utility.yul\":7789:7801   */\n      mload\n        /* \"#utility.yul\":7779:7801   */\n      swap1\n      pop\n        /* \"#utility.yul\":7709:7808   */\n      swap2\n      swap1\n      pop\n      jump\t// out\n        /* \"#utility.yul\":7814:7983   */\n    tag_271:\n        /* \"#utility.yul\":7898:7909   */\n      0x00\n        /* \"#utility.yul\":7932:7938   */\n      dup3\n        /* \"#utility.yul\":7927:7930   */\n      dup3\n        /* \"#utility.yul\":7920:7939   */\n      mstore\n        /* \"#utility.yul\":7972:7976   */\n      0x20\n        /* \"#utility.yul\":7967:7970   */\n      dup3\n        /* \"#utility.yul\":7963:7977   */\n      add\n        /* \"#utility.yul\":7948:7977   */\n      swap1\n      pop\n        /* \"#utility.yul\":7814:7983   */\n      swap3\n      swap2\n      pop\n      pop\n      jump\t// out\n        /* \"#utility.yul\":7989:8237   */\n    tag_272:\n        /* \"#utility.yul\":8071:8072   */\n      0x00\n        /* \"#utility.yul\":8081:8194   */\n    tag_425:\n        /* \"#utility.yul\":8095:8101   */\n      dup4\n        /* \"#utility.yul\":8092:8093   */\n      dup2\n        /* \"#utility.yul\":8089:8102   */\n      lt\n        /* \"#utility.yul\":8081:8194   */\n      iszero\n      tag_427\n      jumpi\n        /* \"#utility.yul\":8180:8181   */\n      dup1\n        /* \"#utility.yul\":8175:8178   */\n      dup3\n        /* \"#utility.yul\":8171:8182   */\n      add\n        /* \"#utility.yul\":8165:8183   */\n      mload\n        /* \"#utility.yul\":8161:8162   */\n      dup2\n        /* \"#utility.yul\":8156:8159   */\n      dup5\n        /* \"#utility.yul\":8152:8163   */\n      add\n        /* \"#utility.yul\":8145:8184   */\n      mstore\n        /* \"#utility.yul\":8117:8119   */\n      0x20\n        /* \"#utility.yul\":8114:8115   */\n      dup2\n        /* \"#utility.yul\":8110:8120   */\n      add\n        /* \"#utility.yul\":8105:8120   */\n      swap1\n      pop\n        /* \"#utility.yul\":8081:8194   */\n      jump(tag_425)\n    tag_427:\n        /* \"#utility.yul\":8228:8229   */\n      0x00\n        /* \"#utility.yul\":8219:8225   */\n      dup5\n        /* \"#utility.yul\":8214:8217   */\n      dup5\n        /* \"#utility.yul\":8210:8226   */\n      add\n        /* \"#utility.yul\":8203:8230   */\n      mstore\n        /* \"#utility.yul\":8051:8237   */\n      pop\n        /* \"#utility.yul\":7989:8237   */\n      pop\n      pop\n      pop\n      jump\t// out\n        /* \"#utility.yul\":8243:8620   */\n    tag_273:\n        /* \"#utility.yul\":8331:8334   */\n      0x00\n        /* \"#utility.yul\":8359:8398   */\n      tag_429\n        /* \"#utility.yul\":8392:8397   */\n      dup3\n        /* \"#utility.yul\":8359:8398   */\n      tag_270\n      jump\t// in\n    tag_429:\n        /* \"#utility.yul\":8414:8485   */\n      tag_430\n        /* \"#utility.yul\":8478:8484   */\n      dup2\n        /* \"#utility.yul\":8473:8476   */\n      dup6\n        /* \"#utility.yul\":8414:8485   */\n      tag_271\n      jump\t// in\n    tag_430:\n        /* \"#utility.yul\":8407:8485   */\n      swap4\n      pop\n        /* \"#utility.yul\":8494:8559   */\n      tag_431\n        /* \"#utility.yul\":8552:8558   */\n      dup2\n        /* \"#utility.yul\":8547:8550   */\n      dup6\n        /* \"#utility.yul\":8540:8544   */\n      0x20\n        /* \"#utility.yul\":8533:8538   */\n      dup7\n        /* \"#utility.yul\":8529:8545   */\n      add\n        /* \"#utility.yul\":8494:8559   */\n      tag_272\n      jump\t// in\n    tag_431:\n        /* \"#utility.yul\":8584:8613   */\n      tag_432\n        /* \"#utility.yul\":8606:8612   */\n      dup2\n        /* \"#utility.yul\":8584:8613   */\n      tag_247\n      jump\t// in\n    tag_432:\n        /* \"#utility.yul\":8579:8582   */\n      dup5\n        /* \"#utility.yul\":8575:8614   */\n      add\n        /* \"#utility.yul\":8568:8614   */\n      swap2\n      pop\n        /* \"#utility.yul\":8335:8620   */\n      pop\n        /* \"#utility.yul\":8243:8620   */\n      swap3\n      swap2\n      pop\n      pop\n      jump\t// out\n        /* \"#utility.yul\":8626:8744   */\n    tag_274:\n        /* \"#utility.yul\":8713:8737   */\n      tag_434\n        /* \"#utility.yul\":8731:8736   */\n      dup2\n        /* \"#utility.yul\":8713:8737   */\n      tag_256\n      jump\t// in\n    tag_434:\n        /* \"#utility.yul\":8708:8711   */\n      dup3\n        /* \"#utility.yul\":8701:8738   */\n      mstore\n        /* \"#utility.yul\":8626:8744   */\n      pop\n      pop\n      jump\t// out\n        /* \"#utility.yul\":8750:8840   */\n    tag_275:\n        /* \"#utility.yul\":8784:8791   */\n      0x00\n        /* \"#utility.yul\":8827:8832   */\n      dup2\n        /* \"#utility.yul\":8820:8833   */\n      iszero\n        /* \"#utility.yul\":8813:8834   */\n      iszero\n        /* \"#utility.yul\":8802:8834   */\n      swap1\n      pop\n        /* \"#utility.yul\":8750:8840   */\n      swap2\n      swap1\n      pop\n      jump\t// out\n        /* \"#utility.yul\":8846:8955   */\n    tag_276:\n        /* \"#utility.yul\":8927:8948   */\n      tag_437\n        /* \"#utility.yul\":8942:8947   */\n      dup2\n        /* \"#utility.yul\":8927:8948   */\n      tag_275\n      jump\t// in\n    tag_437:\n        /* \"#utility.yul\":8922:8925   */\n      dup3\n        /* \"#utility.yul\":8915:8949   */\n      mstore\n        /* \"#utility.yul\":8846:8955   */\n      pop\n      pop\n      jump\t// out\n        /* \"#utility.yul\":8961:9997   */\n    tag_43:\n        /* \"#utility.yul\":9248:9252   */\n      0x00\n        /* \"#utility.yul\":9286:9289   */\n      0xc0\n        /* \"#utility.yul\":9275:9284   */\n      dup3\n        /* \"#utility.yul\":9271:9290   */\n      add\n        /* \"#utility.yul\":9263:9290   */\n      swap1\n      pop\n        /* \"#utility.yul\":9336:9345   */\n      dup2\n        /* \"#utility.yul\":9330:9334   */\n      dup2\n        /* \"#utility.yul\":9326:9346   */\n      sub\n        /* \"#utility.yul\":9322:9323   */\n      0x00\n        /* \"#utility.yul\":9311:9320   */\n      dup4\n        /* \"#utility.yul\":9307:9324   */\n      add\n        /* \"#utility.yul\":9300:9347   */\n      mstore\n        /* \"#utility.yul\":9364:9442   */\n      tag_439\n        /* \"#utility.yul\":9437:9441   */\n      dup2\n        /* \"#utility.yul\":9428:9434   */\n      dup10\n        /* \"#utility.yul\":9364:9442   */\n      tag_273\n      jump\t// in\n    tag_439:\n        /* \"#utility.yul\":9356:9442   */\n      swap1\n      pop\n        /* \"#utility.yul\":9489:9498   */\n      dup2\n        /* \"#utility.yul\":9483:9487   */\n      dup2\n        /* \"#utility.yul\":9479:9499   */\n      sub\n        /* \"#utility.yul\":9474:9476   */\n      0x20\n        /* \"#utility.yul\":9463:9472   */\n      dup4\n        /* \"#utility.yul\":9459:9477   */\n      add\n        /* \"#utility.yul\":9452:9500   */\n      mstore\n        /* \"#utility.yul\":9517:9595   */\n      tag_440\n        /* \"#utility.yul\":9590:9594   */\n      dup2\n        /* \"#utility.yul\":9581:9587   */\n      dup9\n        /* \"#utility.yul\":9517:9595   */\n      tag_273\n      jump\t// in\n    tag_440:\n        /* \"#utility.yul\":9509:9595   */\n      swap1\n      pop\n        /* \"#utility.yul\":9642:9651   */\n      dup2\n        /* \"#utility.yul\":9636:9640   */\n      dup2\n        /* \"#utility.yul\":9632:9652   */\n      sub\n        /* \"#utility.yul\":9627:9629   */\n      0x40\n        /* \"#utility.yul\":9616:9625   */\n      dup4\n        /* \"#utility.yul\":9612:9630   */\n      add\n        /* \"#utility.yul\":9605:9653   */\n      mstore\n        /* \"#utility.yul\":9670:9748   */\n      tag_441\n        /* \"#utility.yul\":9743:9747   */\n      dup2\n        /* \"#utility.yul\":9734:9740   */\n      dup8\n        /* \"#utility.yul\":9670:9748   */\n      tag_273\n      jump\t// in\n    tag_441:\n        /* \"#utility.yul\":9662:9748   */\n      swap1\n      pop\n        /* \"#utility.yul\":9758:9830   */\n      tag_442\n        /* \"#utility.yul\":9826:9828   */\n      0x60\n        /* \"#utility.yul\":9815:9824   */\n      dup4\n        /* \"#utility.yul\":9811:9829   */\n      add\n        /* \"#utility.yul\":9802:9808   */\n      dup7\n        /* \"#utility.yul\":9758:9830   */\n      tag_269\n      jump\t// in\n    tag_442:\n        /* \"#utility.yul\":9840:9913   */\n      tag_443\n        /* \"#utility.yul\":9908:9911   */\n      0x80\n        /* \"#utility.yul\":9897:9906   */\n      dup4\n        /* \"#utility.yul\":9893:9912   */\n      add\n        /* \"#utility.yul\":9884:9890   */\n      dup6\n        /* \"#utility.yul\":9840:9913   */\n      tag_274\n      jump\t// in\n    tag_443:\n        /* \"#utility.yul\":9923:9990   */\n      tag_444\n        /* \"#utility.yul\":9985:9988   */\n      0xa0\n        /* \"#utility.yul\":9974:9983   */\n      dup4\n        /* \"#utility.yul\":9970:9989   */\n      add\n        /* \"#utility.yul\":9961:9967   */\n      dup5\n        /* \"#utility.yul\":9923:9990   */\n      tag_276\n      jump\t// in\n    tag_444:\n        /* \"#utility.yul\":8961:9997   */\n      swap8\n      swap7\n      pop\n      pop\n      pop\n      pop\n      pop\n      pop\n      pop\n      jump\t// out\n        /* \"#utility.yul\":10003:10225   */\n    tag_47:\n        /* \"#utility.yul\":10096:10100   */\n      0x00\n        /* \"#utility.yul\":10134:10136   */\n      0x20\n        /* \"#utility.yul\":10123:10132   */\n      dup3\n        /* \"#utility.yul\":10119:10137   */\n      add\n        /* \"#utility.yul\":10111:10137   */\n      swap1\n      pop\n        /* \"#utility.yul\":10147:10218   */\n      tag_446\n        /* \"#utility.yul\":10215:10216   */\n      0x00\n        /* \"#utility.yul\":10204:10213   */\n      dup4\n        /* \"#utility.yul\":10200:10217   */\n      add\n        /* \"#utility.yul\":10191:10197   */\n      dup5\n        /* \"#utility.yul\":10147:10218   */\n      tag_274\n      jump\t// in\n    tag_446:\n        /* \"#utility.yul\":10003:10225   */\n      swap3\n      swap2\n      pop\n      pop\n      jump\t// out\n        /* \"#utility.yul\":10231:10372   */\n    tag_277:\n        /* \"#utility.yul\":10325:10331   */\n      0x00\n        /* \"#utility.yul\":10359:10364   */\n      dup2\n        /* \"#utility.yul\":10353:10365   */\n      mload\n        /* \"#utility.yul\":10343:10365   */\n      swap1\n      pop\n        /* \"#utility.yul\":10231:10372   */\n      swap2\n      swap1\n      pop\n      jump\t// out\n        /* \"#utility.yul\":10378:10589   */\n    tag_278:\n        /* \"#utility.yul\":10504:10515   */\n      0x00\n        /* \"#utility.yul\":10538:10544   */\n      dup3\n        /* \"#utility.yul\":10533:10536   */\n      dup3\n        /* \"#utility.yul\":10526:10545   */\n      mstore\n        /* \"#utility.yul\":10578:10582   */\n      0x20\n        /* \"#utility.yul\":10573:10576   */\n      dup3\n        /* \"#utility.yul\":10569:10583   */\n      add\n        /* \"#utility.yul\":10554:10583   */\n      swap1\n      pop\n        /* \"#utility.yul\":10378:10589   */\n      swap3\n      swap2\n      pop\n      pop\n      jump\t// out\n        /* \"#utility.yul\":10595:10754   */\n    tag_279:\n        /* \"#utility.yul\":10689:10693   */\n      0x00\n        /* \"#utility.yul\":10712:10715   */\n      dup2\n        /* \"#utility.yul\":10704:10715   */\n      swap1\n      pop\n        /* \"#utility.yul\":10742:10746   */\n      0x20\n        /* \"#utility.yul\":10737:10740   */\n      dup3\n        /* \"#utility.yul\":10733:10747   */\n      add\n        /* \"#utility.yul\":10725:10747   */\n      swap1\n      pop\n        /* \"#utility.yul\":10595:10754   */\n      swap2\n      swap1\n      pop\n      jump\t// out\n        /* \"#utility.yul\":10760:10868   */\n    tag_280:\n        /* \"#utility.yul\":10837:10861   */\n      tag_451\n        /* \"#utility.yul\":10855:10860   */\n      dup2\n        /* \"#utility.yul\":10837:10861   */\n      tag_256\n      jump\t// in\n    tag_451:\n        /* \"#utility.yul\":10832:10835   */\n      dup3\n        /* \"#utility.yul\":10825:10862   */\n      mstore\n        /* \"#utility.yul\":10760:10868   */\n      pop\n      pop\n      jump\t// out\n        /* \"#utility.yul\":10874:11003   */\n    tag_281:\n        /* \"#utility.yul\":10955:10996   */\n      tag_453\n        /* \"#utility.yul\":10990:10995   */\n      dup2\n        /* \"#utility.yul\":10955:10996   */\n      tag_261\n      jump\t// in\n    tag_453:\n        /* \"#utility.yul\":10950:10953   */\n      dup3\n        /* \"#utility.yul\":10943:10997   */\n      mstore\n        /* \"#utility.yul\":10874:11003   */\n      pop\n      pop\n      jump\t// out\n        /* \"#utility.yul\":11009:11168   */\n    tag_282:\n        /* \"#utility.yul\":11083:11094   */\n      0x00\n        /* \"#utility.yul\":11117:11123   */\n      dup3\n        /* \"#utility.yul\":11112:11115   */\n      dup3\n        /* \"#utility.yul\":11105:11124   */\n      mstore\n        /* \"#utility.yul\":11157:11161   */\n      0x20\n        /* \"#utility.yul\":11152:11155   */\n      dup3\n        /* \"#utility.yul\":11148:11162   */\n      add\n        /* \"#utility.yul\":11133:11162   */\n      swap1\n      pop\n        /* \"#utility.yul\":11009:11168   */\n      swap3\n      swap2\n      pop\n      pop\n      jump\t// out\n        /* \"#utility.yul\":11174:11531   */\n    tag_283:\n        /* \"#utility.yul\":11252:11255   */\n      0x00\n        /* \"#utility.yul\":11280:11319   */\n      tag_456\n        /* \"#utility.yul\":11313:11318   */\n      dup3\n        /* \"#utility.yul\":11280:11319   */\n      tag_270\n      jump\t// in\n    tag_456:\n        /* \"#utility.yul\":11335:11396   */\n      tag_457\n        /* \"#utility.yul\":11389:11395   */\n      dup2\n        /* \"#utility.yul\":11384:11387   */\n      dup6\n        /* \"#utility.yul\":11335:11396   */\n      tag_282\n      jump\t// in\n    tag_457:\n        /* \"#utility.yul\":11328:11396   */\n      swap4\n      pop\n        /* \"#utility.yul\":11405:11470   */\n      tag_458\n        /* \"#utility.yul\":11463:11469   */\n      dup2\n        /* \"#utility.yul\":11458:11461   */\n      dup6\n        /* \"#utility.yul\":11451:11455   */\n      0x20\n        /* \"#utility.yul\":11444:11449   */\n      dup7\n        /* \"#utility.yul\":11440:11456   */\n      add\n        /* \"#utility.yul\":11405:11470   */\n      tag_272\n      jump\t// in\n    tag_458:\n        /* \"#utility.yul\":11495:11524   */\n      tag_459\n        /* \"#utility.yul\":11517:11523   */\n      dup2\n        /* \"#utility.yul\":11495:11524   */\n      tag_247\n      jump\t// in\n    tag_459:\n        /* \"#utility.yul\":11490:11493   */\n      dup5\n        /* \"#utility.yul\":11486:11525   */\n      add\n        /* \"#utility.yul\":11479:11525   */\n      swap2\n      pop\n        /* \"#utility.yul\":11256:11531   */\n      pop\n        /* \"#utility.yul\":11174:11531   */\n      swap3\n      swap2\n      pop\n      pop\n      jump\t// out\n        /* \"#utility.yul\":11537:11642   */\n    tag_284:\n        /* \"#utility.yul\":11612:11635   */\n      tag_461\n        /* \"#utility.yul\":11629:11634   */\n      dup2\n        /* \"#utility.yul\":11612:11635   */\n      tag_265\n      jump\t// in\n    tag_461:\n        /* \"#utility.yul\":11607:11610   */\n      dup3\n        /* \"#utility.yul\":11600:11636   */\n      mstore\n        /* \"#utility.yul\":11537:11642   */\n      pop\n      pop\n      jump\t// out\n        /* \"#utility.yul\":11648:11756   */\n    tag_285:\n        /* \"#utility.yul\":11725:11749   */\n      tag_463\n        /* \"#utility.yul\":11743:11748   */\n      dup2\n        /* \"#utility.yul\":11725:11749   */\n      tag_268\n      jump\t// in\n    tag_463:\n        /* \"#utility.yul\":11720:11723   */\n      dup3\n        /* \"#utility.yul\":11713:11750   */\n      mstore\n        /* \"#utility.yul\":11648:11756   */\n      pop\n      pop\n      jump\t// out\n        /* \"#utility.yul\":11844:13234   */\n    tag_286:\n        /* \"#utility.yul\":11957:11960   */\n      0x00\n        /* \"#utility.yul\":11993:11997   */\n      0xc0\n        /* \"#utility.yul\":11988:11991   */\n      dup4\n        /* \"#utility.yul\":11984:11998   */\n      add\n        /* \"#utility.yul\":12083:12087   */\n      0x00\n        /* \"#utility.yul\":12076:12081   */\n      dup4\n        /* \"#utility.yul\":12072:12088   */\n      add\n        /* \"#utility.yul\":12066:12089   */\n      mload\n        /* \"#utility.yul\":12102:12165   */\n      tag_465\n        /* \"#utility.yul\":12159:12163   */\n      0x00\n        /* \"#utility.yul\":12154:12157   */\n      dup7\n        /* \"#utility.yul\":12150:12164   */\n      add\n        /* \"#utility.yul\":12136:12148   */\n      dup3\n        /* \"#utility.yul\":12102:12165   */\n      tag_280\n      jump\t// in\n    tag_465:\n        /* \"#utility.yul\":12008:12175   */\n      pop\n        /* \"#utility.yul\":12257:12261   */\n      0x20\n        /* \"#utility.yul\":12250:12255   */\n      dup4\n        /* \"#utility.yul\":12246:12262   */\n      add\n        /* \"#utility.yul\":12240:12263   */\n      mload\n        /* \"#utility.yul\":12276:12343   */\n      tag_466\n        /* \"#utility.yul\":12337:12341   */\n      0x20\n        /* \"#utility.yul\":12332:12335   */\n      dup7\n        /* \"#utility.yul\":12328:12342   */\n      add\n        /* \"#utility.yul\":12314:12326   */\n      dup3\n        /* \"#utility.yul\":12276:12343   */\n      tag_281\n      jump\t// in\n    tag_466:\n        /* \"#utility.yul\":12185:12353   */\n      pop\n        /* \"#utility.yul\":12439:12443   */\n      0x40\n        /* \"#utility.yul\":12432:12437   */\n      dup4\n        /* \"#utility.yul\":12428:12444   */\n      add\n        /* \"#utility.yul\":12422:12445   */\n      mload\n        /* \"#utility.yul\":12492:12495   */\n      dup5\n        /* \"#utility.yul\":12486:12490   */\n      dup3\n        /* \"#utility.yul\":12482:12496   */\n      sub\n        /* \"#utility.yul\":12475:12479   */\n      0x40\n        /* \"#utility.yul\":12470:12473   */\n      dup7\n        /* \"#utility.yul\":12466:12480   */\n      add\n        /* \"#utility.yul\":12459:12497   */\n      mstore\n        /* \"#utility.yul\":12518:12591   */\n      tag_467\n        /* \"#utility.yul\":12586:12590   */\n      dup3\n        /* \"#utility.yul\":12572:12584   */\n      dup3\n        /* \"#utility.yul\":12518:12591   */\n      tag_283\n      jump\t// in\n    tag_467:\n        /* \"#utility.yul\":12510:12591   */\n      swap2\n      pop\n        /* \"#utility.yul\":12363:12602   */\n      pop\n        /* \"#utility.yul\":12686:12690   */\n      0x60\n        /* \"#utility.yul\":12679:12684   */\n      dup4\n        /* \"#utility.yul\":12675:12691   */\n      add\n        /* \"#utility.yul\":12669:12692   */\n      mload\n        /* \"#utility.yul\":12739:12742   */\n      dup5\n        /* \"#utility.yul\":12733:12737   */\n      dup3\n        /* \"#utility.yul\":12729:12743   */\n      sub\n        /* \"#utility.yul\":12722:12726   */\n      0x60\n        /* \"#utility.yul\":12717:12720   */\n      dup7\n        /* \"#utility.yul\":12713:12727   */\n      add\n        /* \"#utility.yul\":12706:12744   */\n      mstore\n        /* \"#utility.yul\":12765:12838   */\n      tag_468\n        /* \"#utility.yul\":12833:12837   */\n      dup3\n        /* \"#utility.yul\":12819:12831   */\n      dup3\n        /* \"#utility.yul\":12765:12838   */\n      tag_283\n      jump\t// in\n    tag_468:\n        /* \"#utility.yul\":12757:12838   */\n      swap2\n      pop\n        /* \"#utility.yul\":12612:12849   */\n      pop\n        /* \"#utility.yul\":12938:12942   */\n      0x80\n        /* \"#utility.yul\":12931:12936   */\n      dup4\n        /* \"#utility.yul\":12927:12943   */\n      add\n        /* \"#utility.yul\":12921:12944   */\n      mload\n        /* \"#utility.yul\":12957:13018   */\n      tag_469\n        /* \"#utility.yul\":13012:13016   */\n      0x80\n        /* \"#utility.yul\":13007:13010   */\n      dup7\n        /* \"#utility.yul\":13003:13017   */\n      add\n        /* \"#utility.yul\":12989:13001   */\n      dup3\n        /* \"#utility.yul\":12957:13018   */\n      tag_284\n      jump\t// in\n    tag_469:\n        /* \"#utility.yul\":12859:13028   */\n      pop\n        /* \"#utility.yul\":13115:13119   */\n      0xa0\n        /* \"#utility.yul\":13108:13113   */\n      dup4\n        /* \"#utility.yul\":13104:13120   */\n      add\n        /* \"#utility.yul\":13098:13121   */\n      mload\n        /* \"#utility.yul\":13134:13197   */\n      tag_470\n        /* \"#utility.yul\":13191:13195   */\n      0xa0\n        /* \"#utility.yul\":13186:13189   */\n      dup7\n        /* \"#utility.yul\":13182:13196   */\n      add\n        /* \"#utility.yul\":13168:13180   */\n      dup3\n        /* \"#utility.yul\":13134:13197   */\n      tag_285\n      jump\t// in\n    tag_470:\n        /* \"#utility.yul\":13038:13207   */\n      pop\n        /* \"#utility.yul\":13224:13228   */\n      dup1\n        /* \"#utility.yul\":13217:13228   */\n      swap2\n      pop\n        /* \"#utility.yul\":11962:13234   */\n      pop\n        /* \"#utility.yul\":11844:13234   */\n      swap3\n      swap2\n      pop\n      pop\n      jump\t// out\n        /* \"#utility.yul\":13240:13504   */\n    tag_287:\n        /* \"#utility.yul\":13363:13373   */\n      0x00\n        /* \"#utility.yul\":13398:13498   */\n      tag_472\n        /* \"#utility.yul\":13494:13497   */\n      dup4\n        /* \"#utility.yul\":13486:13492   */\n      dup4\n        /* \"#utility.yul\":13398:13498   */\n      tag_286\n      jump\t// in\n    tag_472:\n        /* \"#utility.yul\":13384:13498   */\n      swap1\n      pop\n        /* \"#utility.yul\":13240:13504   */\n      swap3\n      swap2\n      pop\n      pop\n      jump\t// out\n        /* \"#utility.yul\":13510:13650   */\n    tag_288:\n        /* \"#utility.yul\":13607:13611   */\n      0x00\n        /* \"#utility.yul\":13639:13643   */\n      0x20\n        /* \"#utility.yul\":13634:13637   */\n      dup3\n        /* \"#utility.yul\":13630:13644   */\n      add\n        /* \"#utility.yul\":13622:13644   */\n      swap1\n      pop\n        /* \"#utility.yul\":13510:13650   */\n      swap2\n      swap1\n      pop\n      jump\t// out\n        /* \"#utility.yul\":13742:14869   */\n    tag_289:\n        /* \"#utility.yul\":13915:13918   */\n      0x00\n        /* \"#utility.yul\":13944:14025   */\n      tag_475\n        /* \"#utility.yul\":14019:14024   */\n      dup3\n        /* \"#utility.yul\":13944:14025   */\n      tag_277\n      jump\t// in\n    tag_475:\n        /* \"#utility.yul\":14041:14154   */\n      tag_476\n        /* \"#utility.yul\":14147:14153   */\n      dup2\n        /* \"#utility.yul\":14142:14145   */\n      dup6\n        /* \"#utility.yul\":14041:14154   */\n      tag_278\n      jump\t// in\n    tag_476:\n        /* \"#utility.yul\":14034:14154   */\n      swap4\n      pop\n        /* \"#utility.yul\":14180:14183   */\n      dup4\n        /* \"#utility.yul\":14225:14229   */\n      0x20\n        /* \"#utility.yul\":14217:14223   */\n      dup3\n        /* \"#utility.yul\":14213:14230   */\n      mul\n        /* \"#utility.yul\":14208:14211   */\n      dup6\n        /* \"#utility.yul\":14204:14231   */\n      add\n        /* \"#utility.yul\":14255:14338   */\n      tag_477\n        /* \"#utility.yul\":14332:14337   */\n      dup6\n        /* \"#utility.yul\":14255:14338   */\n      tag_279\n      jump\t// in\n    tag_477:\n        /* \"#utility.yul\":14361:14368   */\n      dup1\n        /* \"#utility.yul\":14392:14393   */\n      0x00\n        /* \"#utility.yul\":14377:14824   */\n    tag_478:\n        /* \"#utility.yul\":14402:14408   */\n      dup6\n        /* \"#utility.yul\":14399:14400   */\n      dup2\n        /* \"#utility.yul\":14396:14409   */\n      lt\n        /* \"#utility.yul\":14377:14824   */\n      iszero\n      tag_480\n      jumpi\n        /* \"#utility.yul\":14473:14482   */\n      dup5\n        /* \"#utility.yul\":14467:14471   */\n      dup5\n        /* \"#utility.yul\":14463:14483   */\n      sub\n        /* \"#utility.yul\":14458:14461   */\n      dup10\n        /* \"#utility.yul\":14451:14484   */\n      mstore\n        /* \"#utility.yul\":14524:14530   */\n      dup2\n        /* \"#utility.yul\":14518:14531   */\n      mload\n        /* \"#utility.yul\":14552:14670   */\n      tag_481\n        /* \"#utility.yul\":14665:14669   */\n      dup6\n        /* \"#utility.yul\":14650:14663   */\n      dup3\n        /* \"#utility.yul\":14552:14670   */\n      tag_287\n      jump\t// in\n    tag_481:\n        /* \"#utility.yul\":14544:14670   */\n      swap5\n      pop\n        /* \"#utility.yul\":14693:14780   */\n      tag_482\n        /* \"#utility.yul\":14773:14779   */\n      dup4\n        /* \"#utility.yul\":14693:14780   */\n      tag_288\n      jump\t// in\n    tag_482:\n        /* \"#utility.yul\":14683:14780   */\n      swap3\n      pop\n        /* \"#utility.yul\":14809:14813   */\n      0x20\n        /* \"#utility.yul\":14804:14807   */\n      dup11\n        /* \"#utility.yul\":14800:14814   */\n      add\n        /* \"#utility.yul\":14793:14814   */\n      swap10\n      pop\n        /* \"#utility.yul\":14437:14824   */\n      pop\n        /* \"#utility.yul\":14424:14425   */\n      0x01\n        /* \"#utility.yul\":14421:14422   */\n      dup2\n        /* \"#utility.yul\":14417:14426   */\n      add\n        /* \"#utility.yul\":14412:14426   */\n      swap1\n      pop\n        /* \"#utility.yul\":14377:14824   */\n      jump(tag_478)\n    tag_480:\n        /* \"#utility.yul\":14381:14395   */\n      pop\n        /* \"#utility.yul\":14840:14844   */\n      dup3\n        /* \"#utility.yul\":14833:14844   */\n      swap8\n      pop\n        /* \"#utility.yul\":14860:14863   */\n      dup8\n        /* \"#utility.yul\":14853:14863   */\n      swap6\n      pop\n        /* \"#utility.yul\":13920:14869   */\n      pop\n      pop\n      pop\n      pop\n      pop\n        /* \"#utility.yul\":13742:14869   */\n      swap3\n      swap2\n      pop\n      pop\n      jump\t// out\n        /* \"#utility.yul\":14875:15356   */\n    tag_56:\n        /* \"#utility.yul\":15072:15076   */\n      0x00\n        /* \"#utility.yul\":15110:15112   */\n      0x20\n        /* \"#utility.yul\":15099:15108   */\n      dup3\n        /* \"#utility.yul\":15095:15113   */\n      add\n        /* \"#utility.yul\":15087:15113   */\n      swap1\n      pop\n        /* \"#utility.yul\":15159:15168   */\n      dup2\n        /* \"#utility.yul\":15153:15157   */\n      dup2\n        /* \"#utility.yul\":15149:15169   */\n      sub\n        /* \"#utility.yul\":15145:15146   */\n      0x00\n        /* \"#utility.yul\":15134:15143   */\n      dup4\n        /* \"#utility.yul\":15130:15147   */\n      add\n        /* \"#utility.yul\":15123:15170   */\n      mstore\n        /* \"#utility.yul\":15187:15349   */\n      tag_484\n        /* \"#utility.yul\":15344:15348   */\n      dup2\n        /* \"#utility.yul\":15335:15341   */\n      dup5\n        /* \"#utility.yul\":15187:15349   */\n      tag_289\n      jump\t// in\n    tag_484:\n        /* \"#utility.yul\":15179:15349   */\n      swap1\n      pop\n        /* \"#utility.yul\":14875:15356   */\n      swap3\n      swap2\n      pop\n      pop\n      jump\t// out\n        /* \"#utility.yul\":15362:15484   */\n    tag_290:\n        /* \"#utility.yul\":15435:15459   */\n      tag_486\n        /* \"#utility.yul\":15453:15458   */\n      dup2\n        /* \"#utility.yul\":15435:15459   */\n      tag_268\n      jump\t// in\n    tag_486:\n        /* \"#utility.yul\":15428:15433   */\n      dup2\n        /* \"#utility.yul\":15425:15460   */\n      eq\n        /* \"#utility.yul\":15415:15478   */\n      tag_487\n      jumpi\n        /* \"#utility.yul\":15474:15475   */\n      0x00\n        /* \"#utility.yul\":15471:15472   */\n      0x00\n        /* \"#utility.yul\":15464:15476   */\n      revert\n        /* \"#utility.yul\":15415:15478   */\n    tag_487:\n        /* \"#utility.yul\":15362:15484   */\n      pop\n      jump\t// out\n        /* \"#utility.yul\":15490:15629   */\n    tag_291:\n        /* \"#utility.yul\":15536:15541   */\n      0x00\n        /* \"#utility.yul\":15574:15580   */\n      dup2\n        /* \"#utility.yul\":15561:15581   */\n      calldataload\n        /* \"#utility.yul\":15552:15581   */\n      swap1\n      pop\n        /* \"#utility.yul\":15590:15623   */\n      tag_489\n        /* \"#utility.yul\":15617:15622   */\n      dup2\n        /* \"#utility.yul\":15590:15623   */\n      tag_290\n      jump\t// in\n    tag_489:\n        /* \"#utility.yul\":15490:15629   */\n      swap3\n      swap2\n      pop\n      pop\n      jump\t// out\n        /* \"#utility.yul\":15635:16289   */\n    tag_59:\n        /* \"#utility.yul\":15713:15719   */\n      0x00\n        /* \"#utility.yul\":15721:15727   */\n      0x00\n        /* \"#utility.yul\":15770:15772   */\n      0x40\n        /* \"#utility.yul\":15758:15767   */\n      dup4\n        /* \"#utility.yul\":15749:15756   */\n      dup6\n        /* \"#utility.yul\":15745:15768   */\n      sub\n        /* \"#utility.yul\":15741:15773   */\n      slt\n        /* \"#utility.yul\":15738:15857   */\n      iszero\n      tag_491\n      jumpi\n        /* \"#utility.yul\":15776:15855   */\n      tag_492\n      tag_243\n      jump\t// in\n    tag_492:\n        /* \"#utility.yul\":15738:15857   */\n    tag_491:\n        /* \"#utility.yul\":15924:15925   */\n      0x00\n        /* \"#utility.yul\":15913:15922   */\n      dup4\n        /* \"#utility.yul\":15909:15926   */\n      add\n        /* \"#utility.yul\":15896:15927   */\n      calldataload\n        /* \"#utility.yul\":15954:15972   */\n      0xffffffffffffffff\n        /* \"#utility.yul\":15946:15952   */\n      dup2\n        /* \"#utility.yul\":15943:15973   */\n      gt\n        /* \"#utility.yul\":15940:16057   */\n      iszero\n      tag_493\n      jumpi\n        /* \"#utility.yul\":15976:16055   */\n      tag_494\n      tag_244\n      jump\t// in\n    tag_494:\n        /* \"#utility.yul\":15940:16057   */\n    tag_493:\n        /* \"#utility.yul\":16081:16144   */\n      tag_495\n        /* \"#utility.yul\":16136:16143   */\n      dup6\n        /* \"#utility.yul\":16127:16133   */\n      dup3\n        /* \"#utility.yul\":16116:16125   */\n      dup7\n        /* \"#utility.yul\":16112:16134   */\n      add\n        /* \"#utility.yul\":16081:16144   */\n      tag_254\n      jump\t// in\n    tag_495:\n        /* \"#utility.yul\":16071:16144   */\n      swap3\n      pop\n        /* \"#utility.yul\":15867:16154   */\n      pop\n        /* \"#utility.yul\":16193:16195   */\n      0x20\n        /* \"#utility.yul\":16219:16272   */\n      tag_496\n        /* \"#utility.yul\":16264:16271   */\n      dup6\n        /* \"#utility.yul\":16255:16261   */\n      dup3\n        /* \"#utility.yul\":16244:16253   */\n      dup7\n        /* \"#utility.yul\":16240:16262   */\n      add\n        /* \"#utility.yul\":16219:16272   */\n      tag_291\n      jump\t// in\n    tag_496:\n        /* \"#utility.yul\":16209:16272   */\n      swap2\n      pop\n        /* \"#utility.yul\":16164:16282   */\n      pop\n        /* \"#utility.yul\":15635:16289   */\n      swap3\n      pop\n      swap3\n      swap1\n      pop\n      jump\t// out\n        /* \"#utility.yul\":16295:16410   */\n    tag_292:\n        /* \"#utility.yul\":16380:16403   */\n      tag_498\n        /* \"#utility.yul\":16397:16402   */\n      dup2\n        /* \"#utility.yul\":16380:16403   */\n      tag_265\n      jump\t// in\n    tag_498:\n        /* \"#utility.yul\":16375:16378   */\n      dup3\n        /* \"#utility.yul\":16368:16404   */\n      mstore\n        /* \"#utility.yul\":16295:16410   */\n      pop\n      pop\n      jump\t// out\n        /* \"#utility.yul\":16416:17377   */\n    tag_62:\n        /* \"#utility.yul\":16691:16695   */\n      0x00\n        /* \"#utility.yul\":16729:16732   */\n      0xc0\n        /* \"#utility.yul\":16718:16727   */\n      dup3\n        /* \"#utility.yul\":16714:16733   */\n      add\n        /* \"#utility.yul\":16706:16733   */\n      swap1\n      pop\n        /* \"#utility.yul\":16743:16814   */\n      tag_500\n        /* \"#utility.yul\":16811:16812   */\n      0x00\n        /* \"#utility.yul\":16800:16809   */\n      dup4\n        /* \"#utility.yul\":16796:16813   */\n      add\n        /* \"#utility.yul\":16787:16793   */\n      dup10\n        /* \"#utility.yul\":16743:16814   */\n      tag_274\n      jump\t// in\n    tag_500:\n        /* \"#utility.yul\":16824:16900   */\n      tag_501\n        /* \"#utility.yul\":16896:16898   */\n      0x20\n        /* \"#utility.yul\":16885:16894   */\n      dup4\n        /* \"#utility.yul\":16881:16899   */\n      add\n        /* \"#utility.yul\":16872:16878   */\n      dup9\n        /* \"#utility.yul\":16824:16900   */\n      tag_262\n      jump\t// in\n    tag_501:\n        /* \"#utility.yul\":16947:16956   */\n      dup2\n        /* \"#utility.yul\":16941:16945   */\n      dup2\n        /* \"#utility.yul\":16937:16957   */\n      sub\n        /* \"#utility.yul\":16932:16934   */\n      0x40\n        /* \"#utility.yul\":16921:16930   */\n      dup4\n        /* \"#utility.yul\":16917:16935   */\n      add\n        /* \"#utility.yul\":16910:16958   */\n      mstore\n        /* \"#utility.yul\":16975:17053   */\n      tag_502\n        /* \"#utility.yul\":17048:17052   */\n      dup2\n        /* \"#utility.yul\":17039:17045   */\n      dup8\n        /* \"#utility.yul\":16975:17053   */\n      tag_273\n      jump\t// in\n    tag_502:\n        /* \"#utility.yul\":16967:17053   */\n      swap1\n      pop\n        /* \"#utility.yul\":17100:17109   */\n      dup2\n        /* \"#utility.yul\":17094:17098   */\n      dup2\n        /* \"#utility.yul\":17090:17110   */\n      sub\n        /* \"#utility.yul\":17085:17087   */\n      0x60\n        /* \"#utility.yul\":17074:17083   */\n      dup4\n        /* \"#utility.yul\":17070:17088   */\n      add\n        /* \"#utility.yul\":17063:17111   */\n      mstore\n        /* \"#utility.yul\":17128:17206   */\n      tag_503\n        /* \"#utility.yul\":17201:17205   */\n      dup2\n        /* \"#utility.yul\":17192:17198   */\n      dup7\n        /* \"#utility.yul\":17128:17206   */\n      tag_273\n      jump\t// in\n    tag_503:\n        /* \"#utility.yul\":17120:17206   */\n      swap1\n      pop\n        /* \"#utility.yul\":17216:17287   */\n      tag_504\n        /* \"#utility.yul\":17282:17285   */\n      0x80\n        /* \"#utility.yul\":17271:17280   */\n      dup4\n        /* \"#utility.yul\":17267:17286   */\n      add\n        /* \"#utility.yul\":17258:17264   */\n      dup6\n        /* \"#utility.yul\":17216:17287   */\n      tag_292\n      jump\t// in\n    tag_504:\n        /* \"#utility.yul\":17297:17370   */\n      tag_505\n        /* \"#utility.yul\":17365:17368   */\n      0xa0\n        /* \"#utility.yul\":17354:17363   */\n      dup4\n        /* \"#utility.yul\":17350:17369   */\n      add\n        /* \"#utility.yul\":17341:17347   */\n      dup5\n        /* \"#utility.yul\":17297:17370   */\n      tag_269\n      jump\t// in\n    tag_505:\n        /* \"#utility.yul\":16416:17377   */\n      swap8\n      swap7\n      pop\n      pop\n      pop\n      pop\n      pop\n      pop\n      pop\n      jump\t// out\n        /* \"#utility.yul\":17383:18688   */\n    tag_65:\n        /* \"#utility.yul\":17499:17505   */\n      0x00\n        /* \"#utility.yul\":17507:17513   */\n      0x00\n        /* \"#utility.yul\":17515:17521   */\n      0x00\n        /* \"#utility.yul\":17523:17529   */\n      0x00\n        /* \"#utility.yul\":17572:17575   */\n      0x80\n        /* \"#utility.yul\":17560:17569   */\n      dup6\n        /* \"#utility.yul\":17551:17558   */\n      dup8\n        /* \"#utility.yul\":17547:17570   */\n      sub\n        /* \"#utility.yul\":17543:17576   */\n      slt\n        /* \"#utility.yul\":17540:17660   */\n      iszero\n      tag_507\n      jumpi\n        /* \"#utility.yul\":17579:17658   */\n      tag_508\n      tag_243\n      jump\t// in\n    tag_508:\n        /* \"#utility.yul\":17540:17660   */\n    tag_507:\n        /* \"#utility.yul\":17727:17728   */\n      0x00\n        /* \"#utility.yul\":17716:17725   */\n      dup6\n        /* \"#utility.yul\":17712:17729   */\n      add\n        /* \"#utility.yul\":17699:17730   */\n      calldataload\n        /* \"#utility.yul\":17757:17775   */\n      0xffffffffffffffff\n        /* \"#utility.yul\":17749:17755   */\n      dup2\n        /* \"#utility.yul\":17746:17776   */\n      gt\n        /* \"#utility.yul\":17743:17860   */\n      iszero\n      tag_509\n      jumpi\n        /* \"#utility.yul\":17779:17858   */\n      tag_510\n      tag_244\n      jump\t// in\n    tag_510:\n        /* \"#utility.yul\":17743:17860   */\n    tag_509:\n        /* \"#utility.yul\":17884:17947   */\n      tag_511\n        /* \"#utility.yul\":17939:17946   */\n      dup8\n        /* \"#utility.yul\":17930:17936   */\n      dup3\n        /* \"#utility.yul\":17919:17928   */\n      dup9\n        /* \"#utility.yul\":17915:17937   */\n      add\n        /* \"#utility.yul\":17884:17947   */\n      tag_254\n      jump\t// in\n    tag_511:\n        /* \"#utility.yul\":17874:17947   */\n      swap5\n      pop\n        /* \"#utility.yul\":17670:17957   */\n      pop\n        /* \"#utility.yul\":18024:18026   */\n      0x20\n        /* \"#utility.yul\":18013:18022   */\n      dup6\n        /* \"#utility.yul\":18009:18027   */\n      add\n        /* \"#utility.yul\":17996:18028   */\n      calldataload\n        /* \"#utility.yul\":18055:18073   */\n      0xffffffffffffffff\n        /* \"#utility.yul\":18047:18053   */\n      dup2\n        /* \"#utility.yul\":18044:18074   */\n      gt\n        /* \"#utility.yul\":18041:18158   */\n      iszero\n      tag_512\n      jumpi\n        /* \"#utility.yul\":18077:18156   */\n      tag_513\n      tag_244\n      jump\t// in\n    tag_513:\n        /* \"#utility.yul\":18041:18158   */\n    tag_512:\n        /* \"#utility.yul\":18182:18245   */\n      tag_514\n        /* \"#utility.yul\":18237:18244   */\n      dup8\n        /* \"#utility.yul\":18228:18234   */\n      dup3\n        /* \"#utility.yul\":18217:18226   */\n      dup9\n        /* \"#utility.yul\":18213:18235   */\n      add\n        /* \"#utility.yul\":18182:18245   */\n      tag_254\n      jump\t// in\n    tag_514:\n        /* \"#utility.yul\":18172:18245   */\n      swap4\n      pop\n        /* \"#utility.yul\":17967:18255   */\n      pop\n        /* \"#utility.yul\":18322:18324   */\n      0x40\n        /* \"#utility.yul\":18311:18320   */\n      dup6\n        /* \"#utility.yul\":18307:18325   */\n      add\n        /* \"#utility.yul\":18294:18326   */\n      calldataload\n        /* \"#utility.yul\":18353:18371   */\n      0xffffffffffffffff\n        /* \"#utility.yul\":18345:18351   */\n      dup2\n        /* \"#utility.yul\":18342:18372   */\n      gt\n        /* \"#utility.yul\":18339:18456   */\n      iszero\n      tag_515\n      jumpi\n        /* \"#utility.yul\":18375:18454   */\n      tag_516\n      tag_244\n      jump\t// in\n    tag_516:\n        /* \"#utility.yul\":18339:18456   */\n    tag_515:\n        /* \"#utility.yul\":18480:18543   */\n      tag_517\n        /* \"#utility.yul\":18535:18542   */\n      dup8\n        /* \"#utility.yul\":18526:18532   */\n      dup3\n        /* \"#utility.yul\":18515:18524   */\n      dup9\n        /* \"#utility.yul\":18511:18533   */\n      add\n        /* \"#utility.yul\":18480:18543   */\n      tag_254\n      jump\t// in\n    tag_517:\n        /* \"#utility.yul\":18470:18543   */\n      swap3\n      pop\n        /* \"#utility.yul\":18265:18553   */\n      pop\n        /* \"#utility.yul\":18592:18594   */\n      0x60\n        /* \"#utility.yul\":18618:18671   */\n      tag_518\n        /* \"#utility.yul\":18663:18670   */\n      dup8\n        /* \"#utility.yul\":18654:18660   */\n      dup3\n        /* \"#utility.yul\":18643:18652   */\n      dup9\n        /* \"#utility.yul\":18639:18661   */\n      add\n        /* \"#utility.yul\":18618:18671   */\n      tag_291\n      jump\t// in\n    tag_518:\n        /* \"#utility.yul\":18608:18671   */\n      swap2\n      pop\n        /* \"#utility.yul\":18563:18681   */\n      pop\n        /* \"#utility.yul\":17383:18688   */\n      swap3\n      swap6\n      swap2\n      swap5\n      pop\n      swap3\n      pop\n      jump\t// out\n        /* \"#utility.yul\":18694:18793   */\n    tag_293:\n        /* \"#utility.yul\":18765:18786   */\n      tag_520\n        /* \"#utility.yul\":18780:18785   */\n      dup2\n        /* \"#utility.yul\":18765:18786   */\n      tag_275\n      jump\t// in\n    tag_520:\n        /* \"#utility.yul\":18760:18763   */\n      dup3\n        /* \"#utility.yul\":18753:18787   */\n      mstore\n        /* \"#utility.yul\":18694:18793   */\n      pop\n      pop\n      jump\t// out\n        /* \"#utility.yul\":18877:20345   */\n    tag_294:\n        /* \"#utility.yul\":18996:18999   */\n      0x00\n        /* \"#utility.yul\":19032:19036   */\n      0xc0\n        /* \"#utility.yul\":19027:19030   */\n      dup4\n        /* \"#utility.yul\":19023:19037   */\n      add\n        /* \"#utility.yul\":19122:19126   */\n      0x00\n        /* \"#utility.yul\":19115:19120   */\n      dup4\n        /* \"#utility.yul\":19111:19127   */\n      add\n        /* \"#utility.yul\":19105:19128   */\n      mload\n        /* \"#utility.yul\":19175:19178   */\n      dup5\n        /* \"#utility.yul\":19169:19173   */\n      dup3\n        /* \"#utility.yul\":19165:19179   */\n      sub\n        /* \"#utility.yul\":19158:19162   */\n      0x00\n        /* \"#utility.yul\":19153:19156   */\n      dup7\n        /* \"#utility.yul\":19149:19163   */\n      add\n        /* \"#utility.yul\":19142:19180   */\n      mstore\n        /* \"#utility.yul\":19201:19274   */\n      tag_522\n        /* \"#utility.yul\":19269:19273   */\n      dup3\n        /* \"#utility.yul\":19255:19267   */\n      dup3\n        /* \"#utility.yul\":19201:19274   */\n      tag_283\n      jump\t// in\n    tag_522:\n        /* \"#utility.yul\":19193:19274   */\n      swap2\n      pop\n        /* \"#utility.yul\":19047:19285   */\n      pop\n        /* \"#utility.yul\":19374:19378   */\n      0x20\n        /* \"#utility.yul\":19367:19372   */\n      dup4\n        /* \"#utility.yul\":19363:19379   */\n      add\n        /* \"#utility.yul\":19357:19380   */\n      mload\n        /* \"#utility.yul\":19427:19430   */\n      dup5\n        /* \"#utility.yul\":19421:19425   */\n      dup3\n        /* \"#utility.yul\":19417:19431   */\n      sub\n        /* \"#utility.yul\":19410:19414   */\n      0x20\n        /* \"#utility.yul\":19405:19408   */\n      dup7\n        /* \"#utility.yul\":19401:19415   */\n      add\n        /* \"#utility.yul\":19394:19432   */\n      mstore\n        /* \"#utility.yul\":19453:19526   */\n      tag_523\n        /* \"#utility.yul\":19521:19525   */\n      dup3\n        /* \"#utility.yul\":19507:19519   */\n      dup3\n        /* \"#utility.yul\":19453:19526   */\n      tag_283\n      jump\t// in\n    tag_523:\n        /* \"#utility.yul\":19445:19526   */\n      swap2\n      pop\n        /* \"#utility.yul\":19295:19537   */\n      pop\n        /* \"#utility.yul\":19621:19625   */\n      0x40\n        /* \"#utility.yul\":19614:19619   */\n      dup4\n        /* \"#utility.yul\":19610:19626   */\n      add\n        /* \"#utility.yul\":19604:19627   */\n      mload\n        /* \"#utility.yul\":19674:19677   */\n      dup5\n        /* \"#utility.yul\":19668:19672   */\n      dup3\n        /* \"#utility.yul\":19664:19678   */\n      sub\n        /* \"#utility.yul\":19657:19661   */\n      0x40\n        /* \"#utility.yul\":19652:19655   */\n      dup7\n        /* \"#utility.yul\":19648:19662   */\n      add\n        /* \"#utility.yul\":19641:19679   */\n      mstore\n        /* \"#utility.yul\":19700:19773   */\n      tag_524\n        /* \"#utility.yul\":19768:19772   */\n      dup3\n        /* \"#utility.yul\":19754:19766   */\n      dup3\n        /* \"#utility.yul\":19700:19773   */\n      tag_283\n      jump\t// in\n    tag_524:\n        /* \"#utility.yul\":19692:19773   */\n      swap2\n      pop\n        /* \"#utility.yul\":19547:19784   */\n      pop\n        /* \"#utility.yul\":19876:19880   */\n      0x60\n        /* \"#utility.yul\":19869:19874   */\n      dup4\n        /* \"#utility.yul\":19865:19881   */\n      add\n        /* \"#utility.yul\":19859:19882   */\n      mload\n        /* \"#utility.yul\":19895:19958   */\n      tag_525\n        /* \"#utility.yul\":19952:19956   */\n      0x60\n        /* \"#utility.yul\":19947:19950   */\n      dup7\n        /* \"#utility.yul\":19943:19957   */\n      add\n        /* \"#utility.yul\":19929:19941   */\n      dup3\n        /* \"#utility.yul\":19895:19958   */\n      tag_285\n      jump\t// in\n    tag_525:\n        /* \"#utility.yul\":19794:19968   */\n      pop\n        /* \"#utility.yul\":20054:20058   */\n      0x80\n        /* \"#utility.yul\":20047:20052   */\n      dup4\n        /* \"#utility.yul\":20043:20059   */\n      add\n        /* \"#utility.yul\":20037:20060   */\n      mload\n        /* \"#utility.yul\":20073:20136   */\n      tag_526\n        /* \"#utility.yul\":20130:20134   */\n      0x80\n        /* \"#utility.yul\":20125:20128   */\n      dup7\n        /* \"#utility.yul\":20121:20135   */\n      add\n        /* \"#utility.yul\":20107:20119   */\n      dup3\n        /* \"#utility.yul\":20073:20136   */\n      tag_280\n      jump\t// in\n    tag_526:\n        /* \"#utility.yul\":19978:20146   */\n      pop\n        /* \"#utility.yul\":20232:20236   */\n      0xa0\n        /* \"#utility.yul\":20225:20230   */\n      dup4\n        /* \"#utility.yul\":20221:20237   */\n      add\n        /* \"#utility.yul\":20215:20238   */\n      mload\n        /* \"#utility.yul\":20251:20308   */\n      tag_527\n        /* \"#utility.yul\":20302:20306   */\n      0xa0\n        /* \"#utility.yul\":20297:20300   */\n      dup7\n        /* \"#utility.yul\":20293:20307   */\n      add\n        /* \"#utility.yul\":20279:20291   */\n      dup3\n        /* \"#utility.yul\":20251:20308   */\n      tag_293\n      jump\t// in\n    tag_527:\n        /* \"#utility.yul\":20156:20318   */\n      pop\n        /* \"#utility.yul\":20335:20339   */\n      dup1\n        /* \"#utility.yul\":20328:20339   */\n      swap2\n      pop\n        /* \"#utility.yul\":19001:20345   */\n      pop\n        /* \"#utility.yul\":18877:20345   */\n      swap3\n      swap2\n      pop\n      pop\n      jump\t// out\n        /* \"#utility.yul\":20351:20724   */\n    tag_71:\n        /* \"#utility.yul\":20494:20498   */\n      0x00\n        /* \"#utility.yul\":20532:20534   */\n      0x20\n        /* \"#utility.yul\":20521:20530   */\n      dup3\n        /* \"#utility.yul\":20517:20535   */\n      add\n        /* \"#utility.yul\":20509:20535   */\n      swap1\n      pop\n        /* \"#utility.yul\":20581:20590   */\n      dup2\n        /* \"#utility.yul\":20575:20579   */\n      dup2\n        /* \"#utility.yul\":20571:20591   */\n      sub\n        /* \"#utility.yul\":20567:20568   */\n      0x00\n        /* \"#utility.yul\":20556:20565   */\n      dup4\n        /* \"#utility.yul\":20552:20569   */\n      add\n        /* \"#utility.yul\":20545:20592   */\n      mstore\n        /* \"#utility.yul\":20609:20717   */\n      tag_529\n        /* \"#utility.yul\":20712:20716   */\n      dup2\n        /* \"#utility.yul\":20703:20709   */\n      dup5\n        /* \"#utility.yul\":20609:20717   */\n      tag_294\n      jump\t// in\n    tag_529:\n        /* \"#utility.yul\":20601:20717   */\n      swap1\n      pop\n        /* \"#utility.yul\":20351:20724   */\n      swap3\n      swap2\n      pop\n      pop\n      jump\t// out\n        /* \"#utility.yul\":20730:20908   */\n    tag_295:\n        /* \"#utility.yul\":20870:20900   */\n      0x556e617574686f72697a65643a20696e636f727265637420726f6c6500000000\n        /* \"#utility.yul\":20866:20867   */\n      0x00\n        /* \"#utility.yul\":20858:20864   */\n      dup3\n        /* \"#utility.yul\":20854:20868   */\n      add\n        /* \"#utility.yul\":20847:20901   */\n      mstore\n        /* \"#utility.yul\":20730:20908   */\n      pop\n      jump\t// out\n        /* \"#utility.yul\":20914:21280   */\n    tag_296:\n        /* \"#utility.yul\":21056:21059   */\n      0x00\n        /* \"#utility.yul\":21077:21144   */\n      tag_532\n        /* \"#utility.yul\":21141:21143   */\n      0x1c\n        /* \"#utility.yul\":21136:21139   */\n      dup4\n        /* \"#utility.yul\":21077:21144   */\n      tag_271\n      jump\t// in\n    tag_532:\n        /* \"#utility.yul\":21070:21144   */\n      swap2\n      pop\n        /* \"#utility.yul\":21153:21246   */\n      tag_533\n        /* \"#utility.yul\":21242:21245   */\n      dup3\n        /* \"#utility.yul\":21153:21246   */\n      tag_295\n      jump\t// in\n    tag_533:\n        /* \"#utility.yul\":21271:21273   */\n      0x20\n        /* \"#utility.yul\":21266:21269   */\n      dup3\n        /* \"#utility.yul\":21262:21274   */\n      add\n        /* \"#utility.yul\":21255:21274   */\n      swap1\n      pop\n        /* \"#utility.yul\":20914:21280   */\n      swap2\n      swap1\n      pop\n      jump\t// out\n        /* \"#utility.yul\":21286:21705   */\n    tag_80:\n        /* \"#utility.yul\":21452:21456   */\n      0x00\n        /* \"#utility.yul\":21490:21492   */\n      0x20\n        /* \"#utility.yul\":21479:21488   */\n      dup3\n        /* \"#utility.yul\":21475:21493   */\n      add\n        /* \"#utility.yul\":21467:21493   */\n      swap1\n      pop\n        /* \"#utility.yul\":21539:21548   */\n      dup2\n        /* \"#utility.yul\":21533:21537   */\n      dup2\n        /* \"#utility.yul\":21529:21549   */\n      sub\n        /* \"#utility.yul\":21525:21526   */\n      0x00\n        /* \"#utility.yul\":21514:21523   */\n      dup4\n        /* \"#utility.yul\":21510:21527   */\n      add\n        /* \"#utility.yul\":21503:21550   */\n      mstore\n        /* \"#utility.yul\":21567:21698   */\n      tag_535\n        /* \"#utility.yul\":21693:21697   */\n      dup2\n        /* \"#utility.yul\":21567:21698   */\n      tag_296\n      jump\t// in\n    tag_535:\n        /* \"#utility.yul\":21559:21698   */\n      swap1\n      pop\n        /* \"#utility.yul\":21286:21705   */\n      swap2\n      swap1\n      pop\n      jump\t// out\n        /* \"#utility.yul\":21711:21859   */\n    tag_297:\n        /* \"#utility.yul\":21813:21824   */\n      0x00\n        /* \"#utility.yul\":21850:21853   */\n      dup2\n        /* \"#utility.yul\":21835:21853   */\n      swap1\n      pop\n        /* \"#utility.yul\":21711:21859   */\n      swap3\n      swap2\n      pop\n      pop\n      jump\t// out\n        /* \"#utility.yul\":21865:22255   */\n    tag_298:\n        /* \"#utility.yul\":21971:21974   */\n      0x00\n        /* \"#utility.yul\":21999:22038   */\n      tag_538\n        /* \"#utility.yul\":22032:22037   */\n      dup3\n        /* \"#utility.yul\":21999:22038   */\n      tag_270\n      jump\t// in\n    tag_538:\n        /* \"#utility.yul\":22054:22143   */\n      tag_539\n        /* \"#utility.yul\":22136:22142   */\n      dup2\n        /* \"#utility.yul\":22131:22134   */\n      dup6\n        /* \"#utility.yul\":22054:22143   */\n      tag_297\n      jump\t// in\n    tag_539:\n        /* \"#utility.yul\":22047:22143   */\n      swap4\n      pop\n        /* \"#utility.yul\":22152:22217   */\n      tag_540\n        /* \"#utility.yul\":22210:22216   */\n      dup2\n        /* \"#utility.yul\":22205:22208   */\n      dup6\n        /* \"#utility.yul\":22198:22202   */\n      0x20\n        /* \"#utility.yul\":22191:22196   */\n      dup7\n        /* \"#utility.yul\":22187:22203   */\n      add\n        /* \"#utility.yul\":22152:22217   */\n      tag_272\n      jump\t// in\n    tag_540:\n        /* \"#utility.yul\":22242:22248   */\n      dup1\n        /* \"#utility.yul\":22237:22240   */\n      dup5\n        /* \"#utility.yul\":22233:22249   */\n      add\n        /* \"#utility.yul\":22226:22249   */\n      swap2\n      pop\n        /* \"#utility.yul\":21975:22255   */\n      pop\n        /* \"#utility.yul\":21865:22255   */\n      swap3\n      swap2\n      pop\n      pop\n      jump\t// out\n        /* \"#utility.yul\":22261:22536   */\n    tag_83:\n        /* \"#utility.yul\":22393:22396   */\n      0x00\n        /* \"#utility.yul\":22415:22510   */\n      tag_542\n        /* \"#utility.yul\":22506:22509   */\n      dup3\n        /* \"#utility.yul\":22497:22503   */\n      dup5\n        /* \"#utility.yul\":22415:22510   */\n      tag_298\n      jump\t// in\n    tag_542:\n        /* \"#utility.yul\":22408:22510   */\n      swap2\n      pop\n        /* \"#utility.yul\":22527:22530   */\n      dup2\n        /* \"#utility.yul\":22520:22530   */\n      swap1\n      pop\n        /* \"#utility.yul\":22261:22536   */\n      swap3\n      swap2\n      pop\n      pop\n      jump\t// out\n        /* \"#utility.yul\":22542:22764   */\n    tag_299:\n        /* \"#utility.yul\":22682:22716   */\n      0x426174636820646f6573206e6f74206578697374206f7220697320696e616374\n        /* \"#utility.yul\":22678:22679   */\n      0x00\n        /* \"#utility.yul\":22670:22676   */\n      dup3\n        /* \"#utility.yul\":22666:22680   */\n      add\n        /* \"#utility.yul\":22659:22717   */\n      mstore\n        /* \"#utility.yul\":22751:22756   */\n      0x6976650000000000000000000000000000000000000000000000000000000000\n        /* \"#utility.yul\":22746:22748   */\n      0x20\n        /* \"#utility.yul\":22738:22744   */\n      dup3\n        /* \"#utility.yul\":22734:22749   */\n      add\n        /* \"#utility.yul\":22727:22757   */\n      mstore\n        /* \"#utility.yul\":22542:22764   */\n      pop\n      jump\t// out\n        /* \"#utility.yul\":22770:23136   */\n    tag_300:\n        /* \"#utility.yul\":22912:22915   */\n      0x00\n        /* \"#utility.yul\":22933:23000   */\n      tag_545\n        /* \"#utility.yul\":22997:22999   */\n      0x23\n        /* \"#utility.yul\":22992:22995   */\n      dup4\n        /* \"#utility.yul\":22933:23000   */\n      tag_271\n      jump\t// in\n    tag_545:\n        /* \"#utility.yul\":22926:23000   */\n      swap2\n      pop\n        /* \"#utility.yul\":23009:23102   */\n      tag_546\n        /* \"#utility.yul\":23098:23101   */\n      dup3\n        /* \"#utility.yul\":23009:23102   */\n      tag_299\n      jump\t// in\n    tag_546:\n        /* \"#utility.yul\":23127:23129   */\n      0x40\n        /* \"#utility.yul\":23122:23125   */\n      dup3\n        /* \"#utility.yul\":23118:23130   */\n      add\n        /* \"#utility.yul\":23111:23130   */\n      swap1\n      pop\n        /* \"#utility.yul\":22770:23136   */\n      swap2\n      swap1\n      pop\n      jump\t// out\n        /* \"#utility.yul\":23142:23561   */\n    tag_86:\n        /* \"#utility.yul\":23308:23312   */\n      0x00\n        /* \"#utility.yul\":23346:23348   */\n      0x20\n        /* \"#utility.yul\":23335:23344   */\n      dup3\n        /* \"#utility.yul\":23331:23349   */\n      add\n        /* \"#utility.yul\":23323:23349   */\n      swap1\n      pop\n        /* \"#utility.yul\":23395:23404   */\n      dup2\n        /* \"#utility.yul\":23389:23393   */\n      dup2\n        /* \"#utility.yul\":23385:23405   */\n      sub\n        /* \"#utility.yul\":23381:23382   */\n      0x00\n        /* \"#utility.yul\":23370:23379   */\n      dup4\n        /* \"#utility.yul\":23366:23383   */\n      add\n        /* \"#utility.yul\":23359:23406   */\n      mstore\n        /* \"#utility.yul\":23423:23554   */\n      tag_548\n        /* \"#utility.yul\":23549:23553   */\n      dup2\n        /* \"#utility.yul\":23423:23554   */\n      tag_300\n      jump\t// in\n    tag_548:\n        /* \"#utility.yul\":23415:23554   */\n      swap1\n      pop\n        /* \"#utility.yul\":23142:23561   */\n      swap2\n      swap1\n      pop\n      jump\t// out\n        /* \"#utility.yul\":23567:23741   */\n    tag_301:\n        /* \"#utility.yul\":23707:23733   */\n      0x4f6e6c79206f776e65722063616e2063616c6c20746869730000000000000000\n        /* \"#utility.yul\":23703:23704   */\n      0x00\n        /* \"#utility.yul\":23695:23701   */\n      dup3\n        /* \"#utility.yul\":23691:23705   */\n      add\n        /* \"#utility.yul\":23684:23734   */\n      mstore\n        /* \"#utility.yul\":23567:23741   */\n      pop\n      jump\t// out\n        /* \"#utility.yul\":23747:24113   */\n    tag_302:\n        /* \"#utility.yul\":23889:23892   */\n      0x00\n        /* \"#utility.yul\":23910:23977   */\n      tag_551\n        /* \"#utility.yul\":23974:23976   */\n      0x18\n        /* \"#utility.yul\":23969:23972   */\n      dup4\n        /* \"#utility.yul\":23910:23977   */\n      tag_271\n      jump\t// in\n    tag_551:\n        /* \"#utility.yul\":23903:23977   */\n      swap2\n      pop\n        /* \"#utility.yul\":23986:24079   */\n      tag_552\n        /* \"#utility.yul\":24075:24078   */\n      dup3\n        /* \"#utility.yul\":23986:24079   */\n      tag_301\n      jump\t// in\n    tag_552:\n        /* \"#utility.yul\":24104:24106   */\n      0x20\n        /* \"#utility.yul\":24099:24102   */\n      dup3\n        /* \"#utility.yul\":24095:24107   */\n      add\n        /* \"#utility.yul\":24088:24107   */\n      swap1\n      pop\n        /* \"#utility.yul\":23747:24113   */\n      swap2\n      swap1\n      pop\n      jump\t// out\n        /* \"#utility.yul\":24119:24538   */\n    tag_93:\n        /* \"#utility.yul\":24285:24289   */\n      0x00\n        /* \"#utility.yul\":24323:24325   */\n      0x20\n        /* \"#utility.yul\":24312:24321   */\n      dup3\n        /* \"#utility.yul\":24308:24326   */\n      add\n        /* \"#utility.yul\":24300:24326   */\n      swap1\n      pop\n        /* \"#utility.yul\":24372:24381   */\n      dup2\n        /* \"#utility.yul\":24366:24370   */\n      dup2\n        /* \"#utility.yul\":24362:24382   */\n      sub\n        /* \"#utility.yul\":24358:24359   */\n      0x00\n        /* \"#utility.yul\":24347:24356   */\n      dup4\n        /* \"#utility.yul\":24343:24360   */\n      add\n        /* \"#utility.yul\":24336:24383   */\n      mstore\n        /* \"#utility.yul\":24400:24531   */\n      tag_554\n        /* \"#utility.yul\":24526:24530   */\n      dup2\n        /* \"#utility.yul\":24400:24531   */\n      tag_302\n      jump\t// in\n    tag_554:\n        /* \"#utility.yul\":24392:24531   */\n      swap1\n      pop\n        /* \"#utility.yul\":24119:24538   */\n      swap2\n      swap1\n      pop\n      jump\t// out\n        /* \"#utility.yul\":24544:24769   */\n    tag_303:\n        /* \"#utility.yul\":24684:24718   */\n      0x43616c6c6572206973206e6f7420612072656769737465726564207061727469\n        /* \"#utility.yul\":24680:24681   */\n      0x00\n        /* \"#utility.yul\":24672:24678   */\n      dup3\n        /* \"#utility.yul\":24668:24682   */\n      add\n        /* \"#utility.yul\":24661:24719   */\n      mstore\n        /* \"#utility.yul\":24753:24761   */\n      0x636970616e740000000000000000000000000000000000000000000000000000\n        /* \"#utility.yul\":24748:24750   */\n      0x20\n        /* \"#utility.yul\":24740:24746   */\n      dup3\n        /* \"#utility.yul\":24736:24751   */\n      add\n        /* \"#utility.yul\":24729:24762   */\n      mstore\n        /* \"#utility.yul\":24544:24769   */\n      pop\n      jump\t// out\n        /* \"#utility.yul\":24775:25141   */\n    tag_304:\n        /* \"#utility.yul\":24917:24920   */\n      0x00\n        /* \"#utility.yul\":24938:25005   */\n      tag_557\n        /* \"#utility.yul\":25002:25004   */\n      0x26\n        /* \"#utility.yul\":24997:25000   */\n      dup4\n        /* \"#utility.yul\":24938:25005   */\n      tag_271\n      jump\t// in\n    tag_557:\n        /* \"#utility.yul\":24931:25005   */\n      swap2\n      pop\n        /* \"#utility.yul\":25014:25107   */\n      tag_558\n        /* \"#utility.yul\":25103:25106   */\n      dup3\n        /* \"#utility.yul\":25014:25107   */\n      tag_303\n      jump\t// in\n    tag_558:\n        /* \"#utility.yul\":25132:25134   */\n      0x40\n        /* \"#utility.yul\":25127:25130   */\n      dup3\n        /* \"#utility.yul\":25123:25135   */\n      add\n        /* \"#utility.yul\":25116:25135   */\n      swap1\n      pop\n        /* \"#utility.yul\":24775:25141   */\n      swap2\n      swap1\n      pop\n      jump\t// out\n        /* \"#utility.yul\":25147:25566   */\n    tag_109:\n        /* \"#utility.yul\":25313:25317   */\n      0x00\n        /* \"#utility.yul\":25351:25353   */\n      0x20\n        /* \"#utility.yul\":25340:25349   */\n      dup3\n        /* \"#utility.yul\":25336:25354   */\n      add\n        /* \"#utility.yul\":25328:25354   */\n      swap1\n      pop\n        /* \"#utility.yul\":25400:25409   */\n      dup2\n        /* \"#utility.yul\":25394:25398   */\n      dup2\n        /* \"#utility.yul\":25390:25410   */\n      sub\n        /* \"#utility.yul\":25386:25387   */\n      0x00\n        /* \"#utility.yul\":25375:25384   */\n      dup4\n        /* \"#utility.yul\":25371:25388   */\n      add\n        /* \"#utility.yul\":25364:25411   */\n      mstore\n        /* \"#utility.yul\":25428:25559   */\n      tag_560\n        /* \"#utility.yul\":25554:25558   */\n      dup2\n        /* \"#utility.yul\":25428:25559   */\n      tag_304\n      jump\t// in\n    tag_560:\n        /* \"#utility.yul\":25420:25559   */\n      swap1\n      pop\n        /* \"#utility.yul\":25147:25566   */\n      swap2\n      swap1\n      pop\n      jump\t// out\n        /* \"#utility.yul\":25572:25752   */\n    tag_305:\n        /* \"#utility.yul\":25620:25697   */\n      0x4e487b7100000000000000000000000000000000000000000000000000000000\n        /* \"#utility.yul\":25617:25618   */\n      0x00\n        /* \"#utility.yul\":25610:25698   */\n      mstore\n        /* \"#utility.yul\":25717:25721   */\n      0x22\n        /* \"#utility.yul\":25714:25715   */\n      0x04\n        /* \"#utility.yul\":25707:25722   */\n      mstore\n        /* \"#utility.yul\":25741:25745   */\n      0x24\n        /* \"#utility.yul\":25738:25739   */\n      0x00\n        /* \"#utility.yul\":25731:25746   */\n      revert\n        /* \"#utility.yul\":25758:26078   */\n    tag_130:\n        /* \"#utility.yul\":25802:25808   */\n      0x00\n        /* \"#utility.yul\":25839:25840   */\n      0x02\n        /* \"#utility.yul\":25833:25837   */\n      dup3\n        /* \"#utility.yul\":25829:25841   */\n      div\n        /* \"#utility.yul\":25819:25841   */\n      swap1\n      pop\n        /* \"#utility.yul\":25886:25887   */\n      0x01\n        /* \"#utility.yul\":25880:25884   */\n      dup3\n        /* \"#utility.yul\":25876:25888   */\n      and\n        /* \"#utility.yul\":25907:25925   */\n      dup1\n        /* \"#utility.yul\":25897:25978   */\n      tag_563\n      jumpi\n        /* \"#utility.yul\":25963:25967   */\n      0x7f\n        /* \"#utility.yul\":25955:25961   */\n      dup3\n        /* \"#utility.yul\":25951:25968   */\n      and\n        /* \"#utility.yul\":25941:25968   */\n      swap2\n      pop\n        /* \"#utility.yul\":25897:25978   */\n    tag_563:\n        /* \"#utility.yul\":26025:26027   */\n      0x20\n        /* \"#utility.yul\":26017:26023   */\n      dup3\n        /* \"#utility.yul\":26014:26028   */\n      lt\n        /* \"#utility.yul\":25994:26012   */\n      dup2\n        /* \"#utility.yul\":25991:26029   */\n      sub\n        /* \"#utility.yul\":25988:26072   */\n      tag_564\n      jumpi\n        /* \"#utility.yul\":26044:26062   */\n      tag_565\n      tag_305\n      jump\t// in\n    tag_565:\n        /* \"#utility.yul\":25988:26072   */\n    tag_564:\n        /* \"#utility.yul\":25809:26078   */\n      pop\n        /* \"#utility.yul\":25758:26078   */\n      swap2\n      swap1\n      pop\n      jump\t// out\n        /* \"#utility.yul\":26084:26225   */\n    tag_306:\n        /* \"#utility.yul\":26133:26137   */\n      0x00\n        /* \"#utility.yul\":26156:26159   */\n      dup2\n        /* \"#utility.yul\":26148:26159   */\n      swap1\n      pop\n        /* \"#utility.yul\":26179:26182   */\n      dup2\n        /* \"#utility.yul\":26176:26177   */\n      0x00\n        /* \"#utility.yul\":26169:26183   */\n      mstore\n        /* \"#utility.yul\":26213:26217   */\n      0x20\n        /* \"#utility.yul\":26210:26211   */\n      0x00\n        /* \"#utility.yul\":26200:26218   */\n      keccak256\n        /* \"#utility.yul\":26192:26218   */\n      swap1\n      pop\n        /* \"#utility.yul\":26084:26225   */\n      swap2\n      swap1\n      pop\n      jump\t// out\n        /* \"#utility.yul\":26231:26324   */\n    tag_307:\n        /* \"#utility.yul\":26268:26274   */\n      0x00\n        /* \"#utility.yul\":26315:26317   */\n      0x20\n        /* \"#utility.yul\":26310:26312   */\n      0x1f\n        /* \"#utility.yul\":26303:26308   */\n      dup4\n        /* \"#utility.yul\":26299:26313   */\n      add\n        /* \"#utility.yul\":26295:26318   */\n      div\n        /* \"#utility.yul\":26285:26318   */\n      swap1\n      pop\n        /* \"#utility.yul\":26231:26324   */\n      swap2\n      swap1\n      pop\n      jump\t// out\n        /* \"#utility.yul\":26330:26437   */\n    tag_308:\n        /* \"#utility.yul\":26374:26382   */\n      0x00\n        /* \"#utility.yul\":26424:26429   */\n      dup3\n        /* \"#utility.yul\":26418:26422   */\n      dup3\n        /* \"#utility.yul\":26414:26430   */\n      shl\n        /* \"#utility.yul\":26393:26430   */\n      swap1\n      pop\n        /* \"#utility.yul\":26330:26437   */\n      swap3\n      swap2\n      pop\n      pop\n      jump\t// out\n        /* \"#utility.yul\":26443:26836   */\n    tag_309:\n        /* \"#utility.yul\":26512:26518   */\n      0x00\n        /* \"#utility.yul\":26562:26563   */\n      0x08\n        /* \"#utility.yul\":26550:26560   */\n      dup4\n        /* \"#utility.yul\":26546:26564   */\n      mul\n        /* \"#utility.yul\":26585:26682   */\n      tag_570\n        /* \"#utility.yul\":26615:26681   */\n      0xffffffffffffffffffffffffffffffffffffffffffffffffffffffffffffffff\n        /* \"#utility.yul\":26604:26613   */\n      dup3\n        /* \"#utility.yul\":26585:26682   */\n      tag_308\n      jump\t// in\n    tag_570:\n        /* \"#utility.yul\":26703:26742   */\n      tag_571\n        /* \"#utility.yul\":26733:26741   */\n      dup7\n        /* \"#utility.yul\":26722:26731   */\n      dup4\n        /* \"#utility.yul\":26703:26742   */\n      tag_308\n      jump\t// in\n    tag_571:\n        /* \"#utility.yul\":26691:26742   */\n      swap6\n      pop\n        /* \"#utility.yul\":26775:26779   */\n      dup1\n        /* \"#utility.yul\":26771:26780   */\n      not\n        /* \"#utility.yul\":26764:26769   */\n      dup5\n        /* \"#utility.yul\":26760:26781   */\n      and\n        /* \"#utility.yul\":26751:26781   */\n      swap4\n      pop\n        /* \"#utility.yul\":26824:26828   */\n      dup1\n        /* \"#utility.yul\":26814:26822   */\n      dup7\n        /* \"#utility.yul\":26810:26829   */\n      and\n        /* \"#utility.yul\":26803:26808   */\n      dup5\n        /* \"#utility.yul\":26800:26830   */\n      or\n        /* \"#utility.yul\":26790:26830   */\n      swap3\n      pop\n        /* \"#utility.yul\":26519:26836   */\n      pop\n      pop\n        /* \"#utility.yul\":26443:26836   */\n      swap4\n      swap3\n      pop\n      pop\n      pop\n      jump\t// out\n        /* \"#utility.yul\":26842:26902   */\n    tag_310:\n        /* \"#utility.yul\":26870:26873   */\n      0x00\n        /* \"#utility.yul\":26891:26896   */\n      dup2\n        /* \"#utility.yul\":26884:26896   */\n      swap1\n      pop\n        /* \"#utility.yul\":26842:26902   */\n      swap2\n      swap1\n      pop\n      jump\t// out\n        /* \"#utility.yul\":26908:27050   */\n    tag_311:\n        /* \"#utility.yul\":26958:26967   */\n      0x00\n        /* \"#utility.yul\":26991:27044   */\n      tag_574\n        /* \"#utility.yul\":27009:27043   */\n      tag_575\n        /* \"#utility.yul\":27018:27042   */\n      tag_576\n        /* \"#utility.yul\":27036:27041   */\n      dup5\n        /* \"#utility.yul\":27018:27042   */\n      tag_268\n      jump\t// in\n    tag_576:\n        /* \"#utility.yul\":27009:27043   */\n      tag_310\n      jump\t// in\n    tag_575:\n        /* \"#utility.yul\":26991:27044   */\n      tag_268\n      jump\t// in\n    tag_574:\n        /* \"#utility.yul\":26978:27044   */\n      swap1\n      pop\n        /* \"#utility.yul\":26908:27050   */\n      swap2\n      swap1\n      pop\n      jump\t// out\n        /* \"#utility.yul\":27056:27131   */\n    tag_312:\n        /* \"#utility.yul\":27099:27102   */\n      0x00\n        /* \"#utility.yul\":27120:27125   */\n      dup2\n        /* \"#utility.yul\":27113:27125   */\n      swap1\n      pop\n        /* \"#utility.yul\":27056:27131   */\n      swap2\n      swap1\n      pop\n      jump\t// out\n        /* \"#utility.yul\":27137:27406   */\n    tag_313:\n        /* \"#utility.yul\":27247:27286   */\n      tag_579\n        /* \"#utility.yul\":27278:27285   */\n      dup4\n        /* \"#utility.yul\":27247:27286   */\n      tag_311\n      jump\t// in\n    tag_579:\n        /* \"#utility.yul\":27308:27399   */\n      tag_580\n        /* \"#utility.yul\":27357:27398   */\n      tag_581\n        /* \"#utility.yul\":27381:27397   */\n      dup3\n        /* \"#utility.yul\":27357:27398   */\n      tag_312\n      jump\t// in\n    tag_581:\n        /* \"#utility.yul\":27349:27355   */\n      dup5\n        /* \"#utility.yul\":27342:27346   */\n      dup5\n        /* \"#utility.yul\":27336:27347   */\n      sload\n        /* \"#utility.yul\":27308:27399   */\n      tag_309\n      jump\t// in\n    tag_580:\n        /* \"#utility.yul\":27302:27306   */\n      dup3\n        /* \"#utility.yul\":27295:27400   */\n      sstore\n        /* \"#utility.yul\":27213:27406   */\n      pop\n        /* \"#utility.yul\":27137:27406   */\n      pop\n      pop\n      pop\n      jump\t// out\n        /* \"#utility.yul\":27412:27485   */\n    tag_314:\n        /* \"#utility.yul\":27457:27460   */\n      0x00\n        /* \"#utility.yul\":27478:27479   */\n      0x00\n        /* \"#utility.yul\":27471:27479   */\n      swap1\n      pop\n        /* \"#utility.yul\":27412:27485   */\n      swap1\n      jump\t// out\n        /* \"#utility.yul\":27491:27680   */\n    tag_315:\n        /* \"#utility.yul\":27568:27600   */\n      tag_584\n      tag_314\n      jump\t// in\n    tag_584:\n        /* \"#utility.yul\":27609:27674   */\n      tag_585\n        /* \"#utility.yul\":27667:27673   */\n      dup2\n        /* \"#utility.yul\":27659:27665   */\n      dup5\n        /* \"#utility.yul\":27653:27657   */\n      dup5\n        /* \"#utility.yul\":27609:27674   */\n      tag_313\n      jump\t// in\n    tag_585:\n        /* \"#utility.yul\":27544:27680   */\n      pop\n        /* \"#utility.yul\":27491:27680   */\n      pop\n      pop\n      jump\t// out\n        /* \"#utility.yul\":27686:27900   */\n    tag_316:\n        /* \"#utility.yul\":27771:27772   */\n      0x00\n        /* \"#utility.yul\":27756:27894   */\n    tag_587:\n        /* \"#utility.yul\":27781:27790   */\n      dup3\n        /* \"#utility.yul\":27778:27779   */\n      dup2\n        /* \"#utility.yul\":27775:27791   */\n      lt\n        /* \"#utility.yul\":27756:27894   */\n      iszero\n      tag_589\n      jumpi\n        /* \"#utility.yul\":27833:27884   */\n      tag_590\n        /* \"#utility.yul\":27882:27883   */\n      0x00\n        /* \"#utility.yul\":27878:27879   */\n      dup3\n        /* \"#utility.yul\":27867:27876   */\n      dup5\n        /* \"#utility.yul\":27863:27880   */\n      add\n        /* \"#utility.yul\":27833:27884   */\n      tag_315\n      jump\t// in\n    tag_590:\n        /* \"#utility.yul\":27806:27807   */\n      0x01\n        /* \"#utility.yul\":27803:27804   */\n      dup2\n        /* \"#utility.yul\":27799:27808   */\n      add\n        /* \"#utility.yul\":27794:27808   */\n      swap1\n      pop\n        /* \"#utility.yul\":27756:27894   */\n      jump(tag_587)\n    tag_589:\n        /* \"#utility.yul\":27760:27774   */\n      pop\n        /* \"#utility.yul\":27686:27900   */\n      pop\n      pop\n      jump\t// out\n        /* \"#utility.yul\":27906:28652   */\n    tag_317:\n        /* \"#utility.yul\":28007:28009   */\n      0x1f\n        /* \"#utility.yul\":28002:28005   */\n      dup3\n        /* \"#utility.yul\":27999:28010   */\n      gt\n        /* \"#utility.yul\":27996:28645   */\n      iszero\n      tag_592\n      jumpi\n        /* \"#utility.yul\":28036:28046   */\n      dup3\n        /* \"#utility.yul\":28031:28034   */\n      dup3\n        /* \"#utility.yul\":28028:28047   */\n      gt\n        /* \"#utility.yul\":28025:28635   */\n      iszero\n      tag_593\n      jumpi\n        /* \"#utility.yul\":28082:28120   */\n      tag_594\n        /* \"#utility.yul\":28114:28119   */\n      dup2\n        /* \"#utility.yul\":28082:28120   */\n      tag_306\n      jump\t// in\n    tag_594:\n        /* \"#utility.yul\":28157:28179   */\n      tag_595\n        /* \"#utility.yul\":28175:28178   */\n      dup4\n        /* \"#utility.yul\":28157:28179   */\n      tag_307\n      jump\t// in\n    tag_595:\n        /* \"#utility.yul\":28216:28245   */\n      tag_596\n        /* \"#utility.yul\":28234:28244   */\n      dup6\n        /* \"#utility.yul\":28216:28245   */\n      tag_307\n      jump\t// in\n    tag_596:\n        /* \"#utility.yul\":28406:28408   */\n      0x20\n        /* \"#utility.yul\":28394:28404   */\n      dup7\n        /* \"#utility.yul\":28391:28409   */\n      lt\n        /* \"#utility.yul\":28388:28467   */\n      iszero\n      tag_597\n      jumpi\n        /* \"#utility.yul\":28448:28449   */\n      0x00\n        /* \"#utility.yul\":28432:28449   */\n      swap1\n      pop\n        /* \"#utility.yul\":28388:28467   */\n    tag_597:\n        /* \"#utility.yul\":28517:28529   */\n      dup1\n        /* \"#utility.yul\":28507:28515   */\n      dup4\n        /* \"#utility.yul\":28503:28530   */\n      add\n        /* \"#utility.yul\":28547:28621   */\n      tag_598\n        /* \"#utility.yul\":28607:28619   */\n      dup3\n        /* \"#utility.yul\":28593:28605   */\n      dup5\n        /* \"#utility.yul\":28589:28620   */\n      sub\n        /* \"#utility.yul\":28576:28587   */\n      dup3\n        /* \"#utility.yul\":28547:28621   */\n      tag_316\n      jump\t// in\n    tag_598:\n        /* \"#utility.yul\":28048:28635   */\n      pop\n      pop\n      pop\n      pop\n        /* \"#utility.yul\":28025:28635   */\n    tag_593:\n        /* \"#utility.yul\":27996:28645   */\n    tag_592:\n        /* \"#utility.yul\":27906:28652   */\n      pop\n      pop\n      pop\n      jump\t// out\n        /* \"#utility.yul\":28658:28775   */\n    tag_318:\n        /* \"#utility.yul\":28712:28720   */\n      0x00\n        /* \"#utility.yul\":28762:28767   */\n      dup3\n        /* \"#utility.yul\":28756:28760   */\n      dup3\n        /* \"#utility.yul\":28752:28768   */\n      shr\n        /* \"#utility.yul\":28731:28768   */\n      swap1\n      pop\n        /* \"#utility.yul\":28658:28775   */\n      swap3\n      swap2\n      pop\n      pop\n      jump\t// out\n        /* \"#utility.yul\":28781:28950   */\n    tag_319:\n        /* \"#utility.yul\":28825:28831   */\n      0x00\n        /* \"#utility.yul\":28858:28909   */\n      tag_601\n        /* \"#utility.yul\":28906:28907   */\n      0x00\n        /* \"#utility.yul\":28902:28908   */\n      not\n        /* \"#utility.yul\":28894:28899   */\n      dup5\n        /* \"#utility.yul\":28891:28892   */\n      0x08\n        /* \"#utility.yul\":28887:28900   */\n      mul\n        /* \"#utility.yul\":28858:28909   */\n      tag_318\n      jump\t// in\n    tag_601:\n        /* \"#utility.yul\":28854:28910   */\n      not\n        /* \"#utility.yul\":28939:28943   */\n      dup1\n        /* \"#utility.yul\":28933:28937   */\n      dup4\n        /* \"#utility.yul\":28929:28944   */\n      and\n        /* \"#utility.yul\":28919:28944   */\n      swap2\n      pop\n        /* \"#utility.yul\":28832:28950   */\n      pop\n        /* \"#utility.yul\":28781:28950   */\n      swap3\n      swap2\n      pop\n      pop\n      jump\t// out\n        /* \"#utility.yul\":28955:29250   */\n    tag_320:\n        /* \"#utility.yul\":29031:29035   */\n      0x00\n        /* \"#utility.yul\":29177:29206   */\n      tag_603\n        /* \"#utility.yul\":29202:29205   */\n      dup4\n        /* \"#utility.yul\":29196:29200   */\n      dup4\n        /* \"#utility.yul\":29177:29206   */\n      tag_319\n      jump\t// in\n    tag_603:\n        /* \"#utility.yul\":29169:29206   */\n      swap2\n      pop\n        /* \"#utility.yul\":29239:29242   */\n      dup3\n        /* \"#utility.yul\":29236:29237   */\n      0x02\n        /* \"#utility.yul\":29232:29243   */\n      mul\n        /* \"#utility.yul\":29226:29230   */\n      dup3\n        /* \"#utility.yul\":29223:29244   */\n      or\n        /* \"#utility.yul\":29215:29244   */\n      swap1\n      pop\n        /* \"#utility.yul\":28955:29250   */\n      swap3\n      swap2\n      pop\n      pop\n      jump\t// out\n        /* \"#utility.yul\":29255:30650   */\n    tag_118:\n        /* \"#utility.yul\":29372:29409   */\n      tag_605\n        /* \"#utility.yul\":29405:29408   */\n      dup3\n        /* \"#utility.yul\":29372:29409   */\n      tag_270\n      jump\t// in\n    tag_605:\n        /* \"#utility.yul\":29474:29492   */\n      0xffffffffffffffff\n        /* \"#utility.yul\":29466:29472   */\n      dup2\n        /* \"#utility.yul\":29463:29493   */\n      gt\n        /* \"#utility.yul\":29460:29516   */\n      iszero\n      tag_606\n      jumpi\n        /* \"#utility.yul\":29496:29514   */\n      tag_607\n      tag_248\n      jump\t// in\n    tag_607:\n        /* \"#utility.yul\":29460:29516   */\n    tag_606:\n        /* \"#utility.yul\":29540:29578   */\n      tag_608\n        /* \"#utility.yul\":29572:29576   */\n      dup3\n        /* \"#utility.yul\":29566:29577   */\n      sload\n        /* \"#utility.yul\":29540:29578   */\n      tag_130\n      jump\t// in\n    tag_608:\n        /* \"#utility.yul\":29625:29692   */\n      tag_609\n        /* \"#utility.yul\":29685:29691   */\n      dup3\n        /* \"#utility.yul\":29677:29683   */\n      dup3\n        /* \"#utility.yul\":29671:29675   */\n      dup6\n        /* \"#utility.yul\":29625:29692   */\n      tag_317\n      jump\t// in\n    tag_609:\n        /* \"#utility.yul\":29719:29720   */\n      0x00\n        /* \"#utility.yul\":29743:29747   */\n      0x20\n        /* \"#utility.yul\":29730:29747   */\n      swap1\n      pop\n        /* \"#utility.yul\":29775:29777   */\n      0x1f\n        /* \"#utility.yul\":29767:29773   */\n      dup4\n        /* \"#utility.yul\":29764:29778   */\n      gt\n        /* \"#utility.yul\":29792:29793   */\n      0x01\n        /* \"#utility.yul\":29787:30405   */\n      dup2\n      eq\n      tag_611\n      jumpi\n        /* \"#utility.yul\":30449:30450   */\n      0x00\n        /* \"#utility.yul\":30466:30472   */\n      dup5\n        /* \"#utility.yul\":30463:30540   */\n      iszero\n      tag_612\n      jumpi\n        /* \"#utility.yul\":30515:30524   */\n      dup3\n        /* \"#utility.yul\":30510:30513   */\n      dup8\n        /* \"#utility.yul\":30506:30525   */\n      add\n        /* \"#utility.yul\":30500:30526   */\n      mload\n        /* \"#utility.yul\":30491:30526   */\n      swap1\n      pop\n        /* \"#utility.yul\":30463:30540   */\n    tag_612:\n        /* \"#utility.yul\":30566:30633   */\n      tag_613\n        /* \"#utility.yul\":30626:30632   */\n      dup6\n        /* \"#utility.yul\":30619:30624   */\n      dup3\n        /* \"#utility.yul\":30566:30633   */\n      tag_320\n      jump\t// in\n    tag_613:\n        /* \"#utility.yul\":30560:30564   */\n      dup7\n        /* \"#utility.yul\":30553:30634   */\n      sstore\n        /* \"#utility.yul\":30422:30644   */\n      pop\n        /* \"#utility.yul\":29757:30644   */\n      jump(tag_610)\n        /* \"#utility.yul\":29787:30405   */\n    tag_611:\n        /* \"#utility.yul\":29839:29843   */\n      0x1f\n        /* \"#utility.yul\":29835:29844   */\n      not\n        /* \"#utility.yul\":29827:29833   */\n      dup5\n        /* \"#utility.yul\":29823:29845   */\n      and\n        /* \"#utility.yul\":29873:29910   */\n      tag_614\n        /* \"#utility.yul\":29905:29909   */\n      dup7\n        /* \"#utility.yul\":29873:29910   */\n      tag_306\n      jump\t// in\n    tag_614:\n        /* \"#utility.yul\":29932:29933   */\n      0x00\n        /* \"#utility.yul\":29946:30154   */\n    tag_615:\n        /* \"#utility.yul\":29960:29967   */\n      dup3\n        /* \"#utility.yul\":29957:29958   */\n      dup2\n        /* \"#utility.yul\":29954:29968   */\n      lt\n        /* \"#utility.yul\":29946:30154   */\n      iszero\n      tag_617\n      jumpi\n        /* \"#utility.yul\":30039:30048   */\n      dup5\n        /* \"#utility.yul\":30034:30037   */\n      dup10\n        /* \"#utility.yul\":30030:30049   */\n      add\n        /* \"#utility.yul\":30024:30050   */\n      mload\n        /* \"#utility.yul\":30016:30022   */\n      dup3\n        /* \"#utility.yul\":30009:30051   */\n      sstore\n        /* \"#utility.yul\":30090:30091   */\n      0x01\n        /* \"#utility.yul\":30082:30088   */\n      dup3\n        /* \"#utility.yul\":30078:30092   */\n      add\n        /* \"#utility.yul\":30068:30092   */\n      swap2\n      pop\n        /* \"#utility.yul\":30137:30139   */\n      0x20\n        /* \"#utility.yul\":30126:30135   */\n      dup6\n        /* \"#utility.yul\":30122:30140   */\n      add\n        /* \"#utility.yul\":30109:30140   */\n      swap5\n      pop\n        /* \"#utility.yul\":29983:29987   */\n      0x20\n        /* \"#utility.yul\":29980:29981   */\n      dup2\n        /* \"#utility.yul\":29976:29988   */\n      add\n        /* \"#utility.yul\":29971:29988   */\n      swap1\n      pop\n        /* \"#utility.yul\":29946:30154   */\n      jump(tag_615)\n    tag_617:\n        /* \"#utility.yul\":30182:30188   */\n      dup7\n        /* \"#utility.yul\":30173:30180   */\n      dup4\n        /* \"#utility.yul\":30170:30189   */\n      lt\n        /* \"#utility.yul\":30167:30346   */\n      iszero\n      tag_618\n      jumpi\n        /* \"#utility.yul\":30240:30249   */\n      dup5\n        /* \"#utility.yul\":30235:30238   */\n      dup10\n        /* \"#utility.yul\":30231:30250   */\n      add\n        /* \"#utility.yul\":30225:30251   */\n      mload\n        /* \"#utility.yul\":30283:30331   */\n      tag_619\n        /* \"#utility.yul\":30325:30329   */\n      0x1f\n        /* \"#utility.yul\":30317:30323   */\n      dup10\n        /* \"#utility.yul\":30313:30330   */\n      and\n        /* \"#utility.yul\":30302:30311   */\n      dup3\n        /* \"#utility.yul\":30283:30331   */\n      tag_319\n      jump\t// in\n    tag_619:\n        /* \"#utility.yul\":30275:30281   */\n      dup4\n        /* \"#utility.yul\":30268:30332   */\n      sstore\n        /* \"#utility.yul\":30190:30346   */\n      pop\n        /* \"#utility.yul\":30167:30346   */\n    tag_618:\n        /* \"#utility.yul\":30392:30393   */\n      0x01\n        /* \"#utility.yul\":30388:30389   */\n      0x02\n        /* \"#utility.yul\":30380:30386   */\n      dup9\n        /* \"#utility.yul\":30376:30390   */\n      mul\n        /* \"#utility.yul\":30372:30394   */\n      add\n        /* \"#utility.yul\":30366:30370   */\n      dup9\n        /* \"#utility.yul\":30359:30395   */\n      sstore\n        /* \"#utility.yul\":29794:30405   */\n      pop\n      pop\n      pop\n        /* \"#utility.yul\":29757:30644   */\n    tag_610:\n      pop\n        /* \"#utility.yul\":29347:30650   */\n      pop\n      pop\n      pop\n        /* \"#utility.yul\":29255:30650   */\n      pop\n      pop\n      jump\t// out\n        /* \"#utility.yul\":30656:30984   */\n    tag_123:\n        /* \"#utility.yul\":30775:30779   */\n      0x00\n        /* \"#utility.yul\":30813:30815   */\n      0x40\n        /* \"#utility.yul\":30802:30811   */\n      dup3\n        /* \"#utility.yul\":30798:30816   */\n      add\n        /* \"#utility.yul\":30790:30816   */\n      swap1\n      pop\n        /* \"#utility.yul\":30826:30895   */\n      tag_621\n        /* \"#utility.yul\":30892:30893   */\n      0x00\n        /* \"#utility.yul\":30881:30890   */\n      dup4\n        /* \"#utility.yul\":30877:30894   */\n      add\n        /* \"#utility.yul\":30868:30874   */\n      dup6\n        /* \"#utility.yul\":30826:30895   */\n      tag_292\n      jump\t// in\n    tag_621:\n        /* \"#utility.yul\":30905:30977   */\n      tag_622\n        /* \"#utility.yul\":30973:30975   */\n      0x20\n        /* \"#utility.yul\":30962:30971   */\n      dup4\n        /* \"#utility.yul\":30958:30976   */\n      add\n        /* \"#utility.yul\":30949:30955   */\n      dup5\n        /* \"#utility.yul\":30905:30977   */\n      tag_274\n      jump\t// in\n    tag_622:\n        /* \"#utility.yul\":30656:30984   */\n      swap4\n      swap3\n      pop\n      pop\n      pop\n      jump\t// out\n        /* \"#utility.yul\":30990:31523   */\n    tag_126:\n        /* \"#utility.yul\":31159:31163   */\n      0x00\n        /* \"#utility.yul\":31197:31199   */\n      0x60\n        /* \"#utility.yul\":31186:31195   */\n      dup3\n        /* \"#utility.yul\":31182:31200   */\n      add\n        /* \"#utility.yul\":31174:31200   */\n      swap1\n      pop\n        /* \"#utility.yul\":31210:31281   */\n      tag_624\n        /* \"#utility.yul\":31278:31279   */\n      0x00\n        /* \"#utility.yul\":31267:31276   */\n      dup4\n        /* \"#utility.yul\":31263:31280   */\n      add\n        /* \"#utility.yul\":31254:31260   */\n      dup7\n        /* \"#utility.yul\":31210:31281   */\n      tag_274\n      jump\t// in\n    tag_624:\n        /* \"#utility.yul\":31328:31337   */\n      dup2\n        /* \"#utility.yul\":31322:31326   */\n      dup2\n        /* \"#utility.yul\":31318:31338   */\n      sub\n        /* \"#utility.yul\":31313:31315   */\n      0x20\n        /* \"#utility.yul\":31302:31311   */\n      dup4\n        /* \"#utility.yul\":31298:31316   */\n      add\n        /* \"#utility.yul\":31291:31339   */\n      mstore\n        /* \"#utility.yul\":31356:31434   */\n      tag_625\n        /* \"#utility.yul\":31429:31433   */\n      dup2\n        /* \"#utility.yul\":31420:31426   */\n      dup6\n        /* \"#utility.yul\":31356:31434   */\n      tag_273\n      jump\t// in\n    tag_625:\n        /* \"#utility.yul\":31348:31434   */\n      swap1\n      pop\n        /* \"#utility.yul\":31444:31516   */\n      tag_626\n        /* \"#utility.yul\":31512:31514   */\n      0x40\n        /* \"#utility.yul\":31501:31510   */\n      dup4\n        /* \"#utility.yul\":31497:31515   */\n      add\n        /* \"#utility.yul\":31488:31494   */\n      dup5\n        /* \"#utility.yul\":31444:31516   */\n      tag_269\n      jump\t// in\n    tag_626:\n        /* \"#utility.yul\":30990:31523   */\n      swap5\n      swap4\n      pop\n      pop\n      pop\n      pop\n      jump\t// out\n        /* \"#utility.yul\":31529:31694   */\n    tag_321:\n        /* \"#utility.yul\":31669:31686   */\n      0x4261746368206e6f7420666f756e640000000000000000000000000000000000\n        /* \"#utility.yul\":31665:31666   */\n      0x00\n        /* \"#utility.yul\":31657:31663   */\n      dup3\n        /* \"#utility.yul\":31653:31667   */\n      add\n        /* \"#utility.yul\":31646:31687   */\n      mstore\n        /* \"#utility.yul\":31529:31694   */\n      pop\n      jump\t// out\n        /* \"#utility.yul\":31700:32066   */\n    tag_322:\n        /* \"#utility.yul\":31842:31845   */\n      0x00\n        /* \"#utility.yul\":31863:31930   */\n      tag_629\n        /* \"#utility.yul\":31927:31929   */\n      0x0f\n        /* \"#utility.yul\":31922:31925   */\n      dup4\n        /* \"#utility.yul\":31863:31930   */\n      tag_271\n      jump\t// in\n    tag_629:\n        /* \"#utility.yul\":31856:31930   */\n      swap2\n      pop\n        /* \"#utility.yul\":31939:32032   */\n      tag_630\n        /* \"#utility.yul\":32028:32031   */\n      dup3\n        /* \"#utility.yul\":31939:32032   */\n      tag_321\n      jump\t// in\n    tag_630:\n        /* \"#utility.yul\":32057:32059   */\n      0x20\n        /* \"#utility.yul\":32052:32055   */\n      dup3\n        /* \"#utility.yul\":32048:32060   */\n      add\n        /* \"#utility.yul\":32041:32060   */\n      swap1\n      pop\n        /* \"#utility.yul\":31700:32066   */\n      swap2\n      swap1\n      pop\n      jump\t// out\n        /* \"#utility.yul\":32072:32491   */\n    tag_133:\n        /* \"#utility.yul\":32238:32242   */\n      0x00\n        /* \"#utility.yul\":32276:32278   */\n      0x20\n        /* \"#utility.yul\":32265:32274   */\n      dup3\n        /* \"#utility.yul\":32261:32279   */\n      add\n        /* \"#utility.yul\":32253:32279   */\n      swap1\n      pop\n        /* \"#utility.yul\":32325:32334   */\n      dup2\n        /* \"#utility.yul\":32319:32323   */\n      dup2\n        /* \"#utility.yul\":32315:32335   */\n      sub\n        /* \"#utility.yul\":32311:32312   */\n      0x00\n        /* \"#utility.yul\":32300:32309   */\n      dup4\n        /* \"#utility.yul\":32296:32313   */\n      add\n        /* \"#utility.yul\":32289:32336   */\n      mstore\n        /* \"#utility.yul\":32353:32484   */\n      tag_632\n        /* \"#utility.yul\":32479:32483   */\n      dup2\n        /* \"#utility.yul\":32353:32484   */\n      tag_322\n      jump\t// in\n    tag_632:\n        /* \"#utility.yul\":32345:32484   */\n      swap1\n      pop\n        /* \"#utility.yul\":32072:32491   */\n      swap2\n      swap1\n      pop\n      jump\t// out\n        /* \"#utility.yul\":32497:32671   */\n    tag_323:\n        /* \"#utility.yul\":32637:32663   */\n      0x42617463682049442063616e6e6f7420626520656d7074790000000000000000\n        /* \"#utility.yul\":32633:32634   */\n      0x00\n        /* \"#utility.yul\":32625:32631   */\n      dup3\n        /* \"#utility.yul\":32621:32635   */\n      add\n        /* \"#utility.yul\":32614:32664   */\n      mstore\n        /* \"#utility.yul\":32497:32671   */\n      pop\n      jump\t// out\n        /* \"#utility.yul\":32677:33043   */\n    tag_324:\n        /* \"#utility.yul\":32819:32822   */\n      0x00\n        /* \"#utility.yul\":32840:32907   */\n      tag_635\n        /* \"#utility.yul\":32904:32906   */\n      0x18\n        /* \"#utility.yul\":32899:32902   */\n      dup4\n        /* \"#utility.yul\":32840:32907   */\n      tag_271\n      jump\t// in\n    tag_635:\n        /* \"#utility.yul\":32833:32907   */\n      swap2\n      pop\n        /* \"#utility.yul\":32916:33009   */\n      tag_636\n        /* \"#utility.yul\":33005:33008   */\n      dup3\n        /* \"#utility.yul\":32916:33009   */\n      tag_323\n      jump\t// in\n    tag_636:\n        /* \"#utility.yul\":33034:33036   */\n      0x20\n        /* \"#utility.yul\":33029:33032   */\n      dup3\n        /* \"#utility.yul\":33025:33037   */\n      add\n        /* \"#utility.yul\":33018:33037   */\n      swap1\n      pop\n        /* \"#utility.yul\":32677:33043   */\n      swap2\n      swap1\n      pop\n      jump\t// out\n        /* \"#utility.yul\":33049:33468   */\n    tag_195:\n        /* \"#utility.yul\":33215:33219   */\n      0x00\n        /* \"#utility.yul\":33253:33255   */\n      0x20\n        /* \"#utility.yul\":33242:33251   */\n      dup3\n        /* \"#utility.yul\":33238:33256   */\n      add\n        /* \"#utility.yul\":33230:33256   */\n      swap1\n      pop\n        /* \"#utility.yul\":33302:33311   */\n      dup2\n        /* \"#utility.yul\":33296:33300   */\n      dup2\n        /* \"#utility.yul\":33292:33312   */\n      sub\n        /* \"#utility.yul\":33288:33289   */\n      0x00\n        /* \"#utility.yul\":33277:33286   */\n      dup4\n        /* \"#utility.yul\":33273:33290   */\n      add\n        /* \"#utility.yul\":33266:33313   */\n      mstore\n        /* \"#utility.yul\":33330:33461   */\n      tag_638\n        /* \"#utility.yul\":33456:33460   */\n      dup2\n        /* \"#utility.yul\":33330:33461   */\n      tag_324\n      jump\t// in\n    tag_638:\n        /* \"#utility.yul\":33322:33461   */\n      swap1\n      pop\n        /* \"#utility.yul\":33049:33468   */\n      swap2\n      swap1\n      pop\n      jump\t// out\n        /* \"#utility.yul\":33474:33651   */\n    tag_325:\n        /* \"#utility.yul\":33614:33643   */\n      0x426174636820494420616c726561647920726567697374657265640000000000\n        /* \"#utility.yul\":33610:33611   */\n      0x00\n        /* \"#utility.yul\":33602:33608   */\n      dup3\n        /* \"#utility.yul\":33598:33612   */\n      add\n        /* \"#utility.yul\":33591:33644   */\n      mstore\n        /* \"#utility.yul\":33474:33651   */\n      pop\n      jump\t// out\n        /* \"#utility.yul\":33657:34023   */\n    tag_326:\n        /* \"#utility.yul\":33799:33802   */\n      0x00\n        /* \"#utility.yul\":33820:33887   */\n      tag_641\n        /* \"#utility.yul\":33884:33886   */\n      0x1b\n        /* \"#utility.yul\":33879:33882   */\n      dup4\n        /* \"#utility.yul\":33820:33887   */\n      tag_271\n      jump\t// in\n    tag_641:\n        /* \"#utility.yul\":33813:33887   */\n      swap2\n      pop\n        /* \"#utility.yul\":33896:33989   */\n      tag_642\n        /* \"#utility.yul\":33985:33988   */\n      dup3\n        /* \"#utility.yul\":33896:33989   */\n      tag_325\n      jump\t// in\n    tag_642:\n        /* \"#utility.yul\":34014:34016   */\n      0x20\n        /* \"#utility.yul\":34009:34012   */\n      dup3\n        /* \"#utility.yul\":34005:34017   */\n      add\n        /* \"#utility.yul\":33998:34017   */\n      swap1\n      pop\n        /* \"#utility.yul\":33657:34023   */\n      swap2\n      swap1\n      pop\n      jump\t// out\n        /* \"#utility.yul\":34029:34448   */\n    tag_200:\n        /* \"#utility.yul\":34195:34199   */\n      0x00\n        /* \"#utility.yul\":34233:34235   */\n      0x20\n        /* \"#utility.yul\":34222:34231   */\n      dup3\n        /* \"#utility.yul\":34218:34236   */\n      add\n        /* \"#utility.yul\":34210:34236   */\n      swap1\n      pop\n        /* \"#utility.yul\":34282:34291   */\n      dup2\n        /* \"#utility.yul\":34276:34280   */\n      dup2\n        /* \"#utility.yul\":34272:34292   */\n      sub\n        /* \"#utility.yul\":34268:34269   */\n      0x00\n        /* \"#utility.yul\":34257:34266   */\n      dup4\n        /* \"#utility.yul\":34253:34270   */\n      add\n        /* \"#utility.yul\":34246:34293   */\n      mstore\n        /* \"#utility.yul\":34310:34441   */\n      tag_644\n        /* \"#utility.yul\":34436:34440   */\n      dup2\n        /* \"#utility.yul\":34310:34441   */\n      tag_326\n      jump\t// in\n    tag_644:\n        /* \"#utility.yul\":34302:34441   */\n      swap1\n      pop\n        /* \"#utility.yul\":34029:34448   */\n      swap2\n      swap1\n      pop\n      jump\t// out\n        /* \"#utility.yul\":34454:34877   */\n    tag_215:\n        /* \"#utility.yul\":34595:34599   */\n      0x00\n        /* \"#utility.yul\":34633:34635   */\n      0x40\n        /* \"#utility.yul\":34622:34631   */\n      dup3\n        /* \"#utility.yul\":34618:34636   */\n      add\n        /* \"#utility.yul\":34610:34636   */\n      swap1\n      pop\n        /* \"#utility.yul\":34682:34691   */\n      dup2\n        /* \"#utility.yul\":34676:34680   */\n      dup2\n        /* \"#utility.yul\":34672:34692   */\n      sub\n        /* \"#utility.yul\":34668:34669   */\n      0x00\n        /* \"#utility.yul\":34657:34666   */\n      dup4\n        /* \"#utility.yul\":34653:34670   */\n      add\n        /* \"#utility.yul\":34646:34693   */\n      mstore\n        /* \"#utility.yul\":34710:34788   */\n      tag_646\n        /* \"#utility.yul\":34783:34787   */\n      dup2\n        /* \"#utility.yul\":34774:34780   */\n      dup6\n        /* \"#utility.yul\":34710:34788   */\n      tag_273\n      jump\t// in\n    tag_646:\n        /* \"#utility.yul\":34702:34788   */\n      swap1\n      pop\n        /* \"#utility.yul\":34798:34870   */\n      tag_647\n        /* \"#utility.yul\":34866:34868   */\n      0x20\n        /* \"#utility.yul\":34855:34864   */\n      dup4\n        /* \"#utility.yul\":34851:34869   */\n      add\n        /* \"#utility.yul\":34842:34848   */\n      dup5\n        /* \"#utility.yul\":34798:34870   */\n      tag_274\n      jump\t// in\n    tag_647:\n        /* \"#utility.yul\":34454:34877   */\n      swap4\n      swap3\n      pop\n      pop\n      pop\n      jump\t// out\n        /* \"#utility.yul\":34883:35116   */\n    tag_327:\n        /* \"#utility.yul\":35023:35057   */\n      0x50726f647563742068617276657374656420616e642072656769737465726564\n        /* \"#utility.yul\":35019:35020   */\n      0x00\n        /* \"#utility.yul\":35011:35017   */\n      dup3\n        /* \"#utility.yul\":35007:35021   */\n      add\n        /* \"#utility.yul\":35000:35058   */\n      mstore\n        /* \"#utility.yul\":35092:35108   */\n      0x206f6e20626c6f636b636861696e000000000000000000000000000000000000\n        /* \"#utility.yul\":35087:35089   */\n      0x20\n        /* \"#utility.yul\":35079:35085   */\n      dup3\n        /* \"#utility.yul\":35075:35090   */\n      add\n        /* \"#utility.yul\":35068:35109   */\n      mstore\n        /* \"#utility.yul\":34883:35116   */\n      pop\n      jump\t// out\n        /* \"#utility.yul\":35122:35488   */\n    tag_328:\n        /* \"#utility.yul\":35264:35267   */\n      0x00\n        /* \"#utility.yul\":35285:35352   */\n      tag_650\n        /* \"#utility.yul\":35349:35351   */\n      0x2e\n        /* \"#utility.yul\":35344:35347   */\n      dup4\n        /* \"#utility.yul\":35285:35352   */\n      tag_271\n      jump\t// in\n    tag_650:\n        /* \"#utility.yul\":35278:35352   */\n      swap2\n      pop\n        /* \"#utility.yul\":35361:35454   */\n      tag_651\n        /* \"#utility.yul\":35450:35453   */\n      dup3\n        /* \"#utility.yul\":35361:35454   */\n      tag_327\n      jump\t// in\n    tag_651:\n        /* \"#utility.yul\":35479:35481   */\n      0x40\n        /* \"#utility.yul\":35474:35477   */\n      dup3\n        /* \"#utility.yul\":35470:35482   */\n      add\n        /* \"#utility.yul\":35463:35482   */\n      swap1\n      pop\n        /* \"#utility.yul\":35122:35488   */\n      swap2\n      swap1\n      pop\n      jump\t// out\n        /* \"#utility.yul\":35494:36133   */\n    tag_218:\n        /* \"#utility.yul\":35716:35720   */\n      0x00\n        /* \"#utility.yul\":35754:35756   */\n      0x60\n        /* \"#utility.yul\":35743:35752   */\n      dup3\n        /* \"#utility.yul\":35739:35757   */\n      add\n        /* \"#utility.yul\":35731:35757   */\n      swap1\n      pop\n        /* \"#utility.yul\":35767:35838   */\n      tag_653\n        /* \"#utility.yul\":35835:35836   */\n      0x00\n        /* \"#utility.yul\":35824:35833   */\n      dup4\n        /* \"#utility.yul\":35820:35837   */\n      add\n        /* \"#utility.yul\":35811:35817   */\n      dup6\n        /* \"#utility.yul\":35767:35838   */\n      tag_274\n      jump\t// in\n    tag_653:\n        /* \"#utility.yul\":35885:35894   */\n      dup2\n        /* \"#utility.yul\":35879:35883   */\n      dup2\n        /* \"#utility.yul\":35875:35895   */\n      sub\n        /* \"#utility.yul\":35870:35872   */\n      0x20\n        /* \"#utility.yul\":35859:35868   */\n      dup4\n        /* \"#utility.yul\":35855:35873   */\n      add\n        /* \"#utility.yul\":35848:35896   */\n      mstore\n        /* \"#utility.yul\":35913:36044   */\n      tag_654\n        /* \"#utility.yul\":36039:36043   */\n      dup2\n        /* \"#utility.yul\":35913:36044   */\n      tag_328\n      jump\t// in\n    tag_654:\n        /* \"#utility.yul\":35905:36044   */\n      swap1\n      pop\n        /* \"#utility.yul\":36054:36126   */\n      tag_655\n        /* \"#utility.yul\":36122:36124   */\n      0x40\n        /* \"#utility.yul\":36111:36120   */\n      dup4\n        /* \"#utility.yul\":36107:36125   */\n      add\n        /* \"#utility.yul\":36098:36104   */\n      dup5\n        /* \"#utility.yul\":36054:36126   */\n      tag_269\n      jump\t// in\n    tag_655:\n        /* \"#utility.yul\":35494:36133   */\n      swap4\n      swap3\n      pop\n      pop\n      pop\n      jump\t// out\n    stop\n    data_1226666703af27f64f82d0e5c2a4b4b54cb6d56ca6a543a6ff168a1b8128db96 50726f647563742068617276657374656420616e642072656769737465726564206f6e20626c6f636b636861696e\n\n    auxdata: 0xa26469706673582212202767496f42586b8af170ae555f5863e0e8a2c49d9f55780c49f97e032935a69364736f6c63430008220033\n}\n",
				"bytecode": {
					"linkReferences": {},
					"object": "6080604052348015600e575f5ffd5b503360035f6101000a81548173ffffffffffffffffffffffffffffffffffffffff021916908373ffffffffffffffffffffffffffffffffffffffff160217905550600560025f3373ffffffffffffffffffffffffffffffffffffffff1673ffffffffffffffffffffffffffffffffffffffff1681526020019081526020015f205f6101000a81548160ff0219169083600581111560ac5760ab60b5565b5b021790555060e2565b7f4e487b71000000000000000000000000000000000000000000000000000000005f52602160045260245ffd5b61296b806100ef5f395ff3fe608060405234801561000f575f5ffd5b50600436106100b2575f3560e01c80638da5cb5b1161006f5780638da5cb5b1461019f57806399374642146101bd578063a252d8a7146101ed578063a775e4cc1461021d578063a97e4d3e14610252578063d54d5b921461026e576100b2565b80631e0e5bc4146100b657806344276733146100d2578063630a195b146101025780636e2be8821461011e578063798ac3581461013a5780637ef1446a1461016a575b5f5ffd5b6100d060048036038101906100cb919061190f565b61029e565b005b6100ec60048036038101906100e791906119b0565b6103fa565b6040516100f99190611a4e565b60405180910390f35b61011c60048036038101906101179190611a8a565b61044c565b005b61013860048036038101906101339190611afb565b610591565b005b610154600480360381019061014f919061190f565b6108f6565b6040516101619190611bcb565b60405180910390f35b610184600480360381019061017f919061190f565b61098d565b60405161019696959493929190611c87565b60405180910390f35b6101a7610b9a565b6040516101b49190611cfb565b60405180910390f35b6101d760048036038101906101d291906119b0565b610bbf565b6040516101e49190611a4e565b60405180910390f35b6102076004803603810190610202919061190f565b610bdc565b6040516102149190611ee0565b60405180910390f35b61023760048036038101906102329190611f2a565b610e85565b60405161024996959493929190611f93565b60405180910390f35b61026c60048036038101906102679190612000565b611026565b005b6102886004803603810190610283919061190f565b6114aa565b604051610295919061215b565b60405180910390f35b60058060058111156102b3576102b26119db565b5b60025f3373ffffffffffffffffffffffffffffffffffffffff1673ffffffffffffffffffffffffffffffffffffffff1681526020019081526020015f205f9054906101000a900460ff16600581111561030f5761030e6119db565b5b1461034f576040517f08c379a0000000000000000000000000000000000000000000000000000000008152600401610346906121c5565b60405180910390fd5b815f8160405161035f919061221d565b908152602001604051809103902060040160149054906101000a900460ff166103bd576040517f08c379a00000000000000000000000000000000000000000000000000000000081526004016103b4906122a3565b60405180910390fd5b5f5f846040516103cd919061221d565b908152602001604051809103902060040160146101000a81548160ff021916908315150217905550505050565b5f60025f8373ffffffffffffffffffffffffffffffffffffffff1673ffffffffffffffffffffffffffffffffffffffff1681526020019081526020015f205f9054906101000a900460ff169050919050565b60035f9054906101000a900473ffffffffffffffffffffffffffffffffffffffff1673ffffffffffffffffffffffffffffffffffffffff163373ffffffffffffffffffffffffffffffffffffffff16146104db576040517f08c379a00000000000000000000000000000000000000000000000000000000081526004016104d29061230b565b60405180910390fd5b8060025f8473ffffffffffffffffffffffffffffffffffffffff1673ffffffffffffffffffffffffffffffffffffffff1681526020019081526020015f205f6101000a81548160ff0219169083600581111561053a576105396119db565b5b02179055508173ffffffffffffffffffffffffffffffffffffffff167f4ac36fa53f167ceb85964be512e01de2a3b8bdb9862f917da079deeeff689b38826040516105859190611a4e565b60405180910390a25050565b835f816040516105a1919061221d565b908152602001604051809103902060040160149054906101000a900460ff166105ff576040517f08c379a00000000000000000000000000000000000000000000000000000000081526004016105f6906122a3565b60405180910390fd5b5f6005811115610612576106116119db565b5b60025f3373ffffffffffffffffffffffffffffffffffffffff1673ffffffffffffffffffffffffffffffffffffffff1681526020019081526020015f205f9054906101000a900460ff16600581111561066e5761066d6119db565b5b036106ae576040517f08c379a00000000000000000000000000000000000000000000000000000000081526004016106a590612399565b60405180910390fd5b6001856040516106be919061221d565b90815260200160405180910390206040518060c001604052803373ffffffffffffffffffffffffffffffffffffffff16815260200160025f3373ffffffffffffffffffffffffffffffffffffffff1673ffffffffffffffffffffffffffffffffffffffff1681526020019081526020015f205f9054906101000a900460ff16600581111561074f5761074e6119db565b5b815260200186815260200185815260200184815260200142815250908060018154018082558091505060019003905f5260205f2090600502015f909190919091505f820151815f015f6101000a81548173ffffffffffffffffffffffffffffffffffffffff021916908373ffffffffffffffffffffffffffffffffffffffff1602179055506020820151815f0160146101000a81548160ff021916908360058111156107fe576107fd6119db565b5b0217905550604082015181600101908161081891906125c5565b50606082015181600201908161082e91906125c5565b506080820151816003015560a082015181600401555050605082131561089e578460405161085c919061221d565b60405180910390207f26dc7d14878587176903d5487d42f16c5f65c16bdd4515f4d4b1759adca6644b8333604051610895929190612694565b60405180910390a25b846040516108ac919061221d565b60405180910390207f6ab2ce4a47bf01ae08a862a18f5e8b1faf85f05c105bbb0298a7c831859da5e33385426040516108e7939291906126bb565b60405180910390a25050505050565b5f5f5f83604051610907919061221d565b90815260200160405180910390205f018054610922906123e4565b905011610964576040517f08c379a000000000000000000000000000000000000000000000000000000000815260040161095b90612741565b60405180910390fd5b600182604051610974919061221d565b9081526020016040518091039020805490509050919050565b5f818051602081018201805184825260208301602085012081835280955050505050505f91509050805f0180546109c3906123e4565b80601f01602080910402602001604051908101604052809291908181526020018280546109ef906123e4565b8015610a3a5780601f10610a1157610100808354040283529160200191610a3a565b820191905f5260205f20905b815481529060010190602001808311610a1d57829003601f168201915b505050505090806001018054610a4f906123e4565b80601f0160208091040260200160405190810160405280929190818152602001828054610a7b906123e4565b8015610ac65780601f10610a9d57610100808354040283529160200191610ac6565b820191905f5260205f20905b815481529060010190602001808311610aa957829003601f168201915b505050505090806002018054610adb906123e4565b80601f0160208091040260200160405190810160405280929190818152602001828054610b07906123e4565b8015610b525780601f10610b2957610100808354040283529160200191610b52565b820191905f5260205f20905b815481529060010190602001808311610b3557829003601f168201915b505050505090806003015490806004015f9054906101000a900473ffffffffffffffffffffffffffffffffffffffff16908060040160149054906101000a900460ff16905086565b60035f9054906101000a900473ffffffffffffffffffffffffffffffffffffffff1681565b6002602052805f5260405f205f915054906101000a900460ff1681565b60605f5f83604051610bee919061221d565b90815260200160405180910390205f018054610c09906123e4565b905011610c4b576040517f08c379a0000000000000000000000000000000000000000000000000000000008152600401610c4290612741565b60405180910390fd5b600182604051610c5b919061221d565b9081526020016040518091039020805480602002602001604051908101604052809291908181526020015f905b82821015610e7a578382905f5260205f2090600502016040518060c00160405290815f82015f9054906101000a900473ffffffffffffffffffffffffffffffffffffffff1673ffffffffffffffffffffffffffffffffffffffff1673ffffffffffffffffffffffffffffffffffffffff1681526020015f820160149054906101000a900460ff166005811115610d2157610d206119db565b5b6005811115610d3357610d326119db565b5b8152602001600182018054610d47906123e4565b80601f0160208091040260200160405190810160405280929190818152602001828054610d73906123e4565b8015610dbe5780601f10610d9557610100808354040283529160200191610dbe565b820191905f5260205f20905b815481529060010190602001808311610da157829003601f168201915b50505050508152602001600282018054610dd7906123e4565b80601f0160208091040260200160405190810160405280929190818152602001828054610e03906123e4565b8015610e4e5780601f10610e2557610100808354040283529160200191610e4e565b820191905f5260205f20905b815481529060010190602001808311610e3157829003601f168201915b505050505081526020016003820154815260200160048201548152505081526020019060010190610c88565b505050509050919050565b6001828051602081018201805184825260208301602085012081835280955050505050508181548110610eb6575f80fd5b905f5260205f2090600502015f9150915050805f015f9054906101000a900473ffffffffffffffffffffffffffffffffffffffff1690805f0160149054906101000a900460ff1690806001018054610f0d906123e4565b80601f0160208091040260200160405190810160405280929190818152602001828054610f39906123e4565b8015610f845780601f10610f5b57610100808354040283529160200191610f84565b820191905f5260205f20905b815481529060010190602001808311610f6757829003601f168201915b505050505090806002018054610f99906123e4565b80601f0160208091040260200160405190810160405280929190818152602001828054610fc5906123e4565b80156110105780601f10610fe757610100808354040283529160200191611010565b820191905f5260205f20905b815481529060010190602001808311610ff357829003601f168201915b5050505050908060030154908060040154905086565b600180600581111561103b5761103a6119db565b5b60025f3373ffffffffffffffffffffffffffffffffffffffff1673ffffffffffffffffffffffffffffffffffffffff1681526020019081526020015f205f9054906101000a900460ff166005811115611097576110966119db565b5b146110d7576040517f08c379a00000000000000000000000000000000000000000000000000000000081526004016110ce906121c5565b60405180910390fd5b5f85511161111a576040517f08c379a0000000000000000000000000000000000000000000000000000000008152600401611111906127a9565b60405180910390fd5b5f5f8660405161112a919061221d565b90815260200160405180910390205f018054611145906123e4565b905014611187576040517f08c379a000000000000000000000000000000000000000000000000000000000815260040161117e90612811565b60405180910390fd5b6040518060c001604052808681526020018581526020018481526020018381526020013373ffffffffffffffffffffffffffffffffffffffff168152602001600115158152505f866040516111dc919061221d565b90815260200160405180910390205f820151815f0190816111fd91906125c5565b50602082015181600101908161121391906125c5565b50604082015181600201908161122991906125c5565b50606082015181600301556080820151816004015f6101000a81548173ffffffffffffffffffffffffffffffffffffffff021916908373ffffffffffffffffffffffffffffffffffffffff16021790555060a08201518160040160146101000a81548160ff0219169083151502179055509050506001856040516112ad919061221d565b90815260200160405180910390206040518060c001604052803373ffffffffffffffffffffffffffffffffffffffff168152602001600160058111156112f6576112f56119db565b5b81526020018581526020016040518060600160405280602e8152602001612908602e9139815260200160fa815260200142815250908060018154018082558091505060019003905f5260205f2090600502015f909190919091505f820151815f015f6101000a81548173ffffffffffffffffffffffffffffffffffffffff021916908373ffffffffffffffffffffffffffffffffffffffff1602179055506020820151815f0160146101000a81548160ff021916908360058111156113be576113bd6119db565b5b021790555060408201518160010190816113d891906125c5565b5060608201518160020190816113ee91906125c5565b506080820151816003015560a08201518160040155505084604051611413919061221d565b60405180910390207fe187ef62f610f162883fdada619504c09c0981be2dc09fbc1029e7a09db45a93853360405161144c92919061282f565b60405180910390a284604051611462919061221d565b60405180910390207f6ab2ce4a47bf01ae08a862a18f5e8b1faf85f05c105bbb0298a7c831859da5e3334260405161149b9291906128cd565b60405180910390a25050505050565b6114b2611777565b5f5f836040516114c2919061221d565b90815260200160405180910390205f0180546114dd906123e4565b90501161151f576040517f08c379a000000000000000000000000000000000000000000000000000000000815260040161151690612741565b60405180910390fd5b5f8260405161152e919061221d565b90815260200160405180910390206040518060c00160405290815f82018054611556906123e4565b80601f0160208091040260200160405190810160405280929190818152602001828054611582906123e4565b80156115cd5780601f106115a4576101008083540402835291602001916115cd565b820191905f5260205f20905b8154815290600101906020018083116115b057829003601f168201915b505050505081526020016001820180546115e6906123e4565b80601f0160208091040260200160405190810160405280929190818152602001828054611612906123e4565b801561165d5780601f106116345761010080835404028352916020019161165d565b820191905f5260205f20905b81548152906001019060200180831161164057829003601f168201915b50505050508152602001600282018054611676906123e4565b80601f01602080910402602001604051908101604052809291908181526020018280546116a2906123e4565b80156116ed5780601f106116c4576101008083540402835291602001916116ed565b820191905f5260205f20905b8154815290600101906020018083116116d057829003601f168201915b5050505050815260200160038201548152602001600482015f9054906101000a900473ffffffffffffffffffffffffffffffffffffffff1673ffffffffffffffffffffffffffffffffffffffff1673ffffffffffffffffffffffffffffffffffffffff1681526020016004820160149054906101000a900460ff1615151515815250509050919050565b6040518060c001604052806060815260200160608152602001606081526020015f81526020015f73ffffffffffffffffffffffffffffffffffffffff1681526020015f151581525090565b5f604051905090565b5f5ffd5b5f5ffd5b5f5ffd5b5f5ffd5b5f601f19601f8301169050919050565b7f4e487b71000000000000000000000000000000000000000000000000000000005f52604160045260245ffd5b611821826117db565b810181811067ffffffffffffffff821117156118405761183f6117eb565b5b80604052505050565b5f6118526117c2565b905061185e8282611818565b919050565b5f67ffffffffffffffff82111561187d5761187c6117eb565b5b611886826117db565b9050602081019050919050565b828183375f83830152505050565b5f6118b36118ae84611863565b611849565b9050828152602081018484840111156118cf576118ce6117d7565b5b6118da848285611893565b509392505050565b5f82601f8301126118f6576118f56117d3565b5b81356119068482602086016118a1565b91505092915050565b5f60208284031215611924576119236117cb565b5b5f82013567ffffffffffffffff811115611941576119406117cf565b5b61194d848285016118e2565b91505092915050565b5f73ffffffffffffffffffffffffffffffffffffffff82169050919050565b5f61197f82611956565b9050919050565b61198f81611975565b8114611999575f5ffd5b50565b5f813590506119aa81611986565b92915050565b5f602082840312156119c5576119c46117cb565b5b5f6119d28482850161199c565b91505092915050565b7f4e487b71000000000000000000000000000000000000000000000000000000005f52602160045260245ffd5b60068110611a1957611a186119db565b5b50565b5f819050611a2982611a08565b919050565b5f611a3882611a1c565b9050919050565b611a4881611a2e565b82525050565b5f602082019050611a615f830184611a3f565b92915050565b60068110611a73575f5ffd5b50565b5f81359050611a8481611a67565b92915050565b5f5f60408385031215611aa057611a9f6117cb565b5b5f611aad8582860161199c565b9250506020611abe85828601611a76565b9150509250929050565b5f819050919050565b611ada81611ac8565b8114611ae4575f5ffd5b50565b5f81359050611af581611ad1565b92915050565b5f5f5f5f60808587031215611b1357611b126117cb565b5b5f85013567ffffffffffffffff811115611b3057611b2f6117cf565b5b611b3c878288016118e2565b945050602085013567ffffffffffffffff811115611b5d57611b5c6117cf565b5b611b69878288016118e2565b935050604085013567ffffffffffffffff811115611b8a57611b896117cf565b5b611b96878288016118e2565b9250506060611ba787828801611ae7565b91505092959194509250565b5f819050919050565b611bc581611bb3565b82525050565b5f602082019050611bde5f830184611bbc565b92915050565b5f81519050919050565b5f82825260208201905092915050565b5f5b83811015611c1b578082015181840152602081019050611c00565b5f8484015250505050565b5f611c3082611be4565b611c3a8185611bee565b9350611c4a818560208601611bfe565b611c53816117db565b840191505092915050565b611c6781611975565b82525050565b5f8115159050919050565b611c8181611c6d565b82525050565b5f60c0820190508181035f830152611c9f8189611c26565b90508181036020830152611cb38188611c26565b90508181036040830152611cc78187611c26565b9050611cd66060830186611bbc565b611ce36080830185611c5e565b611cf060a0830184611c78565b979650505050505050565b5f602082019050611d0e5f830184611c5e565b92915050565b5f81519050919050565b5f82825260208201905092915050565b5f819050602082019050919050565b611d4681611975565b82525050565b611d5581611a2e565b82525050565b5f82825260208201905092915050565b5f611d7582611be4565b611d7f8185611d5b565b9350611d8f818560208601611bfe565b611d98816117db565b840191505092915050565b611dac81611ac8565b82525050565b611dbb81611bb3565b82525050565b5f60c083015f830151611dd65f860182611d3d565b506020830151611de96020860182611d4c565b5060408301518482036040860152611e018282611d6b565b91505060608301518482036060860152611e1b8282611d6b565b9150506080830151611e306080860182611da3565b5060a0830151611e4360a0860182611db2565b508091505092915050565b5f611e598383611dc1565b905092915050565b5f602082019050919050565b5f611e7782611d14565b611e818185611d1e565b935083602082028501611e9385611d2e565b805f5b85811015611ece5784840389528151611eaf8582611e4e565b9450611eba83611e61565b925060208a01995050600181019050611e96565b50829750879550505050505092915050565b5f6020820190508181035f830152611ef88184611e6d565b905092915050565b611f0981611bb3565b8114611f13575f5ffd5b50565b5f81359050611f2481611f00565b92915050565b5f5f60408385031215611f4057611f3f6117cb565b5b5f83013567ffffffffffffffff811115611f5d57611f5c6117cf565b5b611f69858286016118e2565b9250506020611f7a85828601611f16565b9150509250929050565b611f8d81611ac8565b82525050565b5f60c082019050611fa65f830189611c5e565b611fb36020830188611a3f565b8181036040830152611fc58187611c26565b90508181036060830152611fd98186611c26565b9050611fe86080830185611f84565b611ff560a0830184611bbc565b979650505050505050565b5f5f5f5f60808587031215612018576120176117cb565b5b5f85013567ffffffffffffffff811115612035576120346117cf565b5b612041878288016118e2565b945050602085013567ffffffffffffffff811115612062576120616117cf565b5b61206e878288016118e2565b935050604085013567ffffffffffffffff81111561208f5761208e6117cf565b5b61209b878288016118e2565b92505060606120ac87828801611f16565b91505092959194509250565b6120c181611c6d565b82525050565b5f60c083015f8301518482035f8601526120e18282611d6b565b915050602083015184820360208601526120fb8282611d6b565b915050604083015184820360408601526121158282611d6b565b915050606083015161212a6060860182611db2565b50608083015161213d6080860182611d3d565b5060a083015161215060a08601826120b8565b508091505092915050565b5f6020820190508181035f83015261217381846120c7565b905092915050565b7f556e617574686f72697a65643a20696e636f727265637420726f6c65000000005f82015250565b5f6121af601c83611bee565b91506121ba8261217b565b602082019050919050565b5f6020820190508181035f8301526121dc816121a3565b9050919050565b5f81905092915050565b5f6121f782611be4565b61220181856121e3565b9350612211818560208601611bfe565b80840191505092915050565b5f61222882846121ed565b915081905092915050565b7f426174636820646f6573206e6f74206578697374206f7220697320696e6163745f8201527f6976650000000000000000000000000000000000000000000000000000000000602082015250565b5f61228d602383611bee565b915061229882612233565b604082019050919050565b5f6020820190508181035f8301526122ba81612281565b9050919050565b7f4f6e6c79206f776e65722063616e2063616c6c207468697300000000000000005f82015250565b5f6122f5601883611bee565b9150612300826122c1565b602082019050919050565b5f6020820190508181035f830152612322816122e9565b9050919050565b7f43616c6c6572206973206e6f74206120726567697374657265642070617274695f8201527f636970616e740000000000000000000000000000000000000000000000000000602082015250565b5f612383602683611bee565b915061238e82612329565b604082019050919050565b5f6020820190508181035f8301526123b081612377565b9050919050565b7f4e487b71000000000000000000000000000000000000000000000000000000005f52602260045260245ffd5b5f60028204905060018216806123fb57607f821691505b60208210810361240e5761240d6123b7565b5b50919050565b5f819050815f5260205f209050919050565b5f6020601f8301049050919050565b5f82821b905092915050565b5f600883026124707fffffffffffffffffffffffffffffffffffffffffffffffffffffffffffffffff82612435565b61247a8683612435565b95508019841693508086168417925050509392505050565b5f819050919050565b5f6124b56124b06124ab84611bb3565b612492565b611bb3565b9050919050565b5f819050919050565b6124ce8361249b565b6124e26124da826124bc565b848454612441565b825550505050565b5f5f905090565b6124f96124ea565b6125048184846124c5565b505050565b5f5b8281101561252a5761251f5f8284016124f1565b60018101905061250b565b505050565b601f82111561257d578282111561257c5761254981612414565b61255283612426565b61255b85612426565b6020861015612568575f90505b80830161257782840382612509565b505050505b5b505050565b5f82821c905092915050565b5f61259d5f1984600802612582565b1980831691505092915050565b5f6125b5838361258e565b9150826002028217905092915050565b6125ce82611be4565b67ffffffffffffffff8111156125e7576125e66117eb565b5b6125f182546123e4565b6125fc82828561252f565b5f60209050601f83116001811461262d575f841561261b578287015190505b61262585826125aa565b86555061268c565b601f19841661263b86612414565b5f5b828110156126625784890151825560018201915060208501945060208101905061263d565b8683101561267f578489015161267b601f89168261258e565b8355505b6001600288020188555050505b505050505050565b5f6040820190506126a75f830185611f84565b6126b46020830184611c5e565b9392505050565b5f6060820190506126ce5f830186611c5e565b81810360208301526126e08185611c26565b90506126ef6040830184611bbc565b949350505050565b7f4261746368206e6f7420666f756e6400000000000000000000000000000000005f82015250565b5f61272b600f83611bee565b9150612736826126f7565b602082019050919050565b5f6020820190508181035f8301526127588161271f565b9050919050565b7f42617463682049442063616e6e6f7420626520656d70747900000000000000005f82015250565b5f612793601883611bee565b915061279e8261275f565b602082019050919050565b5f6020820190508181035f8301526127c081612787565b9050919050565b7f426174636820494420616c7265616479207265676973746572656400000000005f82015250565b5f6127fb601b83611bee565b9150612806826127c7565b602082019050919050565b5f6020820190508181035f830152612828816127ef565b9050919050565b5f6040820190508181035f8301526128478185611c26565b90506128566020830184611c5e565b9392505050565b7f50726f647563742068617276657374656420616e6420726567697374657265645f8201527f206f6e20626c6f636b636861696e000000000000000000000000000000000000602082015250565b5f6128b7602e83611bee565b91506128c28261285d565b604082019050919050565b5f6060820190506128e05f830185611c5e565b81810360208301526128f1816128ab565b90506129006040830184611bbc565b939250505056fe50726f647563742068617276657374656420616e642072656769737465726564206f6e20626c6f636b636861696ea26469706673582212202767496f42586b8af170ae555f5863e0e8a2c49d9f55780c49f97e032935a69364736f6c63430008220033",
					"opcodes": "PUSH1 0x80 PUSH1 0x40 MSTORE CALLVALUE DUP1 ISZERO PUSH1 0xE JUMPI PUSH0 PUSH0 REVERT JUMPDEST POP CALLER PUSH1 0x3 PUSH0 PUSH2 0x100 EXP DUP2 SLOAD DUP2 PUSH20 0xFFFFFFFFFFFFFFFFFFFFFFFFFFFFFFFFFFFFFFFF MUL NOT AND SWAP1 DUP4 PUSH20 0xFFFFFFFFFFFFFFFFFFFFFFFFFFFFFFFFFFFFFFFF AND MUL OR SWAP1 SSTORE POP PUSH1 0x5 PUSH1 0x2 PUSH0 CALLER PUSH20 0xFFFFFFFFFFFFFFFFFFFFFFFFFFFFFFFFFFFFFFFF AND PUSH20 0xFFFFFFFFFFFFFFFFFFFFFFFFFFFFFFFFFFFFFFFF AND DUP2 MSTORE PUSH1 0x20 ADD SWAP1 DUP2 MSTORE PUSH1 0x20 ADD PUSH0 KECCAK256 PUSH0 PUSH2 0x100 EXP DUP2 SLOAD DUP2 PUSH1 0xFF MUL NOT AND SWAP1 DUP4 PUSH1 0x5 DUP2 GT ISZERO PUSH1 0xAC JUMPI PUSH1 0xAB PUSH1 0xB5 JUMP JUMPDEST JUMPDEST MUL OR SWAP1 SSTORE POP PUSH1 0xE2 JUMP JUMPDEST PUSH32 0x4E487B7100000000000000000000000000000000000000000000000000000000 PUSH0 MSTORE PUSH1 0x21 PUSH1 0x4 MSTORE PUSH1 0x24 PUSH0 REVERT JUMPDEST PUSH2 0x296B DUP1 PUSH2 0xEF PUSH0 CODECOPY PUSH0 RETURN INVALID PUSH1 0x80 PUSH1 0x40 MSTORE CALLVALUE DUP1 ISZERO PUSH2 0xF JUMPI PUSH0 PUSH0 REVERT JUMPDEST POP PUSH1 0x4 CALLDATASIZE LT PUSH2 0xB2 JUMPI PUSH0 CALLDATALOAD PUSH1 0xE0 SHR DUP1 PUSH4 0x8DA5CB5B GT PUSH2 0x6F JUMPI DUP1 PUSH4 0x8DA5CB5B EQ PUSH2 0x19F JUMPI DUP1 PUSH4 0x99374642 EQ PUSH2 0x1BD JUMPI DUP1 PUSH4 0xA252D8A7 EQ PUSH2 0x1ED JUMPI DUP1 PUSH4 0xA775E4CC EQ PUSH2 0x21D JUMPI DUP1 PUSH4 0xA97E4D3E EQ PUSH2 0x252 JUMPI DUP1 PUSH4 0xD54D5B92 EQ PUSH2 0x26E JUMPI PUSH2 0xB2 JUMP JUMPDEST DUP1 PUSH4 0x1E0E5BC4 EQ PUSH2 0xB6 JUMPI DUP1 PUSH4 0x44276733 EQ PUSH2 0xD2 JUMPI DUP1 PUSH4 0x630A195B EQ PUSH2 0x102 JUMPI DUP1 PUSH4 0x6E2BE882 EQ PUSH2 0x11E JUMPI DUP1 PUSH4 0x798AC358 EQ PUSH2 0x13A JUMPI DUP1 PUSH4 0x7EF1446A EQ PUSH2 0x16A JUMPI JUMPDEST PUSH0 PUSH0 REVERT JUMPDEST PUSH2 0xD0 PUSH1 0x4 DUP1 CALLDATASIZE SUB DUP2 ADD SWAP1 PUSH2 0xCB SWAP2 SWAP1 PUSH2 0x190F JUMP JUMPDEST PUSH2 0x29E JUMP JUMPDEST STOP JUMPDEST PUSH2 0xEC PUSH1 0x4 DUP1 CALLDATASIZE SUB DUP2 ADD SWAP1 PUSH2 0xE7 SWAP2 SWAP1 PUSH2 0x19B0 JUMP JUMPDEST PUSH2 0x3FA JUMP JUMPDEST PUSH1 0x40 MLOAD PUSH2 0xF9 SWAP2 SWAP1 PUSH2 0x1A4E JUMP JUMPDEST PUSH1 0x40 MLOAD DUP1 SWAP2 SUB SWAP1 RETURN JUMPDEST PUSH2 0x11C PUSH1 0x4 DUP1 CALLDATASIZE SUB DUP2 ADD SWAP1 PUSH2 0x117 SWAP2 SWAP1 PUSH2 0x1A8A JUMP JUMPDEST PUSH2 0x44C JUMP JUMPDEST STOP JUMPDEST PUSH2 0x138 PUSH1 0x4 DUP1 CALLDATASIZE SUB DUP2 ADD SWAP1 PUSH2 0x133 SWAP2 SWAP1 PUSH2 0x1AFB JUMP JUMPDEST PUSH2 0x591 JUMP JUMPDEST STOP JUMPDEST PUSH2 0x154 PUSH1 0x4 DUP1 CALLDATASIZE SUB DUP2 ADD SWAP1 PUSH2 0x14F SWAP2 SWAP1 PUSH2 0x190F JUMP JUMPDEST PUSH2 0x8F6 JUMP JUMPDEST PUSH1 0x40 MLOAD PUSH2 0x161 SWAP2 SWAP1 PUSH2 0x1BCB JUMP JUMPDEST PUSH1 0x40 MLOAD DUP1 SWAP2 SUB SWAP1 RETURN JUMPDEST PUSH2 0x184 PUSH1 0x4 DUP1 CALLDATASIZE SUB DUP2 ADD SWAP1 PUSH2 0x17F SWAP2 SWAP1 PUSH2 0x190F JUMP JUMPDEST PUSH2 0x98D JUMP JUMPDEST PUSH1 0x40 MLOAD PUSH2 0x196 SWAP7 SWAP6 SWAP5 SWAP4 SWAP3 SWAP2 SWAP1 PUSH2 0x1C87 JUMP JUMPDEST PUSH1 0x40 MLOAD DUP1 SWAP2 SUB SWAP1 RETURN JUMPDEST PUSH2 0x1A7 PUSH2 0xB9A JUMP JUMPDEST PUSH1 0x40 MLOAD PUSH2 0x1B4 SWAP2 SWAP1 PUSH2 0x1CFB JUMP JUMPDEST PUSH1 0x40 MLOAD DUP1 SWAP2 SUB SWAP1 RETURN JUMPDEST PUSH2 0x1D7 PUSH1 0x4 DUP1 CALLDATASIZE SUB DUP2 ADD SWAP1 PUSH2 0x1D2 SWAP2 SWAP1 PUSH2 0x19B0 JUMP JUMPDEST PUSH2 0xBBF JUMP JUMPDEST PUSH1 0x40 MLOAD PUSH2 0x1E4 SWAP2 SWAP1 PUSH2 0x1A4E JUMP JUMPDEST PUSH1 0x40 MLOAD DUP1 SWAP2 SUB SWAP1 RETURN JUMPDEST PUSH2 0x207 PUSH1 0x4 DUP1 CALLDATASIZE SUB DUP2 ADD SWAP1 PUSH2 0x202 SWAP2 SWAP1 PUSH2 0x190F JUMP JUMPDEST PUSH2 0xBDC JUMP JUMPDEST PUSH1 0x40 MLOAD PUSH2 0x214 SWAP2 SWAP1 PUSH2 0x1EE0 JUMP JUMPDEST PUSH1 0x40 MLOAD DUP1 SWAP2 SUB SWAP1 RETURN JUMPDEST PUSH2 0x237 PUSH1 0x4 DUP1 CALLDATASIZE SUB DUP2 ADD SWAP1 PUSH2 0x232 SWAP2 SWAP1 PUSH2 0x1F2A JUMP JUMPDEST PUSH2 0xE85 JUMP JUMPDEST PUSH1 0x40 MLOAD PUSH2 0x249 SWAP7 SWAP6 SWAP5 SWAP4 SWAP3 SWAP2 SWAP1 PUSH2 0x1F93 JUMP JUMPDEST PUSH1 0x40 MLOAD DUP1 SWAP2 SUB SWAP1 RETURN JUMPDEST PUSH2 0x26C PUSH1 0x4 DUP1 CALLDATASIZE SUB DUP2 ADD SWAP1 PUSH2 0x267 SWAP2 SWAP1 PUSH2 0x2000 JUMP JUMPDEST PUSH2 0x1026 JUMP JUMPDEST STOP JUMPDEST PUSH2 0x288 PUSH1 0x4 DUP1 CALLDATASIZE SUB DUP2 ADD SWAP1 PUSH2 0x283 SWAP2 SWAP1 PUSH2 0x190F JUMP JUMPDEST PUSH2 0x14AA JUMP JUMPDEST PUSH1 0x40 MLOAD PUSH2 0x295 SWAP2 SWAP1 PUSH2 0x215B JUMP JUMPDEST PUSH1 0x40 MLOAD DUP1 SWAP2 SUB SWAP1 RETURN JUMPDEST PUSH1 0x5 DUP1 PUSH1 0x5 DUP2 GT ISZERO PUSH2 0x2B3 JUMPI PUSH2 0x2B2 PUSH2 0x19DB JUMP JUMPDEST JUMPDEST PUSH1 0x2 PUSH0 CALLER PUSH20 0xFFFFFFFFFFFFFFFFFFFFFFFFFFFFFFFFFFFFFFFF AND PUSH20 0xFFFFFFFFFFFFFFFFFFFFFFFFFFFFFFFFFFFFFFFF AND DUP2 MSTORE PUSH1 0x20 ADD SWAP1 DUP2 MSTORE PUSH1 0x20 ADD PUSH0 KECCAK256 PUSH0 SWAP1 SLOAD SWAP1 PUSH2 0x100 EXP SWAP1 DIV PUSH1 0xFF AND PUSH1 0x5 DUP2 GT ISZERO PUSH2 0x30F JUMPI PUSH2 0x30E PUSH2 0x19DB JUMP JUMPDEST JUMPDEST EQ PUSH2 0x34F JUMPI PUSH1 0x40 MLOAD PUSH32 0x8C379A000000000000000000000000000000000000000000000000000000000 DUP2 MSTORE PUSH1 0x4 ADD PUSH2 0x346 SWAP1 PUSH2 0x21C5 JUMP JUMPDEST PUSH1 0x40 MLOAD DUP1 SWAP2 SUB SWAP1 REVERT JUMPDEST DUP2 PUSH0 DUP2 PUSH1 0x40 MLOAD PUSH2 0x35F SWAP2 SWAP1 PUSH2 0x221D JUMP JUMPDEST SWAP1 DUP2 MSTORE PUSH1 0x20 ADD PUSH1 0x40 MLOAD DUP1 SWAP2 SUB SWAP1 KECCAK256 PUSH1 0x4 ADD PUSH1 0x14 SWAP1 SLOAD SWAP1 PUSH2 0x100 EXP SWAP1 DIV PUSH1 0xFF AND PUSH2 0x3BD JUMPI PUSH1 0x40 MLOAD PUSH32 0x8C379A000000000000000000000000000000000000000000000000000000000 DUP2 MSTORE PUSH1 0x4 ADD PUSH2 0x3B4 SWAP1 PUSH2 0x22A3 JUMP JUMPDEST PUSH1 0x40 MLOAD DUP1 SWAP2 SUB SWAP1 REVERT JUMPDEST PUSH0 PUSH0 DUP5 PUSH1 0x40 MLOAD PUSH2 0x3CD SWAP2 SWAP1 PUSH2 0x221D JUMP JUMPDEST SWAP1 DUP2 MSTORE PUSH1 0x20 ADD PUSH1 0x40 MLOAD DUP1 SWAP2 SUB SWAP1 KECCAK256 PUSH1 0x4 ADD PUSH1 0x14 PUSH2 0x100 EXP DUP2 SLOAD DUP2 PUSH1 0xFF MUL NOT AND SWAP1 DUP4 ISZERO ISZERO MUL OR SWAP1 SSTORE POP POP POP POP JUMP JUMPDEST PUSH0 PUSH1 0x2 PUSH0 DUP4 PUSH20 0xFFFFFFFFFFFFFFFFFFFFFFFFFFFFFFFFFFFFFFFF AND PUSH20 0xFFFFFFFFFFFFFFFFFFFFFFFFFFFFFFFFFFFFFFFF AND DUP2 MSTORE PUSH1 0x20 ADD SWAP1 DUP2 MSTORE PUSH1 0x20 ADD PUSH0 KECCAK256 PUSH0 SWAP1 SLOAD SWAP1 PUSH2 0x100 EXP SWAP1 DIV PUSH1 0xFF AND SWAP1 POP SWAP2 SWAP1 POP JUMP JUMPDEST PUSH1 0x3 PUSH0 SWAP1 SLOAD SWAP1 PUSH2 0x100 EXP SWAP1 DIV PUSH20 0xFFFFFFFFFFFFFFFFFFFFFFFFFFFFFFFFFFFFFFFF AND PUSH20 0xFFFFFFFFFFFFFFFFFFFFFFFFFFFFFFFFFFFFFFFF AND CALLER PUSH20 0xFFFFFFFFFFFFFFFFFFFFFFFFFFFFFFFFFFFFFFFF AND EQ PUSH2 0x4DB JUMPI PUSH1 0x40 MLOAD PUSH32 0x8C379A000000000000000000000000000000000000000000000000000000000 DUP2 MSTORE PUSH1 0x4 ADD PUSH2 0x4D2 SWAP1 PUSH2 0x230B JUMP JUMPDEST PUSH1 0x40 MLOAD DUP1 SWAP2 SUB SWAP1 REVERT JUMPDEST DUP1 PUSH1 0x2 PUSH0 DUP5 PUSH20 0xFFFFFFFFFFFFFFFFFFFFFFFFFFFFFFFFFFFFFFFF AND PUSH20 0xFFFFFFFFFFFFFFFFFFFFFFFFFFFFFFFFFFFFFFFF AND DUP2 MSTORE PUSH1 0x20 ADD SWAP1 DUP2 MSTORE PUSH1 0x20 ADD PUSH0 KECCAK256 PUSH0 PUSH2 0x100 EXP DUP2 SLOAD DUP2 PUSH1 0xFF MUL NOT AND SWAP1 DUP4 PUSH1 0x5 DUP2 GT ISZERO PUSH2 0x53A JUMPI PUSH2 0x539 PUSH2 0x19DB JUMP JUMPDEST JUMPDEST MUL OR SWAP1 SSTORE POP DUP2 PUSH20 0xFFFFFFFFFFFFFFFFFFFFFFFFFFFFFFFFFFFFFFFF AND PUSH32 0x4AC36FA53F167CEB85964BE512E01DE2A3B8BDB9862F917DA079DEEEFF689B38 DUP3 PUSH1 0x40 MLOAD PUSH2 0x585 SWAP2 SWAP1 PUSH2 0x1A4E JUMP JUMPDEST PUSH1 0x40 MLOAD DUP1 SWAP2 SUB SWAP1 LOG2 POP POP JUMP JUMPDEST DUP4 PUSH0 DUP2 PUSH1 0x40 MLOAD PUSH2 0x5A1 SWAP2 SWAP1 PUSH2 0x221D JUMP JUMPDEST SWAP1 DUP2 MSTORE PUSH1 0x20 ADD PUSH1 0x40 MLOAD DUP1 SWAP2 SUB SWAP1 KECCAK256 PUSH1 0x4 ADD PUSH1 0x14 SWAP1 SLOAD SWAP1 PUSH2 0x100 EXP SWAP1 DIV PUSH1 0xFF AND PUSH2 0x5FF JUMPI PUSH1 0x40 MLOAD PUSH32 0x8C379A000000000000000000000000000000000000000000000000000000000 DUP2 MSTORE PUSH1 0x4 ADD PUSH2 0x5F6 SWAP1 PUSH2 0x22A3 JUMP JUMPDEST PUSH1 0x40 MLOAD DUP1 SWAP2 SUB SWAP1 REVERT JUMPDEST PUSH0 PUSH1 0x5 DUP2 GT ISZERO PUSH2 0x612 JUMPI PUSH2 0x611 PUSH2 0x19DB JUMP JUMPDEST JUMPDEST PUSH1 0x2 PUSH0 CALLER PUSH20 0xFFFFFFFFFFFFFFFFFFFFFFFFFFFFFFFFFFFFFFFF AND PUSH20 0xFFFFFFFFFFFFFFFFFFFFFFFFFFFFFFFFFFFFFFFF AND DUP2 MSTORE PUSH1 0x20 ADD SWAP1 DUP2 MSTORE PUSH1 0x20 ADD PUSH0 KECCAK256 PUSH0 SWAP1 SLOAD SWAP1 PUSH2 0x100 EXP SWAP1 DIV PUSH1 0xFF AND PUSH1 0x5 DUP2 GT ISZERO PUSH2 0x66E JUMPI PUSH2 0x66D PUSH2 0x19DB JUMP JUMPDEST JUMPDEST SUB PUSH2 0x6AE JUMPI PUSH1 0x40 MLOAD PUSH32 0x8C379A000000000000000000000000000000000000000000000000000000000 DUP2 MSTORE PUSH1 0x4 ADD PUSH2 0x6A5 SWAP1 PUSH2 0x2399 JUMP JUMPDEST PUSH1 0x40 MLOAD DUP1 SWAP2 SUB SWAP1 REVERT JUMPDEST PUSH1 0x1 DUP6 PUSH1 0x40 MLOAD PUSH2 0x6BE SWAP2 SWAP1 PUSH2 0x221D JUMP JUMPDEST SWAP1 DUP2 MSTORE PUSH1 0x20 ADD PUSH1 0x40 MLOAD DUP1 SWAP2 SUB SWAP1 KECCAK256 PUSH1 0x40 MLOAD DUP1 PUSH1 0xC0 ADD PUSH1 0x40 MSTORE DUP1 CALLER PUSH20 0xFFFFFFFFFFFFFFFFFFFFFFFFFFFFFFFFFFFFFFFF AND DUP2 MSTORE PUSH1 0x20 ADD PUSH1 0x2 PUSH0 CALLER PUSH20 0xFFFFFFFFFFFFFFFFFFFFFFFFFFFFFFFFFFFFFFFF AND PUSH20 0xFFFFFFFFFFFFFFFFFFFFFFFFFFFFFFFFFFFFFFFF AND DUP2 MSTORE PUSH1 0x20 ADD SWAP1 DUP2 MSTORE PUSH1 0x20 ADD PUSH0 KECCAK256 PUSH0 SWAP1 SLOAD SWAP1 PUSH2 0x100 EXP SWAP1 DIV PUSH1 0xFF AND PUSH1 0x5 DUP2 GT ISZERO PUSH2 0x74F JUMPI PUSH2 0x74E PUSH2 0x19DB JUMP JUMPDEST JUMPDEST DUP2 MSTORE PUSH1 0x20 ADD DUP7 DUP2 MSTORE PUSH1 0x20 ADD DUP6 DUP2 MSTORE PUSH1 0x20 ADD DUP5 DUP2 MSTORE PUSH1 0x20 ADD TIMESTAMP DUP2 MSTORE POP SWAP1 DUP1 PUSH1 0x1 DUP2 SLOAD ADD DUP1 DUP3 SSTORE DUP1 SWAP2 POP POP PUSH1 0x1 SWAP1 SUB SWAP1 PUSH0 MSTORE PUSH1 0x20 PUSH0 KECCAK256 SWAP1 PUSH1 0x5 MUL ADD PUSH0 SWAP1 SWAP2 SWAP1 SWAP2 SWAP1 SWAP2 POP PUSH0 DUP3 ADD MLOAD DUP2 PUSH0 ADD PUSH0 PUSH2 0x100 EXP DUP2 SLOAD DUP2 PUSH20 0xFFFFFFFFFFFFFFFFFFFFFFFFFFFFFFFFFFFFFFFF MUL NOT AND SWAP1 DUP4 PUSH20 0xFFFFFFFFFFFFFFFFFFFFFFFFFFFFFFFFFFFFFFFF AND MUL OR SWAP1 SSTORE POP PUSH1 0x20 DUP3 ADD MLOAD DUP2 PUSH0 ADD PUSH1 0x14 PUSH2 0x100 EXP DUP2 SLOAD DUP2 PUSH1 0xFF MUL NOT AND SWAP1 DUP4 PUSH1 0x5 DUP2 GT ISZERO PUSH2 0x7FE JUMPI PUSH2 0x7FD PUSH2 0x19DB JUMP JUMPDEST JUMPDEST MUL OR SWAP1 SSTORE POP PUSH1 0x40 DUP3 ADD MLOAD DUP2 PUSH1 0x1 ADD SWAP1 DUP2 PUSH2 0x818 SWAP2 SWAP1 PUSH2 0x25C5 JUMP JUMPDEST POP PUSH1 0x60 DUP3 ADD MLOAD DUP2 PUSH1 0x2 ADD SWAP1 DUP2 PUSH2 0x82E SWAP2 SWAP1 PUSH2 0x25C5 JUMP JUMPDEST POP PUSH1 0x80 DUP3 ADD MLOAD DUP2 PUSH1 0x3 ADD SSTORE PUSH1 0xA0 DUP3 ADD MLOAD DUP2 PUSH1 0x4 ADD SSTORE POP POP PUSH1 0x50 DUP3 SGT ISZERO PUSH2 0x89E JUMPI DUP5 PUSH1 0x40 MLOAD PUSH2 0x85C SWAP2 SWAP1 PUSH2 0x221D JUMP JUMPDEST PUSH1 0x40 MLOAD DUP1 SWAP2 SUB SWAP1 KECCAK256 PUSH32 0x26DC7D14878587176903D5487D42F16C5F65C16BDD4515F4D4B1759ADCA6644B DUP4 CALLER PUSH1 0x40 MLOAD PUSH2 0x895 SWAP3 SWAP2 SWAP1 PUSH2 0x2694 JUMP JUMPDEST PUSH1 0x40 MLOAD DUP1 SWAP2 SUB SWAP1 LOG2 JUMPDEST DUP5 PUSH1 0x40 MLOAD PUSH2 0x8AC SWAP2 SWAP1 PUSH2 0x221D JUMP JUMPDEST PUSH1 0x40 MLOAD DUP1 SWAP2 SUB SWAP1 KECCAK256 PUSH32 0x6AB2CE4A47BF01AE08A862A18F5E8B1FAF85F05C105BBB0298A7C831859DA5E3 CALLER DUP6 TIMESTAMP PUSH1 0x40 MLOAD PUSH2 0x8E7 SWAP4 SWAP3 SWAP2 SWAP1 PUSH2 0x26BB JUMP JUMPDEST PUSH1 0x40 MLOAD DUP1 SWAP2 SUB SWAP1 LOG2 POP POP POP POP POP JUMP JUMPDEST PUSH0 PUSH0 PUSH0 DUP4 PUSH1 0x40 MLOAD PUSH2 0x907 SWAP2 SWAP1 PUSH2 0x221D JUMP JUMPDEST SWAP1 DUP2 MSTORE PUSH1 0x20 ADD PUSH1 0x40 MLOAD DUP1 SWAP2 SUB SWAP1 KECCAK256 PUSH0 ADD DUP1 SLOAD PUSH2 0x922 SWAP1 PUSH2 0x23E4 JUMP JUMPDEST SWAP1 POP GT PUSH2 0x964 JUMPI PUSH1 0x40 MLOAD PUSH32 0x8C379A000000000000000000000000000000000000000000000000000000000 DUP2 MSTORE PUSH1 0x4 ADD PUSH2 0x95B SWAP1 PUSH2 0x2741 JUMP JUMPDEST PUSH1 0x40 MLOAD DUP1 SWAP2 SUB SWAP1 REVERT JUMPDEST PUSH1 0x1 DUP3 PUSH1 0x40 MLOAD PUSH2 0x974 SWAP2 SWAP1 PUSH2 0x221D JUMP JUMPDEST SWAP1 DUP2 MSTORE PUSH1 0x20 ADD PUSH1 0x40 MLOAD DUP1 SWAP2 SUB SWAP1 KECCAK256 DUP1 SLOAD SWAP1 POP SWAP1 POP SWAP2 SWAP1 POP JUMP JUMPDEST PUSH0 DUP2 DUP1 MLOAD PUSH1 0x20 DUP2 ADD DUP3 ADD DUP1 MLOAD DUP5 DUP3 MSTORE PUSH1 0x20 DUP4 ADD PUSH1 0x20 DUP6 ADD KECCAK256 DUP2 DUP4 MSTORE DUP1 SWAP6 POP POP POP POP POP POP PUSH0 SWAP2 POP SWAP1 POP DUP1 PUSH0 ADD DUP1 SLOAD PUSH2 0x9C3 SWAP1 PUSH2 0x23E4 JUMP JUMPDEST DUP1 PUSH1 0x1F ADD PUSH1 0x20 DUP1 SWAP2 DIV MUL PUSH1 0x20 ADD PUSH1 0x40 MLOAD SWAP1 DUP2 ADD PUSH1 0x40 MSTORE DUP1 SWAP3 SWAP2 SWAP1 DUP2 DUP2 MSTORE PUSH1 0x20 ADD DUP3 DUP1 SLOAD PUSH2 0x9EF SWAP1 PUSH2 0x23E4 JUMP JUMPDEST DUP1 ISZERO PUSH2 0xA3A JUMPI DUP1 PUSH1 0x1F LT PUSH2 0xA11 JUMPI PUSH2 0x100 DUP1 DUP4 SLOAD DIV MUL DUP4 MSTORE SWAP2 PUSH1 0x20 ADD SWAP2 PUSH2 0xA3A JUMP JUMPDEST DUP3 ADD SWAP2 SWAP1 PUSH0 MSTORE PUSH1 0x20 PUSH0 KECCAK256 SWAP1 JUMPDEST DUP2 SLOAD DUP2 MSTORE SWAP1 PUSH1 0x1 ADD SWAP1 PUSH1 0x20 ADD DUP1 DUP4 GT PUSH2 0xA1D JUMPI DUP3 SWAP1 SUB PUSH1 0x1F AND DUP3 ADD SWAP2 JUMPDEST POP POP POP POP POP SWAP1 DUP1 PUSH1 0x1 ADD DUP1 SLOAD PUSH2 0xA4F SWAP1 PUSH2 0x23E4 JUMP JUMPDEST DUP1 PUSH1 0x1F ADD PUSH1 0x20 DUP1 SWAP2 DIV MUL PUSH1 0x20 ADD PUSH1 0x40 MLOAD SWAP1 DUP2 ADD PUSH1 0x40 MSTORE DUP1 SWAP3 SWAP2 SWAP1 DUP2 DUP2 MSTORE PUSH1 0x20 ADD DUP3 DUP1 SLOAD PUSH2 0xA7B SWAP1 PUSH2 0x23E4 JUMP JUMPDEST DUP1 ISZERO PUSH2 0xAC6 JUMPI DUP1 PUSH1 0x1F LT PUSH2 0xA9D JUMPI PUSH2 0x100 DUP1 DUP4 SLOAD DIV MUL DUP4 MSTORE SWAP2 PUSH1 0x20 ADD SWAP2 PUSH2 0xAC6 JUMP JUMPDEST DUP3 ADD SWAP2 SWAP1 PUSH0 MSTORE PUSH1 0x20 PUSH0 KECCAK256 SWAP1 JUMPDEST DUP2 SLOAD DUP2 MSTORE SWAP1 PUSH1 0x1 ADD SWAP1 PUSH1 0x20 ADD DUP1 DUP4 GT PUSH2 0xAA9 JUMPI DUP3 SWAP1 SUB PUSH1 0x1F AND DUP3 ADD SWAP2 JUMPDEST POP POP POP POP POP SWAP1 DUP1 PUSH1 0x2 ADD DUP1 SLOAD PUSH2 0xADB SWAP1 PUSH2 0x23E4 JUMP JUMPDEST DUP1 PUSH1 0x1F ADD PUSH1 0x20 DUP1 SWAP2 DIV MUL PUSH1 0x20 ADD PUSH1 0x40 MLOAD SWAP1 DUP2 ADD PUSH1 0x40 MSTORE DUP1 SWAP3 SWAP2 SWAP1 DUP2 DUP2 MSTORE PUSH1 0x20 ADD DUP3 DUP1 SLOAD PUSH2 0xB07 SWAP1 PUSH2 0x23E4 JUMP JUMPDEST DUP1 ISZERO PUSH2 0xB52 JUMPI DUP1 PUSH1 0x1F LT PUSH2 0xB29 JUMPI PUSH2 0x100 DUP1 DUP4 SLOAD DIV MUL DUP4 MSTORE SWAP2 PUSH1 0x20 ADD SWAP2 PUSH2 0xB52 JUMP JUMPDEST DUP3 ADD SWAP2 SWAP1 PUSH0 MSTORE PUSH1 0x20 PUSH0 KECCAK256 SWAP1 JUMPDEST DUP2 SLOAD DUP2 MSTORE SWAP1 PUSH1 0x1 ADD SWAP1 PUSH1 0x20 ADD DUP1 DUP4 GT PUSH2 0xB35 JUMPI DUP3 SWAP1 SUB PUSH1 0x1F AND DUP3 ADD SWAP2 JUMPDEST POP POP POP POP POP SWAP1 DUP1 PUSH1 0x3 ADD SLOAD SWAP1 DUP1 PUSH1 0x4 ADD PUSH0 SWAP1 SLOAD SWAP1 PUSH2 0x100 EXP SWAP1 DIV PUSH20 0xFFFFFFFFFFFFFFFFFFFFFFFFFFFFFFFFFFFFFFFF AND SWAP1 DUP1 PUSH1 0x4 ADD PUSH1 0x14 SWAP1 SLOAD SWAP1 PUSH2 0x100 EXP SWAP1 DIV PUSH1 0xFF AND SWAP1 POP DUP7 JUMP JUMPDEST PUSH1 0x3 PUSH0 SWAP1 SLOAD SWAP1 PUSH2 0x100 EXP SWAP1 DIV PUSH20 0xFFFFFFFFFFFFFFFFFFFFFFFFFFFFFFFFFFFFFFFF AND DUP2 JUMP JUMPDEST PUSH1 0x2 PUSH1 0x20 MSTORE DUP1 PUSH0 MSTORE PUSH1 0x40 PUSH0 KECCAK256 PUSH0 SWAP2 POP SLOAD SWAP1 PUSH2 0x100 EXP SWAP1 DIV PUSH1 0xFF AND DUP2 JUMP JUMPDEST PUSH1 0x60 PUSH0 PUSH0 DUP4 PUSH1 0x40 MLOAD PUSH2 0xBEE SWAP2 SWAP1 PUSH2 0x221D JUMP JUMPDEST SWAP1 DUP2 MSTORE PUSH1 0x20 ADD PUSH1 0x40 MLOAD DUP1 SWAP2 SUB SWAP1 KECCAK256 PUSH0 ADD DUP1 SLOAD PUSH2 0xC09 SWAP1 PUSH2 0x23E4 JUMP JUMPDEST SWAP1 POP GT PUSH2 0xC4B JUMPI PUSH1 0x40 MLOAD PUSH32 0x8C379A000000000000000000000000000000000000000000000000000000000 DUP2 MSTORE PUSH1 0x4 ADD PUSH2 0xC42 SWAP1 PUSH2 0x2741 JUMP JUMPDEST PUSH1 0x40 MLOAD DUP1 SWAP2 SUB SWAP1 REVERT JUMPDEST PUSH1 0x1 DUP3 PUSH1 0x40 MLOAD PUSH2 0xC5B SWAP2 SWAP1 PUSH2 0x221D JUMP JUMPDEST SWAP1 DUP2 MSTORE PUSH1 0x20 ADD PUSH1 0x40 MLOAD DUP1 SWAP2 SUB SWAP1 KECCAK256 DUP1 SLOAD DUP1 PUSH1 0x20 MUL PUSH1 0x20 ADD PUSH1 0x40 MLOAD SWAP1 DUP2 ADD PUSH1 0x40 MSTORE DUP1 SWAP3 SWAP2 SWAP1 DUP2 DUP2 MSTORE PUSH1 0x20 ADD PUSH0 SWAP1 JUMPDEST DUP3 DUP3 LT ISZERO PUSH2 0xE7A JUMPI DUP4 DUP3 SWAP1 PUSH0 MSTORE PUSH1 0x20 PUSH0 KECCAK256 SWAP1 PUSH1 0x5 MUL ADD PUSH1 0x40 MLOAD DUP1 PUSH1 0xC0 ADD PUSH1 0x40 MSTORE SWAP1 DUP2 PUSH0 DUP3 ADD PUSH0 SWAP1 SLOAD SWAP1 PUSH2 0x100 EXP SWAP1 DIV PUSH20 0xFFFFFFFFFFFFFFFFFFFFFFFFFFFFFFFFFFFFFFFF AND PUSH20 0xFFFFFFFFFFFFFFFFFFFFFFFFFFFFFFFFFFFFFFFF AND PUSH20 0xFFFFFFFFFFFFFFFFFFFFFFFFFFFFFFFFFFFFFFFF AND DUP2 MSTORE PUSH1 0x20 ADD PUSH0 DUP3 ADD PUSH1 0x14 SWAP1 SLOAD SWAP1 PUSH2 0x100 EXP SWAP1 DIV PUSH1 0xFF AND PUSH1 0x5 DUP2 GT ISZERO PUSH2 0xD21 JUMPI PUSH2 0xD20 PUSH2 0x19DB JUMP JUMPDEST JUMPDEST PUSH1 0x5 DUP2 GT ISZERO PUSH2 0xD33 JUMPI PUSH2 0xD32 PUSH2 0x19DB JUMP JUMPDEST JUMPDEST DUP2 MSTORE PUSH1 0x20 ADD PUSH1 0x1 DUP3 ADD DUP1 SLOAD PUSH2 0xD47 SWAP1 PUSH2 0x23E4 JUMP JUMPDEST DUP1 PUSH1 0x1F ADD PUSH1 0x20 DUP1 SWAP2 DIV MUL PUSH1 0x20 ADD PUSH1 0x40 MLOAD SWAP1 DUP2 ADD PUSH1 0x40 MSTORE DUP1 SWAP3 SWAP2 SWAP1 DUP2 DUP2 MSTORE PUSH1 0x20 ADD DUP3 DUP1 SLOAD PUSH2 0xD73 SWAP1 PUSH2 0x23E4 JUMP JUMPDEST DUP1 ISZERO PUSH2 0xDBE JUMPI DUP1 PUSH1 0x1F LT PUSH2 0xD95 JUMPI PUSH2 0x100 DUP1 DUP4 SLOAD DIV MUL DUP4 MSTORE SWAP2 PUSH1 0x20 ADD SWAP2 PUSH2 0xDBE JUMP JUMPDEST DUP3 ADD SWAP2 SWAP1 PUSH0 MSTORE PUSH1 0x20 PUSH0 KECCAK256 SWAP1 JUMPDEST DUP2 SLOAD DUP2 MSTORE SWAP1 PUSH1 0x1 ADD SWAP1 PUSH1 0x20 ADD DUP1 DUP4 GT PUSH2 0xDA1 JUMPI DUP3 SWAP1 SUB PUSH1 0x1F AND DUP3 ADD SWAP2 JUMPDEST POP POP POP POP POP DUP2 MSTORE PUSH1 0x20 ADD PUSH1 0x2 DUP3 ADD DUP1 SLOAD PUSH2 0xDD7 SWAP1 PUSH2 0x23E4 JUMP JUMPDEST DUP1 PUSH1 0x1F ADD PUSH1 0x20 DUP1 SWAP2 DIV MUL PUSH1 0x20 ADD PUSH1 0x40 MLOAD SWAP1 DUP2 ADD PUSH1 0x40 MSTORE DUP1 SWAP3 SWAP2 SWAP1 DUP2 DUP2 MSTORE PUSH1 0x20 ADD DUP3 DUP1 SLOAD PUSH2 0xE03 SWAP1 PUSH2 0x23E4 JUMP JUMPDEST DUP1 ISZERO PUSH2 0xE4E JUMPI DUP1 PUSH1 0x1F LT PUSH2 0xE25 JUMPI PUSH2 0x100 DUP1 DUP4 SLOAD DIV MUL DUP4 MSTORE SWAP2 PUSH1 0x20 ADD SWAP2 PUSH2 0xE4E JUMP JUMPDEST DUP3 ADD SWAP2 SWAP1 PUSH0 MSTORE PUSH1 0x20 PUSH0 KECCAK256 SWAP1 JUMPDEST DUP2 SLOAD DUP2 MSTORE SWAP1 PUSH1 0x1 ADD SWAP1 PUSH1 0x20 ADD DUP1 DUP4 GT PUSH2 0xE31 JUMPI DUP3 SWAP1 SUB PUSH1 0x1F AND DUP3 ADD SWAP2 JUMPDEST POP POP POP POP POP DUP2 MSTORE PUSH1 0x20 ADD PUSH1 0x3 DUP3 ADD SLOAD DUP2 MSTORE PUSH1 0x20 ADD PUSH1 0x4 DUP3 ADD SLOAD DUP2 MSTORE POP POP DUP2 MSTORE PUSH1 0x20 ADD SWAP1 PUSH1 0x1 ADD SWAP1 PUSH2 0xC88 JUMP JUMPDEST POP POP POP POP SWAP1 POP SWAP2 SWAP1 POP JUMP JUMPDEST PUSH1 0x1 DUP3 DUP1 MLOAD PUSH1 0x20 DUP2 ADD DUP3 ADD DUP1 MLOAD DUP5 DUP3 MSTORE PUSH1 0x20 DUP4 ADD PUSH1 0x20 DUP6 ADD KECCAK256 DUP2 DUP4 MSTORE DUP1 SWAP6 POP POP POP POP POP POP DUP2 DUP2 SLOAD DUP2 LT PUSH2 0xEB6 JUMPI PUSH0 DUP1 REVERT JUMPDEST SWAP1 PUSH0 MSTORE PUSH1 0x20 PUSH0 KECCAK256 SWAP1 PUSH1 0x5 MUL ADD PUSH0 SWAP2 POP SWAP2 POP POP DUP1 PUSH0 ADD PUSH0 SWAP1 SLOAD SWAP1 PUSH2 0x100 EXP SWAP1 DIV PUSH20 0xFFFFFFFFFFFFFFFFFFFFFFFFFFFFFFFFFFFFFFFF AND SWAP1 DUP1 PUSH0 ADD PUSH1 0x14 SWAP1 SLOAD SWAP1 PUSH2 0x100 EXP SWAP1 DIV PUSH1 0xFF AND SWAP1 DUP1 PUSH1 0x1 ADD DUP1 SLOAD PUSH2 0xF0D SWAP1 PUSH2 0x23E4 JUMP JUMPDEST DUP1 PUSH1 0x1F ADD PUSH1 0x20 DUP1 SWAP2 DIV MUL PUSH1 0x20 ADD PUSH1 0x40 MLOAD SWAP1 DUP2 ADD PUSH1 0x40 MSTORE DUP1 SWAP3 SWAP2 SWAP1 DUP2 DUP2 MSTORE PUSH1 0x20 ADD DUP3 DUP1 SLOAD PUSH2 0xF39 SWAP1 PUSH2 0x23E4 JUMP JUMPDEST DUP1 ISZERO PUSH2 0xF84 JUMPI DUP1 PUSH1 0x1F LT PUSH2 0xF5B JUMPI PUSH2 0x100 DUP1 DUP4 SLOAD DIV MUL DUP4 MSTORE SWAP2 PUSH1 0x20 ADD SWAP2 PUSH2 0xF84 JUMP JUMPDEST DUP3 ADD SWAP2 SWAP1 PUSH0 MSTORE PUSH1 0x20 PUSH0 KECCAK256 SWAP1 JUMPDEST DUP2 SLOAD DUP2 MSTORE SWAP1 PUSH1 0x1 ADD SWAP1 PUSH1 0x20 ADD DUP1 DUP4 GT PUSH2 0xF67 JUMPI DUP3 SWAP1 SUB PUSH1 0x1F AND DUP3 ADD SWAP2 JUMPDEST POP POP POP POP POP SWAP1 DUP1 PUSH1 0x2 ADD DUP1 SLOAD PUSH2 0xF99 SWAP1 PUSH2 0x23E4 JUMP JUMPDEST DUP1 PUSH1 0x1F ADD PUSH1 0x20 DUP1 SWAP2 DIV MUL PUSH1 0x20 ADD PUSH1 0x40 MLOAD SWAP1 DUP2 ADD PUSH1 0x40 MSTORE DUP1 SWAP3 SWAP2 SWAP1 DUP2 DUP2 MSTORE PUSH1 0x20 ADD DUP3 DUP1 SLOAD PUSH2 0xFC5 SWAP1 PUSH2 0x23E4 JUMP JUMPDEST DUP1 ISZERO PUSH2 0x1010 JUMPI DUP1 PUSH1 0x1F LT PUSH2 0xFE7 JUMPI PUSH2 0x100 DUP1 DUP4 SLOAD DIV MUL DUP4 MSTORE SWAP2 PUSH1 0x20 ADD SWAP2 PUSH2 0x1010 JUMP JUMPDEST DUP3 ADD SWAP2 SWAP1 PUSH0 MSTORE PUSH1 0x20 PUSH0 KECCAK256 SWAP1 JUMPDEST DUP2 SLOAD DUP2 MSTORE SWAP1 PUSH1 0x1 ADD SWAP1 PUSH1 0x20 ADD DUP1 DUP4 GT PUSH2 0xFF3 JUMPI DUP3 SWAP1 SUB PUSH1 0x1F AND DUP3 ADD SWAP2 JUMPDEST POP POP POP POP POP SWAP1 DUP1 PUSH1 0x3 ADD SLOAD SWAP1 DUP1 PUSH1 0x4 ADD SLOAD SWAP1 POP DUP7 JUMP JUMPDEST PUSH1 0x1 DUP1 PUSH1 0x5 DUP2 GT ISZERO PUSH2 0x103B JUMPI PUSH2 0x103A PUSH2 0x19DB JUMP JUMPDEST JUMPDEST PUSH1 0x2 PUSH0 CALLER PUSH20 0xFFFFFFFFFFFFFFFFFFFFFFFFFFFFFFFFFFFFFFFF AND PUSH20 0xFFFFFFFFFFFFFFFFFFFFFFFFFFFFFFFFFFFFFFFF AND DUP2 MSTORE PUSH1 0x20 ADD SWAP1 DUP2 MSTORE PUSH1 0x20 ADD PUSH0 KECCAK256 PUSH0 SWAP1 SLOAD SWAP1 PUSH2 0x100 EXP SWAP1 DIV PUSH1 0xFF AND PUSH1 0x5 DUP2 GT ISZERO PUSH2 0x1097 JUMPI PUSH2 0x1096 PUSH2 0x19DB JUMP JUMPDEST JUMPDEST EQ PUSH2 0x10D7 JUMPI PUSH1 0x40 MLOAD PUSH32 0x8C379A000000000000000000000000000000000000000000000000000000000 DUP2 MSTORE PUSH1 0x4 ADD PUSH2 0x10CE SWAP1 PUSH2 0x21C5 JUMP JUMPDEST PUSH1 0x40 MLOAD DUP1 SWAP2 SUB SWAP1 REVERT JUMPDEST PUSH0 DUP6 MLOAD GT PUSH2 0x111A JUMPI PUSH1 0x40 MLOAD PUSH32 0x8C379A000000000000000000000000000000000000000000000000000000000 DUP2 MSTORE PUSH1 0x4 ADD PUSH2 0x1111 SWAP1 PUSH2 0x27A9 JUMP JUMPDEST PUSH1 0x40 MLOAD DUP1 SWAP2 SUB SWAP1 REVERT JUMPDEST PUSH0 PUSH0 DUP7 PUSH1 0x40 MLOAD PUSH2 0x112A SWAP2 SWAP1 PUSH2 0x221D JUMP JUMPDEST SWAP1 DUP2 MSTORE PUSH1 0x20 ADD PUSH1 0x40 MLOAD DUP1 SWAP2 SUB SWAP1 KECCAK256 PUSH0 ADD DUP1 SLOAD PUSH2 0x1145 SWAP1 PUSH2 0x23E4 JUMP JUMPDEST SWAP1 POP EQ PUSH2 0x1187 JUMPI PUSH1 0x40 MLOAD PUSH32 0x8C379A000000000000000000000000000000000000000000000000000000000 DUP2 MSTORE PUSH1 0x4 ADD PUSH2 0x117E SWAP1 PUSH2 0x2811 JUMP JUMPDEST PUSH1 0x40 MLOAD DUP1 SWAP2 SUB SWAP1 REVERT JUMPDEST PUSH1 0x40 MLOAD DUP1 PUSH1 0xC0 ADD PUSH1 0x40 MSTORE DUP1 DUP7 DUP2 MSTORE PUSH1 0x20 ADD DUP6 DUP2 MSTORE PUSH1 0x20 ADD DUP5 DUP2 MSTORE PUSH1 0x20 ADD DUP4 DUP2 MSTORE PUSH1 0x20 ADD CALLER PUSH20 0xFFFFFFFFFFFFFFFFFFFFFFFFFFFFFFFFFFFFFFFF AND DUP2 MSTORE PUSH1 0x20 ADD PUSH1 0x1 ISZERO ISZERO DUP2 MSTORE POP PUSH0 DUP7 PUSH1 0x40 MLOAD PUSH2 0x11DC SWAP2 SWAP1 PUSH2 0x221D JUMP JUMPDEST SWAP1 DUP2 MSTORE PUSH1 0x20 ADD PUSH1 0x40 MLOAD DUP1 SWAP2 SUB SWAP1 KECCAK256 PUSH0 DUP3 ADD MLOAD DUP2 PUSH0 ADD SWAP1 DUP2 PUSH2 0x11FD SWAP2 SWAP1 PUSH2 0x25C5 JUMP JUMPDEST POP PUSH1 0x20 DUP3 ADD MLOAD DUP2 PUSH1 0x1 ADD SWAP1 DUP2 PUSH2 0x1213 SWAP2 SWAP1 PUSH2 0x25C5 JUMP JUMPDEST POP PUSH1 0x40 DUP3 ADD MLOAD DUP2 PUSH1 0x2 ADD SWAP1 DUP2 PUSH2 0x1229 SWAP2 SWAP1 PUSH2 0x25C5 JUMP JUMPDEST POP PUSH1 0x60 DUP3 ADD MLOAD DUP2 PUSH1 0x3 ADD SSTORE PUSH1 0x80 DUP3 ADD MLOAD DUP2 PUSH1 0x4 ADD PUSH0 PUSH2 0x100 EXP DUP2 SLOAD DUP2 PUSH20 0xFFFFFFFFFFFFFFFFFFFFFFFFFFFFFFFFFFFFFFFF MUL NOT AND SWAP1 DUP4 PUSH20 0xFFFFFFFFFFFFFFFFFFFFFFFFFFFFFFFFFFFFFFFF AND MUL OR SWAP1 SSTORE POP PUSH1 0xA0 DUP3 ADD MLOAD DUP2 PUSH1 0x4 ADD PUSH1 0x14 PUSH2 0x100 EXP DUP2 SLOAD DUP2 PUSH1 0xFF MUL NOT AND SWAP1 DUP4 ISZERO ISZERO MUL OR SWAP1 SSTORE POP SWAP1 POP POP PUSH1 0x1 DUP6 PUSH1 0x40 MLOAD PUSH2 0x12AD SWAP2 SWAP1 PUSH2 0x221D JUMP JUMPDEST SWAP1 DUP2 MSTORE PUSH1 0x20 ADD PUSH1 0x40 MLOAD DUP1 SWAP2 SUB SWAP1 KECCAK256 PUSH1 0x40 MLOAD DUP1 PUSH1 0xC0 ADD PUSH1 0x40 MSTORE DUP1 CALLER PUSH20 0xFFFFFFFFFFFFFFFFFFFFFFFFFFFFFFFFFFFFFFFF AND DUP2 MSTORE PUSH1 0x20 ADD PUSH1 0x1 PUSH1 0x5 DUP2 GT ISZERO PUSH2 0x12F6 JUMPI PUSH2 0x12F5 PUSH2 0x19DB JUMP JUMPDEST JUMPDEST DUP2 MSTORE PUSH1 0x20 ADD DUP6 DUP2 MSTORE PUSH1 0x20 ADD PUSH1 0x40 MLOAD DUP1 PUSH1 0x60 ADD PUSH1 0x40 MSTORE DUP1 PUSH1 0x2E DUP2 MSTORE PUSH1 0x20 ADD PUSH2 0x2908 PUSH1 0x2E SWAP2 CODECOPY DUP2 MSTORE PUSH1 0x20 ADD PUSH1 0xFA DUP2 MSTORE PUSH1 0x20 ADD TIMESTAMP DUP2 MSTORE POP SWAP1 DUP1 PUSH1 0x1 DUP2 SLOAD ADD DUP1 DUP3 SSTORE DUP1 SWAP2 POP POP PUSH1 0x1 SWAP1 SUB SWAP1 PUSH0 MSTORE PUSH1 0x20 PUSH0 KECCAK256 SWAP1 PUSH1 0x5 MUL ADD PUSH0 SWAP1 SWAP2 SWAP1 SWAP2 SWAP1 SWAP2 POP PUSH0 DUP3 ADD MLOAD DUP2 PUSH0 ADD PUSH0 PUSH2 0x100 EXP DUP2 SLOAD DUP2 PUSH20 0xFFFFFFFFFFFFFFFFFFFFFFFFFFFFFFFFFFFFFFFF MUL NOT AND SWAP1 DUP4 PUSH20 0xFFFFFFFFFFFFFFFFFFFFFFFFFFFFFFFFFFFFFFFF AND MUL OR SWAP1 SSTORE POP PUSH1 0x20 DUP3 ADD MLOAD DUP2 PUSH0 ADD PUSH1 0x14 PUSH2 0x100 EXP DUP2 SLOAD DUP2 PUSH1 0xFF MUL NOT AND SWAP1 DUP4 PUSH1 0x5 DUP2 GT ISZERO PUSH2 0x13BE JUMPI PUSH2 0x13BD PUSH2 0x19DB JUMP JUMPDEST JUMPDEST MUL OR SWAP1 SSTORE POP PUSH1 0x40 DUP3 ADD MLOAD DUP2 PUSH1 0x1 ADD SWAP1 DUP2 PUSH2 0x13D8 SWAP2 SWAP1 PUSH2 0x25C5 JUMP JUMPDEST POP PUSH1 0x60 DUP3 ADD MLOAD DUP2 PUSH1 0x2 ADD SWAP1 DUP2 PUSH2 0x13EE SWAP2 SWAP1 PUSH2 0x25C5 JUMP JUMPDEST POP PUSH1 0x80 DUP3 ADD MLOAD DUP2 PUSH1 0x3 ADD SSTORE PUSH1 0xA0 DUP3 ADD MLOAD DUP2 PUSH1 0x4 ADD SSTORE POP POP DUP5 PUSH1 0x40 MLOAD PUSH2 0x1413 SWAP2 SWAP1 PUSH2 0x221D JUMP JUMPDEST PUSH1 0x40 MLOAD DUP1 SWAP2 SUB SWAP1 KECCAK256 PUSH32 0xE187EF62F610F162883FDADA619504C09C0981BE2DC09FBC1029E7A09DB45A93 DUP6 CALLER PUSH1 0x40 MLOAD PUSH2 0x144C SWAP3 SWAP2 SWAP1 PUSH2 0x282F JUMP JUMPDEST PUSH1 0x40 MLOAD DUP1 SWAP2 SUB SWAP1 LOG2 DUP5 PUSH1 0x40 MLOAD PUSH2 0x1462 SWAP2 SWAP1 PUSH2 0x221D JUMP JUMPDEST PUSH1 0x40 MLOAD DUP1 SWAP2 SUB SWAP1 KECCAK256 PUSH32 0x6AB2CE4A47BF01AE08A862A18F5E8B1FAF85F05C105BBB0298A7C831859DA5E3 CALLER TIMESTAMP PUSH1 0x40 MLOAD PUSH2 0x149B SWAP3 SWAP2 SWAP1 PUSH2 0x28CD JUMP JUMPDEST PUSH1 0x40 MLOAD DUP1 SWAP2 SUB SWAP1 LOG2 POP POP POP POP POP JUMP JUMPDEST PUSH2 0x14B2 PUSH2 0x1777 JUMP JUMPDEST PUSH0 PUSH0 DUP4 PUSH1 0x40 MLOAD PUSH2 0x14C2 SWAP2 SWAP1 PUSH2 0x221D JUMP JUMPDEST SWAP1 DUP2 MSTORE PUSH1 0x20 ADD PUSH1 0x40 MLOAD DUP1 SWAP2 SUB SWAP1 KECCAK256 PUSH0 ADD DUP1 SLOAD PUSH2 0x14DD SWAP1 PUSH2 0x23E4 JUMP JUMPDEST SWAP1 POP GT PUSH2 0x151F JUMPI PUSH1 0x40 MLOAD PUSH32 0x8C379A000000000000000000000000000000000000000000000000000000000 DUP2 MSTORE PUSH1 0x4 ADD PUSH2 0x1516 SWAP1 PUSH2 0x2741 JUMP JUMPDEST PUSH1 0x40 MLOAD DUP1 SWAP2 SUB SWAP1 REVERT JUMPDEST PUSH0 DUP3 PUSH1 0x40 MLOAD PUSH2 0x152E SWAP2 SWAP1 PUSH2 0x221D JUMP JUMPDEST SWAP1 DUP2 MSTORE PUSH1 0x20 ADD PUSH1 0x40 MLOAD DUP1 SWAP2 SUB SWAP1 KECCAK256 PUSH1 0x40 MLOAD DUP1 PUSH1 0xC0 ADD PUSH1 0x40 MSTORE SWAP1 DUP2 PUSH0 DUP3 ADD DUP1 SLOAD PUSH2 0x1556 SWAP1 PUSH2 0x23E4 JUMP JUMPDEST DUP1 PUSH1 0x1F ADD PUSH1 0x20 DUP1 SWAP2 DIV MUL PUSH1 0x20 ADD PUSH1 0x40 MLOAD SWAP1 DUP2 ADD PUSH1 0x40 MSTORE DUP1 SWAP3 SWAP2 SWAP1 DUP2 DUP2 MSTORE PUSH1 0x20 ADD DUP3 DUP1 SLOAD PUSH2 0x1582 SWAP1 PUSH2 0x23E4 JUMP JUMPDEST DUP1 ISZERO PUSH2 0x15CD JUMPI DUP1 PUSH1 0x1F LT PUSH2 0x15A4 JUMPI PUSH2 0x100 DUP1 DUP4 SLOAD DIV MUL DUP4 MSTORE SWAP2 PUSH1 0x20 ADD SWAP2 PUSH2 0x15CD JUMP JUMPDEST DUP3 ADD SWAP2 SWAP1 PUSH0 MSTORE PUSH1 0x20 PUSH0 KECCAK256 SWAP1 JUMPDEST DUP2 SLOAD DUP2 MSTORE SWAP1 PUSH1 0x1 ADD SWAP1 PUSH1 0x20 ADD DUP1 DUP4 GT PUSH2 0x15B0 JUMPI DUP3 SWAP1 SUB PUSH1 0x1F AND DUP3 ADD SWAP2 JUMPDEST POP POP POP POP POP DUP2 MSTORE PUSH1 0x20 ADD PUSH1 0x1 DUP3 ADD DUP1 SLOAD PUSH2 0x15E6 SWAP1 PUSH2 0x23E4 JUMP JUMPDEST DUP1 PUSH1 0x1F ADD PUSH1 0x20 DUP1 SWAP2 DIV MUL PUSH1 0x20 ADD PUSH1 0x40 MLOAD SWAP1 DUP2 ADD PUSH1 0x40 MSTORE DUP1 SWAP3 SWAP2 SWAP1 DUP2 DUP2 MSTORE PUSH1 0x20 ADD DUP3 DUP1 SLOAD PUSH2 0x1612 SWAP1 PUSH2 0x23E4 JUMP JUMPDEST DUP1 ISZERO PUSH2 0x165D JUMPI DUP1 PUSH1 0x1F LT PUSH2 0x1634 JUMPI PUSH2 0x100 DUP1 DUP4 SLOAD DIV MUL DUP4 MSTORE SWAP2 PUSH1 0x20 ADD SWAP2 PUSH2 0x165D JUMP JUMPDEST DUP3 ADD SWAP2 SWAP1 PUSH0 MSTORE PUSH1 0x20 PUSH0 KECCAK256 SWAP1 JUMPDEST DUP2 SLOAD DUP2 MSTORE SWAP1 PUSH1 0x1 ADD SWAP1 PUSH1 0x20 ADD DUP1 DUP4 GT PUSH2 0x1640 JUMPI DUP3 SWAP1 SUB PUSH1 0x1F AND DUP3 ADD SWAP2 JUMPDEST POP POP POP POP POP DUP2 MSTORE PUSH1 0x20 ADD PUSH1 0x2 DUP3 ADD DUP1 SLOAD PUSH2 0x1676 SWAP1 PUSH2 0x23E4 JUMP JUMPDEST DUP1 PUSH1 0x1F ADD PUSH1 0x20 DUP1 SWAP2 DIV MUL PUSH1 0x20 ADD PUSH1 0x40 MLOAD SWAP1 DUP2 ADD PUSH1 0x40 MSTORE DUP1 SWAP3 SWAP2 SWAP1 DUP2 DUP2 MSTORE PUSH1 0x20 ADD DUP3 DUP1 SLOAD PUSH2 0x16A2 SWAP1 PUSH2 0x23E4 JUMP JUMPDEST DUP1 ISZERO PUSH2 0x16ED JUMPI DUP1 PUSH1 0x1F LT PUSH2 0x16C4 JUMPI PUSH2 0x100 DUP1 DUP4 SLOAD DIV MUL DUP4 MSTORE SWAP2 PUSH1 0x20 ADD SWAP2 PUSH2 0x16ED JUMP JUMPDEST DUP3 ADD SWAP2 SWAP1 PUSH0 MSTORE PUSH1 0x20 PUSH0 KECCAK256 SWAP1 JUMPDEST DUP2 SLOAD DUP2 MSTORE SWAP1 PUSH1 0x1 ADD SWAP1 PUSH1 0x20 ADD DUP1 DUP4 GT PUSH2 0x16D0 JUMPI DUP3 SWAP1 SUB PUSH1 0x1F AND DUP3 ADD SWAP2 JUMPDEST POP POP POP POP POP DUP2 MSTORE PUSH1 0x20 ADD PUSH1 0x3 DUP3 ADD SLOAD DUP2 MSTORE PUSH1 0x20 ADD PUSH1 0x4 DUP3 ADD PUSH0 SWAP1 SLOAD SWAP1 PUSH2 0x100 EXP SWAP1 DIV PUSH20 0xFFFFFFFFFFFFFFFFFFFFFFFFFFFFFFFFFFFFFFFF AND PUSH20 0xFFFFFFFFFFFFFFFFFFFFFFFFFFFFFFFFFFFFFFFF AND PUSH20 0xFFFFFFFFFFFFFFFFFFFFFFFFFFFFFFFFFFFFFFFF AND DUP2 MSTORE PUSH1 0x20 ADD PUSH1 0x4 DUP3 ADD PUSH1 0x14 SWAP1 SLOAD SWAP1 PUSH2 0x100 EXP SWAP1 DIV PUSH1 0xFF AND ISZERO ISZERO ISZERO ISZERO DUP2 MSTORE POP POP SWAP1 POP SWAP2 SWAP1 POP JUMP JUMPDEST PUSH1 0x40 MLOAD DUP1 PUSH1 0xC0 ADD PUSH1 0x40 MSTORE DUP1 PUSH1 0x60 DUP2 MSTORE PUSH1 0x20 ADD PUSH1 0x60 DUP2 MSTORE PUSH1 0x20 ADD PUSH1 0x60 DUP2 MSTORE PUSH1 0x20 ADD PUSH0 DUP2 MSTORE PUSH1 0x20 ADD PUSH0 PUSH20 0xFFFFFFFFFFFFFFFFFFFFFFFFFFFFFFFFFFFFFFFF AND DUP2 MSTORE PUSH1 0x20 ADD PUSH0 ISZERO ISZERO DUP2 MSTORE POP SWAP1 JUMP JUMPDEST PUSH0 PUSH1 0x40 MLOAD SWAP1 POP SWAP1 JUMP JUMPDEST PUSH0 PUSH0 REVERT JUMPDEST PUSH0 PUSH0 REVERT JUMPDEST PUSH0 PUSH0 REVERT JUMPDEST PUSH0 PUSH0 REVERT JUMPDEST PUSH0 PUSH1 0x1F NOT PUSH1 0x1F DUP4 ADD AND SWAP1 POP SWAP2 SWAP1 POP JUMP JUMPDEST PUSH32 0x4E487B7100000000000000000000000000000000000000000000000000000000 PUSH0 MSTORE PUSH1 0x41 PUSH1 0x4 MSTORE PUSH1 0x24 PUSH0 REVERT JUMPDEST PUSH2 0x1821 DUP3 PUSH2 0x17DB JUMP JUMPDEST DUP2 ADD DUP2 DUP2 LT PUSH8 0xFFFFFFFFFFFFFFFF DUP3 GT OR ISZERO PUSH2 0x1840 JUMPI PUSH2 0x183F PUSH2 0x17EB JUMP JUMPDEST JUMPDEST DUP1 PUSH1 0x40 MSTORE POP POP POP JUMP JUMPDEST PUSH0 PUSH2 0x1852 PUSH2 0x17C2 JUMP JUMPDEST SWAP1 POP PUSH2 0x185E DUP3 DUP3 PUSH2 0x1818 JUMP JUMPDEST SWAP2 SWAP1 POP JUMP JUMPDEST PUSH0 PUSH8 0xFFFFFFFFFFFFFFFF DUP3 GT ISZERO PUSH2 0x187D JUMPI PUSH2 0x187C PUSH2 0x17EB JUMP JUMPDEST JUMPDEST PUSH2 0x1886 DUP3 PUSH2 0x17DB JUMP JUMPDEST SWAP1 POP PUSH1 0x20 DUP2 ADD SWAP1 POP SWAP2 SWAP1 POP JUMP JUMPDEST DUP3 DUP2 DUP4 CALLDATACOPY PUSH0 DUP4 DUP4 ADD MSTORE POP POP POP JUMP JUMPDEST PUSH0 PUSH2 0x18B3 PUSH2 0x18AE DUP5 PUSH2 0x1863 JUMP JUMPDEST PUSH2 0x1849 JUMP JUMPDEST SWAP1 POP DUP3 DUP2 MSTORE PUSH1 0x20 DUP2 ADD DUP5 DUP5 DUP5 ADD GT ISZERO PUSH2 0x18CF JUMPI PUSH2 0x18CE PUSH2 0x17D7 JUMP JUMPDEST JUMPDEST PUSH2 0x18DA DUP5 DUP3 DUP6 PUSH2 0x1893 JUMP JUMPDEST POP SWAP4 SWAP3 POP POP POP JUMP JUMPDEST PUSH0 DUP3 PUSH1 0x1F DUP4 ADD SLT PUSH2 0x18F6 JUMPI PUSH2 0x18F5 PUSH2 0x17D3 JUMP JUMPDEST JUMPDEST DUP2 CALLDATALOAD PUSH2 0x1906 DUP5 DUP3 PUSH1 0x20 DUP7 ADD PUSH2 0x18A1 JUMP JUMPDEST SWAP2 POP POP SWAP3 SWAP2 POP POP JUMP JUMPDEST PUSH0 PUSH1 0x20 DUP3 DUP5 SUB SLT ISZERO PUSH2 0x1924 JUMPI PUSH2 0x1923 PUSH2 0x17CB JUMP JUMPDEST JUMPDEST PUSH0 DUP3 ADD CALLDATALOAD PUSH8 0xFFFFFFFFFFFFFFFF DUP2 GT ISZERO PUSH2 0x1941 JUMPI PUSH2 0x1940 PUSH2 0x17CF JUMP JUMPDEST JUMPDEST PUSH2 0x194D DUP5 DUP3 DUP6 ADD PUSH2 0x18E2 JUMP JUMPDEST SWAP2 POP POP SWAP3 SWAP2 POP POP JUMP JUMPDEST PUSH0 PUSH20 0xFFFFFFFFFFFFFFFFFFFFFFFFFFFFFFFFFFFFFFFF DUP3 AND SWAP1 POP SWAP2 SWAP1 POP JUMP JUMPDEST PUSH0 PUSH2 0x197F DUP3 PUSH2 0x1956 JUMP JUMPDEST SWAP1 POP SWAP2 SWAP1 POP JUMP JUMPDEST PUSH2 0x198F DUP2 PUSH2 0x1975 JUMP JUMPDEST DUP2 EQ PUSH2 0x1999 JUMPI PUSH0 PUSH0 REVERT JUMPDEST POP JUMP JUMPDEST PUSH0 DUP2 CALLDATALOAD SWAP1 POP PUSH2 0x19AA DUP2 PUSH2 0x1986 JUMP JUMPDEST SWAP3 SWAP2 POP POP JUMP JUMPDEST PUSH0 PUSH1 0x20 DUP3 DUP5 SUB SLT ISZERO PUSH2 0x19C5 JUMPI PUSH2 0x19C4 PUSH2 0x17CB JUMP JUMPDEST JUMPDEST PUSH0 PUSH2 0x19D2 DUP5 DUP3 DUP6 ADD PUSH2 0x199C JUMP JUMPDEST SWAP2 POP POP SWAP3 SWAP2 POP POP JUMP JUMPDEST PUSH32 0x4E487B7100000000000000000000000000000000000000000000000000000000 PUSH0 MSTORE PUSH1 0x21 PUSH1 0x4 MSTORE PUSH1 0x24 PUSH0 REVERT JUMPDEST PUSH1 0x6 DUP2 LT PUSH2 0x1A19 JUMPI PUSH2 0x1A18 PUSH2 0x19DB JUMP JUMPDEST JUMPDEST POP JUMP JUMPDEST PUSH0 DUP2 SWAP1 POP PUSH2 0x1A29 DUP3 PUSH2 0x1A08 JUMP JUMPDEST SWAP2 SWAP1 POP JUMP JUMPDEST PUSH0 PUSH2 0x1A38 DUP3 PUSH2 0x1A1C JUMP JUMPDEST SWAP1 POP SWAP2 SWAP1 POP JUMP JUMPDEST PUSH2 0x1A48 DUP2 PUSH2 0x1A2E JUMP JUMPDEST DUP3 MSTORE POP POP JUMP JUMPDEST PUSH0 PUSH1 0x20 DUP3 ADD SWAP1 POP PUSH2 0x1A61 PUSH0 DUP4 ADD DUP5 PUSH2 0x1A3F JUMP JUMPDEST SWAP3 SWAP2 POP POP JUMP JUMPDEST PUSH1 0x6 DUP2 LT PUSH2 0x1A73 JUMPI PUSH0 PUSH0 REVERT JUMPDEST POP JUMP JUMPDEST PUSH0 DUP2 CALLDATALOAD SWAP1 POP PUSH2 0x1A84 DUP2 PUSH2 0x1A67 JUMP JUMPDEST SWAP3 SWAP2 POP POP JUMP JUMPDEST PUSH0 PUSH0 PUSH1 0x40 DUP4 DUP6 SUB SLT ISZERO PUSH2 0x1AA0 JUMPI PUSH2 0x1A9F PUSH2 0x17CB JUMP JUMPDEST JUMPDEST PUSH0 PUSH2 0x1AAD DUP6 DUP3 DUP7 ADD PUSH2 0x199C JUMP JUMPDEST SWAP3 POP POP PUSH1 0x20 PUSH2 0x1ABE DUP6 DUP3 DUP7 ADD PUSH2 0x1A76 JUMP JUMPDEST SWAP2 POP POP SWAP3 POP SWAP3 SWAP1 POP JUMP JUMPDEST PUSH0 DUP2 SWAP1 POP SWAP2 SWAP1 POP JUMP JUMPDEST PUSH2 0x1ADA DUP2 PUSH2 0x1AC8 JUMP JUMPDEST DUP2 EQ PUSH2 0x1AE4 JUMPI PUSH0 PUSH0 REVERT JUMPDEST POP JUMP JUMPDEST PUSH0 DUP2 CALLDATALOAD SWAP1 POP PUSH2 0x1AF5 DUP2 PUSH2 0x1AD1 JUMP JUMPDEST SWAP3 SWAP2 POP POP JUMP JUMPDEST PUSH0 PUSH0 PUSH0 PUSH0 PUSH1 0x80 DUP6 DUP8 SUB SLT ISZERO PUSH2 0x1B13 JUMPI PUSH2 0x1B12 PUSH2 0x17CB JUMP JUMPDEST JUMPDEST PUSH0 DUP6 ADD CALLDATALOAD PUSH8 0xFFFFFFFFFFFFFFFF DUP2 GT ISZERO PUSH2 0x1B30 JUMPI PUSH2 0x1B2F PUSH2 0x17CF JUMP JUMPDEST JUMPDEST PUSH2 0x1B3C DUP8 DUP3 DUP9 ADD PUSH2 0x18E2 JUMP JUMPDEST SWAP5 POP POP PUSH1 0x20 DUP6 ADD CALLDATALOAD PUSH8 0xFFFFFFFFFFFFFFFF DUP2 GT ISZERO PUSH2 0x1B5D JUMPI PUSH2 0x1B5C PUSH2 0x17CF JUMP JUMPDEST JUMPDEST PUSH2 0x1B69 DUP8 DUP3 DUP9 ADD PUSH2 0x18E2 JUMP JUMPDEST SWAP4 POP POP PUSH1 0x40 DUP6 ADD CALLDATALOAD PUSH8 0xFFFFFFFFFFFFFFFF DUP2 GT ISZERO PUSH2 0x1B8A JUMPI PUSH2 0x1B89 PUSH2 0x17CF JUMP JUMPDEST JUMPDEST PUSH2 0x1B96 DUP8 DUP3 DUP9 ADD PUSH2 0x18E2 JUMP JUMPDEST SWAP3 POP POP PUSH1 0x60 PUSH2 0x1BA7 DUP8 DUP3 DUP9 ADD PUSH2 0x1AE7 JUMP JUMPDEST SWAP2 POP POP SWAP3 SWAP6 SWAP2 SWAP5 POP SWAP3 POP JUMP JUMPDEST PUSH0 DUP2 SWAP1 POP SWAP2 SWAP1 POP JUMP JUMPDEST PUSH2 0x1BC5 DUP2 PUSH2 0x1BB3 JUMP JUMPDEST DUP3 MSTORE POP POP JUMP JUMPDEST PUSH0 PUSH1 0x20 DUP3 ADD SWAP1 POP PUSH2 0x1BDE PUSH0 DUP4 ADD DUP5 PUSH2 0x1BBC JUMP JUMPDEST SWAP3 SWAP2 POP POP JUMP JUMPDEST PUSH0 DUP2 MLOAD SWAP1 POP SWAP2 SWAP1 POP JUMP JUMPDEST PUSH0 DUP3 DUP3 MSTORE PUSH1 0x20 DUP3 ADD SWAP1 POP SWAP3 SWAP2 POP POP JUMP JUMPDEST PUSH0 JUMPDEST DUP4 DUP2 LT ISZERO PUSH2 0x1C1B JUMPI DUP1 DUP3 ADD MLOAD DUP2 DUP5 ADD MSTORE PUSH1 0x20 DUP2 ADD SWAP1 POP PUSH2 0x1C00 JUMP JUMPDEST PUSH0 DUP5 DUP5 ADD MSTORE POP POP POP POP JUMP JUMPDEST PUSH0 PUSH2 0x1C30 DUP3 PUSH2 0x1BE4 JUMP JUMPDEST PUSH2 0x1C3A DUP2 DUP6 PUSH2 0x1BEE JUMP JUMPDEST SWAP4 POP PUSH2 0x1C4A DUP2 DUP6 PUSH1 0x20 DUP7 ADD PUSH2 0x1BFE JUMP JUMPDEST PUSH2 0x1C53 DUP2 PUSH2 0x17DB JUMP JUMPDEST DUP5 ADD SWAP2 POP POP SWAP3 SWAP2 POP POP JUMP JUMPDEST PUSH2 0x1C67 DUP2 PUSH2 0x1975 JUMP JUMPDEST DUP3 MSTORE POP POP JUMP JUMPDEST PUSH0 DUP2 ISZERO ISZERO SWAP1 POP SWAP2 SWAP1 POP JUMP JUMPDEST PUSH2 0x1C81 DUP2 PUSH2 0x1C6D JUMP JUMPDEST DUP3 MSTORE POP POP JUMP JUMPDEST PUSH0 PUSH1 0xC0 DUP3 ADD SWAP1 POP DUP2 DUP2 SUB PUSH0 DUP4 ADD MSTORE PUSH2 0x1C9F DUP2 DUP10 PUSH2 0x1C26 JUMP JUMPDEST SWAP1 POP DUP2 DUP2 SUB PUSH1 0x20 DUP4 ADD MSTORE PUSH2 0x1CB3 DUP2 DUP9 PUSH2 0x1C26 JUMP JUMPDEST SWAP1 POP DUP2 DUP2 SUB PUSH1 0x40 DUP4 ADD MSTORE PUSH2 0x1CC7 DUP2 DUP8 PUSH2 0x1C26 JUMP JUMPDEST SWAP1 POP PUSH2 0x1CD6 PUSH1 0x60 DUP4 ADD DUP7 PUSH2 0x1BBC JUMP JUMPDEST PUSH2 0x1CE3 PUSH1 0x80 DUP4 ADD DUP6 PUSH2 0x1C5E JUMP JUMPDEST PUSH2 0x1CF0 PUSH1 0xA0 DUP4 ADD DUP5 PUSH2 0x1C78 JUMP JUMPDEST SWAP8 SWAP7 POP POP POP POP POP POP POP JUMP JUMPDEST PUSH0 PUSH1 0x20 DUP3 ADD SWAP1 POP PUSH2 0x1D0E PUSH0 DUP4 ADD DUP5 PUSH2 0x1C5E JUMP JUMPDEST SWAP3 SWAP2 POP POP JUMP JUMPDEST PUSH0 DUP2 MLOAD SWAP1 POP SWAP2 SWAP1 POP JUMP JUMPDEST PUSH0 DUP3 DUP3 MSTORE PUSH1 0x20 DUP3 ADD SWAP1 POP SWAP3 SWAP2 POP POP JUMP JUMPDEST PUSH0 DUP2 SWAP1 POP PUSH1 0x20 DUP3 ADD SWAP1 POP SWAP2 SWAP1 POP JUMP JUMPDEST PUSH2 0x1D46 DUP2 PUSH2 0x1975 JUMP JUMPDEST DUP3 MSTORE POP POP JUMP JUMPDEST PUSH2 0x1D55 DUP2 PUSH2 0x1A2E JUMP JUMPDEST DUP3 MSTORE POP POP JUMP JUMPDEST PUSH0 DUP3 DUP3 MSTORE PUSH1 0x20 DUP3 ADD SWAP1 POP SWAP3 SWAP2 POP POP JUMP JUMPDEST PUSH0 PUSH2 0x1D75 DUP3 PUSH2 0x1BE4 JUMP JUMPDEST PUSH2 0x1D7F DUP2 DUP6 PUSH2 0x1D5B JUMP JUMPDEST SWAP4 POP PUSH2 0x1D8F DUP2 DUP6 PUSH1 0x20 DUP7 ADD PUSH2 0x1BFE JUMP JUMPDEST PUSH2 0x1D98 DUP2 PUSH2 0x17DB JUMP JUMPDEST DUP5 ADD SWAP2 POP POP SWAP3 SWAP2 POP POP JUMP JUMPDEST PUSH2 0x1DAC DUP2 PUSH2 0x1AC8 JUMP JUMPDEST DUP3 MSTORE POP POP JUMP JUMPDEST PUSH2 0x1DBB DUP2 PUSH2 0x1BB3 JUMP JUMPDEST DUP3 MSTORE POP POP JUMP JUMPDEST PUSH0 PUSH1 0xC0 DUP4 ADD PUSH0 DUP4 ADD MLOAD PUSH2 0x1DD6 PUSH0 DUP7 ADD DUP3 PUSH2 0x1D3D JUMP JUMPDEST POP PUSH1 0x20 DUP4 ADD MLOAD PUSH2 0x1DE9 PUSH1 0x20 DUP7 ADD DUP3 PUSH2 0x1D4C JUMP JUMPDEST POP PUSH1 0x40 DUP4 ADD MLOAD DUP5 DUP3 SUB PUSH1 0x40 DUP7 ADD MSTORE PUSH2 0x1E01 DUP3 DUP3 PUSH2 0x1D6B JUMP JUMPDEST SWAP2 POP POP PUSH1 0x60 DUP4 ADD MLOAD DUP5 DUP3 SUB PUSH1 0x60 DUP7 ADD MSTORE PUSH2 0x1E1B DUP3 DUP3 PUSH2 0x1D6B JUMP JUMPDEST SWAP2 POP POP PUSH1 0x80 DUP4 ADD MLOAD PUSH2 0x1E30 PUSH1 0x80 DUP7 ADD DUP3 PUSH2 0x1DA3 JUMP JUMPDEST POP PUSH1 0xA0 DUP4 ADD MLOAD PUSH2 0x1E43 PUSH1 0xA0 DUP7 ADD DUP3 PUSH2 0x1DB2 JUMP JUMPDEST POP DUP1 SWAP2 POP POP SWAP3 SWAP2 POP POP JUMP JUMPDEST PUSH0 PUSH2 0x1E59 DUP4 DUP4 PUSH2 0x1DC1 JUMP JUMPDEST SWAP1 POP SWAP3 SWAP2 POP POP JUMP JUMPDEST PUSH0 PUSH1 0x20 DUP3 ADD SWAP1 POP SWAP2 SWAP1 POP JUMP JUMPDEST PUSH0 PUSH2 0x1E77 DUP3 PUSH2 0x1D14 JUMP JUMPDEST PUSH2 0x1E81 DUP2 DUP6 PUSH2 0x1D1E JUMP JUMPDEST SWAP4 POP DUP4 PUSH1 0x20 DUP3 MUL DUP6 ADD PUSH2 0x1E93 DUP6 PUSH2 0x1D2E JUMP JUMPDEST DUP1 PUSH0 JUMPDEST DUP6 DUP2 LT ISZERO PUSH2 0x1ECE JUMPI DUP5 DUP5 SUB DUP10 MSTORE DUP2 MLOAD PUSH2 0x1EAF DUP6 DUP3 PUSH2 0x1E4E JUMP JUMPDEST SWAP5 POP PUSH2 0x1EBA DUP4 PUSH2 0x1E61 JUMP JUMPDEST SWAP3 POP PUSH1 0x20 DUP11 ADD SWAP10 POP POP PUSH1 0x1 DUP2 ADD SWAP1 POP PUSH2 0x1E96 JUMP JUMPDEST POP DUP3 SWAP8 POP DUP8 SWAP6 POP POP POP POP POP POP SWAP3 SWAP2 POP POP JUMP JUMPDEST PUSH0 PUSH1 0x20 DUP3 ADD SWAP1 POP DUP2 DUP2 SUB PUSH0 DUP4 ADD MSTORE PUSH2 0x1EF8 DUP2 DUP5 PUSH2 0x1E6D JUMP JUMPDEST SWAP1 POP SWAP3 SWAP2 POP POP JUMP JUMPDEST PUSH2 0x1F09 DUP2 PUSH2 0x1BB3 JUMP JUMPDEST DUP2 EQ PUSH2 0x1F13 JUMPI PUSH0 PUSH0 REVERT JUMPDEST POP JUMP JUMPDEST PUSH0 DUP2 CALLDATALOAD SWAP1 POP PUSH2 0x1F24 DUP2 PUSH2 0x1F00 JUMP JUMPDEST SWAP3 SWAP2 POP POP JUMP JUMPDEST PUSH0 PUSH0 PUSH1 0x40 DUP4 DUP6 SUB SLT ISZERO PUSH2 0x1F40 JUMPI PUSH2 0x1F3F PUSH2 0x17CB JUMP JUMPDEST JUMPDEST PUSH0 DUP4 ADD CALLDATALOAD PUSH8 0xFFFFFFFFFFFFFFFF DUP2 GT ISZERO PUSH2 0x1F5D JUMPI PUSH2 0x1F5C PUSH2 0x17CF JUMP JUMPDEST JUMPDEST PUSH2 0x1F69 DUP6 DUP3 DUP7 ADD PUSH2 0x18E2 JUMP JUMPDEST SWAP3 POP POP PUSH1 0x20 PUSH2 0x1F7A DUP6 DUP3 DUP7 ADD PUSH2 0x1F16 JUMP JUMPDEST SWAP2 POP POP SWAP3 POP SWAP3 SWAP1 POP JUMP JUMPDEST PUSH2 0x1F8D DUP2 PUSH2 0x1AC8 JUMP JUMPDEST DUP3 MSTORE POP POP JUMP JUMPDEST PUSH0 PUSH1 0xC0 DUP3 ADD SWAP1 POP PUSH2 0x1FA6 PUSH0 DUP4 ADD DUP10 PUSH2 0x1C5E JUMP JUMPDEST PUSH2 0x1FB3 PUSH1 0x20 DUP4 ADD DUP9 PUSH2 0x1A3F JUMP JUMPDEST DUP2 DUP2 SUB PUSH1 0x40 DUP4 ADD MSTORE PUSH2 0x1FC5 DUP2 DUP8 PUSH2 0x1C26 JUMP JUMPDEST SWAP1 POP DUP2 DUP2 SUB PUSH1 0x60 DUP4 ADD MSTORE PUSH2 0x1FD9 DUP2 DUP7 PUSH2 0x1C26 JUMP JUMPDEST SWAP1 POP PUSH2 0x1FE8 PUSH1 0x80 DUP4 ADD DUP6 PUSH2 0x1F84 JUMP JUMPDEST PUSH2 0x1FF5 PUSH1 0xA0 DUP4 ADD DUP5 PUSH2 0x1BBC JUMP JUMPDEST SWAP8 SWAP7 POP POP POP POP POP POP POP JUMP JUMPDEST PUSH0 PUSH0 PUSH0 PUSH0 PUSH1 0x80 DUP6 DUP8 SUB SLT ISZERO PUSH2 0x2018 JUMPI PUSH2 0x2017 PUSH2 0x17CB JUMP JUMPDEST JUMPDEST PUSH0 DUP6 ADD CALLDATALOAD PUSH8 0xFFFFFFFFFFFFFFFF DUP2 GT ISZERO PUSH2 0x2035 JUMPI PUSH2 0x2034 PUSH2 0x17CF JUMP JUMPDEST JUMPDEST PUSH2 0x2041 DUP8 DUP3 DUP9 ADD PUSH2 0x18E2 JUMP JUMPDEST SWAP5 POP POP PUSH1 0x20 DUP6 ADD CALLDATALOAD PUSH8 0xFFFFFFFFFFFFFFFF DUP2 GT ISZERO PUSH2 0x2062 JUMPI PUSH2 0x2061 PUSH2 0x17CF JUMP JUMPDEST JUMPDEST PUSH2 0x206E DUP8 DUP3 DUP9 ADD PUSH2 0x18E2 JUMP JUMPDEST SWAP4 POP POP PUSH1 0x40 DUP6 ADD CALLDATALOAD PUSH8 0xFFFFFFFFFFFFFFFF DUP2 GT ISZERO PUSH2 0x208F JUMPI PUSH2 0x208E PUSH2 0x17CF JUMP JUMPDEST JUMPDEST PUSH2 0x209B DUP8 DUP3 DUP9 ADD PUSH2 0x18E2 JUMP JUMPDEST SWAP3 POP POP PUSH1 0x60 PUSH2 0x20AC DUP8 DUP3 DUP9 ADD PUSH2 0x1F16 JUMP JUMPDEST SWAP2 POP POP SWAP3 SWAP6 SWAP2 SWAP5 POP SWAP3 POP JUMP JUMPDEST PUSH2 0x20C1 DUP2 PUSH2 0x1C6D JUMP JUMPDEST DUP3 MSTORE POP POP JUMP JUMPDEST PUSH0 PUSH1 0xC0 DUP4 ADD PUSH0 DUP4 ADD MLOAD DUP5 DUP3 SUB PUSH0 DUP7 ADD MSTORE PUSH2 0x20E1 DUP3 DUP3 PUSH2 0x1D6B JUMP JUMPDEST SWAP2 POP POP PUSH1 0x20 DUP4 ADD MLOAD DUP5 DUP3 SUB PUSH1 0x20 DUP7 ADD MSTORE PUSH2 0x20FB DUP3 DUP3 PUSH2 0x1D6B JUMP JUMPDEST SWAP2 POP POP PUSH1 0x40 DUP4 ADD MLOAD DUP5 DUP3 SUB PUSH1 0x40 DUP7 ADD MSTORE PUSH2 0x2115 DUP3 DUP3 PUSH2 0x1D6B JUMP JUMPDEST SWAP2 POP POP PUSH1 0x60 DUP4 ADD MLOAD PUSH2 0x212A PUSH1 0x60 DUP7 ADD DUP3 PUSH2 0x1DB2 JUMP JUMPDEST POP PUSH1 0x80 DUP4 ADD MLOAD PUSH2 0x213D PUSH1 0x80 DUP7 ADD DUP3 PUSH2 0x1D3D JUMP JUMPDEST POP PUSH1 0xA0 DUP4 ADD MLOAD PUSH2 0x2150 PUSH1 0xA0 DUP7 ADD DUP3 PUSH2 0x20B8 JUMP JUMPDEST POP DUP1 SWAP2 POP POP SWAP3 SWAP2 POP POP JUMP JUMPDEST PUSH0 PUSH1 0x20 DUP3 ADD SWAP1 POP DUP2 DUP2 SUB PUSH0 DUP4 ADD MSTORE PUSH2 0x2173 DUP2 DUP5 PUSH2 0x20C7 JUMP JUMPDEST SWAP1 POP SWAP3 SWAP2 POP POP JUMP JUMPDEST PUSH32 0x556E617574686F72697A65643A20696E636F727265637420726F6C6500000000 PUSH0 DUP3 ADD MSTORE POP JUMP JUMPDEST PUSH0 PUSH2 0x21AF PUSH1 0x1C DUP4 PUSH2 0x1BEE JUMP JUMPDEST SWAP2 POP PUSH2 0x21BA DUP3 PUSH2 0x217B JUMP JUMPDEST PUSH1 0x20 DUP3 ADD SWAP1 POP SWAP2 SWAP1 POP JUMP JUMPDEST PUSH0 PUSH1 0x20 DUP3 ADD SWAP1 POP DUP2 DUP2 SUB PUSH0 DUP4 ADD MSTORE PUSH2 0x21DC DUP2 PUSH2 0x21A3 JUMP JUMPDEST SWAP1 POP SWAP2 SWAP1 POP JUMP JUMPDEST PUSH0 DUP2 SWAP1 POP SWAP3 SWAP2 POP POP JUMP JUMPDEST PUSH0 PUSH2 0x21F7 DUP3 PUSH2 0x1BE4 JUMP JUMPDEST PUSH2 0x2201 DUP2 DUP6 PUSH2 0x21E3 JUMP JUMPDEST SWAP4 POP PUSH2 0x2211 DUP2 DUP6 PUSH1 0x20 DUP7 ADD PUSH2 0x1BFE JUMP JUMPDEST DUP1 DUP5 ADD SWAP2 POP POP SWAP3 SWAP2 POP POP JUMP JUMPDEST PUSH0 PUSH2 0x2228 DUP3 DUP5 PUSH2 0x21ED JUMP JUMPDEST SWAP2 POP DUP2 SWAP1 POP SWAP3 SWAP2 POP POP JUMP JUMPDEST PUSH32 0x426174636820646F6573206E6F74206578697374206F7220697320696E616374 PUSH0 DUP3 ADD MSTORE PUSH32 0x6976650000000000000000000000000000000000000000000000000000000000 PUSH1 0x20 DUP3 ADD MSTORE POP JUMP JUMPDEST PUSH0 PUSH2 0x228D PUSH1 0x23 DUP4 PUSH2 0x1BEE JUMP JUMPDEST SWAP2 POP PUSH2 0x2298 DUP3 PUSH2 0x2233 JUMP JUMPDEST PUSH1 0x40 DUP3 ADD SWAP1 POP SWAP2 SWAP1 POP JUMP JUMPDEST PUSH0 PUSH1 0x20 DUP3 ADD SWAP1 POP DUP2 DUP2 SUB PUSH0 DUP4 ADD MSTORE PUSH2 0x22BA DUP2 PUSH2 0x2281 JUMP JUMPDEST SWAP1 POP SWAP2 SWAP1 POP JUMP JUMPDEST PUSH32 0x4F6E6C79206F776E65722063616E2063616C6C20746869730000000000000000 PUSH0 DUP3 ADD MSTORE POP JUMP JUMPDEST PUSH0 PUSH2 0x22F5 PUSH1 0x18 DUP4 PUSH2 0x1BEE JUMP JUMPDEST SWAP2 POP PUSH2 0x2300 DUP3 PUSH2 0x22C1 JUMP JUMPDEST PUSH1 0x20 DUP3 ADD SWAP1 POP SWAP2 SWAP1 POP JUMP JUMPDEST PUSH0 PUSH1 0x20 DUP3 ADD SWAP1 POP DUP2 DUP2 SUB PUSH0 DUP4 ADD MSTORE PUSH2 0x2322 DUP2 PUSH2 0x22E9 JUMP JUMPDEST SWAP1 POP SWAP2 SWAP1 POP JUMP JUMPDEST PUSH32 0x43616C6C6572206973206E6F7420612072656769737465726564207061727469 PUSH0 DUP3 ADD MSTORE PUSH32 0x636970616E740000000000000000000000000000000000000000000000000000 PUSH1 0x20 DUP3 ADD MSTORE POP JUMP JUMPDEST PUSH0 PUSH2 0x2383 PUSH1 0x26 DUP4 PUSH2 0x1BEE JUMP JUMPDEST SWAP2 POP PUSH2 0x238E DUP3 PUSH2 0x2329 JUMP JUMPDEST PUSH1 0x40 DUP3 ADD SWAP1 POP SWAP2 SWAP1 POP JUMP JUMPDEST PUSH0 PUSH1 0x20 DUP3 ADD SWAP1 POP DUP2 DUP2 SUB PUSH0 DUP4 ADD MSTORE PUSH2 0x23B0 DUP2 PUSH2 0x2377 JUMP JUMPDEST SWAP1 POP SWAP2 SWAP1 POP JUMP JUMPDEST PUSH32 0x4E487B7100000000000000000000000000000000000000000000000000000000 PUSH0 MSTORE PUSH1 0x22 PUSH1 0x4 MSTORE PUSH1 0x24 PUSH0 REVERT JUMPDEST PUSH0 PUSH1 0x2 DUP3 DIV SWAP1 POP PUSH1 0x1 DUP3 AND DUP1 PUSH2 0x23FB JUMPI PUSH1 0x7F DUP3 AND SWAP2 POP JUMPDEST PUSH1 0x20 DUP3 LT DUP2 SUB PUSH2 0x240E JUMPI PUSH2 0x240D PUSH2 0x23B7 JUMP JUMPDEST JUMPDEST POP SWAP2 SWAP1 POP JUMP JUMPDEST PUSH0 DUP2 SWAP1 POP DUP2 PUSH0 MSTORE PUSH1 0x20 PUSH0 KECCAK256 SWAP1 POP SWAP2 SWAP1 POP JUMP JUMPDEST PUSH0 PUSH1 0x20 PUSH1 0x1F DUP4 ADD DIV SWAP1 POP SWAP2 SWAP1 POP JUMP JUMPDEST PUSH0 DUP3 DUP3 SHL SWAP1 POP SWAP3 SWAP2 POP POP JUMP JUMPDEST PUSH0 PUSH1 0x8 DUP4 MUL PUSH2 0x2470 PUSH32 0xFFFFFFFFFFFFFFFFFFFFFFFFFFFFFFFFFFFFFFFFFFFFFFFFFFFFFFFFFFFFFFFF DUP3 PUSH2 0x2435 JUMP JUMPDEST PUSH2 0x247A DUP7 DUP4 PUSH2 0x2435 JUMP JUMPDEST SWAP6 POP DUP1 NOT DUP5 AND SWAP4 POP DUP1 DUP7 AND DUP5 OR SWAP3 POP POP POP SWAP4 SWAP3 POP POP POP JUMP JUMPDEST PUSH0 DUP2 SWAP1 POP SWAP2 SWAP1 POP JUMP JUMPDEST PUSH0 PUSH2 0x24B5 PUSH2 0x24B0 PUSH2 0x24AB DUP5 PUSH2 0x1BB3 JUMP JUMPDEST PUSH2 0x2492 JUMP JUMPDEST PUSH2 0x1BB3 JUMP JUMPDEST SWAP1 POP SWAP2 SWAP1 POP JUMP JUMPDEST PUSH0 DUP2 SWAP1 POP SWAP2 SWAP1 POP JUMP JUMPDEST PUSH2 0x24CE DUP4 PUSH2 0x249B JUMP JUMPDEST PUSH2 0x24E2 PUSH2 0x24DA DUP3 PUSH2 0x24BC JUMP JUMPDEST DUP5 DUP5 SLOAD PUSH2 0x2441 JUMP JUMPDEST DUP3 SSTORE POP POP POP POP JUMP JUMPDEST PUSH0 PUSH0 SWAP1 POP SWAP1 JUMP JUMPDEST PUSH2 0x24F9 PUSH2 0x24EA JUMP JUMPDEST PUSH2 0x2504 DUP2 DUP5 DUP5 PUSH2 0x24C5 JUMP JUMPDEST POP POP POP JUMP JUMPDEST PUSH0 JUMPDEST DUP3 DUP2 LT ISZERO PUSH2 0x252A JUMPI PUSH2 0x251F PUSH0 DUP3 DUP5 ADD PUSH2 0x24F1 JUMP JUMPDEST PUSH1 0x1 DUP2 ADD SWAP1 POP PUSH2 0x250B JUMP JUMPDEST POP POP POP JUMP JUMPDEST PUSH1 0x1F DUP3 GT ISZERO PUSH2 0x257D JUMPI DUP3 DUP3 GT ISZERO PUSH2 0x257C JUMPI PUSH2 0x2549 DUP2 PUSH2 0x2414 JUMP JUMPDEST PUSH2 0x2552 DUP4 PUSH2 0x2426 JUMP JUMPDEST PUSH2 0x255B DUP6 PUSH2 0x2426 JUMP JUMPDEST PUSH1 0x20 DUP7 LT ISZERO PUSH2 0x2568 JUMPI PUSH0 SWAP1 POP JUMPDEST DUP1 DUP4 ADD PUSH2 0x2577 DUP3 DUP5 SUB DUP3 PUSH2 0x2509 JUMP JUMPDEST POP POP POP POP JUMPDEST JUMPDEST POP POP POP JUMP JUMPDEST PUSH0 DUP3 DUP3 SHR SWAP1 POP SWAP3 SWAP2 POP POP JUMP JUMPDEST PUSH0 PUSH2 0x259D PUSH0 NOT DUP5 PUSH1 0x8 MUL PUSH2 0x2582 JUMP JUMPDEST NOT DUP1 DUP4 AND SWAP2 POP POP SWAP3 SWAP2 POP POP JUMP JUMPDEST PUSH0 PUSH2 0x25B5 DUP4 DUP4 PUSH2 0x258E JUMP JUMPDEST SWAP2 POP DUP3 PUSH1 0x2 MUL DUP3 OR SWAP1 POP SWAP3 SWAP2 POP POP JUMP JUMPDEST PUSH2 0x25CE DUP3 PUSH2 0x1BE4 JUMP JUMPDEST PUSH8 0xFFFFFFFFFFFFFFFF DUP2 GT ISZERO PUSH2 0x25E7 JUMPI PUSH2 0x25E6 PUSH2 0x17EB JUMP JUMPDEST JUMPDEST PUSH2 0x25F1 DUP3 SLOAD PUSH2 0x23E4 JUMP JUMPDEST PUSH2 0x25FC DUP3 DUP3 DUP6 PUSH2 0x252F JUMP JUMPDEST PUSH0 PUSH1 0x20 SWAP1 POP PUSH1 0x1F DUP4 GT PUSH1 0x1 DUP2 EQ PUSH2 0x262D JUMPI PUSH0 DUP5 ISZERO PUSH2 0x261B JUMPI DUP3 DUP8 ADD MLOAD SWAP1 POP JUMPDEST PUSH2 0x2625 DUP6 DUP3 PUSH2 0x25AA JUMP JUMPDEST DUP7 SSTORE POP PUSH2 0x268C JUMP JUMPDEST PUSH1 0x1F NOT DUP5 AND PUSH2 0x263B DUP7 PUSH2 0x2414 JUMP JUMPDEST PUSH0 JUMPDEST DUP3 DUP2 LT ISZERO PUSH2 0x2662 JUMPI DUP5 DUP10 ADD MLOAD DUP3 SSTORE PUSH1 0x1 DUP3 ADD SWAP2 POP PUSH1 0x20 DUP6 ADD SWAP5 POP PUSH1 0x20 DUP2 ADD SWAP1 POP PUSH2 0x263D JUMP JUMPDEST DUP7 DUP4 LT ISZERO PUSH2 0x267F JUMPI DUP5 DUP10 ADD MLOAD PUSH2 0x267B PUSH1 0x1F DUP10 AND DUP3 PUSH2 0x258E JUMP JUMPDEST DUP4 SSTORE POP JUMPDEST PUSH1 0x1 PUSH1 0x2 DUP9 MUL ADD DUP9 SSTORE POP POP POP JUMPDEST POP POP POP POP POP POP JUMP JUMPDEST PUSH0 PUSH1 0x40 DUP3 ADD SWAP1 POP PUSH2 0x26A7 PUSH0 DUP4 ADD DUP6 PUSH2 0x1F84 JUMP JUMPDEST PUSH2 0x26B4 PUSH1 0x20 DUP4 ADD DUP5 PUSH2 0x1C5E JUMP JUMPDEST SWAP4 SWAP3 POP POP POP JUMP JUMPDEST PUSH0 PUSH1 0x60 DUP3 ADD SWAP1 POP PUSH2 0x26CE PUSH0 DUP4 ADD DUP7 PUSH2 0x1C5E JUMP JUMPDEST DUP2 DUP2 SUB PUSH1 0x20 DUP4 ADD MSTORE PUSH2 0x26E0 DUP2 DUP6 PUSH2 0x1C26 JUMP JUMPDEST SWAP1 POP PUSH2 0x26EF PUSH1 0x40 DUP4 ADD DUP5 PUSH2 0x1BBC JUMP JUMPDEST SWAP5 SWAP4 POP POP POP POP JUMP JUMPDEST PUSH32 0x4261746368206E6F7420666F756E640000000000000000000000000000000000 PUSH0 DUP3 ADD MSTORE POP JUMP JUMPDEST PUSH0 PUSH2 0x272B PUSH1 0xF DUP4 PUSH2 0x1BEE JUMP JUMPDEST SWAP2 POP PUSH2 0x2736 DUP3 PUSH2 0x26F7 JUMP JUMPDEST PUSH1 0x20 DUP3 ADD SWAP1 POP SWAP2 SWAP1 POP JUMP JUMPDEST PUSH0 PUSH1 0x20 DUP3 ADD SWAP1 POP DUP2 DUP2 SUB PUSH0 DUP4 ADD MSTORE PUSH2 0x2758 DUP2 PUSH2 0x271F JUMP JUMPDEST SWAP1 POP SWAP2 SWAP1 POP JUMP JUMPDEST PUSH32 0x42617463682049442063616E6E6F7420626520656D7074790000000000000000 PUSH0 DUP3 ADD MSTORE POP JUMP JUMPDEST PUSH0 PUSH2 0x2793 PUSH1 0x18 DUP4 PUSH2 0x1BEE JUMP JUMPDEST SWAP2 POP PUSH2 0x279E DUP3 PUSH2 0x275F JUMP JUMPDEST PUSH1 0x20 DUP3 ADD SWAP1 POP SWAP2 SWAP1 POP JUMP JUMPDEST PUSH0 PUSH1 0x20 DUP3 ADD SWAP1 POP DUP2 DUP2 SUB PUSH0 DUP4 ADD MSTORE PUSH2 0x27C0 DUP2 PUSH2 0x2787 JUMP JUMPDEST SWAP1 POP SWAP2 SWAP1 POP JUMP JUMPDEST PUSH32 0x426174636820494420616C726561647920726567697374657265640000000000 PUSH0 DUP3 ADD MSTORE POP JUMP JUMPDEST PUSH0 PUSH2 0x27FB PUSH1 0x1B DUP4 PUSH2 0x1BEE JUMP JUMPDEST SWAP2 POP PUSH2 0x2806 DUP3 PUSH2 0x27C7 JUMP JUMPDEST PUSH1 0x20 DUP3 ADD SWAP1 POP SWAP2 SWAP1 POP JUMP JUMPDEST PUSH0 PUSH1 0x20 DUP3 ADD SWAP1 POP DUP2 DUP2 SUB PUSH0 DUP4 ADD MSTORE PUSH2 0x2828 DUP2 PUSH2 0x27EF JUMP JUMPDEST SWAP1 POP SWAP2 SWAP1 POP JUMP JUMPDEST PUSH0 PUSH1 0x40 DUP3 ADD SWAP1 POP DUP2 DUP2 SUB PUSH0 DUP4 ADD MSTORE PUSH2 0x2847 DUP2 DUP6 PUSH2 0x1C26 JUMP JUMPDEST SWAP1 POP PUSH2 0x2856 PUSH1 0x20 DUP4 ADD DUP5 PUSH2 0x1C5E JUMP JUMPDEST SWAP4 SWAP3 POP POP POP JUMP JUMPDEST PUSH32 0x50726F647563742068617276657374656420616E642072656769737465726564 PUSH0 DUP3 ADD MSTORE PUSH32 0x206F6E20626C6F636B636861696E000000000000000000000000000000000000 PUSH1 0x20 DUP3 ADD MSTORE POP JUMP JUMPDEST PUSH0 PUSH2 0x28B7 PUSH1 0x2E DUP4 PUSH2 0x1BEE JUMP JUMPDEST SWAP2 POP PUSH2 0x28C2 DUP3 PUSH2 0x285D JUMP JUMPDEST PUSH1 0x40 DUP3 ADD SWAP1 POP SWAP2 SWAP1 POP JUMP JUMPDEST PUSH0 PUSH1 0x60 DUP3 ADD SWAP1 POP PUSH2 0x28E0 PUSH0 DUP4 ADD DUP6 PUSH2 0x1C5E JUMP JUMPDEST DUP2 DUP2 SUB PUSH1 0x20 DUP4 ADD MSTORE PUSH2 0x28F1 DUP2 PUSH2 0x28AB JUMP JUMPDEST SWAP1 POP PUSH2 0x2900 PUSH1 0x40 DUP4 ADD DUP5 PUSH2 0x1BBC JUMP JUMPDEST SWAP4 SWAP3 POP POP POP JUMP INVALID POP PUSH19 0x6F647563742068617276657374656420616E64 KECCAK256 PUSH19 0x656769737465726564206F6E20626C6F636B63 PUSH9 0x61696EA26469706673 PC 0x22 SLT KECCAK256 0x27 PUSH8 0x496F42586B8AF170 0xAE SSTORE PUSH0 PC PUSH4 0xE0E8A2C4 SWAP14 SWAP16 SSTORE PUSH25 0xC49F97E032935A69364736F6C634300082200330000000000 "
				},
				"gasEstimates": {
					"creation": {
						"codeDepositCost": "2120600",
						"executionCost": "50906",
						"totalCost": "2171506"
					},
					"external": {
						"addTraceRecord(string,string,string,int256)": "infinite",
						"assignRole(address,uint8)": "28831",
						"batches(string)": "infinite",
						"deactivateBatch(string)": "infinite",
						"getBatchHistory(string)": "infinite",
						"getBatchInfo(string)": "infinite",
						"getRole(address)": "2981",
						"getTraceCount(string)": "infinite",
						"owner()": "2508",
						"registerBatch(string,string,string,uint256)": "infinite",
						"roles(address)": "2943",
						"traceHistory(string,uint256)": "infinite"
					}
				},
				"methodIdentifiers": {
					"addTraceRecord(string,string,string,int256)": "6e2be882",
					"assignRole(address,uint8)": "630a195b",
					"batches(string)": "7ef1446a",
					"deactivateBatch(string)": "1e0e5bc4",
					"getBatchHistory(string)": "a252d8a7",
					"getBatchInfo(string)": "d54d5b92",
					"getRole(address)": "44276733",
					"getTraceCount(string)": "798ac358",
					"owner()": "8da5cb5b",
					"registerBatch(string,string,string,uint256)": "a97e4d3e",
					"roles(address)": "99374642",
					"traceHistory(string,uint256)": "a775e4cc"
				}
			},
			"storageLayout": {
				"storage": [
					{
						"astId": 43,
						"contract": "codes/FoodTraceability.sol:FoodTraceability",
						"label": "batches",
						"offset": 0,
						"slot": "0",
						"type": "t_mapping(t_string_memory_ptr,t_struct(FoodBatch)38_storage)"
					},
					{
						"astId": 49,
						"contract": "codes/FoodTraceability.sol:FoodTraceability",
						"label": "traceHistory",
						"offset": 0,
						"slot": "1",
						"type": "t_mapping(t_string_memory_ptr,t_array(t_struct(TraceRecord)24_storage)dyn_storage)"
					},
					{
						"astId": 54,
						"contract": "codes/FoodTraceability.sol:FoodTraceability",
						"label": "roles",
						"offset": 0,
						"slot": "2",
						"type": "t_mapping(t_address,t_enum(Role)9)"
					},
					{
						"astId": 56,
						"contract": "codes/FoodTraceability.sol:FoodTraceability",
						"label": "owner",
						"offset": 0,
						"slot": "3",
						"type": "t_address"
					}
				],
				"types": {
					"t_address": {
						"encoding": "inplace",
						"label": "address",
						"numberOfBytes": "20"
					},
					"t_array(t_struct(TraceRecord)24_storage)dyn_storage": {
						"base": "t_struct(TraceRecord)24_storage",
						"encoding": "dynamic_array",
						"label": "struct FoodTraceability.TraceRecord[]",
						"numberOfBytes": "32"
					},
					"t_bool": {
						"encoding": "inplace",
						"label": "bool",
						"numberOfBytes": "1"
					},
					"t_enum(Role)9": {
						"encoding": "inplace",
						"label": "enum FoodTraceability.Role",
						"numberOfBytes": "1"
					},
					"t_int256": {
						"encoding": "inplace",
						"label": "int256",
						"numberOfBytes": "32"
					},
					"t_mapping(t_address,t_enum(Role)9)": {
						"encoding": "mapping",
						"key": "t_address",
						"label": "mapping(address => enum FoodTraceability.Role)",
						"numberOfBytes": "32",
						"value": "t_enum(Role)9"
					},
					"t_mapping(t_string_memory_ptr,t_array(t_struct(TraceRecord)24_storage)dyn_storage)": {
						"encoding": "mapping",
						"key": "t_string_memory_ptr",
						"label": "mapping(string => struct FoodTraceability.TraceRecord[])",
						"numberOfBytes": "32",
						"value": "t_array(t_struct(TraceRecord)24_storage)dyn_storage"
					},
					"t_mapping(t_string_memory_ptr,t_struct(FoodBatch)38_storage)": {
						"encoding": "mapping",
						"key": "t_string_memory_ptr",
						"label": "mapping(string => struct FoodTraceability.FoodBatch)",
						"numberOfBytes": "32",
						"value": "t_struct(FoodBatch)38_storage"
					},
					"t_string_memory_ptr": {
						"encoding": "bytes",
						"label": "string",
						"numberOfBytes": "32"
					},
					"t_string_storage": {
						"encoding": "bytes",
						"label": "string",
						"numberOfBytes": "32"
					},
					"t_struct(FoodBatch)38_storage": {
						"encoding": "inplace",
						"label": "struct FoodTraceability.FoodBatch",
						"members": [
							{
								"astId": 27,
								"contract": "codes/FoodTraceability.sol:FoodTraceability",
								"label": "batchId",
								"offset": 0,
								"slot": "0",
								"type": "t_string_storage"
							},
							{
								"astId": 29,
								"contract": "codes/FoodTraceability.sol:FoodTraceability",
								"label": "productName",
								"offset": 0,
								"slot": "1",
								"type": "t_string_storage"
							},
							{
								"astId": 31,
								"contract": "codes/FoodTraceability.sol:FoodTraceability",
								"label": "origin",
								"offset": 0,
								"slot": "2",
								"type": "t_string_storage"
							},
							{
								"astId": 33,
								"contract": "codes/FoodTraceability.sol:FoodTraceability",
								"label": "productionDate",
								"offset": 0,
								"slot": "3",
								"type": "t_uint256"
							},
							{
								"astId": 35,
								"contract": "codes/FoodTraceability.sol:FoodTraceability",
								"label": "producer",
								"offset": 0,
								"slot": "4",
								"type": "t_address"
							},
							{
								"astId": 37,
								"contract": "codes/FoodTraceability.sol:FoodTraceability",
								"label": "isActive",
								"offset": 20,
								"slot": "4",
								"type": "t_bool"
							}
						],
						"numberOfBytes": "160"
					},
					"t_struct(TraceRecord)24_storage": {
						"encoding": "inplace",
						"label": "struct FoodTraceability.TraceRecord",
						"members": [
							{
								"astId": 12,
								"contract": "codes/FoodTraceability.sol:FoodTraceability",
								"label": "handler",
								"offset": 0,
								"slot": "0",
								"type": "t_address"
							},
							{
								"astId": 15,
								"contract": "codes/FoodTraceability.sol:FoodTraceability",
								"label": "role",
								"offset": 20,
								"slot": "0",
								"type": "t_enum(Role)9"
							},
							{
								"astId": 17,
								"contract": "codes/FoodTraceability.sol:FoodTraceability",
								"label": "location",
								"offset": 0,
								"slot": "1",
								"type": "t_string_storage"
							},
							{
								"astId": 19,
								"contract": "codes/FoodTraceability.sol:FoodTraceability",
								"label": "action",
								"offset": 0,
								"slot": "2",
								"type": "t_string_storage"
							},
							{
								"astId": 21,
								"contract": "codes/FoodTraceability.sol:FoodTraceability",
								"label": "temperature",
								"offset": 0,
								"slot": "3",
								"type": "t_int256"
							},
							{
								"astId": 23,
								"contract": "codes/FoodTraceability.sol:FoodTraceability",
								"label": "timestamp",
								"offset": 0,
								"slot": "4",
								"type": "t_uint256"
							}
						],
						"numberOfBytes": "160"
					},
					"t_uint256": {
						"encoding": "inplace",
						"label": "uint256",
						"numberOfBytes": "32"
					}
				}
			},
			"userdoc": {
				"kind": "user",
				"methods": {
					"addTraceRecord(string,string,string,int256)": {
						"notice": "新增供應鏈環節記錄（所有已登記參與者均可呼叫）"
					},
					"assignRole(address,uint8)": {
						"notice": "指派角色給指定地址（僅限合約擁有者）"
					},
					"deactivateBatch(string)": {
						"notice": "停用批次（例：召回或下架，僅限 Regulator）"
					},
					"getBatchHistory(string)": {
						"notice": "查詢批次完整供應鏈履歷（批次召回後仍可查詢，供追責用）"
					},
					"getBatchInfo(string)": {
						"notice": "查詢批次基本資訊"
					},
					"getRole(address)": {
						"notice": "查詢指定地址的角色"
					},
					"getTraceCount(string)": {
						"notice": "查詢批次追蹤記錄總筆數（批次召回後仍可查詢）"
					},
					"registerBatch(string,string,string,uint256)": {
						"notice": "登記新食品批次（僅限 Producer 角色）"
					}
				},
				"notice": "食品供應鏈溯源智能合約（Proof of Concept）",
				"version": 1
			}
		}
	}
}