{
	"codes/FoodTraceability.sol": {
		"FoodTraceability": {
			"abi": [
				{
					"inputs": [],
					"stateMutability": "nonpayable",
					"type": "constructor"
				},
				{
					"anonymous": false,
					"inputs": [
						{
							"indexed": true,
							"internalType": "string",
							"name": "batchId",
							"type": "string"
						},
						{
							"indexed": false,
							"internalType": "string",
							"name": "productName",
							"type": "string"
						},
						{
							"indexed": false,
							"internalType": "address",
							"name": "producer",
							"type": "address"
						}
					],
					"name": "BatchRegistered",
					"type": "event"
				},
				{
					"anonymous": false,
					"inputs": [
						{
							"indexed": true,
							"internalType": "string",
							"name": "batchId",
							"type": "string"
						},
						{
							"indexed": false,
							"internalType": "address",
							"name": "handler",
							"type": "address"
						},
						{
							"indexed": false,
							"internalType": "string",
							"name": "action",
							"type": "string"
						},
						{
							"indexed": false,
							"internalType": "uint256",
							"name": "timestamp",
							"type": "uint256"
						}
					],
					"name": "RecordAdded",
					"type": "event"
				},
				{
					"anonymous": false,
					"inputs": [
						{
							"indexed": true,
							"internalType": "address",
							"name": "account",
							"type": "address"
						},
						{
							"indexed": false,
							"internalType": "enum FoodTraceability.Role",
							"name": "role",
							"type": "uint8"
						}
					],
					"name": "RoleAssigned",
					"type": "event"
				},
				{
					"anonymous": false,
					"inputs": [
						{
							"indexed": true,
							"internalType": "string",
							"name": "batchId",
							"type": "string"
						},
						{
							"indexed": false,
							"internalType": "int256",
							"name": "temperature",
							"type": "int256"
						},
						{
							"indexed": false,
							"internalType": "address",
							"name": "reporter",
							"type": "address"
						}
					],
					"name": "TemperatureAlert",
					"type": "event"
				},
				{
					"inputs": [
						{
							"internalType": "string",
							"name": "_batchId",
							"type": "string"
						},
						{
							"internalType": "string",
							"name": "_location",
							"type": "string"
						},
						{
							"internalType": "string",
							"name": "_action",
							"type": "string"
						},
						{
							"internalType": "int256",
							"name": "_temperature",
							"type": "int256"
						}
					],
					"name": "addTraceRecord",
					"outputs": [],
					"stateMutability": "nonpayable",
					"type": "function"
				},
				{
					"inputs": [
						{
							"internalType": "address",
							"name": "_addr",
							"type": "address"
						},
						{
							"internalType": "enum FoodTraceability.Role",
							"name": "_role",
							"type": "uint8"
						}
					],
					"name": "assignRole",
					"outputs": [],
					"stateMutability": "nonpayable",
					"type": "function"
				},
				{
					"inputs": [
						{
							"internalType": "string",
							"name": "",
							"type": "string"
						}
					],
					"name": "batches",
					"outputs": [
						{
							"internalType": "string",
							"name": "batchId",
							"type": "string"
						},
						{
							"internalType": "string",
							"name": "productName",
							"type": "string"
						},
						{
							"internalType": "string",
							"name": "origin",
							"type": "string"
						},
						{
							"internalType": "uint256",
							"name": "productionDate",
							"type": "uint256"
						},
						{
							"internalType": "address",
							"name": "producer",
							"type": "address"
						},
						{
							"internalType": "bool",
							"name": "isActive",
							"type": "bool"
						}
					],
					"stateMutability": "view",
					"type": "function"
				},
				{
					"inputs": [
						{
							"internalType": "string",
							"name": "_batchId",
							"type": "string"
						}
					],
					"name": "deactivateBatch",
					"outputs": [],
					"stateMutability": "nonpayable",
					"type": "function"
				},
				{
					"inputs": [
						{
							"internalType": "string",
							"name": "_batchId",
							"type": "string"
						}
					],
					"name": "getBatchHistory",
					"outputs": [
						{
							"components": [
								{
									"internalType": "address",
									"name": "handler",
									"type": "address"
								},
								{
									"internalType": "uint256",
									"name": "role",
									"type": "uint256"
								},
								{
									"internalType": "string",
									"name": "location",
									"type": "string"
								},
								{
									"internalType": "string",
									"name": "action",
									"type": "string"
								},
								{
									"internalType": "int256",
									"name": "temperature",
									"type": "int256"
								},
								{
									"internalType": "uint256",
									"name": "timestamp",
									"type": "uint256"
								}
							],
							"internalType": "struct FoodTraceability.TraceRecord[]",
							"name": "",
							"type": "tuple[]"
						}
					],
					"stateMutability": "view",
					"type": "function"
				},
				{
					"inputs": [
						{
							"internalType": "string",
							"name": "_batchId",
							"type": "string"
						}
					],
					"name": "getBatchInfo",
					"outputs": [
						{
							"components": [
								{
									"internalType": "string",
									"name": "batchId",
									"type": "string"
								},
								{
									"internalType": "string",
									"name": "productName",
									"type": "string"
								},
								{
									"internalType": "string",
									"name": "origin",
									"type": "string"
								},
								{
									"internalType": "uint256",
									"name": "productionDate",
									"type": "uint256"
								},
								{
									"internalType": "address",
									"name": "producer",
									"type": "address"
								},
								{
									"internalType": "bool",
									"name": "isActive",
									"type": "bool"
								}
							],
							"internalType": "struct FoodTraceability.FoodBatch",
							"name": "",
							"type": "tuple"
						}
					],
					"stateMutability": "view",
					"type": "function"
				},
				{
					"inputs": [
						{
							"internalType": "address",
							"name": "_addr",
							"type": "address"
						}
					],
					"name": "getRole",
					"outputs": [
						{
							"internalType": "enum FoodTraceability.Role",
							"name": "",
							"type": "uint8"
						}
					],
					"stateMutability": "view",
					"type": "function"
				},
				{
					"inputs": [
						{
							"internalType": "string",
							"name": "_batchId",
							"type": "string"
						}
					],
					"name": "getTraceCount",
					"outputs": [
						{
							"internalType": "uint256",
							"name": "",
							"type": "uint256"
						}
					],
					"stateMutability": "view",
					"type": "function"
				},
				{
					"inputs": [],
					"name": "owner",
					"outputs": [
						{
							"internalType": "address",
							"name": "",
							"type": "address"
						}
					],
					"stateMutability": "view",
					"type": "function"
				},
				{
					"inputs": [
						{
							"internalType": "string",
							"name": "_batchId",
							"type": "string"
						},
						{
							"internalType": "string",
							"name": "_productName",
							"type": "string"
						},
						{
							"internalType": "string",
							"name": "_origin",
							"type": "string"
						},
						{
							"internalType": "uint256",
							"name": "_productionDate",
							"type": "uint256"
						}
					],
					"name": "registerBatch",
					"outputs": [],
					"stateMutability": "nonpayable",
					"type": "function"
				},
				{
					"inputs": [
						{
							"internalType": "address",
							"name": "",
							"type": "address"
						}
					],
					"name": "roles",
					"outputs": [
						{
							"internalType": "enum FoodTraceability.Role",
							"name": "",
							"type": "uint8"
						}
					],
					"stateMutability": "view",
					"type": "function"
				},
				{
					"inputs": [
						{
							"internalType": "string",
							"name": "",
							"type": "string"
						},
						{
							"internalType": "uint256",
							"name": "",
							"type": "uint256"
						}
					],
					"name": "traceHistory",
					"outputs": [
						{
							"internalType": "address",
							"name": "handler",
							"type": "address"
						},
						{
							"internalType": "uint256",
							"name": "role",
							"type": "uint256"
						},
						{
							"internalType": "string",
							"name": "location",
							"type": "string"
						},
						{
							"internalType": "string",
							"name": "action",
							"type": "string"
						},
						{
							"internalType": "int256",
							"name": "temperature",
							"type": "int256"
						},
						{
							"internalType": "uint256",
							"name": "timestamp",
							"type": "uint256"
						}
					],
					"stateMutability": "view",
					"type": "function"
				}
			],
			"devdoc": {
				"details": "區塊鏈創新應用專題 — 食品供應鏈主題 使用平台：Remix IDE  語言：Solidity ^0.8.0",
				"kind": "dev",
				"methods": {
					"addTraceRecord(string,string,string,int256)": {
						"params": {
							"_action": "操作描述",
							"_batchId": "批次編號",
							"_location": "操作地點",
							"_temperature": "當前溫度（×10，例：90 = 9.0°C）"
						}
					},
					"assignRole(address,uint8)": {
						"params": {
							"_addr": "目標地址",
							"_role": "指派角色（1=Producer, 2=Processor, 3=Logistics, 4=Retailer, 5=Regulator）"
						}
					},
					"deactivateBatch(string)": {
						"params": {
							"_batchId": "批次編號"
						}
					},
					"getBatchHistory(string)": {
						"params": {
							"_batchId": "批次編號"
						},
						"returns": {
							"_0": "TraceRecord 陣列（依時間先後排列）"
						}
					},
					"getBatchInfo(string)": {
						"params": {
							"_batchId": "批次編號"
						},
						"returns": {
							"_0": "FoodBatch struct"
						}
					},
					"getRole(address)": {
						"params": {
							"_addr": "查詢地址"
						},
						"returns": {
							"_0": "角色編號"
						}
					},
					"getTraceCount(string)": {
						"params": {
							"_batchId": "批次編號"
						},
						"returns": {
							"_0": "記錄筆數"
						}
					},
					"registerBatch(string,string,string,uint256)": {
						"params": {
							"_batchId": "批次編號（需唯一）",
							"_origin": "產地描述",
							"_productName": "產品名稱",
							"_productionDate": "生產日期（Unix timestamp）"
						}
					}
				},
				"title": "FoodTraceability",
				"version": 1
			},
			"evm": {
				"assembly": "    /* \"codes/FoodTraceability.sol\":275:9261  contract FoodTraceability {... */\n  mstore(0x40, 0x80)\n    /* \"codes/FoodTraceability.sol\":3197:3333  constructor() {... */\n  callvalue\n  dup1\n  iszero\n  tag_1\n  jumpi\n  revert(0x00, 0x00)\ntag_1:\n  pop\n    /* \"codes/FoodTraceability.sol\":3229:3239  msg.sender */\n  caller\n    /* \"codes/FoodTraceability.sol\":3221:3226  owner */\n  0x03\n  0x00\n    /* \"codes/FoodTraceability.sol\":3221:3239  owner = msg.sender */\n  0x0100\n  exp\n  dup2\n  sload\n  dup2\n  0xffffffffffffffffffffffffffffffffffffffff\n  mul\n  not\n  and\n  swap1\n  dup4\n  0xffffffffffffffffffffffffffffffffffffffff\n  and\n  mul\n  or\n  swap1\n  sstore\n  pop\n    /* \"codes/FoodTraceability.sol\":3269:3283  Role.Regulator */\n  0x05\n    /* \"codes/FoodTraceability.sol\":3249:3254  roles */\n  0x02\n    /* \"codes/FoodTraceability.sol\":3249:3266  roles[msg.sender] */\n  0x00\n    /* \"codes/FoodTraceability.sol\":3255:3265  msg.sender */\n  caller\n    /* \"codes/FoodTraceability.sol\":3249:3266  roles[msg.sender] */\n  0xffffffffffffffffffffffffffffffffffffffff\n  and\n  0xffffffffffffffffffffffffffffffffffffffff\n  and\n  dup2\n  mstore\n  0x20\n  add\n  swap1\n  dup2\n  mstore\n  0x20\n  add\n  0x00\n  keccak256\n  0x00\n    /* \"codes/FoodTraceability.sol\":3249:3283  roles[msg.sender] = Role.Regulator */\n  0x0100\n  exp\n  dup2\n  sload\n  dup2\n  0xff\n  mul\n  not\n  and\n  swap1\n  dup4\n  0x05\n  dup2\n  gt\n  iszero\n  tag_4\n  jumpi\n  tag_5\n  tag_6\n  jump\t// in\ntag_5:\ntag_4:\n  mul\n  or\n  swap1\n  sstore\n  pop\n    /* \"codes/FoodTraceability.sol\":275:9261  contract FoodTraceability {... */\n  jump(tag_7)\n    /* \"#utility.yul\":7:187   */\ntag_6:\n    /* \"#utility.yul\":55:132   */\n  0x4e487b7100000000000000000000000000000000000000000000000000000000\n    /* \"#utility.yul\":52:53   */\n  0x00\n    /* \"#utility.yul\":45:133   */\n  mstore\n    /* \"#utility.yul\":152:156   */\n  0x21\n    /* \"#utility.yul\":149:150   */\n  0x04\n    /* \"#utility.yul\":142:157   */\n  mstore\n    /* \"#utility.yul\":176:180   */\n  0x24\n    /* \"#utility.yul\":173:174   */\n  0x00\n    /* \"#utility.yul\":166:181   */\n  revert\n    /* \"codes/FoodTraceability.sol\":275:9261  contract FoodTraceability {... */\ntag_7:\n  dataSize(sub_0)\n  dup1\n  dataOffset(sub_0)\n  0x00\n  codecopy\n  0x00\n  return\nstop\n\nsub_0: assembly {\n        /* \"codes/FoodTraceability.sol\":275:9261  contract FoodTraceability {... */\n      mstore(0x40, 0x80)\n      callvalue\n      dup1\n      iszero\n      tag_1\n      jumpi\n      revert(0x00, 0x00)\n    tag_1:\n      pop\n      jumpi(tag_2, lt(calldatasize, 0x04))\n      shr(0xe0, calldataload(0x00))\n      dup1\n      0x8da5cb5b\n      gt\n      tag_15\n      jumpi\n      dup1\n      0x8da5cb5b\n      eq\n      tag_9\n      jumpi\n      dup1\n      0x99374642\n      eq\n      tag_10\n      jumpi\n      dup1\n      0xa252d8a7\n      eq\n      tag_11\n      jumpi\n      dup1\n      0xa775e4cc\n      eq\n      tag_12\n      jumpi\n      dup1\n      0xa97e4d3e\n      eq\n      tag_13\n      jumpi\n      dup1\n      0xd54d5b92\n      eq\n      tag_14\n      jumpi\n      jump(tag_2)\n    tag_15:\n      dup1\n      0x1e0e5bc4\n      eq\n      tag_3\n      jumpi\n      dup1\n      0x44276733\n      eq\n      tag_4\n      jumpi\n      dup1\n      0x630a195b\n      eq\n      tag_5\n      jumpi\n      dup1\n      0x6e2be882\n      eq\n      tag_6\n      jumpi\n      dup1\n      0x798ac358\n      eq\n      tag_7\n      jumpi\n      dup1\n      0x7ef1446a\n      eq\n      tag_8\n      jumpi\n    tag_2:\n      revert(0x00, 0x00)\n        /* \"codes/FoodTraceability.sol\":7693:7877  function deactivateBatch(string memory _batchId)... */\n    tag_3:\n      tag_16\n      0x04\n      dup1\n      calldatasize\n      sub\n      dup2\n      add\n      swap1\n      tag_17\n      swap2\n      swap1\n      tag_18\n      jump\t// in\n    tag_17:\n      tag_19\n      jump\t// in\n    tag_16:\n      stop\n        /* \"codes/FoodTraceability.sol\":3983:4080  function getRole(address _addr) external view returns (Role) {... */\n    tag_4:\n      tag_20\n      0x04\n      dup1\n      calldatasize\n      sub\n      dup2\n      add\n      swap1\n      tag_21\n      swap2\n      swap1\n      tag_22\n      jump\t// in\n    tag_21:\n      tag_23\n      jump\t// in\n    tag_20:\n      mload(0x40)\n      tag_24\n      swap2\n      swap1\n      tag_25\n      jump\t// in\n    tag_24:\n      mload(0x40)\n      dup1\n      swap2\n      sub\n      swap1\n      return\n        /* \"codes/FoodTraceability.sol\":3712:3856  function assignRole(address _addr, Role _role) external onlyOwner {... */\n    tag_5:\n      tag_26\n      0x04\n      dup1\n      calldatasize\n      sub\n      dup2\n      add\n      swap1\n      tag_27\n      swap2\n      swap1\n      tag_28\n      jump\t// in\n    tag_27:\n      tag_29\n      jump\t// in\n    tag_26:\n      stop\n        /* \"codes/FoodTraceability.sol\":6449:7560  function addTraceRecord(... */\n    tag_6:\n      tag_30\n      0x04\n      dup1\n      calldatasize\n      sub\n      dup2\n      add\n      swap1\n      tag_31\n      swap2\n      swap1\n      tag_32\n      jump\t// in\n    tag_31:\n      tag_33\n      jump\t// in\n    tag_30:\n      stop\n        /* \"codes/FoodTraceability.sol\":9026:9259  function getTraceCount(string memory _batchId)... */\n    tag_7:\n      tag_34\n      0x04\n      dup1\n      calldatasize\n      sub\n      dup2\n      add\n      swap1\n      tag_35\n      swap2\n      swap1\n      tag_18\n      jump\t// in\n    tag_35:\n      tag_36\n      jump\t// in\n    tag_34:\n      mload(0x40)\n      tag_37\n      swap2\n      swap1\n      tag_38\n      jump\t// in\n    tag_37:\n      mload(0x40)\n      dup1\n      swap2\n      sub\n      swap1\n      return\n        /* \"codes/FoodTraceability.sol\":1681:1728  mapping(string => FoodBatch)     public batches */\n    tag_8:\n      tag_39\n      0x04\n      dup1\n      calldatasize\n      sub\n      dup2\n      add\n      swap1\n      tag_40\n      swap2\n      swap1\n      tag_18\n      jump\t// in\n    tag_40:\n      tag_41\n      jump\t// in\n    tag_39:\n      mload(0x40)\n      tag_42\n      swap7\n      swap6\n      swap5\n      swap4\n      swap3\n      swap2\n      swap1\n      tag_43\n      jump\t// in\n    tag_42:\n      mload(0x40)\n      dup1\n      swap2\n      sub\n      swap1\n      return\n        /* \"codes/FoodTraceability.sol\":1843:1863  address public owner */\n    tag_9:\n      tag_44\n      tag_45\n      jump\t// in\n    tag_44:\n      mload(0x40)\n      tag_46\n      swap2\n      swap1\n      tag_47\n      jump\t// in\n    tag_46:\n      mload(0x40)\n      dup1\n      swap2\n      sub\n      swap1\n      return\n        /* \"codes/FoodTraceability.sol\":1792:1837  mapping(address => Role)         public roles */\n    tag_10:\n      tag_48\n      0x04\n      dup1\n      calldatasize\n      sub\n      dup2\n      add\n      swap1\n      tag_49\n      swap2\n      swap1\n      tag_22\n      jump\t// in\n    tag_49:\n      tag_50\n      jump\t// in\n    tag_48:\n      mload(0x40)\n      tag_51\n      swap2\n      swap1\n      tag_25\n      jump\t// in\n    tag_51:\n      mload(0x40)\n      dup1\n      swap2\n      sub\n      swap1\n      return\n        /* \"codes/FoodTraceability.sol\":8616:8857  function getBatchHistory(string memory _batchId)... */\n    tag_11:\n      tag_52\n      0x04\n      dup1\n      calldatasize\n      sub\n      dup2\n      add\n      swap1\n      tag_53\n      swap2\n      swap1\n      tag_18\n      jump\t// in\n    tag_53:\n      tag_54\n      jump\t// in\n    tag_52:\n      mload(0x40)\n      tag_55\n      swap2\n      swap1\n      tag_56\n      jump\t// in\n    tag_55:\n      mload(0x40)\n      dup1\n      swap2\n      sub\n      swap1\n      return\n        /* \"codes/FoodTraceability.sol\":1734:1786  mapping(string => TraceRecord[]) public traceHistory */\n    tag_12:\n      tag_57\n      0x04\n      dup1\n      calldatasize\n      sub\n      dup2\n      add\n      swap1\n      tag_58\n      swap2\n      swap1\n      tag_59\n      jump\t// in\n    tag_58:\n      tag_60\n      jump\t// in\n    tag_57:\n      mload(0x40)\n      tag_61\n      swap7\n      swap6\n      swap5\n      swap4\n      swap3\n      swap2\n      swap1\n      tag_62\n      jump\t// in\n    tag_61:\n      mload(0x40)\n      dup1\n      swap2\n      sub\n      swap1\n      return\n        /* \"codes/FoodTraceability.sol\":4526:6152  function registerBatch(... */\n    tag_13:\n      tag_63\n      0x04\n      dup1\n      calldatasize\n      sub\n      dup2\n      add\n      swap1\n      tag_64\n      swap2\n      swap1\n      tag_65\n      jump\t// in\n    tag_64:\n      tag_66\n      jump\t// in\n    tag_63:\n      stop\n        /* \"codes/FoodTraceability.sol\":8170:8399  function getBatchInfo(string memory _batchId)... */\n    tag_14:\n      tag_67\n      0x04\n      dup1\n      calldatasize\n      sub\n      dup2\n      add\n      swap1\n      tag_68\n      swap2\n      swap1\n      tag_18\n      jump\t// in\n    tag_68:\n      tag_69\n      jump\t// in\n    tag_67:\n      mload(0x40)\n      tag_70\n      swap2\n      swap1\n      tag_71\n      jump\t// in\n    tag_70:\n      mload(0x40)\n      dup1\n      swap2\n      sub\n      swap1\n      return\n        /* \"codes/FoodTraceability.sol\":7693:7877  function deactivateBatch(string memory _batchId)... */\n    tag_19:\n        /* \"codes/FoodTraceability.sol\":7776:7790  Role.Regulator */\n      0x05\n        /* \"codes/FoodTraceability.sol\":2682:2687  _role */\n      dup1\n        /* \"codes/FoodTraceability.sol\":2661:2687  roles[msg.sender] == _role */\n      0x05\n      dup2\n      gt\n      iszero\n      tag_73\n      jumpi\n      tag_74\n      tag_75\n      jump\t// in\n    tag_74:\n    tag_73:\n        /* \"codes/FoodTraceability.sol\":2661:2666  roles */\n      0x02\n        /* \"codes/FoodTraceability.sol\":2661:2678  roles[msg.sender] */\n      0x00\n        /* \"codes/FoodTraceability.sol\":2667:2677  msg.sender */\n      caller\n        /* \"codes/FoodTraceability.sol\":2661:2678  roles[msg.sender] */\n      0xffffffffffffffffffffffffffffffffffffffff\n      and\n      0xffffffffffffffffffffffffffffffffffffffff\n      and\n      dup2\n      mstore\n      0x20\n      add\n      swap1\n      dup2\n      mstore\n      0x20\n      add\n      0x00\n      keccak256\n      0x00\n      swap1\n      sload\n      swap1\n      0x0100\n      exp\n      swap1\n      div\n      0xff\n      and\n        /* \"codes/FoodTraceability.sol\":2661:2687  roles[msg.sender] == _role */\n      0x05\n      dup2\n      gt\n      iszero\n      tag_76\n      jumpi\n      tag_77\n      tag_75\n      jump\t// in\n    tag_77:\n    tag_76:\n      eq\n        /* \"codes/FoodTraceability.sol\":2653:2720  require(roles[msg.sender] == _role, \"Unauthorized: incorrect role\") */\n      tag_78\n      jumpi\n      mload(0x40)\n      0x08c379a000000000000000000000000000000000000000000000000000000000\n      dup2\n      mstore\n      0x04\n      add\n      tag_79\n      swap1\n      tag_80\n      jump\t// in\n    tag_79:\n      mload(0x40)\n      dup1\n      swap2\n      sub\n      swap1\n      revert\n    tag_78:\n        /* \"codes/FoodTraceability.sol\":7812:7820  _batchId */\n      dup2\n        /* \"codes/FoodTraceability.sol\":2807:2814  batches */\n      0x00\n        /* \"codes/FoodTraceability.sol\":2815:2823  _batchId */\n      dup2\n        /* \"codes/FoodTraceability.sol\":2807:2824  batches[_batchId] */\n      mload(0x40)\n      tag_82\n      swap2\n      swap1\n      tag_83\n      jump\t// in\n    tag_82:\n      swap1\n      dup2\n      mstore\n      0x20\n      add\n      mload(0x40)\n      dup1\n      swap2\n      sub\n      swap1\n      keccak256\n        /* \"codes/FoodTraceability.sol\":2807:2833  batches[_batchId].isActive */\n      0x04\n      add\n      0x14\n      swap1\n      sload\n      swap1\n      0x0100\n      exp\n      swap1\n      div\n      0xff\n      and\n        /* \"codes/FoodTraceability.sol\":2799:2873  require(batches[_batchId].isActive, \"Batch does not exist or is inactive\") */\n      tag_84\n      jumpi\n      mload(0x40)\n      0x08c379a000000000000000000000000000000000000000000000000000000000\n      dup2\n      mstore\n      0x04\n      add\n      tag_85\n      swap1\n      tag_86\n      jump\t// in\n    tag_85:\n      mload(0x40)\n      dup1\n      swap2\n      sub\n      swap1\n      revert\n    tag_84:\n        /* \"codes/FoodTraceability.sol\":7865:7870  false */\n      0x00\n        /* \"codes/FoodTraceability.sol\":7836:7843  batches */\n      0x00\n        /* \"codes/FoodTraceability.sol\":7844:7852  _batchId */\n      dup5\n        /* \"codes/FoodTraceability.sol\":7836:7853  batches[_batchId] */\n      mload(0x40)\n      tag_88\n      swap2\n      swap1\n      tag_83\n      jump\t// in\n    tag_88:\n      swap1\n      dup2\n      mstore\n      0x20\n      add\n      mload(0x40)\n      dup1\n      swap2\n      sub\n      swap1\n      keccak256\n        /* \"codes/FoodTraceability.sol\":7836:7862  batches[_batchId].isActive */\n      0x04\n      add\n      0x14\n        /* \"codes/FoodTraceability.sol\":7836:7870  batches[_batchId].isActive = false */\n      0x0100\n      exp\n      dup2\n      sload\n      dup2\n      0xff\n      mul\n      not\n      and\n      swap1\n      dup4\n      iszero\n      iszero\n      mul\n      or\n      swap1\n      sstore\n      pop\n        /* \"codes/FoodTraceability.sol\":2730:2731  _ */\n      pop\n        /* \"codes/FoodTraceability.sol\":7693:7877  function deactivateBatch(string memory _batchId)... */\n      pop\n      pop\n      jump\t// out\n        /* \"codes/FoodTraceability.sol\":3983:4080  function getRole(address _addr) external view returns (Role) {... */\n    tag_23:\n        /* \"codes/FoodTraceability.sol\":4038:4042  Role */\n      0x00\n        /* \"codes/FoodTraceability.sol\":4061:4066  roles */\n      0x02\n        /* \"codes/FoodTraceability.sol\":4061:4073  roles[_addr] */\n      0x00\n        /* \"codes/FoodTraceability.sol\":4067:4072  _addr */\n      dup4\n        /* \"codes/FoodTraceability.sol\":4061:4073  roles[_addr] */\n      0xffffffffffffffffffffffffffffffffffffffff\n      and\n      0xffffffffffffffffffffffffffffffffffffffff\n      and\n      dup2\n      mstore\n      0x20\n      add\n      swap1\n      dup2\n      mstore\n      0x20\n      add\n      0x00\n      keccak256\n      0x00\n      swap1\n      sload\n      swap1\n      0x0100\n      exp\n      swap1\n      div\n      0xff\n      and\n        /* \"codes/FoodTraceability.sol\":4054:4073  return roles[_addr] */\n      swap1\n      pop\n        /* \"codes/FoodTraceability.sol\":3983:4080  function getRole(address _addr) external view returns (Role) {... */\n      swap2\n      swap1\n      pop\n      jump\t// out\n        /* \"codes/FoodTraceability.sol\":3712:3856  function assignRole(address _addr, Role _role) external onlyOwner {... */\n    tag_29:\n        /* \"codes/FoodTraceability.sol\":2555:2560  owner */\n      0x03\n      0x00\n      swap1\n      sload\n      swap1\n      0x0100\n      exp\n      swap1\n      div\n      0xffffffffffffffffffffffffffffffffffffffff\n      and\n        /* \"codes/FoodTraceability.sol\":2541:2560  msg.sender == owner */\n      0xffffffffffffffffffffffffffffffffffffffff\n      and\n        /* \"codes/FoodTraceability.sol\":2541:2551  msg.sender */\n      caller\n        /* \"codes/FoodTraceability.sol\":2541:2560  msg.sender == owner */\n      0xffffffffffffffffffffffffffffffffffffffff\n      and\n      eq\n        /* \"codes/FoodTraceability.sol\":2533:2589  require(msg.sender == owner, \"Only owner can call this\") */\n      tag_91\n      jumpi\n      mload(0x40)\n      0x08c379a000000000000000000000000000000000000000000000000000000000\n      dup2\n      mstore\n      0x04\n      add\n      tag_92\n      swap1\n      tag_93\n      jump\t// in\n    tag_92:\n      mload(0x40)\n      dup1\n      swap2\n      sub\n      swap1\n      revert\n    tag_91:\n        /* \"codes/FoodTraceability.sol\":3803:3808  _role */\n      dup1\n        /* \"codes/FoodTraceability.sol\":3788:3793  roles */\n      0x02\n        /* \"codes/FoodTraceability.sol\":3788:3800  roles[_addr] */\n      0x00\n        /* \"codes/FoodTraceability.sol\":3794:3799  _addr */\n      dup5\n        /* \"codes/FoodTraceability.sol\":3788:3800  roles[_addr] */\n      0xffffffffffffffffffffffffffffffffffffffff\n      and\n      0xffffffffffffffffffffffffffffffffffffffff\n      and\n      dup2\n      mstore\n      0x20\n      add\n      swap1\n      dup2\n      mstore\n      0x20\n      add\n      0x00\n      keccak256\n      0x00\n        /* \"codes/FoodTraceability.sol\":3788:3808  roles[_addr] = _role */\n      0x0100\n      exp\n      dup2\n      sload\n      dup2\n      0xff\n      mul\n      not\n      and\n      swap1\n      dup4\n      0x05\n      dup2\n      gt\n      iszero\n      tag_95\n      jumpi\n      tag_96\n      tag_75\n      jump\t// in\n    tag_96:\n    tag_95:\n      mul\n      or\n      swap1\n      sstore\n      pop\n        /* \"codes/FoodTraceability.sol\":3836:3841  _addr */\n      dup2\n        /* \"codes/FoodTraceability.sol\":3823:3849  RoleAssigned(_addr, _role) */\n      0xffffffffffffffffffffffffffffffffffffffff\n      and\n      0x4ac36fa53f167ceb85964be512e01de2a3b8bdb9862f917da079deeeff689b38\n        /* \"codes/FoodTraceability.sol\":3843:3848  _role */\n      dup3\n        /* \"codes/FoodTraceability.sol\":3823:3849  RoleAssigned(_addr, _role) */\n      mload(0x40)\n      tag_97\n      swap2\n      swap1\n      tag_25\n      jump\t// in\n    tag_97:\n      mload(0x40)\n      dup1\n      swap2\n      sub\n      swap1\n      log2\n        /* \"codes/FoodTraceability.sol\":3712:3856  function assignRole(address _addr, Role _role) external onlyOwner {... */\n      pop\n      pop\n      jump\t// out\n        /* \"codes/FoodTraceability.sol\":6449:7560  function addTraceRecord(... */\n    tag_33:\n        /* \"codes/FoodTraceability.sol\":6632:6640  _batchId */\n      dup4\n        /* \"codes/FoodTraceability.sol\":2807:2814  batches */\n      0x00\n        /* \"codes/FoodTraceability.sol\":2815:2823  _batchId */\n      dup2\n        /* \"codes/FoodTraceability.sol\":2807:2824  batches[_batchId] */\n      mload(0x40)\n      tag_99\n      swap2\n      swap1\n      tag_83\n      jump\t// in\n    tag_99:\n      swap1\n      dup2\n      mstore\n      0x20\n      add\n      mload(0x40)\n      dup1\n      swap2\n      sub\n      swap1\n      keccak256\n        /* \"codes/FoodTraceability.sol\":2807:2833  batches[_batchId].isActive */\n      0x04\n      add\n      0x14\n      swap1\n      sload\n      swap1\n      0x0100\n      exp\n      swap1\n      div\n      0xff\n      and\n        /* \"codes/FoodTraceability.sol\":2799:2873  require(batches[_batchId].isActive, \"Batch does not exist or is inactive\") */\n      tag_100\n      jumpi\n      mload(0x40)\n      0x08c379a000000000000000000000000000000000000000000000000000000000\n      dup2\n      mstore\n      0x04\n      add\n      tag_101\n      swap1\n      tag_86\n      jump\t// in\n    tag_101:\n      mload(0x40)\n      dup1\n      swap2\n      sub\n      swap1\n      revert\n    tag_100:\n        /* \"codes/FoodTraceability.sol\":2973:2982  Role.None */\n      0x00\n        /* \"codes/FoodTraceability.sol\":2952:2982  roles[msg.sender] != Role.None */\n      0x05\n      dup2\n      gt\n      iszero\n      tag_103\n      jumpi\n      tag_104\n      tag_75\n      jump\t// in\n    tag_104:\n    tag_103:\n        /* \"codes/FoodTraceability.sol\":2952:2957  roles */\n      0x02\n        /* \"codes/FoodTraceability.sol\":2952:2969  roles[msg.sender] */\n      0x00\n        /* \"codes/FoodTraceability.sol\":2958:2968  msg.sender */\n      caller\n        /* \"codes/FoodTraceability.sol\":2952:2969  roles[msg.sender] */\n      0xffffffffffffffffffffffffffffffffffffffff\n      and\n      0xffffffffffffffffffffffffffffffffffffffff\n      and\n      dup2\n      mstore\n      0x20\n      add\n      swap1\n      dup2\n      mstore\n      0x20\n      add\n      0x00\n      keccak256\n      0x00\n      swap1\n      sload\n      swap1\n      0x0100\n      exp\n      swap1\n      div\n      0xff\n      and\n        /* \"codes/FoodTraceability.sol\":2952:2982  roles[msg.sender] != Role.None */\n      0x05\n      dup2\n      gt\n      iszero\n      tag_105\n      jumpi\n      tag_106\n      tag_75\n      jump\t// in\n    tag_106:\n    tag_105:\n      sub\n        /* \"codes/FoodTraceability.sol\":2944:3025  require(roles[msg.sender] != Role.None, \"Caller is not a registered participant\") */\n      tag_107\n      jumpi\n      mload(0x40)\n      0x08c379a000000000000000000000000000000000000000000000000000000000\n      dup2\n      mstore\n      0x04\n      add\n      tag_108\n      swap1\n      tag_109\n      jump\t// in\n    tag_108:\n      mload(0x40)\n      dup1\n      swap2\n      sub\n      swap1\n      revert\n    tag_107:\n        /* \"codes/FoodTraceability.sol\":6771:6783  traceHistory */\n      0x01\n        /* \"codes/FoodTraceability.sol\":6784:6792  _batchId */\n      dup6\n        /* \"codes/FoodTraceability.sol\":6771:6793  traceHistory[_batchId] */\n      mload(0x40)\n      tag_111\n      swap2\n      swap1\n      tag_83\n      jump\t// in\n    tag_111:\n      swap1\n      dup2\n      mstore\n      0x20\n      add\n      mload(0x40)\n      dup1\n      swap2\n      sub\n      swap1\n      keccak256\n        /* \"codes/FoodTraceability.sol\":6771:6800  traceHistory[_batchId].push() */\n      0x01\n      dup2\n      0x01\n      dup2\n      sload\n      add\n      dup1\n      dup3\n      sstore\n      dup1\n      swap2\n      pop\n      pop\n      sub\n      swap1\n      0x00\n      mstore\n      keccak256(0x00, 0x20)\n      swap1\n      pop\n      pop\n        /* \"codes/FoodTraceability.sol\":6810:6827  uint256 lastIndex */\n      0x00\n        /* \"codes/FoodTraceability.sol\":6862:6863  1 */\n      0x01\n        /* \"codes/FoodTraceability.sol\":6830:6842  traceHistory */\n      dup1\n        /* \"codes/FoodTraceability.sol\":6843:6851  _batchId */\n      dup8\n        /* \"codes/FoodTraceability.sol\":6830:6852  traceHistory[_batchId] */\n      mload(0x40)\n      tag_113\n      swap2\n      swap1\n      tag_83\n      jump\t// in\n    tag_113:\n      swap1\n      dup2\n      mstore\n      0x20\n      add\n      mload(0x40)\n      dup1\n      swap2\n      sub\n      swap1\n      keccak256\n        /* \"codes/FoodTraceability.sol\":6830:6859  traceHistory[_batchId].length */\n      dup1\n      sload\n      swap1\n      pop\n        /* \"codes/FoodTraceability.sol\":6830:6863  traceHistory[_batchId].length - 1 */\n      tag_114\n      swap2\n      swap1\n      tag_115\n      jump\t// in\n    tag_114:\n        /* \"codes/FoodTraceability.sol\":6810:6863  uint256 lastIndex = traceHistory[_batchId].length - 1 */\n      swap1\n      pop\n        /* \"codes/FoodTraceability.sol\":6926:6936  msg.sender */\n      caller\n        /* \"codes/FoodTraceability.sol\":6882:6894  traceHistory */\n      0x01\n        /* \"codes/FoodTraceability.sol\":6895:6903  _batchId */\n      dup8\n        /* \"codes/FoodTraceability.sol\":6882:6904  traceHistory[_batchId] */\n      mload(0x40)\n      tag_116\n      swap2\n      swap1\n      tag_83\n      jump\t// in\n    tag_116:\n      swap1\n      dup2\n      mstore\n      0x20\n      add\n      mload(0x40)\n      dup1\n      swap2\n      sub\n      swap1\n      keccak256\n        /* \"codes/FoodTraceability.sol\":6905:6914  lastIndex */\n      dup3\n        /* \"codes/FoodTraceability.sol\":6882:6915  traceHistory[_batchId][lastIndex] */\n      dup2\n      sload\n      dup2\n      lt\n      tag_117\n      jumpi\n      tag_118\n      tag_119\n      jump\t// in\n    tag_118:\n    tag_117:\n      swap1\n      0x00\n      mstore\n      keccak256(0x00, 0x20)\n      swap1\n      0x06\n      mul\n      add\n        /* \"codes/FoodTraceability.sol\":6882:6923  traceHistory[_batchId][lastIndex].handler */\n      0x00\n      add\n      0x00\n        /* \"codes/FoodTraceability.sol\":6882:6936  traceHistory[_batchId][lastIndex].handler = msg.sender */\n      0x0100\n      exp\n      dup2\n      sload\n      dup2\n      0xffffffffffffffffffffffffffffffffffffffff\n      mul\n      not\n      and\n      swap1\n      dup4\n      0xffffffffffffffffffffffffffffffffffffffff\n      and\n      mul\n      or\n      swap1\n      sstore\n      pop\n        /* \"codes/FoodTraceability.sol\":6995:7000  roles */\n      0x02\n        /* \"codes/FoodTraceability.sol\":6995:7012  roles[msg.sender] */\n      0x00\n        /* \"codes/FoodTraceability.sol\":7001:7011  msg.sender */\n      caller\n        /* \"codes/FoodTraceability.sol\":6995:7012  roles[msg.sender] */\n      0xffffffffffffffffffffffffffffffffffffffff\n      and\n      0xffffffffffffffffffffffffffffffffffffffff\n      and\n      dup2\n      mstore\n      0x20\n      add\n      swap1\n      dup2\n      mstore\n      0x20\n      add\n      0x00\n      keccak256\n      0x00\n      swap1\n      sload\n      swap1\n      0x0100\n      exp\n      swap1\n      div\n      0xff\n      and\n        /* \"codes/FoodTraceability.sol\":6987:7013  uint256(roles[msg.sender]) */\n      0x05\n      dup2\n      gt\n      iszero\n      tag_121\n      jumpi\n      tag_122\n      tag_75\n      jump\t// in\n    tag_122:\n    tag_121:\n        /* \"codes/FoodTraceability.sol\":6946:6958  traceHistory */\n      0x01\n        /* \"codes/FoodTraceability.sol\":6959:6967  _batchId */\n      dup8\n        /* \"codes/FoodTraceability.sol\":6946:6968  traceHistory[_batchId] */\n      mload(0x40)\n      tag_123\n      swap2\n      swap1\n      tag_83\n      jump\t// in\n    tag_123:\n      swap1\n      dup2\n      mstore\n      0x20\n      add\n      mload(0x40)\n      dup1\n      swap2\n      sub\n      swap1\n      keccak256\n        /* \"codes/FoodTraceability.sol\":6969:6978  lastIndex */\n      dup3\n        /* \"codes/FoodTraceability.sol\":6946:6979  traceHistory[_batchId][lastIndex] */\n      dup2\n      sload\n      dup2\n      lt\n      tag_124\n      jumpi\n      tag_125\n      tag_119\n      jump\t// in\n    tag_125:\n    tag_124:\n      swap1\n      0x00\n      mstore\n      keccak256(0x00, 0x20)\n      swap1\n      0x06\n      mul\n      add\n        /* \"codes/FoodTraceability.sol\":6946:6984  traceHistory[_batchId][lastIndex].role */\n      0x01\n      add\n        /* \"codes/FoodTraceability.sol\":6946:7013  traceHistory[_batchId][lastIndex].role = uint256(roles[msg.sender]) */\n      dup2\n      swap1\n      sstore\n      pop\n        /* \"codes/FoodTraceability.sol\":7068:7077  _location */\n      dup5\n        /* \"codes/FoodTraceability.sol\":7023:7035  traceHistory */\n      0x01\n        /* \"codes/FoodTraceability.sol\":7036:7044  _batchId */\n      dup8\n        /* \"codes/FoodTraceability.sol\":7023:7045  traceHistory[_batchId] */\n      mload(0x40)\n      tag_127\n      swap2\n      swap1\n      tag_83\n      jump\t// in\n    tag_127:\n      swap1\n      dup2\n      mstore\n      0x20\n      add\n      mload(0x40)\n      dup1\n      swap2\n      sub\n      swap1\n      keccak256\n        /* \"codes/FoodTraceability.sol\":7046:7055  lastIndex */\n      dup3\n        /* \"codes/FoodTraceability.sol\":7023:7056  traceHistory[_batchId][lastIndex] */\n      dup2\n      sload\n      dup2\n      lt\n      tag_128\n      jumpi\n      tag_129\n      tag_119\n      jump\t// in\n    tag_129:\n    tag_128:\n      swap1\n      0x00\n      mstore\n      keccak256(0x00, 0x20)\n      swap1\n      0x06\n      mul\n      add\n        /* \"codes/FoodTraceability.sol\":7023:7065  traceHistory[_batchId][lastIndex].location */\n      0x02\n      add\n        /* \"codes/FoodTraceability.sol\":7023:7077  traceHistory[_batchId][lastIndex].location = _location */\n      swap1\n      dup2\n      tag_131\n      swap2\n      swap1\n      tag_132\n      jump\t// in\n    tag_131:\n      pop\n        /* \"codes/FoodTraceability.sol\":7130:7137  _action */\n      dup4\n        /* \"codes/FoodTraceability.sol\":7087:7099  traceHistory */\n      0x01\n        /* \"codes/FoodTraceability.sol\":7100:7108  _batchId */\n      dup8\n        /* \"codes/FoodTraceability.sol\":7087:7109  traceHistory[_batchId] */\n      mload(0x40)\n      tag_133\n      swap2\n      swap1\n      tag_83\n      jump\t// in\n    tag_133:\n      swap1\n      dup2\n      mstore\n      0x20\n      add\n      mload(0x40)\n      dup1\n      swap2\n      sub\n      swap1\n      keccak256\n        /* \"codes/FoodTraceability.sol\":7110:7119  lastIndex */\n      dup3\n        /* \"codes/FoodTraceability.sol\":7087:7120  traceHistory[_batchId][lastIndex] */\n      dup2\n      sload\n      dup2\n      lt\n      tag_134\n      jumpi\n      tag_135\n      tag_119\n      jump\t// in\n    tag_135:\n    tag_134:\n      swap1\n      0x00\n      mstore\n      keccak256(0x00, 0x20)\n      swap1\n      0x06\n      mul\n      add\n        /* \"codes/FoodTraceability.sol\":7087:7127  traceHistory[_batchId][lastIndex].action */\n      0x03\n      add\n        /* \"codes/FoodTraceability.sol\":7087:7137  traceHistory[_batchId][lastIndex].action = _action */\n      swap1\n      dup2\n      tag_137\n      swap2\n      swap1\n      tag_132\n      jump\t// in\n    tag_137:\n      pop\n        /* \"codes/FoodTraceability.sol\":7195:7207  _temperature */\n      dup3\n        /* \"codes/FoodTraceability.sol\":7147:7159  traceHistory */\n      0x01\n        /* \"codes/FoodTraceability.sol\":7160:7168  _batchId */\n      dup8\n        /* \"codes/FoodTraceability.sol\":7147:7169  traceHistory[_batchId] */\n      mload(0x40)\n      tag_138\n      swap2\n      swap1\n      tag_83\n      jump\t// in\n    tag_138:\n      swap1\n      dup2\n      mstore\n      0x20\n      add\n      mload(0x40)\n      dup1\n      swap2\n      sub\n      swap1\n      keccak256\n        /* \"codes/FoodTraceability.sol\":7170:7179  lastIndex */\n      dup3\n        /* \"codes/FoodTraceability.sol\":7147:7180  traceHistory[_batchId][lastIndex] */\n      dup2\n      sload\n      dup2\n      lt\n      tag_139\n      jumpi\n      tag_140\n      tag_119\n      jump\t// in\n    tag_140:\n    tag_139:\n      swap1\n      0x00\n      mstore\n      keccak256(0x00, 0x20)\n      swap1\n      0x06\n      mul\n      add\n        /* \"codes/FoodTraceability.sol\":7147:7192  traceHistory[_batchId][lastIndex].temperature */\n      0x04\n      add\n        /* \"codes/FoodTraceability.sol\":7147:7207  traceHistory[_batchId][lastIndex].temperature = _temperature */\n      dup2\n      swap1\n      sstore\n      pop\n        /* \"codes/FoodTraceability.sol\":7263:7278  block.timestamp */\n      timestamp\n        /* \"codes/FoodTraceability.sol\":7217:7229  traceHistory */\n      0x01\n        /* \"codes/FoodTraceability.sol\":7230:7238  _batchId */\n      dup8\n        /* \"codes/FoodTraceability.sol\":7217:7239  traceHistory[_batchId] */\n      mload(0x40)\n      tag_142\n      swap2\n      swap1\n      tag_83\n      jump\t// in\n    tag_142:\n      swap1\n      dup2\n      mstore\n      0x20\n      add\n      mload(0x40)\n      dup1\n      swap2\n      sub\n      swap1\n      keccak256\n        /* \"codes/FoodTraceability.sol\":7240:7249  lastIndex */\n      dup3\n        /* \"codes/FoodTraceability.sol\":7217:7250  traceHistory[_batchId][lastIndex] */\n      dup2\n      sload\n      dup2\n      lt\n      tag_143\n      jumpi\n      tag_144\n      tag_119\n      jump\t// in\n    tag_144:\n    tag_143:\n      swap1\n      0x00\n      mstore\n      keccak256(0x00, 0x20)\n      swap1\n      0x06\n      mul\n      add\n        /* \"codes/FoodTraceability.sol\":7217:7260  traceHistory[_batchId][lastIndex].timestamp */\n      0x05\n      add\n        /* \"codes/FoodTraceability.sol\":7217:7278  traceHistory[_batchId][lastIndex].timestamp = block.timestamp */\n      dup2\n      swap1\n      sstore\n      pop\n        /* \"codes/FoodTraceability.sol\":7393:7395  80 */\n      0x50\n        /* \"codes/FoodTraceability.sol\":7378:7390  _temperature */\n      dup4\n        /* \"codes/FoodTraceability.sol\":7378:7395  _temperature > 80 */\n      sgt\n        /* \"codes/FoodTraceability.sol\":7374:7479  if (_temperature > 80) {... */\n      iszero\n      tag_146\n      jumpi\n        /* \"codes/FoodTraceability.sol\":7433:7441  _batchId */\n      dup6\n        /* \"codes/FoodTraceability.sol\":7416:7468  TemperatureAlert(_batchId, _temperature, msg.sender) */\n      mload(0x40)\n      tag_147\n      swap2\n      swap1\n      tag_83\n      jump\t// in\n    tag_147:\n      mload(0x40)\n      dup1\n      swap2\n      sub\n      swap1\n      keccak256\n      0x26dc7d14878587176903d5487d42f16c5f65c16bdd4515f4d4b1759adca6644b\n        /* \"codes/FoodTraceability.sol\":7443:7455  _temperature */\n      dup5\n        /* \"codes/FoodTraceability.sol\":7457:7467  msg.sender */\n      caller\n        /* \"codes/FoodTraceability.sol\":7416:7468  TemperatureAlert(_batchId, _temperature, msg.sender) */\n      mload(0x40)\n      tag_148\n      swap3\n      swap2\n      swap1\n      tag_149\n      jump\t// in\n    tag_148:\n      mload(0x40)\n      dup1\n      swap2\n      sub\n      swap1\n      log2\n        /* \"codes/FoodTraceability.sol\":7374:7479  if (_temperature > 80) {... */\n    tag_146:\n        /* \"codes/FoodTraceability.sol\":7506:7514  _batchId */\n      dup6\n        /* \"codes/FoodTraceability.sol\":7494:7553  RecordAdded(_batchId, msg.sender, _action, block.timestamp) */\n      mload(0x40)\n      tag_150\n      swap2\n      swap1\n      tag_83\n      jump\t// in\n    tag_150:\n      mload(0x40)\n      dup1\n      swap2\n      sub\n      swap1\n      keccak256\n      0x6ab2ce4a47bf01ae08a862a18f5e8b1faf85f05c105bbb0298a7c831859da5e3\n        /* \"codes/FoodTraceability.sol\":7516:7526  msg.sender */\n      caller\n        /* \"codes/FoodTraceability.sol\":7528:7535  _action */\n      dup7\n        /* \"codes/FoodTraceability.sol\":7537:7552  block.timestamp */\n      timestamp\n        /* \"codes/FoodTraceability.sol\":7494:7553  RecordAdded(_batchId, msg.sender, _action, block.timestamp) */\n      mload(0x40)\n      tag_151\n      swap4\n      swap3\n      swap2\n      swap1\n      tag_152\n      jump\t// in\n    tag_151:\n      mload(0x40)\n      dup1\n      swap2\n      sub\n      swap1\n      log2\n        /* \"codes/FoodTraceability.sol\":6668:7560  {... */\n      pop\n        /* \"codes/FoodTraceability.sol\":6449:7560  function addTraceRecord(... */\n      pop\n      pop\n      pop\n      pop\n      pop\n      jump\t// out\n        /* \"codes/FoodTraceability.sol\":9026:9259  function getTraceCount(string memory _batchId)... */\n    tag_36:\n        /* \"codes/FoodTraceability.sol\":9112:9119  uint256 */\n      0x00\n        /* \"codes/FoodTraceability.sol\":9185:9186  0 */\n      0x00\n        /* \"codes/FoodTraceability.sol\":9149:9156  batches */\n      0x00\n        /* \"codes/FoodTraceability.sol\":9157:9165  _batchId */\n      dup4\n        /* \"codes/FoodTraceability.sol\":9149:9166  batches[_batchId] */\n      mload(0x40)\n      tag_154\n      swap2\n      swap1\n      tag_83\n      jump\t// in\n    tag_154:\n      swap1\n      dup2\n      mstore\n      0x20\n      add\n      mload(0x40)\n      dup1\n      swap2\n      sub\n      swap1\n      keccak256\n        /* \"codes/FoodTraceability.sol\":9149:9174  batches[_batchId].batchId */\n      0x00\n      add\n        /* \"codes/FoodTraceability.sol\":9143:9182  bytes(batches[_batchId].batchId).length */\n      dup1\n      sload\n      tag_155\n      swap1\n      tag_156\n      jump\t// in\n    tag_155:\n      swap1\n      pop\n        /* \"codes/FoodTraceability.sol\":9143:9186  bytes(batches[_batchId].batchId).length > 0 */\n      gt\n        /* \"codes/FoodTraceability.sol\":9135:9206  require(bytes(batches[_batchId].batchId).length > 0, \"Batch not found\") */\n      tag_157\n      jumpi\n      mload(0x40)\n      0x08c379a000000000000000000000000000000000000000000000000000000000\n      dup2\n      mstore\n      0x04\n      add\n      tag_158\n      swap1\n      tag_159\n      jump\t// in\n    tag_158:\n      mload(0x40)\n      dup1\n      swap2\n      sub\n      swap1\n      revert\n    tag_157:\n        /* \"codes/FoodTraceability.sol\":9223:9235  traceHistory */\n      0x01\n        /* \"codes/FoodTraceability.sol\":9236:9244  _batchId */\n      dup3\n        /* \"codes/FoodTraceability.sol\":9223:9245  traceHistory[_batchId] */\n      mload(0x40)\n      tag_160\n      swap2\n      swap1\n      tag_83\n      jump\t// in\n    tag_160:\n      swap1\n      dup2\n      mstore\n      0x20\n      add\n      mload(0x40)\n      dup1\n      swap2\n      sub\n      swap1\n      keccak256\n        /* \"codes/FoodTraceability.sol\":9223:9252  traceHistory[_batchId].length */\n      dup1\n      sload\n      swap1\n      pop\n        /* \"codes/FoodTraceability.sol\":9216:9252  return traceHistory[_batchId].length */\n      swap1\n      pop\n        /* \"codes/FoodTraceability.sol\":9026:9259  function getTraceCount(string memory _batchId)... */\n      swap2\n      swap1\n      pop\n      jump\t// out\n        /* \"codes/FoodTraceability.sol\":1681:1728  mapping(string => FoodBatch)     public batches */\n    tag_41:\n      0x00\n      dup2\n      dup1\n      mload\n      0x20\n      dup2\n      add\n      dup3\n      add\n      dup1\n      mload\n      dup5\n      dup3\n      mstore\n      0x20\n      dup4\n      add\n      0x20\n      dup6\n      add\n      keccak256\n      dup2\n      dup4\n      mstore\n      dup1\n      swap6\n      pop\n      pop\n      pop\n      pop\n      pop\n      pop\n      0x00\n      swap2\n      pop\n      swap1\n      pop\n      dup1\n      0x00\n      add\n      dup1\n      sload\n      tag_161\n      swap1\n      tag_156\n      jump\t// in\n    tag_161:\n      dup1\n      0x1f\n      add\n      0x20\n      dup1\n      swap2\n      div\n      mul\n      0x20\n      add\n      mload(0x40)\n      swap1\n      dup2\n      add\n      0x40\n      mstore\n      dup1\n      swap3\n      swap2\n      swap1\n      dup2\n      dup2\n      mstore\n      0x20\n      add\n      dup3\n      dup1\n      sload\n      tag_162\n      swap1\n      tag_156\n      jump\t// in\n    tag_162:\n      dup1\n      iszero\n      tag_163\n      jumpi\n      dup1\n      0x1f\n      lt\n      tag_164\n      jumpi\n      0x0100\n      dup1\n      dup4\n      sload\n      div\n      mul\n      dup4\n      mstore\n      swap2\n      0x20\n      add\n      swap2\n      jump(tag_163)\n    tag_164:\n      dup3\n      add\n      swap2\n      swap1\n      0x00\n      mstore\n      keccak256(0x00, 0x20)\n      swap1\n    tag_165:\n      dup2\n      sload\n      dup2\n      mstore\n      swap1\n      0x01\n      add\n      swap1\n      0x20\n      add\n      dup1\n      dup4\n      gt\n      tag_165\n      jumpi\n      dup3\n      swap1\n      sub\n      0x1f\n      and\n      dup3\n      add\n      swap2\n    tag_163:\n      pop\n      pop\n      pop\n      pop\n      pop\n      swap1\n      dup1\n      0x01\n      add\n      dup1\n      sload\n      tag_166\n      swap1\n      tag_156\n      jump\t// in\n    tag_166:\n      dup1\n      0x1f\n      add\n      0x20\n      dup1\n      swap2\n      div\n      mul\n      0x20\n      add\n      mload(0x40)\n      swap1\n      dup2\n      add\n      0x40\n      mstore\n      dup1\n      swap3\n      swap2\n      swap1\n      dup2\n      dup2\n      mstore\n      0x20\n      add\n      dup3\n      dup1\n      sload\n      tag_167\n      swap1\n      tag_156\n      jump\t// in\n    tag_167:\n      dup1\n      iszero\n      tag_168\n      jumpi\n      dup1\n      0x1f\n      lt\n      tag_169\n      jumpi\n      0x0100\n      dup1\n      dup4\n      sload\n      div\n      mul\n      dup4\n      mstore\n      swap2\n      0x20\n      add\n      swap2\n      jump(tag_168)\n    tag_169:\n      dup3\n      add\n      swap2\n      swap1\n      0x00\n      mstore\n      keccak256(0x00, 0x20)\n      swap1\n    tag_170:\n      dup2\n      sload\n      dup2\n      mstore\n      swap1\n      0x01\n      add\n      swap1\n      0x20\n      add\n      dup1\n      dup4\n      gt\n      tag_170\n      jumpi\n      dup3\n      swap1\n      sub\n      0x1f\n      and\n      dup3\n      add\n      swap2\n    tag_168:\n      pop\n      pop\n      pop\n      pop\n      pop\n      swap1\n      dup1\n      0x02\n      add\n      dup1\n      sload\n      tag_171\n      swap1\n      tag_156\n      jump\t// in\n    tag_171:\n      dup1\n      0x1f\n      add\n      0x20\n      dup1\n      swap2\n      div\n      mul\n      0x20\n      add\n      mload(0x40)\n      swap1\n      dup2\n      add\n      0x40\n      mstore\n      dup1\n      swap3\n      swap2\n      swap1\n      dup2\n      dup2\n      mstore\n      0x20\n      add\n      dup3\n      dup1\n      sload\n      tag_172\n      swap1\n      tag_156\n      jump\t// in\n    tag_172:\n      dup1\n      iszero\n      tag_173\n      jumpi\n      dup1\n      0x1f\n      lt\n      tag_174\n      jumpi\n      0x0100\n      dup1\n      dup4\n      sload\n      div\n      mul\n      dup4\n      mstore\n      swap2\n      0x20\n      add\n      swap2\n      jump(tag_173)\n    tag_174:\n      dup3\n      add\n      swap2\n      swap1\n      0x00\n      mstore\n      keccak256(0x00, 0x20)\n      swap1\n    tag_175:\n      dup2\n      sload\n      dup2\n      mstore\n      swap1\n      0x01\n      add\n      swap1\n      0x20\n      add\n      dup1\n      dup4\n      gt\n      tag_175\n      jumpi\n      dup3\n      swap1\n      sub\n      0x1f\n      and\n      dup3\n      add\n      swap2\n    tag_173:\n      pop\n      pop\n      pop\n      pop\n      pop\n      swap1\n      dup1\n      0x03\n      add\n      sload\n      swap1\n      dup1\n      0x04\n      add\n      0x00\n      swap1\n      sload\n      swap1\n      0x0100\n      exp\n      swap1\n      div\n      0xffffffffffffffffffffffffffffffffffffffff\n      and\n      swap1\n      dup1\n      0x04\n      add\n      0x14\n      swap1\n      sload\n      swap1\n      0x0100\n      exp\n      swap1\n      div\n      0xff\n      and\n      swap1\n      pop\n      dup7\n      jump\t// out\n        /* \"codes/FoodTraceability.sol\":1843:1863  address public owner */\n    tag_45:\n      0x03\n      0x00\n      swap1\n      sload\n      swap1\n      0x0100\n      exp\n      swap1\n      div\n      0xffffffffffffffffffffffffffffffffffffffff\n      and\n      dup2\n      jump\t// out\n        /* \"codes/FoodTraceability.sol\":1792:1837  mapping(address => Role)         public roles */\n    tag_50:\n      mstore(0x20, 0x02)\n      dup1\n      0x00\n      mstore\n      keccak256(0x00, 0x40)\n      0x00\n      swap2\n      pop\n      sload\n      swap1\n      0x0100\n      exp\n      swap1\n      div\n      0xff\n      and\n      dup2\n      jump\t// out\n        /* \"codes/FoodTraceability.sol\":8616:8857  function getBatchHistory(string memory _batchId)... */\n    tag_54:\n        /* \"codes/FoodTraceability.sol\":8704:8724  TraceRecord[] memory */\n      0x60\n        /* \"codes/FoodTraceability.sol\":8790:8791  0 */\n      0x00\n        /* \"codes/FoodTraceability.sol\":8754:8761  batches */\n      0x00\n        /* \"codes/FoodTraceability.sol\":8762:8770  _batchId */\n      dup4\n        /* \"codes/FoodTraceability.sol\":8754:8771  batches[_batchId] */\n      mload(0x40)\n      tag_177\n      swap2\n      swap1\n      tag_83\n      jump\t// in\n    tag_177:\n      swap1\n      dup2\n      mstore\n      0x20\n      add\n      mload(0x40)\n      dup1\n      swap2\n      sub\n      swap1\n      keccak256\n        /* \"codes/FoodTraceability.sol\":8754:8779  batches[_batchId].batchId */\n      0x00\n      add\n        /* \"codes/FoodTraceability.sol\":8748:8787  bytes(batches[_batchId].batchId).length */\n      dup1\n      sload\n      tag_178\n      swap1\n      tag_156\n      jump\t// in\n    tag_178:\n      swap1\n      pop\n        /* \"codes/FoodTraceability.sol\":8748:8791  bytes(batches[_batchId].batchId).length > 0 */\n      gt\n        /* \"codes/FoodTraceability.sol\":8740:8811  require(bytes(batches[_batchId].batchId).length > 0, \"Batch not found\") */\n      tag_179\n      jumpi\n      mload(0x40)\n      0x08c379a000000000000000000000000000000000000000000000000000000000\n      dup2\n      mstore\n      0x04\n      add\n      tag_180\n      swap1\n      tag_159\n      jump\t// in\n    tag_180:\n      mload(0x40)\n      dup1\n      swap2\n      sub\n      swap1\n      revert\n    tag_179:\n        /* \"codes/FoodTraceability.sol\":8828:8840  traceHistory */\n      0x01\n        /* \"codes/FoodTraceability.sol\":8841:8849  _batchId */\n      dup3\n        /* \"codes/FoodTraceability.sol\":8828:8850  traceHistory[_batchId] */\n      mload(0x40)\n      tag_181\n      swap2\n      swap1\n      tag_83\n      jump\t// in\n    tag_181:\n      swap1\n      dup2\n      mstore\n      0x20\n      add\n      mload(0x40)\n      dup1\n      swap2\n      sub\n      swap1\n      keccak256\n        /* \"codes/FoodTraceability.sol\":8821:8850  return traceHistory[_batchId] */\n      dup1\n      sload\n      dup1\n      0x20\n      mul\n      0x20\n      add\n      mload(0x40)\n      swap1\n      dup2\n      add\n      0x40\n      mstore\n      dup1\n      swap3\n      swap2\n      swap1\n      dup2\n      dup2\n      mstore\n      0x20\n      add\n      0x00\n      swap1\n    tag_182:\n      dup3\n      dup3\n      lt\n      iszero\n      tag_183\n      jumpi\n      dup4\n      dup3\n      swap1\n      0x00\n      mstore\n      keccak256(0x00, 0x20)\n      swap1\n      0x06\n      mul\n      add\n      mload(0x40)\n      dup1\n      0xc0\n      add\n      0x40\n      mstore\n      swap1\n      dup2\n      0x00\n      dup3\n      add\n      0x00\n      swap1\n      sload\n      swap1\n      0x0100\n      exp\n      swap1\n      div\n      0xffffffffffffffffffffffffffffffffffffffff\n      and\n      0xffffffffffffffffffffffffffffffffffffffff\n      and\n      0xffffffffffffffffffffffffffffffffffffffff\n      and\n      dup2\n      mstore\n      0x20\n      add\n      0x01\n      dup3\n      add\n      sload\n      dup2\n      mstore\n      0x20\n      add\n      0x02\n      dup3\n      add\n      dup1\n      sload\n      tag_185\n      swap1\n      tag_156\n      jump\t// in\n    tag_185:\n      dup1\n      0x1f\n      add\n      0x20\n      dup1\n      swap2\n      div\n      mul\n      0x20\n      add\n      mload(0x40)\n      swap1\n      dup2\n      add\n      0x40\n      mstore\n      dup1\n      swap3\n      swap2\n      swap1\n      dup2\n      dup2\n      mstore\n      0x20\n      add\n      dup3\n      dup1\n      sload\n      tag_186\n      swap1\n      tag_156\n      jump\t// in\n    tag_186:\n      dup1\n      iszero\n      tag_187\n      jumpi\n      dup1\n      0x1f\n      lt\n      tag_188\n      jumpi\n      0x0100\n      dup1\n      dup4\n      sload\n      div\n      mul\n      dup4\n      mstore\n      swap2\n      0x20\n      add\n      swap2\n      jump(tag_187)\n    tag_188:\n      dup3\n      add\n      swap2\n      swap1\n      0x00\n      mstore\n      keccak256(0x00, 0x20)\n      swap1\n    tag_189:\n      dup2\n      sload\n      dup2\n      mstore\n      swap1\n      0x01\n      add\n      swap1\n      0x20\n      add\n      dup1\n      dup4\n      gt\n      tag_189\n      jumpi\n      dup3\n      swap1\n      sub\n      0x1f\n      and\n      dup3\n      add\n      swap2\n    tag_187:\n      pop\n      pop\n      pop\n      pop\n      pop\n      dup2\n      mstore\n      0x20\n      add\n      0x03\n      dup3\n      add\n      dup1\n      sload\n      tag_190\n      swap1\n      tag_156\n      jump\t// in\n    tag_190:\n      dup1\n      0x1f\n      add\n      0x20\n      dup1\n      swap2\n      div\n      mul\n      0x20\n      add\n      mload(0x40)\n      swap1\n      dup2\n      add\n      0x40\n      mstore\n      dup1\n      swap3\n      swap2\n      swap1\n      dup2\n      dup2\n      mstore\n      0x20\n      add\n      dup3\n      dup1\n      sload\n      tag_191\n      swap1\n      tag_156\n      jump\t// in\n    tag_191:\n      dup1\n      iszero\n      tag_192\n      jumpi\n      dup1\n      0x1f\n      lt\n      tag_193\n      jumpi\n      0x0100\n      dup1\n      dup4\n      sload\n      div\n      mul\n      dup4\n      mstore\n      swap2\n      0x20\n      add\n      swap2\n      jump(tag_192)\n    tag_193:\n      dup3\n      add\n      swap2\n      swap1\n      0x00\n      mstore\n      keccak256(0x00, 0x20)\n      swap1\n    tag_194:\n      dup2\n      sload\n      dup2\n      mstore\n      swap1\n      0x01\n      add\n      swap1\n      0x20\n      add\n      dup1\n      dup4\n      gt\n      tag_194\n      jumpi\n      dup3\n      swap1\n      sub\n      0x1f\n      and\n      dup3\n      add\n      swap2\n    tag_192:\n      pop\n      pop\n      pop\n      pop\n      pop\n      dup2\n      mstore\n      0x20\n      add\n      0x04\n      dup3\n      add\n      sload\n      dup2\n      mstore\n      0x20\n      add\n      0x05\n      dup3\n      add\n      sload\n      dup2\n      mstore\n      pop\n      pop\n      dup2\n      mstore\n      0x20\n      add\n      swap1\n      0x01\n      add\n      swap1\n      jump(tag_182)\n    tag_183:\n      pop\n      pop\n      pop\n      pop\n      swap1\n      pop\n        /* \"codes/FoodTraceability.sol\":8616:8857  function getBatchHistory(string memory _batchId)... */\n      swap2\n      swap1\n      pop\n      jump\t// out\n        /* \"codes/FoodTraceability.sol\":1734:1786  mapping(string => TraceRecord[]) public traceHistory */\n    tag_60:\n      0x01\n      dup3\n      dup1\n      mload\n      0x20\n      dup2\n      add\n      dup3\n      add\n      dup1\n      mload\n      dup5\n      dup3\n      mstore\n      0x20\n      dup4\n      add\n      0x20\n      dup6\n      add\n      keccak256\n      dup2\n      dup4\n      mstore\n      dup1\n      swap6\n      pop\n      pop\n      pop\n      pop\n      pop\n      pop\n      dup2\n      dup2\n      sload\n      dup2\n      lt\n      tag_195\n      jumpi\n      0x00\n      dup1\n      revert\n    tag_195:\n      swap1\n      0x00\n      mstore\n      keccak256(0x00, 0x20)\n      swap1\n      0x06\n      mul\n      add\n      0x00\n      swap2\n      pop\n      swap2\n      pop\n      pop\n      dup1\n      0x00\n      add\n      0x00\n      swap1\n      sload\n      swap1\n      0x0100\n      exp\n      swap1\n      div\n      0xffffffffffffffffffffffffffffffffffffffff\n      and\n      swap1\n      dup1\n      0x01\n      add\n      sload\n      swap1\n      dup1\n      0x02\n      add\n      dup1\n      sload\n      tag_197\n      swap1\n      tag_156\n      jump\t// in\n    tag_197:\n      dup1\n      0x1f\n      add\n      0x20\n      dup1\n      swap2\n      div\n      mul\n      0x20\n      add\n      mload(0x40)\n      swap1\n      dup2\n      add\n      0x40\n      mstore\n      dup1\n      swap3\n      swap2\n      swap1\n      dup2\n      dup2\n      mstore\n      0x20\n      add\n      dup3\n      dup1\n      sload\n      tag_198\n      swap1\n      tag_156\n      jump\t// in\n    tag_198:\n      dup1\n      iszero\n      tag_199\n      jumpi\n      dup1\n      0x1f\n      lt\n      tag_200\n      jumpi\n      0x0100\n      dup1\n      dup4\n      sload\n      div\n      mul\n      dup4\n      mstore\n      swap2\n      0x20\n      add\n      swap2\n      jump(tag_199)\n    tag_200:\n      dup3\n      add\n      swap2\n      swap1\n      0x00\n      mstore\n      keccak256(0x00, 0x20)\n      swap1\n    tag_201:\n      dup2\n      sload\n      dup2\n      mstore\n      swap1\n      0x01\n      add\n      swap1\n      0x20\n      add\n      dup1\n      dup4\n      gt\n      tag_201\n      jumpi\n      dup3\n      swap1\n      sub\n      0x1f\n      and\n      dup3\n      add\n      swap2\n    tag_199:\n      pop\n      pop\n      pop\n      pop\n      pop\n      swap1\n      dup1\n      0x03\n      add\n      dup1\n      sload\n      tag_202\n      swap1\n      tag_156\n      jump\t// in\n    tag_202:\n      dup1\n      0x1f\n      add\n      0x20\n      dup1\n      swap2\n      div\n      mul\n      0x20\n      add\n      mload(0x40)\n      swap1\n      dup2\n      add\n      0x40\n      mstore\n      dup1\n      swap3\n      swap2\n      swap1\n      dup2\n      dup2\n      mstore\n      0x20\n      add\n      dup3\n      dup1\n      sload\n      tag_203\n      swap1\n      tag_156\n      jump\t// in\n    tag_203:\n      dup1\n      iszero\n      tag_204\n      jumpi\n      dup1\n      0x1f\n      lt\n      tag_205\n      jumpi\n      0x0100\n      dup1\n      dup4\n      sload\n      div\n      mul\n      dup4\n      mstore\n      swap2\n      0x20\n      add\n      swap2\n      jump(tag_204)\n    tag_205:\n      dup3\n      add\n      swap2\n      swap1\n      0x00\n      mstore\n      keccak256(0x00, 0x20)\n      swap1\n    tag_206:\n      dup2\n      sload\n      dup2\n      mstore\n      swap1\n      0x01\n      add\n      swap1\n      0x20\n      add\n      dup1\n      dup4\n      gt\n      tag_206\n      jumpi\n      dup3\n      swap1\n      sub\n      0x1f\n      and\n      dup3\n      add\n      swap2\n    tag_204:\n      pop\n      pop\n      pop\n      pop\n      pop\n      swap1\n      dup1\n      0x04\n      add\n      sload\n      swap1\n      dup1\n      0x05\n      add\n      sload\n      swap1\n      pop\n      dup7\n      jump\t// out\n        /* \"codes/FoodTraceability.sol\":4526:6152  function registerBatch(... */\n    tag_66:\n        /* \"codes/FoodTraceability.sol\":4705:4718  Role.Producer */\n      0x01\n        /* \"codes/FoodTraceability.sol\":2682:2687  _role */\n      dup1\n        /* \"codes/FoodTraceability.sol\":2661:2687  roles[msg.sender] == _role */\n      0x05\n      dup2\n      gt\n      iszero\n      tag_208\n      jumpi\n      tag_209\n      tag_75\n      jump\t// in\n    tag_209:\n    tag_208:\n        /* \"codes/FoodTraceability.sol\":2661:2666  roles */\n      0x02\n        /* \"codes/FoodTraceability.sol\":2661:2678  roles[msg.sender] */\n      0x00\n        /* \"codes/FoodTraceability.sol\":2667:2677  msg.sender */\n      caller\n        /* \"codes/FoodTraceability.sol\":2661:2678  roles[msg.sender] */\n      0xffffffffffffffffffffffffffffffffffffffff\n      and\n      0xffffffffffffffffffffffffffffffffffffffff\n      and\n      dup2\n      mstore\n      0x20\n      add\n      swap1\n      dup2\n      mstore\n      0x20\n      add\n      0x00\n      keccak256\n      0x00\n      swap1\n      sload\n      swap1\n      0x0100\n      exp\n      swap1\n      div\n      0xff\n      and\n        /* \"codes/FoodTraceability.sol\":2661:2687  roles[msg.sender] == _role */\n      0x05\n      dup2\n      gt\n      iszero\n      tag_210\n      jumpi\n      tag_211\n      tag_75\n      jump\t// in\n    tag_211:\n    tag_210:\n      eq\n        /* \"codes/FoodTraceability.sol\":2653:2720  require(roles[msg.sender] == _role, \"Unauthorized: incorrect role\") */\n      tag_212\n      jumpi\n      mload(0x40)\n      0x08c379a000000000000000000000000000000000000000000000000000000000\n      dup2\n      mstore\n      0x04\n      add\n      tag_213\n      swap1\n      tag_80\n      jump\t// in\n    tag_213:\n      mload(0x40)\n      dup1\n      swap2\n      sub\n      swap1\n      revert\n    tag_212:\n        /* \"codes/FoodTraceability.sol\":4763:4764  0 */\n      0x00\n        /* \"codes/FoodTraceability.sol\":4744:4752  _batchId */\n      dup6\n        /* \"codes/FoodTraceability.sol\":4738:4760  bytes(_batchId).length */\n      mload\n        /* \"codes/FoodTraceability.sol\":4738:4764  bytes(_batchId).length > 0 */\n      gt\n        /* \"codes/FoodTraceability.sol\":4730:4793  require(bytes(_batchId).length > 0, \"Batch ID cannot be empty\") */\n      tag_215\n      jumpi\n      mload(0x40)\n      0x08c379a000000000000000000000000000000000000000000000000000000000\n      dup2\n      mstore\n      0x04\n      add\n      tag_216\n      swap1\n      tag_217\n      jump\t// in\n    tag_216:\n      mload(0x40)\n      dup1\n      swap2\n      sub\n      swap1\n      revert\n    tag_215:\n        /* \"codes/FoodTraceability.sol\":4854:4855  0 */\n      0x00\n        /* \"codes/FoodTraceability.sol\":4817:4824  batches */\n      0x00\n        /* \"codes/FoodTraceability.sol\":4825:4833  _batchId */\n      dup7\n        /* \"codes/FoodTraceability.sol\":4817:4834  batches[_batchId] */\n      mload(0x40)\n      tag_218\n      swap2\n      swap1\n      tag_83\n      jump\t// in\n    tag_218:\n      swap1\n      dup2\n      mstore\n      0x20\n      add\n      mload(0x40)\n      dup1\n      swap2\n      sub\n      swap1\n      keccak256\n        /* \"codes/FoodTraceability.sol\":4817:4842  batches[_batchId].batchId */\n      0x00\n      add\n        /* \"codes/FoodTraceability.sol\":4811:4850  bytes(batches[_batchId].batchId).length */\n      dup1\n      sload\n      tag_219\n      swap1\n      tag_156\n      jump\t// in\n    tag_219:\n      swap1\n      pop\n        /* \"codes/FoodTraceability.sol\":4811:4855  bytes(batches[_batchId].batchId).length == 0 */\n      eq\n        /* \"codes/FoodTraceability.sol\":4803:4887  require(bytes(batches[_batchId].batchId).length == 0, \"Batch ID already registered\") */\n      tag_220\n      jumpi\n      mload(0x40)\n      0x08c379a000000000000000000000000000000000000000000000000000000000\n      dup2\n      mstore\n      0x04\n      add\n      tag_221\n      swap1\n      tag_222\n      jump\t// in\n    tag_221:\n      mload(0x40)\n      dup1\n      swap2\n      sub\n      swap1\n      revert\n    tag_220:\n        /* \"codes/FoodTraceability.sol\":4924:4939  block.timestamp */\n      timestamp\n        /* \"codes/FoodTraceability.sol\":4905:4920  _productionDate */\n      dup3\n        /* \"codes/FoodTraceability.sol\":4905:4939  _productionDate <= block.timestamp */\n      gt\n      iszero\n        /* \"codes/FoodTraceability.sol\":4897:4983  require(_productionDate <= block.timestamp, \"Production date cannot be in the future\") */\n      tag_223\n      jumpi\n      mload(0x40)\n      0x08c379a000000000000000000000000000000000000000000000000000000000\n      dup2\n      mstore\n      0x04\n      add\n      tag_224\n      swap1\n      tag_225\n      jump\t// in\n    tag_224:\n      mload(0x40)\n      dup1\n      swap2\n      sub\n      swap1\n      revert\n    tag_223:\n        /* \"codes/FoodTraceability.sol\":5014:5271  FoodBatch({... */\n      mload(0x40)\n      dup1\n      0xc0\n      add\n      0x40\n      mstore\n      dup1\n        /* \"codes/FoodTraceability.sol\":5054:5062  _batchId */\n      dup7\n        /* \"codes/FoodTraceability.sol\":5014:5271  FoodBatch({... */\n      dup2\n      mstore\n      0x20\n      add\n        /* \"codes/FoodTraceability.sol\":5092:5104  _productName */\n      dup6\n        /* \"codes/FoodTraceability.sol\":5014:5271  FoodBatch({... */\n      dup2\n      mstore\n      0x20\n      add\n        /* \"codes/FoodTraceability.sol\":5134:5141  _origin */\n      dup5\n        /* \"codes/FoodTraceability.sol\":5014:5271  FoodBatch({... */\n      dup2\n      mstore\n      0x20\n      add\n        /* \"codes/FoodTraceability.sol\":5171:5186  _productionDate */\n      dup4\n        /* \"codes/FoodTraceability.sol\":5014:5271  FoodBatch({... */\n      dup2\n      mstore\n      0x20\n      add\n        /* \"codes/FoodTraceability.sol\":5216:5226  msg.sender */\n      caller\n        /* \"codes/FoodTraceability.sol\":5014:5271  FoodBatch({... */\n      0xffffffffffffffffffffffffffffffffffffffff\n      and\n      dup2\n      mstore\n      0x20\n      add\n        /* \"codes/FoodTraceability.sol\":5256:5260  true */\n      0x01\n        /* \"codes/FoodTraceability.sol\":5014:5271  FoodBatch({... */\n      iszero\n      iszero\n      dup2\n      mstore\n      pop\n        /* \"codes/FoodTraceability.sol\":4994:5001  batches */\n      0x00\n        /* \"codes/FoodTraceability.sol\":5002:5010  _batchId */\n      dup7\n        /* \"codes/FoodTraceability.sol\":4994:5011  batches[_batchId] */\n      mload(0x40)\n      tag_226\n      swap2\n      swap1\n      tag_83\n      jump\t// in\n    tag_226:\n      swap1\n      dup2\n      mstore\n      0x20\n      add\n      mload(0x40)\n      dup1\n      swap2\n      sub\n      swap1\n      keccak256\n        /* \"codes/FoodTraceability.sol\":4994:5271  batches[_batchId] = FoodBatch({... */\n      0x00\n      dup3\n      add\n      mload\n      dup2\n      0x00\n      add\n      swap1\n      dup2\n      tag_227\n      swap2\n      swap1\n      tag_132\n      jump\t// in\n    tag_227:\n      pop\n      0x20\n      dup3\n      add\n      mload\n      dup2\n      0x01\n      add\n      swap1\n      dup2\n      tag_228\n      swap2\n      swap1\n      tag_132\n      jump\t// in\n    tag_228:\n      pop\n      0x40\n      dup3\n      add\n      mload\n      dup2\n      0x02\n      add\n      swap1\n      dup2\n      tag_229\n      swap2\n      swap1\n      tag_132\n      jump\t// in\n    tag_229:\n      pop\n      0x60\n      dup3\n      add\n      mload\n      dup2\n      0x03\n      add\n      sstore\n      0x80\n      dup3\n      add\n      mload\n      dup2\n      0x04\n      add\n      exp(0x0100, 0x00)\n      dup2\n      sload\n      dup2\n      0xffffffffffffffffffffffffffffffffffffffff\n      mul\n      not\n      and\n      swap1\n      dup4\n      0xffffffffffffffffffffffffffffffffffffffff\n      and\n      mul\n      or\n      swap1\n      sstore\n      pop\n      0xa0\n      dup3\n      add\n      mload\n      dup2\n      0x04\n      add\n      exp(0x0100, 0x14)\n      dup2\n      sload\n      dup2\n      0xff\n      mul\n      not\n      and\n      swap1\n      dup4\n      iszero\n      iszero\n      mul\n      or\n      swap1\n      sstore\n      pop\n      swap1\n      pop\n      pop\n        /* \"codes/FoodTraceability.sol\":5411:5423  traceHistory */\n      0x01\n        /* \"codes/FoodTraceability.sol\":5424:5432  _batchId */\n      dup6\n        /* \"codes/FoodTraceability.sol\":5411:5433  traceHistory[_batchId] */\n      mload(0x40)\n      tag_230\n      swap2\n      swap1\n      tag_83\n      jump\t// in\n    tag_230:\n      swap1\n      dup2\n      mstore\n      0x20\n      add\n      mload(0x40)\n      dup1\n      swap2\n      sub\n      swap1\n      keccak256\n        /* \"codes/FoodTraceability.sol\":5411:5440  traceHistory[_batchId].push() */\n      0x01\n      dup2\n      0x01\n      dup2\n      sload\n      add\n      dup1\n      dup3\n      sstore\n      dup1\n      swap2\n      pop\n      pop\n      sub\n      swap1\n      0x00\n      mstore\n      keccak256(0x00, 0x20)\n      swap1\n      pop\n      pop\n        /* \"codes/FoodTraceability.sol\":5451:5468  uint256 lastIndex */\n      0x00\n        /* \"codes/FoodTraceability.sol\":5503:5504  1 */\n      0x01\n        /* \"codes/FoodTraceability.sol\":5471:5483  traceHistory */\n      dup1\n        /* \"codes/FoodTraceability.sol\":5484:5492  _batchId */\n      dup8\n        /* \"codes/FoodTraceability.sol\":5471:5493  traceHistory[_batchId] */\n      mload(0x40)\n      tag_232\n      swap2\n      swap1\n      tag_83\n      jump\t// in\n    tag_232:\n      swap1\n      dup2\n      mstore\n      0x20\n      add\n      mload(0x40)\n      dup1\n      swap2\n      sub\n      swap1\n      keccak256\n        /* \"codes/FoodTraceability.sol\":5471:5500  traceHistory[_batchId].length */\n      dup1\n      sload\n      swap1\n      pop\n        /* \"codes/FoodTraceability.sol\":5471:5504  traceHistory[_batchId].length - 1 */\n      tag_233\n      swap2\n      swap1\n      tag_115\n      jump\t// in\n    tag_233:\n        /* \"codes/FoodTraceability.sol\":5451:5504  uint256 lastIndex = traceHistory[_batchId].length - 1 */\n      swap1\n      pop\n        /* \"codes/FoodTraceability.sol\":5567:5577  msg.sender */\n      caller\n        /* \"codes/FoodTraceability.sol\":5523:5535  traceHistory */\n      0x01\n        /* \"codes/FoodTraceability.sol\":5536:5544  _batchId */\n      dup8\n        /* \"codes/FoodTraceability.sol\":5523:5545  traceHistory[_batchId] */\n      mload(0x40)\n      tag_234\n      swap2\n      swap1\n      tag_83\n      jump\t// in\n    tag_234:\n      swap1\n      dup2\n      mstore\n      0x20\n      add\n      mload(0x40)\n      dup1\n      swap2\n      sub\n      swap1\n      keccak256\n        /* \"codes/FoodTraceability.sol\":5546:5555  lastIndex */\n      dup3\n        /* \"codes/FoodTraceability.sol\":5523:5556  traceHistory[_batchId][lastIndex] */\n      dup2\n      sload\n      dup2\n      lt\n      tag_235\n      jumpi\n      tag_236\n      tag_119\n      jump\t// in\n    tag_236:\n    tag_235:\n      swap1\n      0x00\n      mstore\n      keccak256(0x00, 0x20)\n      swap1\n      0x06\n      mul\n      add\n        /* \"codes/FoodTraceability.sol\":5523:5564  traceHistory[_batchId][lastIndex].handler */\n      0x00\n      add\n      0x00\n        /* \"codes/FoodTraceability.sol\":5523:5577  traceHistory[_batchId][lastIndex].handler = msg.sender */\n      0x0100\n      exp\n      dup2\n      sload\n      dup2\n      0xffffffffffffffffffffffffffffffffffffffff\n      mul\n      not\n      and\n      swap1\n      dup4\n      0xffffffffffffffffffffffffffffffffffffffff\n      and\n      mul\n      or\n      swap1\n      sstore\n      pop\n        /* \"codes/FoodTraceability.sol\":5636:5649  Role.Producer */\n      0x01\n        /* \"codes/FoodTraceability.sol\":5628:5650  uint256(Role.Producer) */\n      0x05\n      dup2\n      gt\n      iszero\n      tag_238\n      jumpi\n      tag_239\n      tag_75\n      jump\t// in\n    tag_239:\n    tag_238:\n        /* \"codes/FoodTraceability.sol\":5587:5599  traceHistory */\n      0x01\n        /* \"codes/FoodTraceability.sol\":5600:5608  _batchId */\n      dup8\n        /* \"codes/FoodTraceability.sol\":5587:5609  traceHistory[_batchId] */\n      mload(0x40)\n      tag_240\n      swap2\n      swap1\n      tag_83\n      jump\t// in\n    tag_240:\n      swap1\n      dup2\n      mstore\n      0x20\n      add\n      mload(0x40)\n      dup1\n      swap2\n      sub\n      swap1\n      keccak256\n        /* \"codes/FoodTraceability.sol\":5610:5619  lastIndex */\n      dup3\n        /* \"codes/FoodTraceability.sol\":5587:5620  traceHistory[_batchId][lastIndex] */\n      dup2\n      sload\n      dup2\n      lt\n      tag_241\n      jumpi\n      tag_242\n      tag_119\n      jump\t// in\n    tag_242:\n    tag_241:\n      swap1\n      0x00\n      mstore\n      keccak256(0x00, 0x20)\n      swap1\n      0x06\n      mul\n      add\n        /* \"codes/FoodTraceability.sol\":5587:5625  traceHistory[_batchId][lastIndex].role */\n      0x01\n      add\n        /* \"codes/FoodTraceability.sol\":5587:5650  traceHistory[_batchId][lastIndex].role = uint256(Role.Producer) */\n      dup2\n      swap1\n      sstore\n      pop\n        /* \"codes/FoodTraceability.sol\":5705:5712  _origin */\n      dup4\n        /* \"codes/FoodTraceability.sol\":5660:5672  traceHistory */\n      0x01\n        /* \"codes/FoodTraceability.sol\":5673:5681  _batchId */\n      dup8\n        /* \"codes/FoodTraceability.sol\":5660:5682  traceHistory[_batchId] */\n      mload(0x40)\n      tag_244\n      swap2\n      swap1\n      tag_83\n      jump\t// in\n    tag_244:\n      swap1\n      dup2\n      mstore\n      0x20\n      add\n      mload(0x40)\n      dup1\n      swap2\n      sub\n      swap1\n      keccak256\n        /* \"codes/FoodTraceability.sol\":5683:5692  lastIndex */\n      dup3\n        /* \"codes/FoodTraceability.sol\":5660:5693  traceHistory[_batchId][lastIndex] */\n      dup2\n      sload\n      dup2\n      lt\n      tag_245\n      jumpi\n      tag_246\n      tag_119\n      jump\t// in\n    tag_246:\n    tag_245:\n      swap1\n      0x00\n      mstore\n      keccak256(0x00, 0x20)\n      swap1\n      0x06\n      mul\n      add\n        /* \"codes/FoodTraceability.sol\":5660:5702  traceHistory[_batchId][lastIndex].location */\n      0x02\n      add\n        /* \"codes/FoodTraceability.sol\":5660:5712  traceHistory[_batchId][lastIndex].location = _origin */\n      swap1\n      dup2\n      tag_248\n      swap2\n      swap1\n      tag_132\n      jump\t// in\n    tag_248:\n      pop\n        /* \"codes/FoodTraceability.sol\":5722:5813  traceHistory[_batchId][lastIndex].action = \"Product harvested and registered on blockchain\" */\n      mload(0x40)\n      dup1\n      0x60\n      add\n      0x40\n      mstore\n      dup1\n      0x2e\n      dup2\n      mstore\n      0x20\n      add\n      data_1226666703af27f64f82d0e5c2a4b4b54cb6d56ca6a543a6ff168a1b8128db96\n      0x2e\n      swap2\n      codecopy\n        /* \"codes/FoodTraceability.sol\":5722:5734  traceHistory */\n      0x01\n        /* \"codes/FoodTraceability.sol\":5735:5743  _batchId */\n      dup8\n        /* \"codes/FoodTraceability.sol\":5722:5744  traceHistory[_batchId] */\n      mload(0x40)\n      tag_249\n      swap2\n      swap1\n      tag_83\n      jump\t// in\n    tag_249:\n      swap1\n      dup2\n      mstore\n      0x20\n      add\n      mload(0x40)\n      dup1\n      swap2\n      sub\n      swap1\n      keccak256\n        /* \"codes/FoodTraceability.sol\":5745:5754  lastIndex */\n      dup3\n        /* \"codes/FoodTraceability.sol\":5722:5755  traceHistory[_batchId][lastIndex] */\n      dup2\n      sload\n      dup2\n      lt\n      tag_250\n      jumpi\n      tag_251\n      tag_119\n      jump\t// in\n    tag_251:\n    tag_250:\n      swap1\n      0x00\n      mstore\n      keccak256(0x00, 0x20)\n      swap1\n      0x06\n      mul\n      add\n        /* \"codes/FoodTraceability.sol\":5722:5762  traceHistory[_batchId][lastIndex].action */\n      0x03\n      add\n        /* \"codes/FoodTraceability.sol\":5722:5813  traceHistory[_batchId][lastIndex].action = \"Product harvested and registered on blockchain\" */\n      swap1\n      dup2\n      tag_253\n      swap2\n      swap1\n      tag_132\n      jump\t// in\n    tag_253:\n      pop\n        /* \"codes/FoodTraceability.sol\":5871:5874  250 */\n      0xfa\n        /* \"codes/FoodTraceability.sol\":5823:5835  traceHistory */\n      0x01\n        /* \"codes/FoodTraceability.sol\":5836:5844  _batchId */\n      dup8\n        /* \"codes/FoodTraceability.sol\":5823:5845  traceHistory[_batchId] */\n      mload(0x40)\n      tag_254\n      swap2\n      swap1\n      tag_83\n      jump\t// in\n    tag_254:\n      swap1\n      dup2\n      mstore\n      0x20\n      add\n      mload(0x40)\n      dup1\n      swap2\n      sub\n      swap1\n      keccak256\n        /* \"codes/FoodTraceability.sol\":5846:5855  lastIndex */\n      dup3\n        /* \"codes/FoodTraceability.sol\":5823:5856  traceHistory[_batchId][lastIndex] */\n      dup2\n      sload\n      dup2\n      lt\n      tag_255\n      jumpi\n      tag_256\n      tag_119\n      jump\t// in\n    tag_256:\n    tag_255:\n      swap1\n      0x00\n      mstore\n      keccak256(0x00, 0x20)\n      swap1\n      0x06\n      mul\n      add\n        /* \"codes/FoodTraceability.sol\":5823:5868  traceHistory[_batchId][lastIndex].temperature */\n      0x04\n      add\n        /* \"codes/FoodTraceability.sol\":5823:5874  traceHistory[_batchId][lastIndex].temperature = 250 */\n      dup2\n      swap1\n      sstore\n      pop\n        /* \"codes/FoodTraceability.sol\":5948:5963  block.timestamp */\n      timestamp\n        /* \"codes/FoodTraceability.sol\":5902:5914  traceHistory */\n      0x01\n        /* \"codes/FoodTraceability.sol\":5915:5923  _batchId */\n      dup8\n        /* \"codes/FoodTraceability.sol\":5902:5924  traceHistory[_batchId] */\n      mload(0x40)\n      tag_258\n      swap2\n      swap1\n      tag_83\n      jump\t// in\n    tag_258:\n      swap1\n      dup2\n      mstore\n      0x20\n      add\n      mload(0x40)\n      dup1\n      swap2\n      sub\n      swap1\n      keccak256\n        /* \"codes/FoodTraceability.sol\":5925:5934  lastIndex */\n      dup3\n        /* \"codes/FoodTraceability.sol\":5902:5935  traceHistory[_batchId][lastIndex] */\n      dup2\n      sload\n      dup2\n      lt\n      tag_259\n      jumpi\n      tag_260\n      tag_119\n      jump\t// in\n    tag_260:\n    tag_259:\n      swap1\n      0x00\n      mstore\n      keccak256(0x00, 0x20)\n      swap1\n      0x06\n      mul\n      add\n        /* \"codes/FoodTraceability.sol\":5902:5945  traceHistory[_batchId][lastIndex].timestamp */\n      0x05\n      add\n        /* \"codes/FoodTraceability.sol\":5902:5963  traceHistory[_batchId][lastIndex].timestamp = block.timestamp */\n      dup2\n      swap1\n      sstore\n      pop\n        /* \"codes/FoodTraceability.sol\":5995:6003  _batchId */\n      dup6\n        /* \"codes/FoodTraceability.sol\":5979:6030  BatchRegistered(_batchId, _productName, msg.sender) */\n      mload(0x40)\n      tag_262\n      swap2\n      swap1\n      tag_83\n      jump\t// in\n    tag_262:\n      mload(0x40)\n      dup1\n      swap2\n      sub\n      swap1\n      keccak256\n      0xe187ef62f610f162883fdada619504c09c0981be2dc09fbc1029e7a09db45a93\n        /* \"codes/FoodTraceability.sol\":6005:6017  _productName */\n      dup7\n        /* \"codes/FoodTraceability.sol\":6019:6029  msg.sender */\n      caller\n        /* \"codes/FoodTraceability.sol\":5979:6030  BatchRegistered(_batchId, _productName, msg.sender) */\n      mload(0x40)\n      tag_263\n      swap3\n      swap2\n      swap1\n      tag_264\n      jump\t// in\n    tag_263:\n      mload(0x40)\n      dup1\n      swap2\n      sub\n      swap1\n      log2\n        /* \"codes/FoodTraceability.sol\":6057:6065  _batchId */\n      dup6\n        /* \"codes/FoodTraceability.sol\":6045:6145  RecordAdded(_batchId, msg.sender, \"Product harvested and registered on blockchain\", block.timestamp) */\n      mload(0x40)\n      tag_265\n      swap2\n      swap1\n      tag_83\n      jump\t// in\n    tag_265:\n      mload(0x40)\n      dup1\n      swap2\n      sub\n      swap1\n      keccak256\n      0x6ab2ce4a47bf01ae08a862a18f5e8b1faf85f05c105bbb0298a7c831859da5e3\n        /* \"codes/FoodTraceability.sol\":6067:6077  msg.sender */\n      caller\n        /* \"codes/FoodTraceability.sol\":6129:6144  block.timestamp */\n      timestamp\n        /* \"codes/FoodTraceability.sol\":6045:6145  RecordAdded(_batchId, msg.sender, \"Product harvested and registered on blockchain\", block.timestamp) */\n      mload(0x40)\n      tag_266\n      swap3\n      swap2\n      swap1\n      tag_267\n      jump\t// in\n    tag_266:\n      mload(0x40)\n      dup1\n      swap2\n      sub\n      swap1\n      log2\n        /* \"codes/FoodTraceability.sol\":4720:6152  {... */\n      pop\n        /* \"codes/FoodTraceability.sol\":4526:6152  function registerBatch(... */\n      pop\n      pop\n      pop\n      pop\n      pop\n      jump\t// out\n        /* \"codes/FoodTraceability.sol\":8170:8399  function getBatchInfo(string memory _batchId)... */\n    tag_69:\n        /* \"codes/FoodTraceability.sol\":8255:8271  FoodBatch memory */\n      tag_268\n      tag_269\n      jump\t// in\n    tag_268:\n        /* \"codes/FoodTraceability.sol\":8337:8338  0 */\n      0x00\n        /* \"codes/FoodTraceability.sol\":8301:8308  batches */\n      0x00\n        /* \"codes/FoodTraceability.sol\":8309:8317  _batchId */\n      dup4\n        /* \"codes/FoodTraceability.sol\":8301:8318  batches[_batchId] */\n      mload(0x40)\n      tag_271\n      swap2\n      swap1\n      tag_83\n      jump\t// in\n    tag_271:\n      swap1\n      dup2\n      mstore\n      0x20\n      add\n      mload(0x40)\n      dup1\n      swap2\n      sub\n      swap1\n      keccak256\n        /* \"codes/FoodTraceability.sol\":8301:8326  batches[_batchId].batchId */\n      0x00\n      add\n        /* \"codes/FoodTraceability.sol\":8295:8334  bytes(batches[_batchId].batchId).length */\n      dup1\n      sload\n      tag_272\n      swap1\n      tag_156\n      jump\t// in\n    tag_272:\n      swap1\n      pop\n        /* \"codes/FoodTraceability.sol\":8295:8338  bytes(batches[_batchId].batchId).length > 0 */\n      gt\n        /* \"codes/FoodTraceability.sol\":8287:8358  require(bytes(batches[_batchId].batchId).length > 0, \"Batch not found\") */\n      tag_273\n      jumpi\n      mload(0x40)\n      0x08c379a000000000000000000000000000000000000000000000000000000000\n      dup2\n      mstore\n      0x04\n      add\n      tag_274\n      swap1\n      tag_159\n      jump\t// in\n    tag_274:\n      mload(0x40)\n      dup1\n      swap2\n      sub\n      swap1\n      revert\n    tag_273:\n        /* \"codes/FoodTraceability.sol\":8375:8382  batches */\n      0x00\n        /* \"codes/FoodTraceability.sol\":8383:8391  _batchId */\n      dup3\n        /* \"codes/FoodTraceability.sol\":8375:8392  batches[_batchId] */\n      mload(0x40)\n      tag_275\n      swap2\n      swap1\n      tag_83\n      jump\t// in\n    tag_275:\n      swap1\n      dup2\n      mstore\n      0x20\n      add\n      mload(0x40)\n      dup1\n      swap2\n      sub\n      swap1\n      keccak256\n        /* \"codes/FoodTraceability.sol\":8368:8392  return batches[_batchId] */\n      mload(0x40)\n      dup1\n      0xc0\n      add\n      0x40\n      mstore\n      swap1\n      dup2\n      0x00\n      dup3\n      add\n      dup1\n      sload\n      tag_276\n      swap1\n      tag_156\n      jump\t// in\n    tag_276:\n      dup1\n      0x1f\n      add\n      0x20\n      dup1\n      swap2\n      div\n      mul\n      0x20\n      add\n      mload(0x40)\n      swap1\n      dup2\n      add\n      0x40\n      mstore\n      dup1\n      swap3\n      swap2\n      swap1\n      dup2\n      dup2\n      mstore\n      0x20\n      add\n      dup3\n      dup1\n      sload\n      tag_277\n      swap1\n      tag_156\n      jump\t// in\n    tag_277:\n      dup1\n      iszero\n      tag_278\n      jumpi\n      dup1\n      0x1f\n      lt\n      tag_279\n      jumpi\n      0x0100\n      dup1\n      dup4\n      sload\n      div\n      mul\n      dup4\n      mstore\n      swap2\n      0x20\n      add\n      swap2\n      jump(tag_278)\n    tag_279:\n      dup3\n      add\n      swap2\n      swap1\n      0x00\n      mstore\n      keccak256(0x00, 0x20)\n      swap1\n    tag_280:\n      dup2\n      sload\n      dup2\n      mstore\n      swap1\n      0x01\n      add\n      swap1\n      0x20\n      add\n      dup1\n      dup4\n      gt\n      tag_280\n      jumpi\n      dup3\n      swap1\n      sub\n      0x1f\n      and\n      dup3\n      add\n      swap2\n    tag_278:\n      pop\n      pop\n      pop\n      pop\n      pop\n      dup2\n      mstore\n      0x20\n      add\n      0x01\n      dup3\n      add\n      dup1\n      sload\n      tag_281\n      swap1\n      tag_156\n      jump\t// in\n    tag_281:\n      dup1\n      0x1f\n      add\n      0x20\n      dup1\n      swap2\n      div\n      mul\n      0x20\n      add\n      mload(0x40)\n      swap1\n      dup2\n      add\n      0x40\n      mstore\n      dup1\n      swap3\n      swap2\n      swap1\n      dup2\n      dup2\n      mstore\n      0x20\n      add\n      dup3\n      dup1\n      sload\n      tag_282\n      swap1\n      tag_156\n      jump\t// in\n    tag_282:\n      dup1\n      iszero\n      tag_283\n      jumpi\n      dup1\n      0x1f\n      lt\n      tag_284\n      jumpi\n      0x0100\n      dup1\n      dup4\n      sload\n      div\n      mul\n      dup4\n      mstore\n      swap2\n      0x20\n      add\n      swap2\n      jump(tag_283)\n    tag_284:\n      dup3\n      add\n      swap2\n      swap1\n      0x00\n      mstore\n      keccak256(0x00, 0x20)\n      swap1\n    tag_285:\n      dup2\n      sload\n      dup2\n      mstore\n      swap1\n      0x01\n      add\n      swap1\n      0x20\n      add\n      dup1\n      dup4\n      gt\n      tag_285\n      jumpi\n      dup3\n      swap1\n      sub\n      0x1f\n      and\n      dup3\n      add\n      swap2\n    tag_283:\n      pop\n      pop\n      pop\n      pop\n      pop\n      dup2\n      mstore\n      0x20\n      add\n      0x02\n      dup3\n      add\n      dup1\n      sload\n      tag_286\n      swap1\n      tag_156\n      jump\t// in\n    tag_286:\n      dup1\n      0x1f\n      add\n      0x20\n      dup1\n      swap2\n      div\n      mul\n      0x20\n      add\n      mload(0x40)\n      swap1\n      dup2\n      add\n      0x40\n      mstore\n      dup1\n      swap3\n      swap2\n      swap1\n      dup2\n      dup2\n      mstore\n      0x20\n      add\n      dup3\n      dup1\n      sload\n      tag_287\n      swap1\n      tag_156\n      jump\t// in\n    tag_287:\n      dup1\n      iszero\n      tag_288\n      jumpi\n      dup1\n      0x1f\n      lt\n      tag_289\n      jumpi\n      0x0100\n      dup1\n      dup4\n      sload\n      div\n      mul\n      dup4\n      mstore\n      swap2\n      0x20\n      add\n      swap2\n      jump(tag_288)\n    tag_289:\n      dup3\n      add\n      swap2\n      swap1\n      0x00\n      mstore\n      keccak256(0x00, 0x20)\n      swap1\n    tag_290:\n      dup2\n      sload\n      dup2\n      mstore\n      swap1\n      0x01\n      add\n      swap1\n      0x20\n      add\n      dup1\n      dup4\n      gt\n      tag_290\n      jumpi\n      dup3\n      swap1\n      sub\n      0x1f\n      and\n      dup3\n      add\n      swap2\n    tag_288:\n      pop\n      pop\n      pop\n      pop\n      pop\n      dup2\n      mstore\n      0x20\n      add\n      0x03\n      dup3\n      add\n      sload\n      dup2\n      mstore\n      0x20\n      add\n      0x04\n      dup3\n      add\n      0x00\n      swap1\n      sload\n      swap1\n      0x0100\n      exp\n      swap1\n      div\n      0xffffffffffffffffffffffffffffffffffffffff\n      and\n      0xffffffffffffffffffffffffffffffffffffffff\n      and\n      0xffffffffffffffffffffffffffffffffffffffff\n      and\n      dup2\n      mstore\n      0x20\n      add\n      0x04\n      dup3\n      add\n      0x14\n      swap1\n      sload\n      swap1\n      0x0100\n      exp\n      swap1\n      div\n      0xff\n      and\n      iszero\n      iszero\n      iszero\n      iszero\n      dup2\n      mstore\n      pop\n      pop\n      swap1\n      pop\n        /* \"codes/FoodTraceability.sol\":8170:8399  function getBatchInfo(string memory _batchId)... */\n      swap2\n      swap1\n      pop\n      jump\t// out\n    tag_269:\n      mload(0x40)\n      dup1\n      0xc0\n      add\n      0x40\n      mstore\n      dup1\n      0x60\n      dup2\n      mstore\n      0x20\n      add\n      0x60\n      dup2\n      mstore\n      0x20\n      add\n      0x60\n      dup2\n      mstore\n      0x20\n      add\n      0x00\n      dup2\n      mstore\n      0x20\n      add\n      and(0xffffffffffffffffffffffffffffffffffffffff, 0x00)\n      dup2\n      mstore\n      0x20\n      add\n      iszero(iszero(0x00))\n      dup2\n      mstore\n      pop\n      swap1\n      jump\t// out\n        /* \"#utility.yul\":7:82   */\n    tag_291:\n        /* \"#utility.yul\":40:46   */\n      0x00\n        /* \"#utility.yul\":73:75   */\n      0x40\n        /* \"#utility.yul\":67:76   */\n      mload\n        /* \"#utility.yul\":57:76   */\n      swap1\n      pop\n        /* \"#utility.yul\":7:82   */\n      swap1\n      jump\t// out\n        /* \"#utility.yul\":88:205   */\n    tag_292:\n        /* \"#utility.yul\":197:198   */\n      0x00\n        /* \"#utility.yul\":194:195   */\n      0x00\n        /* \"#utility.yul\":187:199   */\n      revert\n        /* \"#utility.yul\":211:328   */\n    tag_293:\n        /* \"#utility.yul\":320:321   */\n      0x00\n        /* \"#utility.yul\":317:318   */\n      0x00\n        /* \"#utility.yul\":310:322   */\n      revert\n        /* \"#utility.yul\":334:451   */\n    tag_294:\n        /* \"#utility.yul\":443:444   */\n      0x00\n        /* \"#utility.yul\":440:441   */\n      0x00\n        /* \"#utility.yul\":433:445   */\n      revert\n        /* \"#utility.yul\":457:574   */\n    tag_295:\n        /* \"#utility.yul\":566:567   */\n      0x00\n        /* \"#utility.yul\":563:564   */\n      0x00\n        /* \"#utility.yul\":556:568   */\n      revert\n        /* \"#utility.yul\":580:682   */\n    tag_296:\n        /* \"#utility.yul\":621:627   */\n      0x00\n        /* \"#utility.yul\":672:674   */\n      0x1f\n        /* \"#utility.yul\":668:675   */\n      not\n        /* \"#utility.yul\":663:665   */\n      0x1f\n        /* \"#utility.yul\":656:661   */\n      dup4\n        /* \"#utility.yul\":652:666   */\n      add\n        /* \"#utility.yul\":648:676   */\n      and\n        /* \"#utility.yul\":638:676   */\n      swap1\n      pop\n        /* \"#utility.yul\":580:682   */\n      swap2\n      swap1\n      pop\n      jump\t// out\n        /* \"#utility.yul\":688:868   */\n    tag_297:\n        /* \"#utility.yul\":736:813   */\n      0x4e487b7100000000000000000000000000000000000000000000000000000000\n        /* \"#utility.yul\":733:734   */\n      0x00\n        /* \"#utility.yul\":726:814   */\n      mstore\n        /* \"#utility.yul\":833:837   */\n      0x41\n        /* \"#utility.yul\":830:831   */\n      0x04\n        /* \"#utility.yul\":823:838   */\n      mstore\n        /* \"#utility.yul\":857:861   */\n      0x24\n        /* \"#utility.yul\":854:855   */\n      0x00\n        /* \"#utility.yul\":847:862   */\n      revert\n        /* \"#utility.yul\":874:1155   */\n    tag_298:\n        /* \"#utility.yul\":957:984   */\n      tag_389\n        /* \"#utility.yul\":979:983   */\n      dup3\n        /* \"#utility.yul\":957:984   */\n      tag_296\n      jump\t// in\n    tag_389:\n        /* \"#utility.yul\":949:955   */\n      dup2\n        /* \"#utility.yul\":945:985   */\n      add\n        /* \"#utility.yul\":1087:1093   */\n      dup2\n        /* \"#utility.yul\":1075:1085   */\n      dup2\n        /* \"#utility.yul\":1072:1094   */\n      lt\n        /* \"#utility.yul\":1051:1069   */\n      0xffffffffffffffff\n        /* \"#utility.yul\":1039:1049   */\n      dup3\n        /* \"#utility.yul\":1036:1070   */\n      gt\n        /* \"#utility.yul\":1033:1095   */\n      or\n        /* \"#utility.yul\":1030:1118   */\n      iszero\n      tag_390\n      jumpi\n        /* \"#utility.yul\":1098:1116   */\n      tag_391\n      tag_297\n      jump\t// in\n    tag_391:\n        /* \"#utility.yul\":1030:1118   */\n    tag_390:\n        /* \"#utility.yul\":1138:1148   */\n      dup1\n        /* \"#utility.yul\":1134:1136   */\n      0x40\n        /* \"#utility.yul\":1127:1149   */\n      mstore\n        /* \"#utility.yul\":917:1155   */\n      pop\n        /* \"#utility.yul\":874:1155   */\n      pop\n      pop\n      jump\t// out\n        /* \"#utility.yul\":1161:1290   */\n    tag_299:\n        /* \"#utility.yul\":1195:1201   */\n      0x00\n        /* \"#utility.yul\":1222:1242   */\n      tag_393\n      tag_291\n      jump\t// in\n    tag_393:\n        /* \"#utility.yul\":1212:1242   */\n      swap1\n      pop\n        /* \"#utility.yul\":1251:1284   */\n      tag_394\n        /* \"#utility.yul\":1279:1283   */\n      dup3\n        /* \"#utility.yul\":1271:1277   */\n      dup3\n        /* \"#utility.yul\":1251:1284   */\n      tag_298\n      jump\t// in\n    tag_394:\n        /* \"#utility.yul\":1161:1290   */\n      swap2\n      swap1\n      pop\n      jump\t// out\n        /* \"#utility.yul\":1296:1604   */\n    tag_300:\n        /* \"#utility.yul\":1358:1362   */\n      0x00\n        /* \"#utility.yul\":1448:1466   */\n      0xffffffffffffffff\n        /* \"#utility.yul\":1440:1446   */\n      dup3\n        /* \"#utility.yul\":1437:1467   */\n      gt\n        /* \"#utility.yul\":1434:1490   */\n      iszero\n      tag_396\n      jumpi\n        /* \"#utility.yul\":1470:1488   */\n      tag_397\n      tag_297\n      jump\t// in\n    tag_397:\n        /* \"#utility.yul\":1434:1490   */\n    tag_396:\n        /* \"#utility.yul\":1508:1537   */\n      tag_398\n        /* \"#utility.yul\":1530:1536   */\n      dup3\n        /* \"#utility.yul\":1508:1537   */\n      tag_296\n      jump\t// in\n    tag_398:\n        /* \"#utility.yul\":1500:1537   */\n      swap1\n      pop\n        /* \"#utility.yul\":1592:1596   */\n      0x20\n        /* \"#utility.yul\":1586:1590   */\n      dup2\n        /* \"#utility.yul\":1582:1597   */\n      add\n        /* \"#utility.yul\":1574:1597   */\n      swap1\n      pop\n        /* \"#utility.yul\":1296:1604   */\n      swap2\n      swap1\n      pop\n      jump\t// out\n        /* \"#utility.yul\":1610:1758   */\n    tag_301:\n        /* \"#utility.yul\":1708:1714   */\n      dup3\n        /* \"#utility.yul\":1703:1706   */\n      dup2\n        /* \"#utility.yul\":1698:1701   */\n      dup4\n        /* \"#utility.yul\":1685:1715   */\n      calldatacopy\n        /* \"#utility.yul\":1749:1750   */\n      0x00\n        /* \"#utility.yul\":1740:1746   */\n      dup4\n        /* \"#utility.yul\":1735:1738   */\n      dup4\n        /* \"#utility.yul\":1731:1747   */\n      add\n        /* \"#utility.yul\":1724:1751   */\n      mstore\n        /* \"#utility.yul\":1610:1758   */\n      pop\n      pop\n      pop\n      jump\t// out\n        /* \"#utility.yul\":1764:2189   */\n    tag_302:\n        /* \"#utility.yul\":1842:1847   */\n      0x00\n        /* \"#utility.yul\":1867:1933   */\n      tag_401\n        /* \"#utility.yul\":1883:1932   */\n      tag_402\n        /* \"#utility.yul\":1925:1931   */\n      dup5\n        /* \"#utility.yul\":1883:1932   */\n      tag_300\n      jump\t// in\n    tag_402:\n        /* \"#utility.yul\":1867:1933   */\n      tag_299\n      jump\t// in\n    tag_401:\n        /* \"#utility.yul\":1858:1933   */\n      swap1\n      pop\n        /* \"#utility.yul\":1956:1962   */\n      dup3\n        /* \"#utility.yul\":1949:1954   */\n      dup2\n        /* \"#utility.yul\":1942:1963   */\n      mstore\n        /* \"#utility.yul\":1994:1998   */\n      0x20\n        /* \"#utility.yul\":1987:1992   */\n      dup2\n        /* \"#utility.yul\":1983:1999   */\n      add\n        /* \"#utility.yul\":2032:2035   */\n      dup5\n        /* \"#utility.yul\":2023:2029   */\n      dup5\n        /* \"#utility.yul\":2018:2021   */\n      dup5\n        /* \"#utility.yul\":2014:2030   */\n      add\n        /* \"#utility.yul\":2011:2036   */\n      gt\n        /* \"#utility.yul\":2008:2120   */\n      iszero\n      tag_403\n      jumpi\n        /* \"#utility.yul\":2039:2118   */\n      tag_404\n      tag_295\n      jump\t// in\n    tag_404:\n        /* \"#utility.yul\":2008:2120   */\n    tag_403:\n        /* \"#utility.yul\":2129:2183   */\n      tag_405\n        /* \"#utility.yul\":2176:2182   */\n      dup5\n        /* \"#utility.yul\":2171:2174   */\n      dup3\n        /* \"#utility.yul\":2166:2169   */\n      dup6\n        /* \"#utility.yul\":2129:2183   */\n      tag_301\n      jump\t// in\n    tag_405:\n        /* \"#utility.yul\":1848:2189   */\n      pop\n        /* \"#utility.yul\":1764:2189   */\n      swap4\n      swap3\n      pop\n      pop\n      pop\n      jump\t// out\n        /* \"#utility.yul\":2209:2549   */\n    tag_303:\n        /* \"#utility.yul\":2265:2270   */\n      0x00\n        /* \"#utility.yul\":2314:2317   */\n      dup3\n        /* \"#utility.yul\":2307:2311   */\n      0x1f\n        /* \"#utility.yul\":2299:2305   */\n      dup4\n        /* \"#utility.yul\":2295:2312   */\n      add\n        /* \"#utility.yul\":2291:2318   */\n      slt\n        /* \"#utility.yul\":2281:2403   */\n      tag_407\n      jumpi\n        /* \"#utility.yul\":2322:2401   */\n      tag_408\n      tag_294\n      jump\t// in\n    tag_408:\n        /* \"#utility.yul\":2281:2403   */\n    tag_407:\n        /* \"#utility.yul\":2439:2445   */\n      dup2\n        /* \"#utility.yul\":2426:2446   */\n      calldataload\n        /* \"#utility.yul\":2464:2543   */\n      tag_409\n        /* \"#utility.yul\":2539:2542   */\n      dup5\n        /* \"#utility.yul\":2531:2537   */\n      dup3\n        /* \"#utility.yul\":2524:2528   */\n      0x20\n        /* \"#utility.yul\":2516:2522   */\n      dup7\n        /* \"#utility.yul\":2512:2529   */\n      add\n        /* \"#utility.yul\":2464:2543   */\n      tag_302\n      jump\t// in\n    tag_409:\n        /* \"#utility.yul\":2455:2543   */\n      swap2\n      pop\n        /* \"#utility.yul\":2271:2549   */\n      pop\n        /* \"#utility.yul\":2209:2549   */\n      swap3\n      swap2\n      pop\n      pop\n      jump\t// out\n        /* \"#utility.yul\":2555:3064   */\n    tag_18:\n        /* \"#utility.yul\":2624:2630   */\n      0x00\n        /* \"#utility.yul\":2673:2675   */\n      0x20\n        /* \"#utility.yul\":2661:2670   */\n      dup3\n        /* \"#utility.yul\":2652:2659   */\n      dup5\n        /* \"#utility.yul\":2648:2671   */\n      sub\n        /* \"#utility.yul\":2644:2676   */\n      slt\n        /* \"#utility.yul\":2641:2760   */\n      iszero\n      tag_411\n      jumpi\n        /* \"#utility.yul\":2679:2758   */\n      tag_412\n      tag_292\n      jump\t// in\n    tag_412:\n        /* \"#utility.yul\":2641:2760   */\n    tag_411:\n        /* \"#utility.yul\":2827:2828   */\n      0x00\n        /* \"#utility.yul\":2816:2825   */\n      dup3\n        /* \"#utility.yul\":2812:2829   */\n      add\n        /* \"#utility.yul\":2799:2830   */\n      calldataload\n        /* \"#utility.yul\":2857:2875   */\n      0xffffffffffffffff\n        /* \"#utility.yul\":2849:2855   */\n      dup2\n        /* \"#utility.yul\":2846:2876   */\n      gt\n        /* \"#utility.yul\":2843:2960   */\n      iszero\n      tag_413\n      jumpi\n        /* \"#utility.yul\":2879:2958   */\n      tag_414\n      tag_293\n      jump\t// in\n    tag_414:\n        /* \"#utility.yul\":2843:2960   */\n    tag_413:\n        /* \"#utility.yul\":2984:3047   */\n      tag_415\n        /* \"#utility.yul\":3039:3046   */\n      dup5\n        /* \"#utility.yul\":3030:3036   */\n      dup3\n        /* \"#utility.yul\":3019:3028   */\n      dup6\n        /* \"#utility.yul\":3015:3037   */\n      add\n        /* \"#utility.yul\":2984:3047   */\n      tag_303\n      jump\t// in\n    tag_415:\n        /* \"#utility.yul\":2974:3047   */\n      swap2\n      pop\n        /* \"#utility.yul\":2770:3057   */\n      pop\n        /* \"#utility.yul\":2555:3064   */\n      swap3\n      swap2\n      pop\n      pop\n      jump\t// out\n        /* \"#utility.yul\":3070:3196   */\n    tag_304:\n        /* \"#utility.yul\":3107:3114   */\n      0x00\n        /* \"#utility.yul\":3147:3189   */\n      0xffffffffffffffffffffffffffffffffffffffff\n        /* \"#utility.yul\":3140:3145   */\n      dup3\n        /* \"#utility.yul\":3136:3190   */\n      and\n        /* \"#utility.yul\":3125:3190   */\n      swap1\n      pop\n        /* \"#utility.yul\":3070:3196   */\n      swap2\n      swap1\n      pop\n      jump\t// out\n        /* \"#utility.yul\":3202:3298   */\n    tag_305:\n        /* \"#utility.yul\":3239:3246   */\n      0x00\n        /* \"#utility.yul\":3268:3292   */\n      tag_418\n        /* \"#utility.yul\":3286:3291   */\n      dup3\n        /* \"#utility.yul\":3268:3292   */\n      tag_304\n      jump\t// in\n    tag_418:\n        /* \"#utility.yul\":3257:3292   */\n      swap1\n      pop\n        /* \"#utility.yul\":3202:3298   */\n      swap2\n      swap1\n      pop\n      jump\t// out\n        /* \"#utility.yul\":3304:3426   */\n    tag_306:\n        /* \"#utility.yul\":3377:3401   */\n      tag_420\n        /* \"#utility.yul\":3395:3400   */\n      dup2\n        /* \"#utility.yul\":3377:3401   */\n      tag_305\n      jump\t// in\n    tag_420:\n        /* \"#utility.yul\":3370:3375   */\n      dup2\n        /* \"#utility.yul\":3367:3402   */\n      eq\n        /* \"#utility.yul\":3357:3420   */\n      tag_421\n      jumpi\n        /* \"#utility.yul\":3416:3417   */\n      0x00\n        /* \"#utility.yul\":3413:3414   */\n      0x00\n        /* \"#utility.yul\":3406:3418   */\n      revert\n        /* \"#utility.yul\":3357:3420   */\n    tag_421:\n        /* \"#utility.yul\":3304:3426   */\n      pop\n      jump\t// out\n        /* \"#utility.yul\":3432:3571   */\n    tag_307:\n        /* \"#utility.yul\":3478:3483   */\n      0x00\n        /* \"#utility.yul\":3516:3522   */\n      dup2\n        /* \"#utility.yul\":3503:3523   */\n      calldataload\n        /* \"#utility.yul\":3494:3523   */\n      swap1\n      pop\n        /* \"#utility.yul\":3532:3565   */\n      tag_423\n        /* \"#utility.yul\":3559:3564   */\n      dup2\n        /* \"#utility.yul\":3532:3565   */\n      tag_306\n      jump\t// in\n    tag_423:\n        /* \"#utility.yul\":3432:3571   */\n      swap3\n      swap2\n      pop\n      pop\n      jump\t// out\n        /* \"#utility.yul\":3577:3906   */\n    tag_22:\n        /* \"#utility.yul\":3636:3642   */\n      0x00\n        /* \"#utility.yul\":3685:3687   */\n      0x20\n        /* \"#utility.yul\":3673:3682   */\n      dup3\n        /* \"#utility.yul\":3664:3671   */\n      dup5\n        /* \"#utility.yul\":3660:3683   */\n      sub\n        /* \"#utility.yul\":3656:3688   */\n      slt\n        /* \"#utility.yul\":3653:3772   */\n      iszero\n      tag_425\n      jumpi\n        /* \"#utility.yul\":3691:3770   */\n      tag_426\n      tag_292\n      jump\t// in\n    tag_426:\n        /* \"#utility.yul\":3653:3772   */\n    tag_425:\n        /* \"#utility.yul\":3811:3812   */\n      0x00\n        /* \"#utility.yul\":3836:3889   */\n      tag_427\n        /* \"#utility.yul\":3881:3888   */\n      dup5\n        /* \"#utility.yul\":3872:3878   */\n      dup3\n        /* \"#utility.yul\":3861:3870   */\n      dup6\n        /* \"#utility.yul\":3857:3879   */\n      add\n        /* \"#utility.yul\":3836:3889   */\n      tag_307\n      jump\t// in\n    tag_427:\n        /* \"#utility.yul\":3826:3889   */\n      swap2\n      pop\n        /* \"#utility.yul\":3782:3899   */\n      pop\n        /* \"#utility.yul\":3577:3906   */\n      swap3\n      swap2\n      pop\n      pop\n      jump\t// out\n        /* \"#utility.yul\":3912:4092   */\n    tag_75:\n        /* \"#utility.yul\":3960:4037   */\n      0x4e487b7100000000000000000000000000000000000000000000000000000000\n        /* \"#utility.yul\":3957:3958   */\n      0x00\n        /* \"#utility.yul\":3950:4038   */\n      mstore\n        /* \"#utility.yul\":4057:4061   */\n      0x21\n        /* \"#utility.yul\":4054:4055   */\n      0x04\n        /* \"#utility.yul\":4047:4062   */\n      mstore\n        /* \"#utility.yul\":4081:4085   */\n      0x24\n        /* \"#utility.yul\":4078:4079   */\n      0x00\n        /* \"#utility.yul\":4071:4086   */\n      revert\n        /* \"#utility.yul\":4098:4209   */\n    tag_308:\n        /* \"#utility.yul\":4177:4178   */\n      0x06\n        /* \"#utility.yul\":4170:4175   */\n      dup2\n        /* \"#utility.yul\":4167:4179   */\n      lt\n        /* \"#utility.yul\":4157:4203   */\n      tag_430\n      jumpi\n        /* \"#utility.yul\":4183:4201   */\n      tag_431\n      tag_75\n      jump\t// in\n    tag_431:\n        /* \"#utility.yul\":4157:4203   */\n    tag_430:\n        /* \"#utility.yul\":4098:4209   */\n      pop\n      jump\t// out\n        /* \"#utility.yul\":4215:4338   */\n    tag_309:\n        /* \"#utility.yul\":4258:4265   */\n      0x00\n        /* \"#utility.yul\":4287:4292   */\n      dup2\n        /* \"#utility.yul\":4276:4292   */\n      swap1\n      pop\n        /* \"#utility.yul\":4293:4332   */\n      tag_433\n        /* \"#utility.yul\":4326:4331   */\n      dup3\n        /* \"#utility.yul\":4293:4332   */\n      tag_308\n      jump\t// in\n    tag_433:\n        /* \"#utility.yul\":4215:4338   */\n      swap2\n      swap1\n      pop\n      jump\t// out\n        /* \"#utility.yul\":4344:4467   */\n    tag_310:\n        /* \"#utility.yul\":4398:4407   */\n      0x00\n        /* \"#utility.yul\":4431:4461   */\n      tag_435\n        /* \"#utility.yul\":4455:4460   */\n      dup3\n        /* \"#utility.yul\":4431:4461   */\n      tag_309\n      jump\t// in\n    tag_435:\n        /* \"#utility.yul\":4418:4461   */\n      swap1\n      pop\n        /* \"#utility.yul\":4344:4467   */\n      swap2\n      swap1\n      pop\n      jump\t// out\n        /* \"#utility.yul\":4473:4612   */\n    tag_311:\n        /* \"#utility.yul\":4564:4605   */\n      tag_437\n        /* \"#utility.yul\":4599:4604   */\n      dup2\n        /* \"#utility.yul\":4564:4605   */\n      tag_310\n      jump\t// in\n    tag_437:\n        /* \"#utility.yul\":4559:4562   */\n      dup3\n        /* \"#utility.yul\":4552:4606   */\n      mstore\n        /* \"#utility.yul\":4473:4612   */\n      pop\n      pop\n      jump\t// out\n        /* \"#utility.yul\":4618:4848   */\n    tag_25:\n        /* \"#utility.yul\":4715:4719   */\n      0x00\n        /* \"#utility.yul\":4753:4755   */\n      0x20\n        /* \"#utility.yul\":4742:4751   */\n      dup3\n        /* \"#utility.yul\":4738:4756   */\n      add\n        /* \"#utility.yul\":4730:4756   */\n      swap1\n      pop\n        /* \"#utility.yul\":4766:4841   */\n      tag_439\n        /* \"#utility.yul\":4838:4839   */\n      0x00\n        /* \"#utility.yul\":4827:4836   */\n      dup4\n        /* \"#utility.yul\":4823:4840   */\n      add\n        /* \"#utility.yul\":4814:4820   */\n      dup5\n        /* \"#utility.yul\":4766:4841   */\n      tag_311\n      jump\t// in\n    tag_439:\n        /* \"#utility.yul\":4618:4848   */\n      swap3\n      swap2\n      pop\n      pop\n      jump\t// out\n        /* \"#utility.yul\":4854:4959   */\n    tag_312:\n        /* \"#utility.yul\":4933:4934   */\n      0x06\n        /* \"#utility.yul\":4926:4931   */\n      dup2\n        /* \"#utility.yul\":4923:4935   */\n      lt\n        /* \"#utility.yul\":4913:4953   */\n      tag_441\n      jumpi\n        /* \"#utility.yul\":4949:4950   */\n      0x00\n        /* \"#utility.yul\":4946:4947   */\n      0x00\n        /* \"#utility.yul\":4939:4951   */\n      revert\n        /* \"#utility.yul\":4913:4953   */\n    tag_441:\n        /* \"#utility.yul\":4854:4959   */\n      pop\n      jump\t// out\n        /* \"#utility.yul\":4965:5116   */\n    tag_313:\n        /* \"#utility.yul\":5017:5022   */\n      0x00\n        /* \"#utility.yul\":5055:5061   */\n      dup2\n        /* \"#utility.yul\":5042:5062   */\n      calldataload\n        /* \"#utility.yul\":5033:5062   */\n      swap1\n      pop\n        /* \"#utility.yul\":5071:5110   */\n      tag_443\n        /* \"#utility.yul\":5104:5109   */\n      dup2\n        /* \"#utility.yul\":5071:5110   */\n      tag_312\n      jump\t// in\n    tag_443:\n        /* \"#utility.yul\":4965:5116   */\n      swap3\n      swap2\n      pop\n      pop\n      jump\t// out\n        /* \"#utility.yul\":5122:5608   */\n    tag_28:\n        /* \"#utility.yul\":5196:5202   */\n      0x00\n        /* \"#utility.yul\":5204:5210   */\n      0x00\n        /* \"#utility.yul\":5253:5255   */\n      0x40\n        /* \"#utility.yul\":5241:5250   */\n      dup4\n        /* \"#utility.yul\":5232:5239   */\n      dup6\n        /* \"#utility.yul\":5228:5251   */\n      sub\n        /* \"#utility.yul\":5224:5256   */\n      slt\n        /* \"#utility.yul\":5221:5340   */\n      iszero\n      tag_445\n      jumpi\n        /* \"#utility.yul\":5259:5338   */\n      tag_446\n      tag_292\n      jump\t// in\n    tag_446:\n        /* \"#utility.yul\":5221:5340   */\n    tag_445:\n        /* \"#utility.yul\":5379:5380   */\n      0x00\n        /* \"#utility.yul\":5404:5457   */\n      tag_447\n        /* \"#utility.yul\":5449:5456   */\n      dup6\n        /* \"#utility.yul\":5440:5446   */\n      dup3\n        /* \"#utility.yul\":5429:5438   */\n      dup7\n        /* \"#utility.yul\":5425:5447   */\n      add\n        /* \"#utility.yul\":5404:5457   */\n      tag_307\n      jump\t// in\n    tag_447:\n        /* \"#utility.yul\":5394:5457   */\n      swap3\n      pop\n        /* \"#utility.yul\":5350:5467   */\n      pop\n        /* \"#utility.yul\":5506:5508   */\n      0x20\n        /* \"#utility.yul\":5532:5591   */\n      tag_448\n        /* \"#utility.yul\":5583:5590   */\n      dup6\n        /* \"#utility.yul\":5574:5580   */\n      dup3\n        /* \"#utility.yul\":5563:5572   */\n      dup7\n        /* \"#utility.yul\":5559:5581   */\n      add\n        /* \"#utility.yul\":5532:5591   */\n      tag_313\n      jump\t// in\n    tag_448:\n        /* \"#utility.yul\":5522:5591   */\n      swap2\n      pop\n        /* \"#utility.yul\":5477:5601   */\n      pop\n        /* \"#utility.yul\":5122:5608   */\n      swap3\n      pop\n      swap3\n      swap1\n      pop\n      jump\t// out\n        /* \"#utility.yul\":5614:5690   */\n    tag_314:\n        /* \"#utility.yul\":5650:5657   */\n      0x00\n        /* \"#utility.yul\":5679:5684   */\n      dup2\n        /* \"#utility.yul\":5668:5684   */\n      swap1\n      pop\n        /* \"#utility.yul\":5614:5690   */\n      swap2\n      swap1\n      pop\n      jump\t// out\n        /* \"#utility.yul\":5696:5816   */\n    tag_315:\n        /* \"#utility.yul\":5768:5791   */\n      tag_451\n        /* \"#utility.yul\":5785:5790   */\n      dup2\n        /* \"#utility.yul\":5768:5791   */\n      tag_314\n      jump\t// in\n    tag_451:\n        /* \"#utility.yul\":5761:5766   */\n      dup2\n        /* \"#utility.yul\":5758:5792   */\n      eq\n        /* \"#utility.yul\":5748:5810   */\n      tag_452\n      jumpi\n        /* \"#utility.yul\":5806:5807   */\n      0x00\n        /* \"#utility.yul\":5803:5804   */\n      0x00\n        /* \"#utility.yul\":5796:5808   */\n      revert\n        /* \"#utility.yul\":5748:5810   */\n    tag_452:\n        /* \"#utility.yul\":5696:5816   */\n      pop\n      jump\t// out\n        /* \"#utility.yul\":5822:5959   */\n    tag_316:\n        /* \"#utility.yul\":5867:5872   */\n      0x00\n        /* \"#utility.yul\":5905:5911   */\n      dup2\n        /* \"#utility.yul\":5892:5912   */\n      calldataload\n        /* \"#utility.yul\":5883:5912   */\n      swap1\n      pop\n        /* \"#utility.yul\":5921:5953   */\n      tag_454\n        /* \"#utility.yul\":5947:5952   */\n      dup2\n        /* \"#utility.yul\":5921:5953   */\n      tag_315\n      jump\t// in\n    tag_454:\n        /* \"#utility.yul\":5822:5959   */\n      swap3\n      swap2\n      pop\n      pop\n      jump\t// out\n        /* \"#utility.yul\":5965:7268   */\n    tag_32:\n        /* \"#utility.yul\":6080:6086   */\n      0x00\n        /* \"#utility.yul\":6088:6094   */\n      0x00\n        /* \"#utility.yul\":6096:6102   */\n      0x00\n        /* \"#utility.yul\":6104:6110   */\n      0x00\n        /* \"#utility.yul\":6153:6156   */\n      0x80\n        /* \"#utility.yul\":6141:6150   */\n      dup6\n        /* \"#utility.yul\":6132:6139   */\n      dup8\n        /* \"#utility.yul\":6128:6151   */\n      sub\n        /* \"#utility.yul\":6124:6157   */\n      slt\n        /* \"#utility.yul\":6121:6241   */\n      iszero\n      tag_456\n      jumpi\n        /* \"#utility.yul\":6160:6239   */\n      tag_457\n      tag_292\n      jump\t// in\n    tag_457:\n        /* \"#utility.yul\":6121:6241   */\n    tag_456:\n        /* \"#utility.yul\":6308:6309   */\n      0x00\n        /* \"#utility.yul\":6297:6306   */\n      dup6\n        /* \"#utility.yul\":6293:6310   */\n      add\n        /* \"#utility.yul\":6280:6311   */\n      calldataload\n        /* \"#utility.yul\":6338:6356   */\n      0xffffffffffffffff\n        /* \"#utility.yul\":6330:6336   */\n      dup2\n        /* \"#utility.yul\":6327:6357   */\n      gt\n        /* \"#utility.yul\":6324:6441   */\n      iszero\n      tag_458\n      jumpi\n        /* \"#utility.yul\":6360:6439   */\n      tag_459\n      tag_293\n      jump\t// in\n    tag_459:\n        /* \"#utility.yul\":6324:6441   */\n    tag_458:\n        /* \"#utility.yul\":6465:6528   */\n      tag_460\n        /* \"#utility.yul\":6520:6527   */\n      dup8\n        /* \"#utility.yul\":6511:6517   */\n      dup3\n        /* \"#utility.yul\":6500:6509   */\n      dup9\n        /* \"#utility.yul\":6496:6518   */\n      add\n        /* \"#utility.yul\":6465:6528   */\n      tag_303\n      jump\t// in\n    tag_460:\n        /* \"#utility.yul\":6455:6528   */\n      swap5\n      pop\n        /* \"#utility.yul\":6251:6538   */\n      pop\n        /* \"#utility.yul\":6605:6607   */\n      0x20\n        /* \"#utility.yul\":6594:6603   */\n      dup6\n        /* \"#utility.yul\":6590:6608   */\n      add\n        /* \"#utility.yul\":6577:6609   */\n      calldataload\n        /* \"#utility.yul\":6636:6654   */\n      0xffffffffffffffff\n        /* \"#utility.yul\":6628:6634   */\n      dup2\n        /* \"#utility.yul\":6625:6655   */\n      gt\n        /* \"#utility.yul\":6622:6739   */\n      iszero\n      tag_461\n      jumpi\n        /* \"#utility.yul\":6658:6737   */\n      tag_462\n      tag_293\n      jump\t// in\n    tag_462:\n        /* \"#utility.yul\":6622:6739   */\n    tag_461:\n        /* \"#utility.yul\":6763:6826   */\n      tag_463\n        /* \"#utility.yul\":6818:6825   */\n      dup8\n        /* \"#utility.yul\":6809:6815   */\n      dup3\n        /* \"#utility.yul\":6798:6807   */\n      dup9\n        /* \"#utility.yul\":6794:6816   */\n      add\n        /* \"#utility.yul\":6763:6826   */\n      tag_303\n      jump\t// in\n    tag_463:\n        /* \"#utility.yul\":6753:6826   */\n      swap4\n      pop\n        /* \"#utility.yul\":6548:6836   */\n      pop\n        /* \"#utility.yul\":6903:6905   */\n      0x40\n        /* \"#utility.yul\":6892:6901   */\n      dup6\n        /* \"#utility.yul\":6888:6906   */\n      add\n        /* \"#utility.yul\":6875:6907   */\n      calldataload\n        /* \"#utility.yul\":6934:6952   */\n      0xffffffffffffffff\n        /* \"#utility.yul\":6926:6932   */\n      dup2\n        /* \"#utility.yul\":6923:6953   */\n      gt\n        /* \"#utility.yul\":6920:7037   */\n      iszero\n      tag_464\n      jumpi\n        /* \"#utility.yul\":6956:7035   */\n      tag_465\n      tag_293\n      jump\t// in\n    tag_465:\n        /* \"#utility.yul\":6920:7037   */\n    tag_464:\n        /* \"#utility.yul\":7061:7124   */\n      tag_466\n        /* \"#utility.yul\":7116:7123   */\n      dup8\n        /* \"#utility.yul\":7107:7113   */\n      dup3\n        /* \"#utility.yul\":7096:7105   */\n      dup9\n        /* \"#utility.yul\":7092:7114   */\n      add\n        /* \"#utility.yul\":7061:7124   */\n      tag_303\n      jump\t// in\n    tag_466:\n        /* \"#utility.yul\":7051:7124   */\n      swap3\n      pop\n        /* \"#utility.yul\":6846:7134   */\n      pop\n        /* \"#utility.yul\":7173:7175   */\n      0x60\n        /* \"#utility.yul\":7199:7251   */\n      tag_467\n        /* \"#utility.yul\":7243:7250   */\n      dup8\n        /* \"#utility.yul\":7234:7240   */\n      dup3\n        /* \"#utility.yul\":7223:7232   */\n      dup9\n        /* \"#utility.yul\":7219:7241   */\n      add\n        /* \"#utility.yul\":7199:7251   */\n      tag_316\n      jump\t// in\n    tag_467:\n        /* \"#utility.yul\":7189:7251   */\n      swap2\n      pop\n        /* \"#utility.yul\":7144:7261   */\n      pop\n        /* \"#utility.yul\":5965:7268   */\n      swap3\n      swap6\n      swap2\n      swap5\n      pop\n      swap3\n      pop\n      jump\t// out\n        /* \"#utility.yul\":7274:7351   */\n    tag_317:\n        /* \"#utility.yul\":7311:7318   */\n      0x00\n        /* \"#utility.yul\":7340:7345   */\n      dup2\n        /* \"#utility.yul\":7329:7345   */\n      swap1\n      pop\n        /* \"#utility.yul\":7274:7351   */\n      swap2\n      swap1\n      pop\n      jump\t// out\n        /* \"#utility.yul\":7357:7475   */\n    tag_318:\n        /* \"#utility.yul\":7444:7468   */\n      tag_470\n        /* \"#utility.yul\":7462:7467   */\n      dup2\n        /* \"#utility.yul\":7444:7468   */\n      tag_317\n      jump\t// in\n    tag_470:\n        /* \"#utility.yul\":7439:7442   */\n      dup3\n        /* \"#utility.yul\":7432:7469   */\n      mstore\n        /* \"#utility.yul\":7357:7475   */\n      pop\n      pop\n      jump\t// out\n        /* \"#utility.yul\":7481:7703   */\n    tag_38:\n        /* \"#utility.yul\":7574:7578   */\n      0x00\n        /* \"#utility.yul\":7612:7614   */\n      0x20\n        /* \"#utility.yul\":7601:7610   */\n      dup3\n        /* \"#utility.yul\":7597:7615   */\n      add\n        /* \"#utility.yul\":7589:7615   */\n      swap1\n      pop\n        /* \"#utility.yul\":7625:7696   */\n      tag_472\n        /* \"#utility.yul\":7693:7694   */\n      0x00\n        /* \"#utility.yul\":7682:7691   */\n      dup4\n        /* \"#utility.yul\":7678:7695   */\n      add\n        /* \"#utility.yul\":7669:7675   */\n      dup5\n        /* \"#utility.yul\":7625:7696   */\n      tag_318\n      jump\t// in\n    tag_472:\n        /* \"#utility.yul\":7481:7703   */\n      swap3\n      swap2\n      pop\n      pop\n      jump\t// out\n        /* \"#utility.yul\":7709:7808   */\n    tag_319:\n        /* \"#utility.yul\":7761:7767   */\n      0x00\n        /* \"#utility.yul\":7795:7800   */\n      dup2\n        /* \"#utility.yul\":7789:7801   */\n      mload\n        /* \"#utility.yul\":7779:7801   */\n      swap1\n      pop\n        /* \"#utility.yul\":7709:7808   */\n      swap2\n      swap1\n      pop\n      jump\t// out\n        /* \"#utility.yul\":7814:7983   */\n    tag_320:\n        /* \"#utility.yul\":7898:7909   */\n      0x00\n        /* \"#utility.yul\":7932:7938   */\n      dup3\n        /* \"#utility.yul\":7927:7930   */\n      dup3\n        /* \"#utility.yul\":7920:7939   */\n      mstore\n        /* \"#utility.yul\":7972:7976   */\n      0x20\n        /* \"#utility.yul\":7967:7970   */\n      dup3\n        /* \"#utility.yul\":7963:7977   */\n      add\n        /* \"#utility.yul\":7948:7977   */\n      swap1\n      pop\n        /* \"#utility.yul\":7814:7983   */\n      swap3\n      swap2\n      pop\n      pop\n      jump\t// out\n        /* \"#utility.yul\":7989:8128   */\n    tag_321:\n        /* \"#utility.yul\":8078:8084   */\n      dup3\n        /* \"#utility.yul\":8073:8076   */\n      dup2\n        /* \"#utility.yul\":8068:8071   */\n      dup4\n        /* \"#utility.yul\":8062:8085   */\n      mcopy\n        /* \"#utility.yul\":8119:8120   */\n      0x00\n        /* \"#utility.yul\":8110:8116   */\n      dup4\n        /* \"#utility.yul\":8105:8108   */\n      dup4\n        /* \"#utility.yul\":8101:8117   */\n      add\n        /* \"#utility.yul\":8094:8121   */\n      mstore\n        /* \"#utility.yul\":7989:8128   */\n      pop\n      pop\n      pop\n      jump\t// out\n        /* \"#utility.yul\":8134:8511   */\n    tag_322:\n        /* \"#utility.yul\":8222:8225   */\n      0x00\n        /* \"#utility.yul\":8250:8289   */\n      tag_477\n        /* \"#utility.yul\":8283:8288   */\n      dup3\n        /* \"#utility.yul\":8250:8289   */\n      tag_319\n      jump\t// in\n    tag_477:\n        /* \"#utility.yul\":8305:8376   */\n      tag_478\n        /* \"#utility.yul\":8369:8375   */\n      dup2\n        /* \"#utility.yul\":8364:8367   */\n      dup6\n        /* \"#utility.yul\":8305:8376   */\n      tag_320\n      jump\t// in\n    tag_478:\n        /* \"#utility.yul\":8298:8376   */\n      swap4\n      pop\n        /* \"#utility.yul\":8385:8450   */\n      tag_479\n        /* \"#utility.yul\":8443:8449   */\n      dup2\n        /* \"#utility.yul\":8438:8441   */\n      dup6\n        /* \"#utility.yul\":8431:8435   */\n      0x20\n        /* \"#utility.yul\":8424:8429   */\n      dup7\n        /* \"#utility.yul\":8420:8436   */\n      add\n        /* \"#utility.yul\":8385:8450   */\n      tag_321\n      jump\t// in\n    tag_479:\n        /* \"#utility.yul\":8475:8504   */\n      tag_480\n        /* \"#utility.yul\":8497:8503   */\n      dup2\n        /* \"#utility.yul\":8475:8504   */\n      tag_296\n      jump\t// in\n    tag_480:\n        /* \"#utility.yul\":8470:8473   */\n      dup5\n        /* \"#utility.yul\":8466:8505   */\n      add\n        /* \"#utility.yul\":8459:8505   */\n      swap2\n      pop\n        /* \"#utility.yul\":8226:8511   */\n      pop\n        /* \"#utility.yul\":8134:8511   */\n      swap3\n      swap2\n      pop\n      pop\n      jump\t// out\n        /* \"#utility.yul\":8517:8635   */\n    tag_323:\n        /* \"#utility.yul\":8604:8628   */\n      tag_482\n        /* \"#utility.yul\":8622:8627   */\n      dup2\n        /* \"#utility.yul\":8604:8628   */\n      tag_305\n      jump\t// in\n    tag_482:\n        /* \"#utility.yul\":8599:8602   */\n      dup3\n        /* \"#utility.yul\":8592:8629   */\n      mstore\n        /* \"#utility.yul\":8517:8635   */\n      pop\n      pop\n      jump\t// out\n        /* \"#utility.yul\":8641:8731   */\n    tag_324:\n        /* \"#utility.yul\":8675:8682   */\n      0x00\n        /* \"#utility.yul\":8718:8723   */\n      dup2\n        /* \"#utility.yul\":8711:8724   */\n      iszero\n        /* \"#utility.yul\":8704:8725   */\n      iszero\n        /* \"#utility.yul\":8693:8725   */\n      swap1\n      pop\n        /* \"#utility.yul\":8641:8731   */\n      swap2\n      swap1\n      pop\n      jump\t// out\n        /* \"#utility.yul\":8737:8846   */\n    tag_325:\n        /* \"#utility.yul\":8818:8839   */\n      tag_485\n        /* \"#utility.yul\":8833:8838   */\n      dup2\n        /* \"#utility.yul\":8818:8839   */\n      tag_324\n      jump\t// in\n    tag_485:\n        /* \"#utility.yul\":8813:8816   */\n      dup3\n        /* \"#utility.yul\":8806:8840   */\n      mstore\n        /* \"#utility.yul\":8737:8846   */\n      pop\n      pop\n      jump\t// out\n        /* \"#utility.yul\":8852:9888   */\n    tag_43:\n        /* \"#utility.yul\":9139:9143   */\n      0x00\n        /* \"#utility.yul\":9177:9180   */\n      0xc0\n        /* \"#utility.yul\":9166:9175   */\n      dup3\n        /* \"#utility.yul\":9162:9181   */\n      add\n        /* \"#utility.yul\":9154:9181   */\n      swap1\n      pop\n        /* \"#utility.yul\":9227:9236   */\n      dup2\n        /* \"#utility.yul\":9221:9225   */\n      dup2\n        /* \"#utility.yul\":9217:9237   */\n      sub\n        /* \"#utility.yul\":9213:9214   */\n      0x00\n        /* \"#utility.yul\":9202:9211   */\n      dup4\n        /* \"#utility.yul\":9198:9215   */\n      add\n        /* \"#utility.yul\":9191:9238   */\n      mstore\n        /* \"#utility.yul\":9255:9333   */\n      tag_487\n        /* \"#utility.yul\":9328:9332   */\n      dup2\n        /* \"#utility.yul\":9319:9325   */\n      dup10\n        /* \"#utility.yul\":9255:9333   */\n      tag_322\n      jump\t// in\n    tag_487:\n        /* \"#utility.yul\":9247:9333   */\n      swap1\n      pop\n        /* \"#utility.yul\":9380:9389   */\n      dup2\n        /* \"#utility.yul\":9374:9378   */\n      dup2\n        /* \"#utility.yul\":9370:9390   */\n      sub\n        /* \"#utility.yul\":9365:9367   */\n      0x20\n        /* \"#utility.yul\":9354:9363   */\n      dup4\n        /* \"#utility.yul\":9350:9368   */\n      add\n        /* \"#utility.yul\":9343:9391   */\n      mstore\n        /* \"#utility.yul\":9408:9486   */\n      tag_488\n        /* \"#utility.yul\":9481:9485   */\n      dup2\n        /* \"#utility.yul\":9472:9478   */\n      dup9\n        /* \"#utility.yul\":9408:9486   */\n      tag_322\n      jump\t// in\n    tag_488:\n        /* \"#utility.yul\":9400:9486   */\n      swap1\n      pop\n        /* \"#utility.yul\":9533:9542   */\n      dup2\n        /* \"#utility.yul\":9527:9531   */\n      dup2\n        /* \"#utility.yul\":9523:9543   */\n      sub\n        /* \"#utility.yul\":9518:9520   */\n      0x40\n        /* \"#utility.yul\":9507:9516   */\n      dup4\n        /* \"#utility.yul\":9503:9521   */\n      add\n        /* \"#utility.yul\":9496:9544   */\n      mstore\n        /* \"#utility.yul\":9561:9639   */\n      tag_489\n        /* \"#utility.yul\":9634:9638   */\n      dup2\n        /* \"#utility.yul\":9625:9631   */\n      dup8\n        /* \"#utility.yul\":9561:9639   */\n      tag_322\n      jump\t// in\n    tag_489:\n        /* \"#utility.yul\":9553:9639   */\n      swap1\n      pop\n        /* \"#utility.yul\":9649:9721   */\n      tag_490\n        /* \"#utility.yul\":9717:9719   */\n      0x60\n        /* \"#utility.yul\":9706:9715   */\n      dup4\n        /* \"#utility.yul\":9702:9720   */\n      add\n        /* \"#utility.yul\":9693:9699   */\n      dup7\n        /* \"#utility.yul\":9649:9721   */\n      tag_318\n      jump\t// in\n    tag_490:\n        /* \"#utility.yul\":9731:9804   */\n      tag_491\n        /* \"#utility.yul\":9799:9802   */\n      0x80\n        /* \"#utility.yul\":9788:9797   */\n      dup4\n        /* \"#utility.yul\":9784:9803   */\n      add\n        /* \"#utility.yul\":9775:9781   */\n      dup6\n        /* \"#utility.yul\":9731:9804   */\n      tag_323\n      jump\t// in\n    tag_491:\n        /* \"#utility.yul\":9814:9881   */\n      tag_492\n        /* \"#utility.yul\":9876:9879   */\n      0xa0\n        /* \"#utility.yul\":9865:9874   */\n      dup4\n        /* \"#utility.yul\":9861:9880   */\n      add\n        /* \"#utility.yul\":9852:9858   */\n      dup5\n        /* \"#utility.yul\":9814:9881   */\n      tag_325\n      jump\t// in\n    tag_492:\n        /* \"#utility.yul\":8852:9888   */\n      swap8\n      swap7\n      pop\n      pop\n      pop\n      pop\n      pop\n      pop\n      pop\n      jump\t// out\n        /* \"#utility.yul\":9894:10116   */\n    tag_47:\n        /* \"#utility.yul\":9987:9991   */\n      0x00\n        /* \"#utility.yul\":10025:10027   */\n      0x20\n        /* \"#utility.yul\":10014:10023   */\n      dup3\n        /* \"#utility.yul\":10010:10028   */\n      add\n        /* \"#utility.yul\":10002:10028   */\n      swap1\n      pop\n        /* \"#utility.yul\":10038:10109   */\n      tag_494\n        /* \"#utility.yul\":10106:10107   */\n      0x00\n        /* \"#utility.yul\":10095:10104   */\n      dup4\n        /* \"#utility.yul\":10091:10108   */\n      add\n        /* \"#utility.yul\":10082:10088   */\n      dup5\n        /* \"#utility.yul\":10038:10109   */\n      tag_323\n      jump\t// in\n    tag_494:\n        /* \"#utility.yul\":9894:10116   */\n      swap3\n      swap2\n      pop\n      pop\n      jump\t// out\n        /* \"#utility.yul\":10122:10263   */\n    tag_326:\n        /* \"#utility.yul\":10216:10222   */\n      0x00\n        /* \"#utility.yul\":10250:10255   */\n      dup2\n        /* \"#utility.yul\":10244:10256   */\n      mload\n        /* \"#utility.yul\":10234:10256   */\n      swap1\n      pop\n        /* \"#utility.yul\":10122:10263   */\n      swap2\n      swap1\n      pop\n      jump\t// out\n        /* \"#utility.yul\":10269:10480   */\n    tag_327:\n        /* \"#utility.yul\":10395:10406   */\n      0x00\n        /* \"#utility.yul\":10429:10435   */\n      dup3\n        /* \"#utility.yul\":10424:10427   */\n      dup3\n        /* \"#utility.yul\":10417:10436   */\n      mstore\n        /* \"#utility.yul\":10469:10473   */\n      0x20\n        /* \"#utility.yul\":10464:10467   */\n      dup3\n        /* \"#utility.yul\":10460:10474   */\n      add\n        /* \"#utility.yul\":10445:10474   */\n      swap1\n      pop\n        /* \"#utility.yul\":10269:10480   */\n      swap3\n      swap2\n      pop\n      pop\n      jump\t// out\n        /* \"#utility.yul\":10486:10645   */\n    tag_328:\n        /* \"#utility.yul\":10580:10584   */\n      0x00\n        /* \"#utility.yul\":10603:10606   */\n      dup2\n        /* \"#utility.yul\":10595:10606   */\n      swap1\n      pop\n        /* \"#utility.yul\":10633:10637   */\n      0x20\n        /* \"#utility.yul\":10628:10631   */\n      dup3\n        /* \"#utility.yul\":10624:10638   */\n      add\n        /* \"#utility.yul\":10616:10638   */\n      swap1\n      pop\n        /* \"#utility.yul\":10486:10645   */\n      swap2\n      swap1\n      pop\n      jump\t// out\n        /* \"#utility.yul\":10651:10759   */\n    tag_329:\n        /* \"#utility.yul\":10728:10752   */\n      tag_499\n        /* \"#utility.yul\":10746:10751   */\n      dup2\n        /* \"#utility.yul\":10728:10752   */\n      tag_305\n      jump\t// in\n    tag_499:\n        /* \"#utility.yul\":10723:10726   */\n      dup3\n        /* \"#utility.yul\":10716:10753   */\n      mstore\n        /* \"#utility.yul\":10651:10759   */\n      pop\n      pop\n      jump\t// out\n        /* \"#utility.yul\":10765:10873   */\n    tag_330:\n        /* \"#utility.yul\":10842:10866   */\n      tag_501\n        /* \"#utility.yul\":10860:10865   */\n      dup2\n        /* \"#utility.yul\":10842:10866   */\n      tag_317\n      jump\t// in\n    tag_501:\n        /* \"#utility.yul\":10837:10840   */\n      dup3\n        /* \"#utility.yul\":10830:10867   */\n      mstore\n        /* \"#utility.yul\":10765:10873   */\n      pop\n      pop\n      jump\t// out\n        /* \"#utility.yul\":10879:11038   */\n    tag_331:\n        /* \"#utility.yul\":10953:10964   */\n      0x00\n        /* \"#utility.yul\":10987:10993   */\n      dup3\n        /* \"#utility.yul\":10982:10985   */\n      dup3\n        /* \"#utility.yul\":10975:10994   */\n      mstore\n        /* \"#utility.yul\":11027:11031   */\n      0x20\n        /* \"#utility.yul\":11022:11025   */\n      dup3\n        /* \"#utility.yul\":11018:11032   */\n      add\n        /* \"#utility.yul\":11003:11032   */\n      swap1\n      pop\n        /* \"#utility.yul\":10879:11038   */\n      swap3\n      swap2\n      pop\n      pop\n      jump\t// out\n        /* \"#utility.yul\":11044:11401   */\n    tag_332:\n        /* \"#utility.yul\":11122:11125   */\n      0x00\n        /* \"#utility.yul\":11150:11189   */\n      tag_504\n        /* \"#utility.yul\":11183:11188   */\n      dup3\n        /* \"#utility.yul\":11150:11189   */\n      tag_319\n      jump\t// in\n    tag_504:\n        /* \"#utility.yul\":11205:11266   */\n      tag_505\n        /* \"#utility.yul\":11259:11265   */\n      dup2\n        /* \"#utility.yul\":11254:11257   */\n      dup6\n        /* \"#utility.yul\":11205:11266   */\n      tag_331\n      jump\t// in\n    tag_505:\n        /* \"#utility.yul\":11198:11266   */\n      swap4\n      pop\n        /* \"#utility.yul\":11275:11340   */\n      tag_506\n        /* \"#utility.yul\":11333:11339   */\n      dup2\n        /* \"#utility.yul\":11328:11331   */\n      dup6\n        /* \"#utility.yul\":11321:11325   */\n      0x20\n        /* \"#utility.yul\":11314:11319   */\n      dup7\n        /* \"#utility.yul\":11310:11326   */\n      add\n        /* \"#utility.yul\":11275:11340   */\n      tag_321\n      jump\t// in\n    tag_506:\n        /* \"#utility.yul\":11365:11394   */\n      tag_507\n        /* \"#utility.yul\":11387:11393   */\n      dup2\n        /* \"#utility.yul\":11365:11394   */\n      tag_296\n      jump\t// in\n    tag_507:\n        /* \"#utility.yul\":11360:11363   */\n      dup5\n        /* \"#utility.yul\":11356:11395   */\n      add\n        /* \"#utility.yul\":11349:11395   */\n      swap2\n      pop\n        /* \"#utility.yul\":11126:11401   */\n      pop\n        /* \"#utility.yul\":11044:11401   */\n      swap3\n      swap2\n      pop\n      pop\n      jump\t// out\n        /* \"#utility.yul\":11407:11512   */\n    tag_333:\n        /* \"#utility.yul\":11482:11505   */\n      tag_509\n        /* \"#utility.yul\":11499:11504   */\n      dup2\n        /* \"#utility.yul\":11482:11505   */\n      tag_314\n      jump\t// in\n    tag_509:\n        /* \"#utility.yul\":11477:11480   */\n      dup3\n        /* \"#utility.yul\":11470:11506   */\n      mstore\n        /* \"#utility.yul\":11407:11512   */\n      pop\n      pop\n      jump\t// out\n        /* \"#utility.yul\":11600:12986   */\n    tag_334:\n        /* \"#utility.yul\":11713:11716   */\n      0x00\n        /* \"#utility.yul\":11749:11753   */\n      0xc0\n        /* \"#utility.yul\":11744:11747   */\n      dup4\n        /* \"#utility.yul\":11740:11754   */\n      add\n        /* \"#utility.yul\":11839:11843   */\n      0x00\n        /* \"#utility.yul\":11832:11837   */\n      dup4\n        /* \"#utility.yul\":11828:11844   */\n      add\n        /* \"#utility.yul\":11822:11845   */\n      mload\n        /* \"#utility.yul\":11858:11921   */\n      tag_511\n        /* \"#utility.yul\":11915:11919   */\n      0x00\n        /* \"#utility.yul\":11910:11913   */\n      dup7\n        /* \"#utility.yul\":11906:11920   */\n      add\n        /* \"#utility.yul\":11892:11904   */\n      dup3\n        /* \"#utility.yul\":11858:11921   */\n      tag_329\n      jump\t// in\n    tag_511:\n        /* \"#utility.yul\":11764:11931   */\n      pop\n        /* \"#utility.yul\":12013:12017   */\n      0x20\n        /* \"#utility.yul\":12006:12011   */\n      dup4\n        /* \"#utility.yul\":12002:12018   */\n      add\n        /* \"#utility.yul\":11996:12019   */\n      mload\n        /* \"#utility.yul\":12032:12095   */\n      tag_512\n        /* \"#utility.yul\":12089:12093   */\n      0x20\n        /* \"#utility.yul\":12084:12087   */\n      dup7\n        /* \"#utility.yul\":12080:12094   */\n      add\n        /* \"#utility.yul\":12066:12078   */\n      dup3\n        /* \"#utility.yul\":12032:12095   */\n      tag_330\n      jump\t// in\n    tag_512:\n        /* \"#utility.yul\":11941:12105   */\n      pop\n        /* \"#utility.yul\":12191:12195   */\n      0x40\n        /* \"#utility.yul\":12184:12189   */\n      dup4\n        /* \"#utility.yul\":12180:12196   */\n      add\n        /* \"#utility.yul\":12174:12197   */\n      mload\n        /* \"#utility.yul\":12244:12247   */\n      dup5\n        /* \"#utility.yul\":12238:12242   */\n      dup3\n        /* \"#utility.yul\":12234:12248   */\n      sub\n        /* \"#utility.yul\":12227:12231   */\n      0x40\n        /* \"#utility.yul\":12222:12225   */\n      dup7\n        /* \"#utility.yul\":12218:12232   */\n      add\n        /* \"#utility.yul\":12211:12249   */\n      mstore\n        /* \"#utility.yul\":12270:12343   */\n      tag_513\n        /* \"#utility.yul\":12338:12342   */\n      dup3\n        /* \"#utility.yul\":12324:12336   */\n      dup3\n        /* \"#utility.yul\":12270:12343   */\n      tag_332\n      jump\t// in\n    tag_513:\n        /* \"#utility.yul\":12262:12343   */\n      swap2\n      pop\n        /* \"#utility.yul\":12115:12354   */\n      pop\n        /* \"#utility.yul\":12438:12442   */\n      0x60\n        /* \"#utility.yul\":12431:12436   */\n      dup4\n        /* \"#utility.yul\":12427:12443   */\n      add\n        /* \"#utility.yul\":12421:12444   */\n      mload\n        /* \"#utility.yul\":12491:12494   */\n      dup5\n        /* \"#utility.yul\":12485:12489   */\n      dup3\n        /* \"#utility.yul\":12481:12495   */\n      sub\n        /* \"#utility.yul\":12474:12478   */\n      0x60\n        /* \"#utility.yul\":12469:12472   */\n      dup7\n        /* \"#utility.yul\":12465:12479   */\n      add\n        /* \"#utility.yul\":12458:12496   */\n      mstore\n        /* \"#utility.yul\":12517:12590   */\n      tag_514\n        /* \"#utility.yul\":12585:12589   */\n      dup3\n        /* \"#utility.yul\":12571:12583   */\n      dup3\n        /* \"#utility.yul\":12517:12590   */\n      tag_332\n      jump\t// in\n    tag_514:\n        /* \"#utility.yul\":12509:12590   */\n      swap2\n      pop\n        /* \"#utility.yul\":12364:12601   */\n      pop\n        /* \"#utility.yul\":12690:12694   */\n      0x80\n        /* \"#utility.yul\":12683:12688   */\n      dup4\n        /* \"#utility.yul\":12679:12695   */\n      add\n        /* \"#utility.yul\":12673:12696   */\n      mload\n        /* \"#utility.yul\":12709:12770   */\n      tag_515\n        /* \"#utility.yul\":12764:12768   */\n      0x80\n        /* \"#utility.yul\":12759:12762   */\n      dup7\n        /* \"#utility.yul\":12755:12769   */\n      add\n        /* \"#utility.yul\":12741:12753   */\n      dup3\n        /* \"#utility.yul\":12709:12770   */\n      tag_333\n      jump\t// in\n    tag_515:\n        /* \"#utility.yul\":12611:12780   */\n      pop\n        /* \"#utility.yul\":12867:12871   */\n      0xa0\n        /* \"#utility.yul\":12860:12865   */\n      dup4\n        /* \"#utility.yul\":12856:12872   */\n      add\n        /* \"#utility.yul\":12850:12873   */\n      mload\n        /* \"#utility.yul\":12886:12949   */\n      tag_516\n        /* \"#utility.yul\":12943:12947   */\n      0xa0\n        /* \"#utility.yul\":12938:12941   */\n      dup7\n        /* \"#utility.yul\":12934:12948   */\n      add\n        /* \"#utility.yul\":12920:12932   */\n      dup3\n        /* \"#utility.yul\":12886:12949   */\n      tag_330\n      jump\t// in\n    tag_516:\n        /* \"#utility.yul\":12790:12959   */\n      pop\n        /* \"#utility.yul\":12976:12980   */\n      dup1\n        /* \"#utility.yul\":12969:12980   */\n      swap2\n      pop\n        /* \"#utility.yul\":11718:12986   */\n      pop\n        /* \"#utility.yul\":11600:12986   */\n      swap3\n      swap2\n      pop\n      pop\n      jump\t// out\n        /* \"#utility.yul\":12992:13256   */\n    tag_335:\n        /* \"#utility.yul\":13115:13125   */\n      0x00\n        /* \"#utility.yul\":13150:13250   */\n      tag_518\n        /* \"#utility.yul\":13246:13249   */\n      dup4\n        /* \"#utility.yul\":13238:13244   */\n      dup4\n        /* \"#utility.yul\":13150:13250   */\n      tag_334\n      jump\t// in\n    tag_518:\n        /* \"#utility.yul\":13136:13250   */\n      swap1\n      pop\n        /* \"#utility.yul\":12992:13256   */\n      swap3\n      swap2\n      pop\n      pop\n      jump\t// out\n        /* \"#utility.yul\":13262:13402   */\n    tag_336:\n        /* \"#utility.yul\":13359:13363   */\n      0x00\n        /* \"#utility.yul\":13391:13395   */\n      0x20\n        /* \"#utility.yul\":13386:13389   */\n      dup3\n        /* \"#utility.yul\":13382:13396   */\n      add\n        /* \"#utility.yul\":13374:13396   */\n      swap1\n      pop\n        /* \"#utility.yul\":13262:13402   */\n      swap2\n      swap1\n      pop\n      jump\t// out\n        /* \"#utility.yul\":13494:14621   */\n    tag_337:\n        /* \"#utility.yul\":13667:13670   */\n      0x00\n        /* \"#utility.yul\":13696:13777   */\n      tag_521\n        /* \"#utility.yul\":13771:13776   */\n      dup3\n        /* \"#utility.yul\":13696:13777   */\n      tag_326\n      jump\t// in\n    tag_521:\n        /* \"#utility.yul\":13793:13906   */\n      tag_522\n        /* \"#utility.yul\":13899:13905   */\n      dup2\n        /* \"#utility.yul\":13894:13897   */\n      dup6\n        /* \"#utility.yul\":13793:13906   */\n      tag_327\n      jump\t// in\n    tag_522:\n        /* \"#utility.yul\":13786:13906   */\n      swap4\n      pop\n        /* \"#utility.yul\":13932:13935   */\n      dup4\n        /* \"#utility.yul\":13977:13981   */\n      0x20\n        /* \"#utility.yul\":13969:13975   */\n      dup3\n        /* \"#utility.yul\":13965:13982   */\n      mul\n        /* \"#utility.yul\":13960:13963   */\n      dup6\n        /* \"#utility.yul\":13956:13983   */\n      add\n        /* \"#utility.yul\":14007:14090   */\n      tag_523\n        /* \"#utility.yul\":14084:14089   */\n      dup6\n        /* \"#utility.yul\":14007:14090   */\n      tag_328\n      jump\t// in\n    tag_523:\n        /* \"#utility.yul\":14113:14120   */\n      dup1\n        /* \"#utility.yul\":14144:14145   */\n      0x00\n        /* \"#utility.yul\":14129:14576   */\n    tag_524:\n        /* \"#utility.yul\":14154:14160   */\n      dup6\n        /* \"#utility.yul\":14151:14152   */\n      dup2\n        /* \"#utility.yul\":14148:14161   */\n      lt\n        /* \"#utility.yul\":14129:14576   */\n      iszero\n      tag_526\n      jumpi\n        /* \"#utility.yul\":14225:14234   */\n      dup5\n        /* \"#utility.yul\":14219:14223   */\n      dup5\n        /* \"#utility.yul\":14215:14235   */\n      sub\n        /* \"#utility.yul\":14210:14213   */\n      dup10\n        /* \"#utility.yul\":14203:14236   */\n      mstore\n        /* \"#utility.yul\":14276:14282   */\n      dup2\n        /* \"#utility.yul\":14270:14283   */\n      mload\n        /* \"#utility.yul\":14304:14422   */\n      tag_527\n        /* \"#utility.yul\":14417:14421   */\n      dup6\n        /* \"#utility.yul\":14402:14415   */\n      dup3\n        /* \"#utility.yul\":14304:14422   */\n      tag_335\n      jump\t// in\n    tag_527:\n        /* \"#utility.yul\":14296:14422   */\n      swap5\n      pop\n        /* \"#utility.yul\":14445:14532   */\n      tag_528\n        /* \"#utility.yul\":14525:14531   */\n      dup4\n        /* \"#utility.yul\":14445:14532   */\n      tag_336\n      jump\t// in\n    tag_528:\n        /* \"#utility.yul\":14435:14532   */\n      swap3\n      pop\n        /* \"#utility.yul\":14561:14565   */\n      0x20\n        /* \"#utility.yul\":14556:14559   */\n      dup11\n        /* \"#utility.yul\":14552:14566   */\n      add\n        /* \"#utility.yul\":14545:14566   */\n      swap10\n      pop\n        /* \"#utility.yul\":14189:14576   */\n      pop\n        /* \"#utility.yul\":14176:14177   */\n      0x01\n        /* \"#utility.yul\":14173:14174   */\n      dup2\n        /* \"#utility.yul\":14169:14178   */\n      add\n        /* \"#utility.yul\":14164:14178   */\n      swap1\n      pop\n        /* \"#utility.yul\":14129:14576   */\n      jump(tag_524)\n    tag_526:\n        /* \"#utility.yul\":14133:14147   */\n      pop\n        /* \"#utility.yul\":14592:14596   */\n      dup3\n        /* \"#utility.yul\":14585:14596   */\n      swap8\n      pop\n        /* \"#utility.yul\":14612:14615   */\n      dup8\n        /* \"#utility.yul\":14605:14615   */\n      swap6\n      pop\n        /* \"#utility.yul\":13672:14621   */\n      pop\n      pop\n      pop\n      pop\n      pop\n        /* \"#utility.yul\":13494:14621   */\n      swap3\n      swap2\n      pop\n      pop\n      jump\t// out\n        /* \"#utility.yul\":14627:15108   */\n    tag_56:\n        /* \"#utility.yul\":14824:14828   */\n      0x00\n        /* \"#utility.yul\":14862:14864   */\n      0x20\n        /* \"#utility.yul\":14851:14860   */\n      dup3\n        /* \"#utility.yul\":14847:14865   */\n      add\n        /* \"#utility.yul\":14839:14865   */\n      swap1\n      pop\n        /* \"#utility.yul\":14911:14920   */\n      dup2\n        /* \"#utility.yul\":14905:14909   */\n      dup2\n        /* \"#utility.yul\":14901:14921   */\n      sub\n        /* \"#utility.yul\":14897:14898   */\n      0x00\n        /* \"#utility.yul\":14886:14895   */\n      dup4\n        /* \"#utility.yul\":14882:14899   */\n      add\n        /* \"#utility.yul\":14875:14922   */\n      mstore\n        /* \"#utility.yul\":14939:15101   */\n      tag_530\n        /* \"#utility.yul\":15096:15100   */\n      dup2\n        /* \"#utility.yul\":15087:15093   */\n      dup5\n        /* \"#utility.yul\":14939:15101   */\n      tag_337\n      jump\t// in\n    tag_530:\n        /* \"#utility.yul\":14931:15101   */\n      swap1\n      pop\n        /* \"#utility.yul\":14627:15108   */\n      swap3\n      swap2\n      pop\n      pop\n      jump\t// out\n        /* \"#utility.yul\":15114:15236   */\n    tag_338:\n        /* \"#utility.yul\":15187:15211   */\n      tag_532\n        /* \"#utility.yul\":15205:15210   */\n      dup2\n        /* \"#utility.yul\":15187:15211   */\n      tag_317\n      jump\t// in\n    tag_532:\n        /* \"#utility.yul\":15180:15185   */\n      dup2\n        /* \"#utility.yul\":15177:15212   */\n      eq\n        /* \"#utility.yul\":15167:15230   */\n      tag_533\n      jumpi\n        /* \"#utility.yul\":15226:15227   */\n      0x00\n        /* \"#utility.yul\":15223:15224   */\n      0x00\n        /* \"#utility.yul\":15216:15228   */\n      revert\n        /* \"#utility.yul\":15167:15230   */\n    tag_533:\n        /* \"#utility.yul\":15114:15236   */\n      pop\n      jump\t// out\n        /* \"#utility.yul\":15242:15381   */\n    tag_339:\n        /* \"#utility.yul\":15288:15293   */\n      0x00\n        /* \"#utility.yul\":15326:15332   */\n      dup2\n        /* \"#utility.yul\":15313:15333   */\n      calldataload\n        /* \"#utility.yul\":15304:15333   */\n      swap1\n      pop\n        /* \"#utility.yul\":15342:15375   */\n      tag_535\n        /* \"#utility.yul\":15369:15374   */\n      dup2\n        /* \"#utility.yul\":15342:15375   */\n      tag_338\n      jump\t// in\n    tag_535:\n        /* \"#utility.yul\":15242:15381   */\n      swap3\n      swap2\n      pop\n      pop\n      jump\t// out\n        /* \"#utility.yul\":15387:16041   */\n    tag_59:\n        /* \"#utility.yul\":15465:15471   */\n      0x00\n        /* \"#utility.yul\":15473:15479   */\n      0x00\n        /* \"#utility.yul\":15522:15524   */\n      0x40\n        /* \"#utility.yul\":15510:15519   */\n      dup4\n        /* \"#utility.yul\":15501:15508   */\n      dup6\n        /* \"#utility.yul\":15497:15520   */\n      sub\n        /* \"#utility.yul\":15493:15525   */\n      slt\n        /* \"#utility.yul\":15490:15609   */\n      iszero\n      tag_537\n      jumpi\n        /* \"#utility.yul\":15528:15607   */\n      tag_538\n      tag_292\n      jump\t// in\n    tag_538:\n        /* \"#utility.yul\":15490:15609   */\n    tag_537:\n        /* \"#utility.yul\":15676:15677   */\n      0x00\n        /* \"#utility.yul\":15665:15674   */\n      dup4\n        /* \"#utility.yul\":15661:15678   */\n      add\n        /* \"#utility.yul\":15648:15679   */\n      calldataload\n        /* \"#utility.yul\":15706:15724   */\n      0xffffffffffffffff\n        /* \"#utility.yul\":15698:15704   */\n      dup2\n        /* \"#utility.yul\":15695:15725   */\n      gt\n        /* \"#utility.yul\":15692:15809   */\n      iszero\n      tag_539\n      jumpi\n        /* \"#utility.yul\":15728:15807   */\n      tag_540\n      tag_293\n      jump\t// in\n    tag_540:\n        /* \"#utility.yul\":15692:15809   */\n    tag_539:\n        /* \"#utility.yul\":15833:15896   */\n      tag_541\n        /* \"#utility.yul\":15888:15895   */\n      dup6\n        /* \"#utility.yul\":15879:15885   */\n      dup3\n        /* \"#utility.yul\":15868:15877   */\n      dup7\n        /* \"#utility.yul\":15864:15886   */\n      add\n        /* \"#utility.yul\":15833:15896   */\n      tag_303\n      jump\t// in\n    tag_541:\n        /* \"#utility.yul\":15823:15896   */\n      swap3\n      pop\n        /* \"#utility.yul\":15619:15906   */\n      pop\n        /* \"#utility.yul\":15945:15947   */\n      0x20\n        /* \"#utility.yul\":15971:16024   */\n      tag_542\n        /* \"#utility.yul\":16016:16023   */\n      dup6\n        /* \"#utility.yul\":16007:16013   */\n      dup3\n        /* \"#utility.yul\":15996:16005   */\n      dup7\n        /* \"#utility.yul\":15992:16014   */\n      add\n        /* \"#utility.yul\":15971:16024   */\n      tag_339\n      jump\t// in\n    tag_542:\n        /* \"#utility.yul\":15961:16024   */\n      swap2\n      pop\n        /* \"#utility.yul\":15916:16034   */\n      pop\n        /* \"#utility.yul\":15387:16041   */\n      swap3\n      pop\n      swap3\n      swap1\n      pop\n      jump\t// out\n        /* \"#utility.yul\":16047:16162   */\n    tag_340:\n        /* \"#utility.yul\":16132:16155   */\n      tag_544\n        /* \"#utility.yul\":16149:16154   */\n      dup2\n        /* \"#utility.yul\":16132:16155   */\n      tag_314\n      jump\t// in\n    tag_544:\n        /* \"#utility.yul\":16127:16130   */\n      dup3\n        /* \"#utility.yul\":16120:16156   */\n      mstore\n        /* \"#utility.yul\":16047:16162   */\n      pop\n      pop\n      jump\t// out\n        /* \"#utility.yul\":16168:17121   */\n    tag_62:\n        /* \"#utility.yul\":16439:16443   */\n      0x00\n        /* \"#utility.yul\":16477:16480   */\n      0xc0\n        /* \"#utility.yul\":16466:16475   */\n      dup3\n        /* \"#utility.yul\":16462:16481   */\n      add\n        /* \"#utility.yul\":16454:16481   */\n      swap1\n      pop\n        /* \"#utility.yul\":16491:16562   */\n      tag_546\n        /* \"#utility.yul\":16559:16560   */\n      0x00\n        /* \"#utility.yul\":16548:16557   */\n      dup4\n        /* \"#utility.yul\":16544:16561   */\n      add\n        /* \"#utility.yul\":16535:16541   */\n      dup10\n        /* \"#utility.yul\":16491:16562   */\n      tag_323\n      jump\t// in\n    tag_546:\n        /* \"#utility.yul\":16572:16644   */\n      tag_547\n        /* \"#utility.yul\":16640:16642   */\n      0x20\n        /* \"#utility.yul\":16629:16638   */\n      dup4\n        /* \"#utility.yul\":16625:16643   */\n      add\n        /* \"#utility.yul\":16616:16622   */\n      dup9\n        /* \"#utility.yul\":16572:16644   */\n      tag_318\n      jump\t// in\n    tag_547:\n        /* \"#utility.yul\":16691:16700   */\n      dup2\n        /* \"#utility.yul\":16685:16689   */\n      dup2\n        /* \"#utility.yul\":16681:16701   */\n      sub\n        /* \"#utility.yul\":16676:16678   */\n      0x40\n        /* \"#utility.yul\":16665:16674   */\n      dup4\n        /* \"#utility.yul\":16661:16679   */\n      add\n        /* \"#utility.yul\":16654:16702   */\n      mstore\n        /* \"#utility.yul\":16719:16797   */\n      tag_548\n        /* \"#utility.yul\":16792:16796   */\n      dup2\n        /* \"#utility.yul\":16783:16789   */\n      dup8\n        /* \"#utility.yul\":16719:16797   */\n      tag_322\n      jump\t// in\n    tag_548:\n        /* \"#utility.yul\":16711:16797   */\n      swap1\n      pop\n        /* \"#utility.yul\":16844:16853   */\n      dup2\n        /* \"#utility.yul\":16838:16842   */\n      dup2\n        /* \"#utility.yul\":16834:16854   */\n      sub\n        /* \"#utility.yul\":16829:16831   */\n      0x60\n        /* \"#utility.yul\":16818:16827   */\n      dup4\n        /* \"#utility.yul\":16814:16832   */\n      add\n        /* \"#utility.yul\":16807:16855   */\n      mstore\n        /* \"#utility.yul\":16872:16950   */\n      tag_549\n        /* \"#utility.yul\":16945:16949   */\n      dup2\n        /* \"#utility.yul\":16936:16942   */\n      dup7\n        /* \"#utility.yul\":16872:16950   */\n      tag_322\n      jump\t// in\n    tag_549:\n        /* \"#utility.yul\":16864:16950   */\n      swap1\n      pop\n        /* \"#utility.yul\":16960:17031   */\n      tag_550\n        /* \"#utility.yul\":17026:17029   */\n      0x80\n        /* \"#utility.yul\":17015:17024   */\n      dup4\n        /* \"#utility.yul\":17011:17030   */\n      add\n        /* \"#utility.yul\":17002:17008   */\n      dup6\n        /* \"#utility.yul\":16960:17031   */\n      tag_340\n      jump\t// in\n    tag_550:\n        /* \"#utility.yul\":17041:17114   */\n      tag_551\n        /* \"#utility.yul\":17109:17112   */\n      0xa0\n        /* \"#utility.yul\":17098:17107   */\n      dup4\n        /* \"#utility.yul\":17094:17113   */\n      add\n        /* \"#utility.yul\":17085:17091   */\n      dup5\n        /* \"#utility.yul\":17041:17114   */\n      tag_318\n      jump\t// in\n    tag_551:\n        /* \"#utility.yul\":16168:17121   */\n      swap8\n      swap7\n      pop\n      pop\n      pop\n      pop\n      pop\n      pop\n      pop\n      jump\t// out\n        /* \"#utility.yul\":17127:18432   */\n    tag_65:\n        /* \"#utility.yul\":17243:17249   */\n      0x00\n        /* \"#utility.yul\":17251:17257   */\n      0x00\n        /* \"#utility.yul\":17259:17265   */\n      0x00\n        /* \"#utility.yul\":17267:17273   */\n      0x00\n        /* \"#utility.yul\":17316:17319   */\n      0x80\n        /* \"#utility.yul\":17304:17313   */\n      dup6\n        /* \"#utility.yul\":17295:17302   */\n      dup8\n        /* \"#utility.yul\":17291:17314   */\n      sub\n        /* \"#utility.yul\":17287:17320   */\n      slt\n        /* \"#utility.yul\":17284:17404   */\n      iszero\n      tag_553\n      jumpi\n        /* \"#utility.yul\":17323:17402   */\n      tag_554\n      tag_292\n      jump\t// in\n    tag_554:\n        /* \"#utility.yul\":17284:17404   */\n    tag_553:\n        /* \"#utility.yul\":17471:17472   */\n      0x00\n        /* \"#utility.yul\":17460:17469   */\n      dup6\n        /* \"#utility.yul\":17456:17473   */\n      add\n        /* \"#utility.yul\":17443:17474   */\n      calldataload\n        /* \"#utility.yul\":17501:17519   */\n      0xffffffffffffffff\n        /* \"#utility.yul\":17493:17499   */\n      dup2\n        /* \"#utility.yul\":17490:17520   */\n      gt\n        /* \"#utility.yul\":17487:17604   */\n      iszero\n      tag_555\n      jumpi\n        /* \"#utility.yul\":17523:17602   */\n      tag_556\n      tag_293\n      jump\t// in\n    tag_556:\n        /* \"#utility.yul\":17487:17604   */\n    tag_555:\n        /* \"#utility.yul\":17628:17691   */\n      tag_557\n        /* \"#utility.yul\":17683:17690   */\n      dup8\n        /* \"#utility.yul\":17674:17680   */\n      dup3\n        /* \"#utility.yul\":17663:17672   */\n      dup9\n        /* \"#utility.yul\":17659:17681   */\n      add\n        /* \"#utility.yul\":17628:17691   */\n      tag_303\n      jump\t// in\n    tag_557:\n        /* \"#utility.yul\":17618:17691   */\n      swap5\n      pop\n        /* \"#utility.yul\":17414:17701   */\n      pop\n        /* \"#utility.yul\":17768:17770   */\n      0x20\n        /* \"#utility.yul\":17757:17766   */\n      dup6\n        /* \"#utility.yul\":17753:17771   */\n      add\n        /* \"#utility.yul\":17740:17772   */\n      calldataload\n        /* \"#utility.yul\":17799:17817   */\n      0xffffffffffffffff\n        /* \"#utility.yul\":17791:17797   */\n      dup2\n        /* \"#utility.yul\":17788:17818   */\n      gt\n        /* \"#utility.yul\":17785:17902   */\n      iszero\n      tag_558\n      jumpi\n        /* \"#utility.yul\":17821:17900   */\n      tag_559\n      tag_293\n      jump\t// in\n    tag_559:\n        /* \"#utility.yul\":17785:17902   */\n    tag_558:\n        /* \"#utility.yul\":17926:17989   */\n      tag_560\n        /* \"#utility.yul\":17981:17988   */\n      dup8\n        /* \"#utility.yul\":17972:17978   */\n      dup3\n        /* \"#utility.yul\":17961:17970   */\n      dup9\n        /* \"#utility.yul\":17957:17979   */\n      add\n        /* \"#utility.yul\":17926:17989   */\n      tag_303\n      jump\t// in\n    tag_560:\n        /* \"#utility.yul\":17916:17989   */\n      swap4\n      pop\n        /* \"#utility.yul\":17711:17999   */\n      pop\n        /* \"#utility.yul\":18066:18068   */\n      0x40\n        /* \"#utility.yul\":18055:18064   */\n      dup6\n        /* \"#utility.yul\":18051:18069   */\n      add\n        /* \"#utility.yul\":18038:18070   */\n      calldataload\n        /* \"#utility.yul\":18097:18115   */\n      0xffffffffffffffff\n        /* \"#utility.yul\":18089:18095   */\n      dup2\n        /* \"#utility.yul\":18086:18116   */\n      gt\n        /* \"#utility.yul\":18083:18200   */\n      iszero\n      tag_561\n      jumpi\n        /* \"#utility.yul\":18119:18198   */\n      tag_562\n      tag_293\n      jump\t// in\n    tag_562:\n        /* \"#utility.yul\":18083:18200   */\n    tag_561:\n        /* \"#utility.yul\":18224:18287   */\n      tag_563\n        /* \"#utility.yul\":18279:18286   */\n      dup8\n        /* \"#utility.yul\":18270:18276   */\n      dup3\n        /* \"#utility.yul\":18259:18268   */\n      dup9\n        /* \"#utility.yul\":18255:18277   */\n      add\n        /* \"#utility.yul\":18224:18287   */\n      tag_303\n      jump\t// in\n    tag_563:\n        /* \"#utility.yul\":18214:18287   */\n      swap3\n      pop\n        /* \"#utility.yul\":18009:18297   */\n      pop\n        /* \"#utility.yul\":18336:18338   */\n      0x60\n        /* \"#utility.yul\":18362:18415   */\n      tag_564\n        /* \"#utility.yul\":18407:18414   */\n      dup8\n        /* \"#utility.yul\":18398:18404   */\n      dup3\n        /* \"#utility.yul\":18387:18396   */\n      dup9\n        /* \"#utility.yul\":18383:18405   */\n      add\n        /* \"#utility.yul\":18362:18415   */\n      tag_339\n      jump\t// in\n    tag_564:\n        /* \"#utility.yul\":18352:18415   */\n      swap2\n      pop\n        /* \"#utility.yul\":18307:18425   */\n      pop\n        /* \"#utility.yul\":17127:18432   */\n      swap3\n      swap6\n      swap2\n      swap5\n      pop\n      swap3\n      pop\n      jump\t// out\n        /* \"#utility.yul\":18438:18537   */\n    tag_341:\n        /* \"#utility.yul\":18509:18530   */\n      tag_566\n        /* \"#utility.yul\":18524:18529   */\n      dup2\n        /* \"#utility.yul\":18509:18530   */\n      tag_324\n      jump\t// in\n    tag_566:\n        /* \"#utility.yul\":18504:18507   */\n      dup3\n        /* \"#utility.yul\":18497:18531   */\n      mstore\n        /* \"#utility.yul\":18438:18537   */\n      pop\n      pop\n      jump\t// out\n        /* \"#utility.yul\":18621:20089   */\n    tag_342:\n        /* \"#utility.yul\":18740:18743   */\n      0x00\n        /* \"#utility.yul\":18776:18780   */\n      0xc0\n        /* \"#utility.yul\":18771:18774   */\n      dup4\n        /* \"#utility.yul\":18767:18781   */\n      add\n        /* \"#utility.yul\":18866:18870   */\n      0x00\n        /* \"#utility.yul\":18859:18864   */\n      dup4\n        /* \"#utility.yul\":18855:18871   */\n      add\n        /* \"#utility.yul\":18849:18872   */\n      mload\n        /* \"#utility.yul\":18919:18922   */\n      dup5\n        /* \"#utility.yul\":18913:18917   */\n      dup3\n        /* \"#utility.yul\":18909:18923   */\n      sub\n        /* \"#utility.yul\":18902:18906   */\n      0x00\n        /* \"#utility.yul\":18897:18900   */\n      dup7\n        /* \"#utility.yul\":18893:18907   */\n      add\n        /* \"#utility.yul\":18886:18924   */\n      mstore\n        /* \"#utility.yul\":18945:19018   */\n      tag_568\n        /* \"#utility.yul\":19013:19017   */\n      dup3\n        /* \"#utility.yul\":18999:19011   */\n      dup3\n        /* \"#utility.yul\":18945:19018   */\n      tag_332\n      jump\t// in\n    tag_568:\n        /* \"#utility.yul\":18937:19018   */\n      swap2\n      pop\n        /* \"#utility.yul\":18791:19029   */\n      pop\n        /* \"#utility.yul\":19118:19122   */\n      0x20\n        /* \"#utility.yul\":19111:19116   */\n      dup4\n        /* \"#utility.yul\":19107:19123   */\n      add\n        /* \"#utility.yul\":19101:19124   */\n      mload\n        /* \"#utility.yul\":19171:19174   */\n      dup5\n        /* \"#utility.yul\":19165:19169   */\n      dup3\n        /* \"#utility.yul\":19161:19175   */\n      sub\n        /* \"#utility.yul\":19154:19158   */\n      0x20\n        /* \"#utility.yul\":19149:19152   */\n      dup7\n        /* \"#utility.yul\":19145:19159   */\n      add\n        /* \"#utility.yul\":19138:19176   */\n      mstore\n        /* \"#utility.yul\":19197:19270   */\n      tag_569\n        /* \"#utility.yul\":19265:19269   */\n      dup3\n        /* \"#utility.yul\":19251:19263   */\n      dup3\n        /* \"#utility.yul\":19197:19270   */\n      tag_332\n      jump\t// in\n    tag_569:\n        /* \"#utility.yul\":19189:19270   */\n      swap2\n      pop\n        /* \"#utility.yul\":19039:19281   */\n      pop\n        /* \"#utility.yul\":19365:19369   */\n      0x40\n        /* \"#utility.yul\":19358:19363   */\n      dup4\n        /* \"#utility.yul\":19354:19370   */\n      add\n        /* \"#utility.yul\":19348:19371   */\n      mload\n        /* \"#utility.yul\":19418:19421   */\n      dup5\n        /* \"#utility.yul\":19412:19416   */\n      dup3\n        /* \"#utility.yul\":19408:19422   */\n      sub\n        /* \"#utility.yul\":19401:19405   */\n      0x40\n        /* \"#utility.yul\":19396:19399   */\n      dup7\n        /* \"#utility.yul\":19392:19406   */\n      add\n        /* \"#utility.yul\":19385:19423   */\n      mstore\n        /* \"#utility.yul\":19444:19517   */\n      tag_570\n        /* \"#utility.yul\":19512:19516   */\n      dup3\n        /* \"#utility.yul\":19498:19510   */\n      dup3\n        /* \"#utility.yul\":19444:19517   */\n      tag_332\n      jump\t// in\n    tag_570:\n        /* \"#utility.yul\":19436:19517   */\n      swap2\n      pop\n        /* \"#utility.yul\":19291:19528   */\n      pop\n        /* \"#utility.yul\":19620:19624   */\n      0x60\n        /* \"#utility.yul\":19613:19618   */\n      dup4\n        /* \"#utility.yul\":19609:19625   */\n      add\n        /* \"#utility.yul\":19603:19626   */\n      mload\n        /* \"#utility.yul\":19639:19702   */\n      tag_571\n        /* \"#utility.yul\":19696:19700   */\n      0x60\n        /* \"#utility.yul\":19691:19694   */\n      dup7\n        /* \"#utility.yul\":19687:19701   */\n      add\n        /* \"#utility.yul\":19673:19685   */\n      dup3\n        /* \"#utility.yul\":19639:19702   */\n      tag_330\n      jump\t// in\n    tag_571:\n        /* \"#utility.yul\":19538:19712   */\n      pop\n        /* \"#utility.yul\":19798:19802   */\n      0x80\n        /* \"#utility.yul\":19791:19796   */\n      dup4\n        /* \"#utility.yul\":19787:19803   */\n      add\n        /* \"#utility.yul\":19781:19804   */\n      mload\n        /* \"#utility.yul\":19817:19880   */\n      tag_572\n        /* \"#utility.yul\":19874:19878   */\n      0x80\n        /* \"#utility.yul\":19869:19872   */\n      dup7\n        /* \"#utility.yul\":19865:19879   */\n      add\n        /* \"#utility.yul\":19851:19863   */\n      dup3\n        /* \"#utility.yul\":19817:19880   */\n      tag_329\n      jump\t// in\n    tag_572:\n        /* \"#utility.yul\":19722:19890   */\n      pop\n        /* \"#utility.yul\":19976:19980   */\n      0xa0\n        /* \"#utility.yul\":19969:19974   */\n      dup4\n        /* \"#utility.yul\":19965:19981   */\n      add\n        /* \"#utility.yul\":19959:19982   */\n      mload\n        /* \"#utility.yul\":19995:20052   */\n      tag_573\n        /* \"#utility.yul\":20046:20050   */\n      0xa0\n        /* \"#utility.yul\":20041:20044   */\n      dup7\n        /* \"#utility.yul\":20037:20051   */\n      add\n        /* \"#utility.yul\":20023:20035   */\n      dup3\n        /* \"#utility.yul\":19995:20052   */\n      tag_341\n      jump\t// in\n    tag_573:\n        /* \"#utility.yul\":19900:20062   */\n      pop\n        /* \"#utility.yul\":20079:20083   */\n      dup1\n        /* \"#utility.yul\":20072:20083   */\n      swap2\n      pop\n        /* \"#utility.yul\":18745:20089   */\n      pop\n        /* \"#utility.yul\":18621:20089   */\n      swap3\n      swap2\n      pop\n      pop\n      jump\t// out\n        /* \"#utility.yul\":20095:20468   */\n    tag_71:\n        /* \"#utility.yul\":20238:20242   */\n      0x00\n        /* \"#utility.yul\":20276:20278   */\n      0x20\n        /* \"#utility.yul\":20265:20274   */\n      dup3\n        /* \"#utility.yul\":20261:20279   */\n      add\n        /* \"#utility.yul\":20253:20279   */\n      swap1\n      pop\n        /* \"#utility.yul\":20325:20334   */\n      dup2\n        /* \"#utility.yul\":20319:20323   */\n      dup2\n        /* \"#utility.yul\":20315:20335   */\n      sub\n        /* \"#utility.yul\":20311:20312   */\n      0x00\n        /* \"#utility.yul\":20300:20309   */\n      dup4\n        /* \"#utility.yul\":20296:20313   */\n      add\n        /* \"#utility.yul\":20289:20336   */\n      mstore\n        /* \"#utility.yul\":20353:20461   */\n      tag_575\n        /* \"#utility.yul\":20456:20460   */\n      dup2\n        /* \"#utility.yul\":20447:20453   */\n      dup5\n        /* \"#utility.yul\":20353:20461   */\n      tag_342\n      jump\t// in\n    tag_575:\n        /* \"#utility.yul\":20345:20461   */\n      swap1\n      pop\n        /* \"#utility.yul\":20095:20468   */\n      swap3\n      swap2\n      pop\n      pop\n      jump\t// out\n        /* \"#utility.yul\":20474:20652   */\n    tag_343:\n        /* \"#utility.yul\":20614:20644   */\n      0x556e617574686f72697a65643a20696e636f727265637420726f6c6500000000\n        /* \"#utility.yul\":20610:20611   */\n      0x00\n        /* \"#utility.yul\":20602:20608   */\n      dup3\n        /* \"#utility.yul\":20598:20612   */\n      add\n        /* \"#utility.yul\":20591:20645   */\n      mstore\n        /* \"#utility.yul\":20474:20652   */\n      pop\n      jump\t// out\n        /* \"#utility.yul\":20658:21024   */\n    tag_344:\n        /* \"#utility.yul\":20800:20803   */\n      0x00\n        /* \"#utility.yul\":20821:20888   */\n      tag_578\n        /* \"#utility.yul\":20885:20887   */\n      0x1c\n        /* \"#utility.yul\":20880:20883   */\n      dup4\n        /* \"#utility.yul\":20821:20888   */\n      tag_320\n      jump\t// in\n    tag_578:\n        /* \"#utility.yul\":20814:20888   */\n      swap2\n      pop\n        /* \"#utility.yul\":20897:20990   */\n      tag_579\n        /* \"#utility.yul\":20986:20989   */\n      dup3\n        /* \"#utility.yul\":20897:20990   */\n      tag_343\n      jump\t// in\n    tag_579:\n        /* \"#utility.yul\":21015:21017   */\n      0x20\n        /* \"#utility.yul\":21010:21013   */\n      dup3\n        /* \"#utility.yul\":21006:21018   */\n      add\n        /* \"#utility.yul\":20999:21018   */\n      swap1\n      pop\n        /* \"#utility.yul\":20658:21024   */\n      swap2\n      swap1\n      pop\n      jump\t// out\n        /* \"#utility.yul\":21030:21449   */\n    tag_80:\n        /* \"#utility.yul\":21196:21200   */\n      0x00\n        /* \"#utility.yul\":21234:21236   */\n      0x20\n        /* \"#utility.yul\":21223:21232   */\n      dup3\n        /* \"#utility.yul\":21219:21237   */\n      add\n        /* \"#utility.yul\":21211:21237   */\n      swap1\n      pop\n        /* \"#utility.yul\":21283:21292   */\n      dup2\n        /* \"#utility.yul\":21277:21281   */\n      dup2\n        /* \"#utility.yul\":21273:21293   */\n      sub\n        /* \"#utility.yul\":21269:21270   */\n      0x00\n        /* \"#utility.yul\":21258:21267   */\n      dup4\n        /* \"#utility.yul\":21254:21271   */\n      add\n        /* \"#utility.yul\":21247:21294   */\n      mstore\n        /* \"#utility.yul\":21311:21442   */\n      tag_581\n        /* \"#utility.yul\":21437:21441   */\n      dup2\n        /* \"#utility.yul\":21311:21442   */\n      tag_344\n      jump\t// in\n    tag_581:\n        /* \"#utility.yul\":21303:21442   */\n      swap1\n      pop\n        /* \"#utility.yul\":21030:21449   */\n      swap2\n      swap1\n      pop\n      jump\t// out\n        /* \"#utility.yul\":21455:21603   */\n    tag_345:\n        /* \"#utility.yul\":21557:21568   */\n      0x00\n        /* \"#utility.yul\":21594:21597   */\n      dup2\n        /* \"#utility.yul\":21579:21597   */\n      swap1\n      pop\n        /* \"#utility.yul\":21455:21603   */\n      swap3\n      swap2\n      pop\n      pop\n      jump\t// out\n        /* \"#utility.yul\":21609:21999   */\n    tag_346:\n        /* \"#utility.yul\":21715:21718   */\n      0x00\n        /* \"#utility.yul\":21743:21782   */\n      tag_584\n        /* \"#utility.yul\":21776:21781   */\n      dup3\n        /* \"#utility.yul\":21743:21782   */\n      tag_319\n      jump\t// in\n    tag_584:\n        /* \"#utility.yul\":21798:21887   */\n      tag_585\n        /* \"#utility.yul\":21880:21886   */\n      dup2\n        /* \"#utility.yul\":21875:21878   */\n      dup6\n        /* \"#utility.yul\":21798:21887   */\n      tag_345\n      jump\t// in\n    tag_585:\n        /* \"#utility.yul\":21791:21887   */\n      swap4\n      pop\n        /* \"#utility.yul\":21896:21961   */\n      tag_586\n        /* \"#utility.yul\":21954:21960   */\n      dup2\n        /* \"#utility.yul\":21949:21952   */\n      dup6\n        /* \"#utility.yul\":21942:21946   */\n      0x20\n        /* \"#utility.yul\":21935:21940   */\n      dup7\n        /* \"#utility.yul\":21931:21947   */\n      add\n        /* \"#utility.yul\":21896:21961   */\n      tag_321\n      jump\t// in\n    tag_586:\n        /* \"#utility.yul\":21986:21992   */\n      dup1\n        /* \"#utility.yul\":21981:21984   */\n      dup5\n        /* \"#utility.yul\":21977:21993   */\n      add\n        /* \"#utility.yul\":21970:21993   */\n      swap2\n      pop\n        /* \"#utility.yul\":21719:21999   */\n      pop\n        /* \"#utility.yul\":21609:21999   */\n      swap3\n      swap2\n      pop\n      pop\n      jump\t// out\n        /* \"#utility.yul\":22005:22280   */\n    tag_83:\n        /* \"#utility.yul\":22137:22140   */\n      0x00\n        /* \"#utility.yul\":22159:22254   */\n      tag_588\n        /* \"#utility.yul\":22250:22253   */\n      dup3\n        /* \"#utility.yul\":22241:22247   */\n      dup5\n        /* \"#utility.yul\":22159:22254   */\n      tag_346\n      jump\t// in\n    tag_588:\n        /* \"#utility.yul\":22152:22254   */\n      swap2\n      pop\n        /* \"#utility.yul\":22271:22274   */\n      dup2\n        /* \"#utility.yul\":22264:22274   */\n      swap1\n      pop\n        /* \"#utility.yul\":22005:22280   */\n      swap3\n      swap2\n      pop\n      pop\n      jump\t// out\n        /* \"#utility.yul\":22286:22508   */\n    tag_347:\n        /* \"#utility.yul\":22426:22460   */\n      0x426174636820646f6573206e6f74206578697374206f7220697320696e616374\n        /* \"#utility.yul\":22422:22423   */\n      0x00\n        /* \"#utility.yul\":22414:22420   */\n      dup3\n        /* \"#utility.yul\":22410:22424   */\n      add\n        /* \"#utility.yul\":22403:22461   */\n      mstore\n        /* \"#utility.yul\":22495:22500   */\n      0x6976650000000000000000000000000000000000000000000000000000000000\n        /* \"#utility.yul\":22490:22492   */\n      0x20\n        /* \"#utility.yul\":22482:22488   */\n      dup3\n        /* \"#utility.yul\":22478:22493   */\n      add\n        /* \"#utility.yul\":22471:22501   */\n      mstore\n        /* \"#utility.yul\":22286:22508   */\n      pop\n      jump\t// out\n        /* \"#utility.yul\":22514:22880   */\n    tag_348:\n        /* \"#utility.yul\":22656:22659   */\n      0x00\n        /* \"#utility.yul\":22677:22744   */\n      tag_591\n        /* \"#utility.yul\":22741:22743   */\n      0x23\n        /* \"#utility.yul\":22736:22739   */\n      dup4\n        /* \"#utility.yul\":22677:22744   */\n      tag_320\n      jump\t// in\n    tag_591:\n        /* \"#utility.yul\":22670:22744   */\n      swap2\n      pop\n        /* \"#utility.yul\":22753:22846   */\n      tag_592\n        /* \"#utility.yul\":22842:22845   */\n      dup3\n        /* \"#utility.yul\":22753:22846   */\n      tag_347\n      jump\t// in\n    tag_592:\n        /* \"#utility.yul\":22871:22873   */\n      0x40\n        /* \"#utility.yul\":22866:22869   */\n      dup3\n        /* \"#utility.yul\":22862:22874   */\n      add\n        /* \"#utility.yul\":22855:22874   */\n      swap1\n      pop\n        /* \"#utility.yul\":22514:22880   */\n      swap2\n      swap1\n      pop\n      jump\t// out\n        /* \"#utility.yul\":22886:23305   */\n    tag_86:\n        /* \"#utility.yul\":23052:23056   */\n      0x00\n        /* \"#utility.yul\":23090:23092   */\n      0x20\n        /* \"#utility.yul\":23079:23088   */\n      dup3\n        /* \"#utility.yul\":23075:23093   */\n      add\n        /* \"#utility.yul\":23067:23093   */\n      swap1\n      pop\n        /* \"#utility.yul\":23139:23148   */\n      dup2\n        /* \"#utility.yul\":23133:23137   */\n      dup2\n        /* \"#utility.yul\":23129:23149   */\n      sub\n        /* \"#utility.yul\":23125:23126   */\n      0x00\n        /* \"#utility.yul\":23114:23123   */\n      dup4\n        /* \"#utility.yul\":23110:23127   */\n      add\n        /* \"#utility.yul\":23103:23150   */\n      mstore\n        /* \"#utility.yul\":23167:23298   */\n      tag_594\n        /* \"#utility.yul\":23293:23297   */\n      dup2\n        /* \"#utility.yul\":23167:23298   */\n      tag_348\n      jump\t// in\n    tag_594:\n        /* \"#utility.yul\":23159:23298   */\n      swap1\n      pop\n        /* \"#utility.yul\":22886:23305   */\n      swap2\n      swap1\n      pop\n      jump\t// out\n        /* \"#utility.yul\":23311:23485   */\n    tag_349:\n        /* \"#utility.yul\":23451:23477   */\n      0x4f6e6c79206f776e65722063616e2063616c6c20746869730000000000000000\n        /* \"#utility.yul\":23447:23448   */\n      0x00\n        /* \"#utility.yul\":23439:23445   */\n      dup3\n        /* \"#utility.yul\":23435:23449   */\n      add\n        /* \"#utility.yul\":23428:23478   */\n      mstore\n        /* \"#utility.yul\":23311:23485   */\n      pop\n      jump\t// out\n        /* \"#utility.yul\":23491:23857   */\n    tag_350:\n        /* \"#utility.yul\":23633:23636   */\n      0x00\n        /* \"#utility.yul\":23654:23721   */\n      tag_597\n        /* \"#utility.yul\":23718:23720   */\n      0x18\n        /* \"#utility.yul\":23713:23716   */\n      dup4\n        /* \"#utility.yul\":23654:23721   */\n      tag_320\n      jump\t// in\n    tag_597:\n        /* \"#utility.yul\":23647:23721   */\n      swap2\n      pop\n        /* \"#utility.yul\":23730:23823   */\n      tag_598\n        /* \"#utility.yul\":23819:23822   */\n      dup3\n        /* \"#utility.yul\":23730:23823   */\n      tag_349\n      jump\t// in\n    tag_598:\n        /* \"#utility.yul\":23848:23850   */\n      0x20\n        /* \"#utility.yul\":23843:23846   */\n      dup3\n        /* \"#utility.yul\":23839:23851   */\n      add\n        /* \"#utility.yul\":23832:23851   */\n      swap1\n      pop\n        /* \"#utility.yul\":23491:23857   */\n      swap2\n      swap1\n      pop\n      jump\t// out\n        /* \"#utility.yul\":23863:24282   */\n    tag_93:\n        /* \"#utility.yul\":24029:24033   */\n      0x00\n        /* \"#utility.yul\":24067:24069   */\n      0x20\n        /* \"#utility.yul\":24056:24065   */\n      dup3\n        /* \"#utility.yul\":24052:24070   */\n      add\n        /* \"#utility.yul\":24044:24070   */\n      swap1\n      pop\n        /* \"#utility.yul\":24116:24125   */\n      dup2\n        /* \"#utility.yul\":24110:24114   */\n      dup2\n        /* \"#utility.yul\":24106:24126   */\n      sub\n        /* \"#utility.yul\":24102:24103   */\n      0x00\n        /* \"#utility.yul\":24091:24100   */\n      dup4\n        /* \"#utility.yul\":24087:24104   */\n      add\n        /* \"#utility.yul\":24080:24127   */\n      mstore\n        /* \"#utility.yul\":24144:24275   */\n      tag_600\n        /* \"#utility.yul\":24270:24274   */\n      dup2\n        /* \"#utility.yul\":24144:24275   */\n      tag_350\n      jump\t// in\n    tag_600:\n        /* \"#utility.yul\":24136:24275   */\n      swap1\n      pop\n        /* \"#utility.yul\":23863:24282   */\n      swap2\n      swap1\n      pop\n      jump\t// out\n        /* \"#utility.yul\":24288:24513   */\n    tag_351:\n        /* \"#utility.yul\":24428:24462   */\n      0x43616c6c6572206973206e6f7420612072656769737465726564207061727469\n        /* \"#utility.yul\":24424:24425   */\n      0x00\n        /* \"#utility.yul\":24416:24422   */\n      dup3\n        /* \"#utility.yul\":24412:24426   */\n      add\n        /* \"#utility.yul\":24405:24463   */\n      mstore\n        /* \"#utility.yul\":24497:24505   */\n      0x636970616e740000000000000000000000000000000000000000000000000000\n        /* \"#utility.yul\":24492:24494   */\n      0x20\n        /* \"#utility.yul\":24484:24490   */\n      dup3\n        /* \"#utility.yul\":24480:24495   */\n      add\n        /* \"#utility.yul\":24473:24506   */\n      mstore\n        /* \"#utility.yul\":24288:24513   */\n      pop\n      jump\t// out\n        /* \"#utility.yul\":24519:24885   */\n    tag_352:\n        /* \"#utility.yul\":24661:24664   */\n      0x00\n        /* \"#utility.yul\":24682:24749   */\n      tag_603\n        /* \"#utility.yul\":24746:24748   */\n      0x26\n        /* \"#utility.yul\":24741:24744   */\n      dup4\n        /* \"#utility.yul\":24682:24749   */\n      tag_320\n      jump\t// in\n    tag_603:\n        /* \"#utility.yul\":24675:24749   */\n      swap2\n      pop\n        /* \"#utility.yul\":24758:24851   */\n      tag_604\n        /* \"#utility.yul\":24847:24850   */\n      dup3\n        /* \"#utility.yul\":24758:24851   */\n      tag_351\n      jump\t// in\n    tag_604:\n        /* \"#utility.yul\":24876:24878   */\n      0x40\n        /* \"#utility.yul\":24871:24874   */\n      dup3\n        /* \"#utility.yul\":24867:24879   */\n      add\n        /* \"#utility.yul\":24860:24879   */\n      swap1\n      pop\n        /* \"#utility.yul\":24519:24885   */\n      swap2\n      swap1\n      pop\n      jump\t// out\n        /* \"#utility.yul\":24891:25310   */\n    tag_109:\n        /* \"#utility.yul\":25057:25061   */\n      0x00\n        /* \"#utility.yul\":25095:25097   */\n      0x20\n        /* \"#utility.yul\":25084:25093   */\n      dup3\n        /* \"#utility.yul\":25080:25098   */\n      add\n        /* \"#utility.yul\":25072:25098   */\n      swap1\n      pop\n        /* \"#utility.yul\":25144:25153   */\n      dup2\n        /* \"#utility.yul\":25138:25142   */\n      dup2\n        /* \"#utility.yul\":25134:25154   */\n      sub\n        /* \"#utility.yul\":25130:25131   */\n      0x00\n        /* \"#utility.yul\":25119:25128   */\n      dup4\n        /* \"#utility.yul\":25115:25132   */\n      add\n        /* \"#utility.yul\":25108:25155   */\n      mstore\n        /* \"#utility.yul\":25172:25303   */\n      tag_606\n        /* \"#utility.yul\":25298:25302   */\n      dup2\n        /* \"#utility.yul\":25172:25303   */\n      tag_352\n      jump\t// in\n    tag_606:\n        /* \"#utility.yul\":25164:25303   */\n      swap1\n      pop\n        /* \"#utility.yul\":24891:25310   */\n      swap2\n      swap1\n      pop\n      jump\t// out\n        /* \"#utility.yul\":25316:25496   */\n    tag_353:\n        /* \"#utility.yul\":25364:25441   */\n      0x4e487b7100000000000000000000000000000000000000000000000000000000\n        /* \"#utility.yul\":25361:25362   */\n      0x00\n        /* \"#utility.yul\":25354:25442   */\n      mstore\n        /* \"#utility.yul\":25461:25465   */\n      0x11\n        /* \"#utility.yul\":25458:25459   */\n      0x04\n        /* \"#utility.yul\":25451:25466   */\n      mstore\n        /* \"#utility.yul\":25485:25489   */\n      0x24\n        /* \"#utility.yul\":25482:25483   */\n      0x00\n        /* \"#utility.yul\":25475:25490   */\n      revert\n        /* \"#utility.yul\":25502:25696   */\n    tag_115:\n        /* \"#utility.yul\":25542:25546   */\n      0x00\n        /* \"#utility.yul\":25562:25582   */\n      tag_609\n        /* \"#utility.yul\":25580:25581   */\n      dup3\n        /* \"#utility.yul\":25562:25582   */\n      tag_317\n      jump\t// in\n    tag_609:\n        /* \"#utility.yul\":25557:25582   */\n      swap2\n      pop\n        /* \"#utility.yul\":25596:25616   */\n      tag_610\n        /* \"#utility.yul\":25614:25615   */\n      dup4\n        /* \"#utility.yul\":25596:25616   */\n      tag_317\n      jump\t// in\n    tag_610:\n        /* \"#utility.yul\":25591:25616   */\n      swap3\n      pop\n        /* \"#utility.yul\":25640:25641   */\n      dup3\n        /* \"#utility.yul\":25637:25638   */\n      dup3\n        /* \"#utility.yul\":25633:25642   */\n      sub\n        /* \"#utility.yul\":25625:25642   */\n      swap1\n      pop\n        /* \"#utility.yul\":25664:25665   */\n      dup2\n        /* \"#utility.yul\":25658:25662   */\n      dup2\n        /* \"#utility.yul\":25655:25666   */\n      gt\n        /* \"#utility.yul\":25652:25689   */\n      iszero\n      tag_611\n      jumpi\n        /* \"#utility.yul\":25669:25687   */\n      tag_612\n      tag_353\n      jump\t// in\n    tag_612:\n        /* \"#utility.yul\":25652:25689   */\n    tag_611:\n        /* \"#utility.yul\":25502:25696   */\n      swap3\n      swap2\n      pop\n      pop\n      jump\t// out\n        /* \"#utility.yul\":25702:25882   */\n    tag_119:\n        /* \"#utility.yul\":25750:25827   */\n      0x4e487b7100000000000000000000000000000000000000000000000000000000\n        /* \"#utility.yul\":25747:25748   */\n      0x00\n        /* \"#utility.yul\":25740:25828   */\n      mstore\n        /* \"#utility.yul\":25847:25851   */\n      0x32\n        /* \"#utility.yul\":25844:25845   */\n      0x04\n        /* \"#utility.yul\":25837:25852   */\n      mstore\n        /* \"#utility.yul\":25871:25875   */\n      0x24\n        /* \"#utility.yul\":25868:25869   */\n      0x00\n        /* \"#utility.yul\":25861:25876   */\n      revert\n        /* \"#utility.yul\":25888:26068   */\n    tag_354:\n        /* \"#utility.yul\":25936:26013   */\n      0x4e487b7100000000000000000000000000000000000000000000000000000000\n        /* \"#utility.yul\":25933:25934   */\n      0x00\n        /* \"#utility.yul\":25926:26014   */\n      mstore\n        /* \"#utility.yul\":26033:26037   */\n      0x22\n        /* \"#utility.yul\":26030:26031   */\n      0x04\n        /* \"#utility.yul\":26023:26038   */\n      mstore\n        /* \"#utility.yul\":26057:26061   */\n      0x24\n        /* \"#utility.yul\":26054:26055   */\n      0x00\n        /* \"#utility.yul\":26047:26062   */\n      revert\n        /* \"#utility.yul\":26074:26394   */\n    tag_156:\n        /* \"#utility.yul\":26118:26124   */\n      0x00\n        /* \"#utility.yul\":26155:26156   */\n      0x02\n        /* \"#utility.yul\":26149:26153   */\n      dup3\n        /* \"#utility.yul\":26145:26157   */\n      div\n        /* \"#utility.yul\":26135:26157   */\n      swap1\n      pop\n        /* \"#utility.yul\":26202:26203   */\n      0x01\n        /* \"#utility.yul\":26196:26200   */\n      dup3\n        /* \"#utility.yul\":26192:26204   */\n      and\n        /* \"#utility.yul\":26223:26241   */\n      dup1\n        /* \"#utility.yul\":26213:26294   */\n      tag_616\n      jumpi\n        /* \"#utility.yul\":26279:26283   */\n      0x7f\n        /* \"#utility.yul\":26271:26277   */\n      dup3\n        /* \"#utility.yul\":26267:26284   */\n      and\n        /* \"#utility.yul\":26257:26284   */\n      swap2\n      pop\n        /* \"#utility.yul\":26213:26294   */\n    tag_616:\n        /* \"#utility.yul\":26341:26343   */\n      0x20\n        /* \"#utility.yul\":26333:26339   */\n      dup3\n        /* \"#utility.yul\":26330:26344   */\n      lt\n        /* \"#utility.yul\":26310:26328   */\n      dup2\n        /* \"#utility.yul\":26307:26345   */\n      sub\n        /* \"#utility.yul\":26304:26388   */\n      tag_617\n      jumpi\n        /* \"#utility.yul\":26360:26378   */\n      tag_618\n      tag_354\n      jump\t// in\n    tag_618:\n        /* \"#utility.yul\":26304:26388   */\n    tag_617:\n        /* \"#utility.yul\":26125:26394   */\n      pop\n        /* \"#utility.yul\":26074:26394   */\n      swap2\n      swap1\n      pop\n      jump\t// out\n        /* \"#utility.yul\":26400:26541   */\n    tag_355:\n        /* \"#utility.yul\":26449:26453   */\n      0x00\n        /* \"#utility.yul\":26472:26475   */\n      dup2\n        /* \"#utility.yul\":26464:26475   */\n      swap1\n      pop\n        /* \"#utility.yul\":26495:26498   */\n      dup2\n        /* \"#utility.yul\":26492:26493   */\n      0x00\n        /* \"#utility.yul\":26485:26499   */\n      mstore\n        /* \"#utility.yul\":26529:26533   */\n      0x20\n        /* \"#utility.yul\":26526:26527   */\n      0x00\n        /* \"#utility.yul\":26516:26534   */\n      keccak256\n        /* \"#utility.yul\":26508:26534   */\n      swap1\n      pop\n        /* \"#utility.yul\":26400:26541   */\n      swap2\n      swap1\n      pop\n      jump\t// out\n        /* \"#utility.yul\":26547:26640   */\n    tag_356:\n        /* \"#utility.yul\":26584:26590   */\n      0x00\n        /* \"#utility.yul\":26631:26633   */\n      0x20\n        /* \"#utility.yul\":26626:26628   */\n      0x1f\n        /* \"#utility.yul\":26619:26624   */\n      dup4\n        /* \"#utility.yul\":26615:26629   */\n      add\n        /* \"#utility.yul\":26611:26634   */\n      div\n        /* \"#utility.yul\":26601:26634   */\n      swap1\n      pop\n        /* \"#utility.yul\":26547:26640   */\n      swap2\n      swap1\n      pop\n      jump\t// out\n        /* \"#utility.yul\":26646:26753   */\n    tag_357:\n        /* \"#utility.yul\":26690:26698   */\n      0x00\n        /* \"#utility.yul\":26740:26745   */\n      dup3\n        /* \"#utility.yul\":26734:26738   */\n      dup3\n        /* \"#utility.yul\":26730:26746   */\n      shl\n        /* \"#utility.yul\":26709:26746   */\n      swap1\n      pop\n        /* \"#utility.yul\":26646:26753   */\n      swap3\n      swap2\n      pop\n      pop\n      jump\t// out\n        /* \"#utility.yul\":26759:27152   */\n    tag_358:\n        /* \"#utility.yul\":26828:26834   */\n      0x00\n        /* \"#utility.yul\":26878:26879   */\n      0x08\n        /* \"#utility.yul\":26866:26876   */\n      dup4\n        /* \"#utility.yul\":26862:26880   */\n      mul\n        /* \"#utility.yul\":26901:26998   */\n      tag_623\n        /* \"#utility.yul\":26931:26997   */\n      0xffffffffffffffffffffffffffffffffffffffffffffffffffffffffffffffff\n        /* \"#utility.yul\":26920:26929   */\n      dup3\n        /* \"#utility.yul\":26901:26998   */\n      tag_357\n      jump\t// in\n    tag_623:\n        /* \"#utility.yul\":27019:27058   */\n      tag_624\n        /* \"#utility.yul\":27049:27057   */\n      dup7\n        /* \"#utility.yul\":27038:27047   */\n      dup4\n        /* \"#utility.yul\":27019:27058   */\n      tag_357\n      jump\t// in\n    tag_624:\n        /* \"#utility.yul\":27007:27058   */\n      swap6\n      pop\n        /* \"#utility.yul\":27091:27095   */\n      dup1\n        /* \"#utility.yul\":27087:27096   */\n      not\n        /* \"#utility.yul\":27080:27085   */\n      dup5\n        /* \"#utility.yul\":27076:27097   */\n      and\n        /* \"#utility.yul\":27067:27097   */\n      swap4\n      pop\n        /* \"#utility.yul\":27140:27144   */\n      dup1\n        /* \"#utility.yul\":27130:27138   */\n      dup7\n        /* \"#utility.yul\":27126:27145   */\n      and\n        /* \"#utility.yul\":27119:27124   */\n      dup5\n        /* \"#utility.yul\":27116:27146   */\n      or\n        /* \"#utility.yul\":27106:27146   */\n      swap3\n      pop\n        /* \"#utility.yul\":26835:27152   */\n      pop\n      pop\n        /* \"#utility.yul\":26759:27152   */\n      swap4\n      swap3\n      pop\n      pop\n      pop\n      jump\t// out\n        /* \"#utility.yul\":27158:27218   */\n    tag_359:\n        /* \"#utility.yul\":27186:27189   */\n      0x00\n        /* \"#utility.yul\":27207:27212   */\n      dup2\n        /* \"#utility.yul\":27200:27212   */\n      swap1\n      pop\n        /* \"#utility.yul\":27158:27218   */\n      swap2\n      swap1\n      pop\n      jump\t// out\n        /* \"#utility.yul\":27224:27366   */\n    tag_360:\n        /* \"#utility.yul\":27274:27283   */\n      0x00\n        /* \"#utility.yul\":27307:27360   */\n      tag_627\n        /* \"#utility.yul\":27325:27359   */\n      tag_628\n        /* \"#utility.yul\":27334:27358   */\n      tag_629\n        /* \"#utility.yul\":27352:27357   */\n      dup5\n        /* \"#utility.yul\":27334:27358   */\n      tag_317\n      jump\t// in\n    tag_629:\n        /* \"#utility.yul\":27325:27359   */\n      tag_359\n      jump\t// in\n    tag_628:\n        /* \"#utility.yul\":27307:27360   */\n      tag_317\n      jump\t// in\n    tag_627:\n        /* \"#utility.yul\":27294:27360   */\n      swap1\n      pop\n        /* \"#utility.yul\":27224:27366   */\n      swap2\n      swap1\n      pop\n      jump\t// out\n        /* \"#utility.yul\":27372:27447   */\n    tag_361:\n        /* \"#utility.yul\":27415:27418   */\n      0x00\n        /* \"#utility.yul\":27436:27441   */\n      dup2\n        /* \"#utility.yul\":27429:27441   */\n      swap1\n      pop\n        /* \"#utility.yul\":27372:27447   */\n      swap2\n      swap1\n      pop\n      jump\t// out\n        /* \"#utility.yul\":27453:27722   */\n    tag_362:\n        /* \"#utility.yul\":27563:27602   */\n      tag_632\n        /* \"#utility.yul\":27594:27601   */\n      dup4\n        /* \"#utility.yul\":27563:27602   */\n      tag_360\n      jump\t// in\n    tag_632:\n        /* \"#utility.yul\":27624:27715   */\n      tag_633\n        /* \"#utility.yul\":27673:27714   */\n      tag_634\n        /* \"#utility.yul\":27697:27713   */\n      dup3\n        /* \"#utility.yul\":27673:27714   */\n      tag_361\n      jump\t// in\n    tag_634:\n        /* \"#utility.yul\":27665:27671   */\n      dup5\n        /* \"#utility.yul\":27658:27662   */\n      dup5\n        /* \"#utility.yul\":27652:27663   */\n      sload\n        /* \"#utility.yul\":27624:27715   */\n      tag_358\n      jump\t// in\n    tag_633:\n        /* \"#utility.yul\":27618:27622   */\n      dup3\n        /* \"#utility.yul\":27611:27716   */\n      sstore\n        /* \"#utility.yul\":27529:27722   */\n      pop\n        /* \"#utility.yul\":27453:27722   */\n      pop\n      pop\n      pop\n      jump\t// out\n        /* \"#utility.yul\":27728:27801   */\n    tag_363:\n        /* \"#utility.yul\":27773:27776   */\n      0x00\n        /* \"#utility.yul\":27794:27795   */\n      0x00\n        /* \"#utility.yul\":27787:27795   */\n      swap1\n      pop\n        /* \"#utility.yul\":27728:27801   */\n      swap1\n      jump\t// out\n        /* \"#utility.yul\":27807:27996   */\n    tag_364:\n        /* \"#utility.yul\":27884:27916   */\n      tag_637\n      tag_363\n      jump\t// in\n    tag_637:\n        /* \"#utility.yul\":27925:27990   */\n      tag_638\n        /* \"#utility.yul\":27983:27989   */\n      dup2\n        /* \"#utility.yul\":27975:27981   */\n      dup5\n        /* \"#utility.yul\":27969:27973   */\n      dup5\n        /* \"#utility.yul\":27925:27990   */\n      tag_362\n      jump\t// in\n    tag_638:\n        /* \"#utility.yul\":27860:27996   */\n      pop\n        /* \"#utility.yul\":27807:27996   */\n      pop\n      pop\n      jump\t// out\n        /* \"#utility.yul\":28002:28216   */\n    tag_365:\n        /* \"#utility.yul\":28087:28088   */\n      0x00\n        /* \"#utility.yul\":28072:28210   */\n    tag_640:\n        /* \"#utility.yul\":28097:28106   */\n      dup3\n        /* \"#utility.yul\":28094:28095   */\n      dup2\n        /* \"#utility.yul\":28091:28107   */\n      lt\n        /* \"#utility.yul\":28072:28210   */\n      iszero\n      tag_642\n      jumpi\n        /* \"#utility.yul\":28149:28200   */\n      tag_643\n        /* \"#utility.yul\":28198:28199   */\n      0x00\n        /* \"#utility.yul\":28194:28195   */\n      dup3\n        /* \"#utility.yul\":28183:28192   */\n      dup5\n        /* \"#utility.yul\":28179:28196   */\n      add\n        /* \"#utility.yul\":28149:28200   */\n      tag_364\n      jump\t// in\n    tag_643:\n        /* \"#utility.yul\":28122:28123   */\n      0x01\n        /* \"#utility.yul\":28119:28120   */\n      dup2\n        /* \"#utility.yul\":28115:28124   */\n      add\n        /* \"#utility.yul\":28110:28124   */\n      swap1\n      pop\n        /* \"#utility.yul\":28072:28210   */\n      jump(tag_640)\n    tag_642:\n        /* \"#utility.yul\":28076:28090   */\n      pop\n        /* \"#utility.yul\":28002:28216   */\n      pop\n      pop\n      jump\t// out\n        /* \"#utility.yul\":28222:28968   */\n    tag_366:\n        /* \"#utility.yul\":28323:28325   */\n      0x1f\n        /* \"#utility.yul\":28318:28321   */\n      dup3\n        /* \"#utility.yul\":28315:28326   */\n      gt\n        /* \"#utility.yul\":28312:28961   */\n      iszero\n      tag_645\n      jumpi\n        /* \"#utility.yul\":28352:28362   */\n      dup3\n        /* \"#utility.yul\":28347:28350   */\n      dup3\n        /* \"#utility.yul\":28344:28363   */\n      gt\n        /* \"#utility.yul\":28341:28951   */\n      iszero\n      tag_646\n      jumpi\n        /* \"#utility.yul\":28398:28436   */\n      tag_647\n        /* \"#utility.yul\":28430:28435   */\n      dup2\n        /* \"#utility.yul\":28398:28436   */\n      tag_355\n      jump\t// in\n    tag_647:\n        /* \"#utility.yul\":28473:28495   */\n      tag_648\n        /* \"#utility.yul\":28491:28494   */\n      dup4\n        /* \"#utility.yul\":28473:28495   */\n      tag_356\n      jump\t// in\n    tag_648:\n        /* \"#utility.yul\":28532:28561   */\n      tag_649\n        /* \"#utility.yul\":28550:28560   */\n      dup6\n        /* \"#utility.yul\":28532:28561   */\n      tag_356\n      jump\t// in\n    tag_649:\n        /* \"#utility.yul\":28722:28724   */\n      0x20\n        /* \"#utility.yul\":28710:28720   */\n      dup7\n        /* \"#utility.yul\":28707:28725   */\n      lt\n        /* \"#utility.yul\":28704:28783   */\n      iszero\n      tag_650\n      jumpi\n        /* \"#utility.yul\":28764:28765   */\n      0x00\n        /* \"#utility.yul\":28748:28765   */\n      swap1\n      pop\n        /* \"#utility.yul\":28704:28783   */\n    tag_650:\n        /* \"#utility.yul\":28833:28845   */\n      dup1\n        /* \"#utility.yul\":28823:28831   */\n      dup4\n        /* \"#utility.yul\":28819:28846   */\n      add\n        /* \"#utility.yul\":28863:28937   */\n      tag_651\n        /* \"#utility.yul\":28923:28935   */\n      dup3\n        /* \"#utility.yul\":28909:28921   */\n      dup5\n        /* \"#utility.yul\":28905:28936   */\n      sub\n        /* \"#utility.yul\":28892:28903   */\n      dup3\n        /* \"#utility.yul\":28863:28937   */\n      tag_365\n      jump\t// in\n    tag_651:\n        /* \"#utility.yul\":28364:28951   */\n      pop\n      pop\n      pop\n      pop\n        /* \"#utility.yul\":28341:28951   */\n    tag_646:\n        /* \"#utility.yul\":28312:28961   */\n    tag_645:\n        /* \"#utility.yul\":28222:28968   */\n      pop\n      pop\n      pop\n      jump\t// out\n        /* \"#utility.yul\":28974:29091   */\n    tag_367:\n        /* \"#utility.yul\":29028:29036   */\n      0x00\n        /* \"#utility.yul\":29078:29083   */\n      dup3\n        /* \"#utility.yul\":29072:29076   */\n      dup3\n        /* \"#utility.yul\":29068:29084   */\n      shr\n        /* \"#utility.yul\":29047:29084   */\n      swap1\n      pop\n        /* \"#utility.yul\":28974:29091   */\n      swap3\n      swap2\n      pop\n      pop\n      jump\t// out\n        /* \"#utility.yul\":29097:29266   */\n    tag_368:\n        /* \"#utility.yul\":29141:29147   */\n      0x00\n        /* \"#utility.yul\":29174:29225   */\n      tag_654\n        /* \"#utility.yul\":29222:29223   */\n      0x00\n        /* \"#utility.yul\":29218:29224   */\n      not\n        /* \"#utility.yul\":29210:29215   */\n      dup5\n        /* \"#utility.yul\":29207:29208   */\n      0x08\n        /* \"#utility.yul\":29203:29216   */\n      mul\n        /* \"#utility.yul\":29174:29225   */\n      tag_367\n      jump\t// in\n    tag_654:\n        /* \"#utility.yul\":29170:29226   */\n      not\n        /* \"#utility.yul\":29255:29259   */\n      dup1\n        /* \"#utility.yul\":29249:29253   */\n      dup4\n        /* \"#utility.yul\":29245:29260   */\n      and\n        /* \"#utility.yul\":29235:29260   */\n      swap2\n      pop\n        /* \"#utility.yul\":29148:29266   */\n      pop\n        /* \"#utility.yul\":29097:29266   */\n      swap3\n      swap2\n      pop\n      pop\n      jump\t// out\n        /* \"#utility.yul\":29271:29566   */\n    tag_369:\n        /* \"#utility.yul\":29347:29351   */\n      0x00\n        /* \"#utility.yul\":29493:29522   */\n      tag_656\n        /* \"#utility.yul\":29518:29521   */\n      dup4\n        /* \"#utility.yul\":29512:29516   */\n      dup4\n        /* \"#utility.yul\":29493:29522   */\n      tag_368\n      jump\t// in\n    tag_656:\n        /* \"#utility.yul\":29485:29522   */\n      swap2\n      pop\n        /* \"#utility.yul\":29555:29558   */\n      dup3\n        /* \"#utility.yul\":29552:29553   */\n      0x02\n        /* \"#utility.yul\":29548:29559   */\n      mul\n        /* \"#utility.yul\":29542:29546   */\n      dup3\n        /* \"#utility.yul\":29539:29560   */\n      or\n        /* \"#utility.yul\":29531:29560   */\n      swap1\n      pop\n        /* \"#utility.yul\":29271:29566   */\n      swap3\n      swap2\n      pop\n      pop\n      jump\t// out\n        /* \"#utility.yul\":29571:30966   */\n    tag_132:\n        /* \"#utility.yul\":29688:29725   */\n      tag_658\n        /* \"#utility.yul\":29721:29724   */\n      dup3\n        /* \"#utility.yul\":29688:29725   */\n      tag_319\n      jump\t// in\n    tag_658:\n        /* \"#utility.yul\":29790:29808   */\n      0xffffffffffffffff\n        /* \"#utility.yul\":29782:29788   */\n      dup2\n        /* \"#utility.yul\":29779:29809   */\n      gt\n        /* \"#utility.yul\":29776:29832   */\n      iszero\n      tag_659\n      jumpi\n        /* \"#utility.yul\":29812:29830   */\n      tag_660\n      tag_297\n      jump\t// in\n    tag_660:\n        /* \"#utility.yul\":29776:29832   */\n    tag_659:\n        /* \"#utility.yul\":29856:29894   */\n      tag_661\n        /* \"#utility.yul\":29888:29892   */\n      dup3\n        /* \"#utility.yul\":29882:29893   */\n      sload\n        /* \"#utility.yul\":29856:29894   */\n      tag_156\n      jump\t// in\n    tag_661:\n        /* \"#utility.yul\":29941:30008   */\n      tag_662\n        /* \"#utility.yul\":30001:30007   */\n      dup3\n        /* \"#utility.yul\":29993:29999   */\n      dup3\n        /* \"#utility.yul\":29987:29991   */\n      dup6\n        /* \"#utility.yul\":29941:30008   */\n      tag_366\n      jump\t// in\n    tag_662:\n        /* \"#utility.yul\":30035:30036   */\n      0x00\n        /* \"#utility.yul\":30059:30063   */\n      0x20\n        /* \"#utility.yul\":30046:30063   */\n      swap1\n      pop\n        /* \"#utility.yul\":30091:30093   */\n      0x1f\n        /* \"#utility.yul\":30083:30089   */\n      dup4\n        /* \"#utility.yul\":30080:30094   */\n      gt\n        /* \"#utility.yul\":30108:30109   */\n      0x01\n        /* \"#utility.yul\":30103:30721   */\n      dup2\n      eq\n      tag_664\n      jumpi\n        /* \"#utility.yul\":30765:30766   */\n      0x00\n        /* \"#utility.yul\":30782:30788   */\n      dup5\n        /* \"#utility.yul\":30779:30856   */\n      iszero\n      tag_665\n      jumpi\n        /* \"#utility.yul\":30831:30840   */\n      dup3\n        /* \"#utility.yul\":30826:30829   */\n      dup8\n        /* \"#utility.yul\":30822:30841   */\n      add\n        /* \"#utility.yul\":30816:30842   */\n      mload\n        /* \"#utility.yul\":30807:30842   */\n      swap1\n      pop\n        /* \"#utility.yul\":30779:30856   */\n    tag_665:\n        /* \"#utility.yul\":30882:30949   */\n      tag_666\n        /* \"#utility.yul\":30942:30948   */\n      dup6\n        /* \"#utility.yul\":30935:30940   */\n      dup3\n        /* \"#utility.yul\":30882:30949   */\n      tag_369\n      jump\t// in\n    tag_666:\n        /* \"#utility.yul\":30876:30880   */\n      dup7\n        /* \"#utility.yul\":30869:30950   */\n      sstore\n        /* \"#utility.yul\":30738:30960   */\n      pop\n        /* \"#utility.yul\":30073:30960   */\n      jump(tag_663)\n        /* \"#utility.yul\":30103:30721   */\n    tag_664:\n        /* \"#utility.yul\":30155:30159   */\n      0x1f\n        /* \"#utility.yul\":30151:30160   */\n      not\n        /* \"#utility.yul\":30143:30149   */\n      dup5\n        /* \"#utility.yul\":30139:30161   */\n      and\n        /* \"#utility.yul\":30189:30226   */\n      tag_667\n        /* \"#utility.yul\":30221:30225   */\n      dup7\n        /* \"#utility.yul\":30189:30226   */\n      tag_355\n      jump\t// in\n    tag_667:\n        /* \"#utility.yul\":30248:30249   */\n      0x00\n        /* \"#utility.yul\":30262:30470   */\n    tag_668:\n        /* \"#utility.yul\":30276:30283   */\n      dup3\n        /* \"#utility.yul\":30273:30274   */\n      dup2\n        /* \"#utility.yul\":30270:30284   */\n      lt\n        /* \"#utility.yul\":30262:30470   */\n      iszero\n      tag_670\n      jumpi\n        /* \"#utility.yul\":30355:30364   */\n      dup5\n        /* \"#utility.yul\":30350:30353   */\n      dup10\n        /* \"#utility.yul\":30346:30365   */\n      add\n        /* \"#utility.yul\":30340:30366   */\n      mload\n        /* \"#utility.yul\":30332:30338   */\n      dup3\n        /* \"#utility.yul\":30325:30367   */\n      sstore\n        /* \"#utility.yul\":30406:30407   */\n      0x01\n        /* \"#utility.yul\":30398:30404   */\n      dup3\n        /* \"#utility.yul\":30394:30408   */\n      add\n        /* \"#utility.yul\":30384:30408   */\n      swap2\n      pop\n        /* \"#utility.yul\":30453:30455   */\n      0x20\n        /* \"#utility.yul\":30442:30451   */\n      dup6\n        /* \"#utility.yul\":30438:30456   */\n      add\n        /* \"#utility.yul\":30425:30456   */\n      swap5\n      pop\n        /* \"#utility.yul\":30299:30303   */\n      0x20\n        /* \"#utility.yul\":30296:30297   */\n      dup2\n        /* \"#utility.yul\":30292:30304   */\n      add\n        /* \"#utility.yul\":30287:30304   */\n      swap1\n      pop\n        /* \"#utility.yul\":30262:30470   */\n      jump(tag_668)\n    tag_670:\n        /* \"#utility.yul\":30498:30504   */\n      dup7\n        /* \"#utility.yul\":30489:30496   */\n      dup4\n        /* \"#utility.yul\":30486:30505   */\n      lt\n        /* \"#utility.yul\":30483:30662   */\n      iszero\n      tag_671\n      jumpi\n        /* \"#utility.yul\":30556:30565   */\n      dup5\n        /* \"#utility.yul\":30551:30554   */\n      dup10\n        /* \"#utility.yul\":30547:30566   */\n      add\n        /* \"#utility.yul\":30541:30567   */\n      mload\n        /* \"#utility.yul\":30599:30647   */\n      tag_672\n        /* \"#utility.yul\":30641:30645   */\n      0x1f\n        /* \"#utility.yul\":30633:30639   */\n      dup10\n        /* \"#utility.yul\":30629:30646   */\n      and\n        /* \"#utility.yul\":30618:30627   */\n      dup3\n        /* \"#utility.yul\":30599:30647   */\n      tag_368\n      jump\t// in\n    tag_672:\n        /* \"#utility.yul\":30591:30597   */\n      dup4\n        /* \"#utility.yul\":30584:30648   */\n      sstore\n        /* \"#utility.yul\":30506:30662   */\n      pop\n        /* \"#utility.yul\":30483:30662   */\n    tag_671:\n        /* \"#utility.yul\":30708:30709   */\n      0x01\n        /* \"#utility.yul\":30704:30705   */\n      0x02\n        /* \"#utility.yul\":30696:30702   */\n      dup9\n        /* \"#utility.yul\":30692:30706   */\n      mul\n        /* \"#utility.yul\":30688:30710   */\n      add\n        /* \"#utility.yul\":30682:30686   */\n      dup9\n        /* \"#utility.yul\":30675:30711   */\n      sstore\n        /* \"#utility.yul\":30110:30721   */\n      pop\n      pop\n      pop\n        /* \"#utility.yul\":30073:30960   */\n    tag_663:\n      pop\n        /* \"#utility.yul\":29663:30966   */\n      pop\n      pop\n      pop\n        /* \"#utility.yul\":29571:30966   */\n      pop\n      pop\n      jump\t// out\n        /* \"#utility.yul\":30972:31300   */\n    tag_149:\n        /* \"#utility.yul\":31091:31095   */\n      0x00\n        /* \"#utility.yul\":31129:31131   */\n      0x40\n        /* \"#utility.yul\":31118:31127   */\n      dup3\n        /* \"#utility.yul\":31114:31132   */\n      add\n        /* \"#utility.yul\":31106:31132   */\n      swap1\n      pop\n        /* \"#utility.yul\":31142:31211   */\n      tag_674\n        /* \"#utility.yul\":31208:31209   */\n      0x00\n        /* \"#utility.yul\":31197:31206   */\n      dup4\n        /* \"#utility.yul\":31193:31210   */\n      add\n        /* \"#utility.yul\":31184:31190   */\n      dup6\n        /* \"#utility.yul\":31142:31211   */\n      tag_340\n      jump\t// in\n    tag_674:\n        /* \"#utility.yul\":31221:31293   */\n      tag_675\n        /* \"#utility.yul\":31289:31291   */\n      0x20\n        /* \"#utility.yul\":31278:31287   */\n      dup4\n        /* \"#utility.yul\":31274:31292   */\n      add\n        /* \"#utility.yul\":31265:31271   */\n      dup5\n        /* \"#utility.yul\":31221:31293   */\n      tag_323\n      jump\t// in\n    tag_675:\n        /* \"#utility.yul\":30972:31300   */\n      swap4\n      swap3\n      pop\n      pop\n      pop\n      jump\t// out\n        /* \"#utility.yul\":31306:31839   */\n    tag_152:\n        /* \"#utility.yul\":31475:31479   */\n      0x00\n        /* \"#utility.yul\":31513:31515   */\n      0x60\n        /* \"#utility.yul\":31502:31511   */\n      dup3\n        /* \"#utility.yul\":31498:31516   */\n      add\n        /* \"#utility.yul\":31490:31516   */\n      swap1\n      pop\n        /* \"#utility.yul\":31526:31597   */\n      tag_677\n        /* \"#utility.yul\":31594:31595   */\n      0x00\n        /* \"#utility.yul\":31583:31592   */\n      dup4\n        /* \"#utility.yul\":31579:31596   */\n      add\n        /* \"#utility.yul\":31570:31576   */\n      dup7\n        /* \"#utility.yul\":31526:31597   */\n      tag_323\n      jump\t// in\n    tag_677:\n        /* \"#utility.yul\":31644:31653   */\n      dup2\n        /* \"#utility.yul\":31638:31642   */\n      dup2\n        /* \"#utility.yul\":31634:31654   */\n      sub\n        /* \"#utility.yul\":31629:31631   */\n      0x20\n        /* \"#utility.yul\":31618:31627   */\n      dup4\n        /* \"#utility.yul\":31614:31632   */\n      add\n        /* \"#utility.yul\":31607:31655   */\n      mstore\n        /* \"#utility.yul\":31672:31750   */\n      tag_678\n        /* \"#utility.yul\":31745:31749   */\n      dup2\n        /* \"#utility.yul\":31736:31742   */\n      dup6\n        /* \"#utility.yul\":31672:31750   */\n      tag_322\n      jump\t// in\n    tag_678:\n        /* \"#utility.yul\":31664:31750   */\n      swap1\n      pop\n        /* \"#utility.yul\":31760:31832   */\n      tag_679\n        /* \"#utility.yul\":31828:31830   */\n      0x40\n        /* \"#utility.yul\":31817:31826   */\n      dup4\n        /* \"#utility.yul\":31813:31831   */\n      add\n        /* \"#utility.yul\":31804:31810   */\n      dup5\n        /* \"#utility.yul\":31760:31832   */\n      tag_318\n      jump\t// in\n    tag_679:\n        /* \"#utility.yul\":31306:31839   */\n      swap5\n      swap4\n      pop\n      pop\n      pop\n      pop\n      jump\t// out\n        /* \"#utility.yul\":31845:32010   */\n    tag_370:\n        /* \"#utility.yul\":31985:32002   */\n      0x4261746368206e6f7420666f756e640000000000000000000000000000000000\n        /* \"#utility.yul\":31981:31982   */\n      0x00\n        /* \"#utility.yul\":31973:31979   */\n      dup3\n        /* \"#utility.yul\":31969:31983   */\n      add\n        /* \"#utility.yul\":31962:32003   */\n      mstore\n        /* \"#utility.yul\":31845:32010   */\n      pop\n      jump\t// out\n        /* \"#utility.yul\":32016:32382   */\n    tag_371:\n        /* \"#utility.yul\":32158:32161   */\n      0x00\n        /* \"#utility.yul\":32179:32246   */\n      tag_682\n        /* \"#utility.yul\":32243:32245   */\n      0x0f\n        /* \"#utility.yul\":32238:32241   */\n      dup4\n        /* \"#utility.yul\":32179:32246   */\n      tag_320\n      jump\t// in\n    tag_682:\n        /* \"#utility.yul\":32172:32246   */\n      swap2\n      pop\n        /* \"#utility.yul\":32255:32348   */\n      tag_683\n        /* \"#utility.yul\":32344:32347   */\n      dup3\n        /* \"#utility.yul\":32255:32348   */\n      tag_370\n      jump\t// in\n    tag_683:\n        /* \"#utility.yul\":32373:32375   */\n      0x20\n        /* \"#utility.yul\":32368:32371   */\n      dup3\n        /* \"#utility.yul\":32364:32376   */\n      add\n        /* \"#utility.yul\":32357:32376   */\n      swap1\n      pop\n        /* \"#utility.yul\":32016:32382   */\n      swap2\n      swap1\n      pop\n      jump\t// out\n        /* \"#utility.yul\":32388:32807   */\n    tag_159:\n        /* \"#utility.yul\":32554:32558   */\n      0x00\n        /* \"#utility.yul\":32592:32594   */\n      0x20\n        /* \"#utility.yul\":32581:32590   */\n      dup3\n        /* \"#utility.yul\":32577:32595   */\n      add\n        /* \"#utility.yul\":32569:32595   */\n      swap1\n      pop\n        /* \"#utility.yul\":32641:32650   */\n      dup2\n        /* \"#utility.yul\":32635:32639   */\n      dup2\n        /* \"#utility.yul\":32631:32651   */\n      sub\n        /* \"#utility.yul\":32627:32628   */\n      0x00\n        /* \"#utility.yul\":32616:32625   */\n      dup4\n        /* \"#utility.yul\":32612:32629   */\n      add\n        /* \"#utility.yul\":32605:32652   */\n      mstore\n        /* \"#utility.yul\":32669:32800   */\n      tag_685\n        /* \"#utility.yul\":32795:32799   */\n      dup2\n        /* \"#utility.yul\":32669:32800   */\n      tag_371\n      jump\t// in\n    tag_685:\n        /* \"#utility.yul\":32661:32800   */\n      swap1\n      pop\n        /* \"#utility.yul\":32388:32807   */\n      swap2\n      swap1\n      pop\n      jump\t// out\n        /* \"#utility.yul\":32813:32987   */\n    tag_372:\n        /* \"#utility.yul\":32953:32979   */\n      0x42617463682049442063616e6e6f7420626520656d7074790000000000000000\n        /* \"#utility.yul\":32949:32950   */\n      0x00\n        /* \"#utility.yul\":32941:32947   */\n      dup3\n        /* \"#utility.yul\":32937:32951   */\n      add\n        /* \"#utility.yul\":32930:32980   */\n      mstore\n        /* \"#utility.yul\":32813:32987   */\n      pop\n      jump\t// out\n        /* \"#utility.yul\":32993:33359   */\n    tag_373:\n        /* \"#utility.yul\":33135:33138   */\n      0x00\n        /* \"#utility.yul\":33156:33223   */\n      tag_688\n        /* \"#utility.yul\":33220:33222   */\n      0x18\n        /* \"#utility.yul\":33215:33218   */\n      dup4\n        /* \"#utility.yul\":33156:33223   */\n      tag_320\n      jump\t// in\n    tag_688:\n        /* \"#utility.yul\":33149:33223   */\n      swap2\n      pop\n        /* \"#utility.yul\":33232:33325   */\n      tag_689\n        /* \"#utility.yul\":33321:33324   */\n      dup3\n        /* \"#utility.yul\":33232:33325   */\n      tag_372\n      jump\t// in\n    tag_689:\n        /* \"#utility.yul\":33350:33352   */\n      0x20\n        /* \"#utility.yul\":33345:33348   */\n      dup3\n        /* \"#utility.yul\":33341:33353   */\n      add\n        /* \"#utility.yul\":33334:33353   */\n      swap1\n      pop\n        /* \"#utility.yul\":32993:33359   */\n      swap2\n      swap1\n      pop\n      jump\t// out\n        /* \"#utility.yul\":33365:33784   */\n    tag_217:\n        /* \"#utility.yul\":33531:33535   */\n      0x00\n        /* \"#utility.yul\":33569:33571   */\n      0x20\n        /* \"#utility.yul\":33558:33567   */\n      dup3\n        /* \"#utility.yul\":33554:33572   */\n      add\n        /* \"#utility.yul\":33546:33572   */\n      swap1\n      pop\n        /* \"#utility.yul\":33618:33627   */\n      dup2\n        /* \"#utility.yul\":33612:33616   */\n      dup2\n        /* \"#utility.yul\":33608:33628   */\n      sub\n        /* \"#utility.yul\":33604:33605   */\n      0x00\n        /* \"#utility.yul\":33593:33602   */\n      dup4\n        /* \"#utility.yul\":33589:33606   */\n      add\n        /* \"#utility.yul\":33582:33629   */\n      mstore\n        /* \"#utility.yul\":33646:33777   */\n      tag_691\n        /* \"#utility.yul\":33772:33776   */\n      dup2\n        /* \"#utility.yul\":33646:33777   */\n      tag_373\n      jump\t// in\n    tag_691:\n        /* \"#utility.yul\":33638:33777   */\n      swap1\n      pop\n        /* \"#utility.yul\":33365:33784   */\n      swap2\n      swap1\n      pop\n      jump\t// out\n        /* \"#utility.yul\":33790:33967   */\n    tag_374:\n        /* \"#utility.yul\":33930:33959   */\n      0x426174636820494420616c726561647920726567697374657265640000000000\n        /* \"#utility.yul\":33926:33927   */\n      0x00\n        /* \"#utility.yul\":33918:33924   */\n      dup3\n        /* \"#utility.yul\":33914:33928   */\n      add\n        /* \"#utility.yul\":33907:33960   */\n      mstore\n        /* \"#utility.yul\":33790:33967   */\n      pop\n      jump\t// out\n        /* \"#utility.yul\":33973:34339   */\n    tag_375:\n        /* \"#utility.yul\":34115:34118   */\n      0x00\n        /* \"#utility.yul\":34136:34203   */\n      tag_694\n        /* \"#utility.yul\":34200:34202   */\n      0x1b\n        /* \"#utility.yul\":34195:34198   */\n      dup4\n        /* \"#utility.yul\":34136:34203   */\n      tag_320\n      jump\t// in\n    tag_694:\n        /* \"#utility.yul\":34129:34203   */\n      swap2\n      pop\n        /* \"#utility.yul\":34212:34305   */\n      tag_695\n        /* \"#utility.yul\":34301:34304   */\n      dup3\n        /* \"#utility.yul\":34212:34305   */\n      tag_374\n      jump\t// in\n    tag_695:\n        /* \"#utility.yul\":34330:34332   */\n      0x20\n        /* \"#utility.yul\":34325:34328   */\n      dup3\n        /* \"#utility.yul\":34321:34333   */\n      add\n        /* \"#utility.yul\":34314:34333   */\n      swap1\n      pop\n        /* \"#utility.yul\":33973:34339   */\n      swap2\n      swap1\n      pop\n      jump\t// out\n        /* \"#utility.yul\":34345:34764   */\n    tag_222:\n        /* \"#utility.yul\":34511:34515   */\n      0x00\n        /* \"#utility.yul\":34549:34551   */\n      0x20\n        /* \"#utility.yul\":34538:34547   */\n      dup3\n        /* \"#utility.yul\":34534:34552   */\n      add\n        /* \"#utility.yul\":34526:34552   */\n      swap1\n      pop\n        /* \"#utility.yul\":34598:34607   */\n      dup2\n        /* \"#utility.yul\":34592:34596   */\n      dup2\n        /* \"#utility.yul\":34588:34608   */\n      sub\n        /* \"#utility.yul\":34584:34585   */\n      0x00\n        /* \"#utility.yul\":34573:34582   */\n      dup4\n        /* \"#utility.yul\":34569:34586   */\n      add\n        /* \"#utility.yul\":34562:34609   */\n      mstore\n        /* \"#utility.yul\":34626:34757   */\n      tag_697\n        /* \"#utility.yul\":34752:34756   */\n      dup2\n        /* \"#utility.yul\":34626:34757   */\n      tag_375\n      jump\t// in\n    tag_697:\n        /* \"#utility.yul\":34618:34757   */\n      swap1\n      pop\n        /* \"#utility.yul\":34345:34764   */\n      swap2\n      swap1\n      pop\n      jump\t// out\n        /* \"#utility.yul\":34770:34996   */\n    tag_376:\n        /* \"#utility.yul\":34910:34944   */\n      0x50726f64756374696f6e20646174652063616e6e6f7420626520696e20746865\n        /* \"#utility.yul\":34906:34907   */\n      0x00\n        /* \"#utility.yul\":34898:34904   */\n      dup3\n        /* \"#utility.yul\":34894:34908   */\n      add\n        /* \"#utility.yul\":34887:34945   */\n      mstore\n        /* \"#utility.yul\":34979:34988   */\n      0x2066757475726500000000000000000000000000000000000000000000000000\n        /* \"#utility.yul\":34974:34976   */\n      0x20\n        /* \"#utility.yul\":34966:34972   */\n      dup3\n        /* \"#utility.yul\":34962:34977   */\n      add\n        /* \"#utility.yul\":34955:34989   */\n      mstore\n        /* \"#utility.yul\":34770:34996   */\n      pop\n      jump\t// out\n        /* \"#utility.yul\":35002:35368   */\n    tag_377:\n        /* \"#utility.yul\":35144:35147   */\n      0x00\n        /* \"#utility.yul\":35165:35232   */\n      tag_700\n        /* \"#utility.yul\":35229:35231   */\n      0x27\n        /* \"#utility.yul\":35224:35227   */\n      dup4\n        /* \"#utility.yul\":35165:35232   */\n      tag_320\n      jump\t// in\n    tag_700:\n        /* \"#utility.yul\":35158:35232   */\n      swap2\n      pop\n        /* \"#utility.yul\":35241:35334   */\n      tag_701\n        /* \"#utility.yul\":35330:35333   */\n      dup3\n        /* \"#utility.yul\":35241:35334   */\n      tag_376\n      jump\t// in\n    tag_701:\n        /* \"#utility.yul\":35359:35361   */\n      0x40\n        /* \"#utility.yul\":35354:35357   */\n      dup3\n        /* \"#utility.yul\":35350:35362   */\n      add\n        /* \"#utility.yul\":35343:35362   */\n      swap1\n      pop\n        /* \"#utility.yul\":35002:35368   */\n      swap2\n      swap1\n      pop\n      jump\t// out\n        /* \"#utility.yul\":35374:35793   */\n    tag_225:\n        /* \"#utility.yul\":35540:35544   */\n      0x00\n        /* \"#utility.yul\":35578:35580   */\n      0x20\n        /* \"#utility.yul\":35567:35576   */\n      dup3\n        /* \"#utility.yul\":35563:35581   */\n      add\n        /* \"#utility.yul\":35555:35581   */\n      swap1\n      pop\n        /* \"#utility.yul\":35627:35636   */\n      dup2\n        /* \"#utility.yul\":35621:35625   */\n      dup2\n        /* \"#utility.yul\":35617:35637   */\n      sub\n        /* \"#utility.yul\":35613:35614   */\n      0x00\n        /* \"#utility.yul\":35602:35611   */\n      dup4\n        /* \"#utility.yul\":35598:35615   */\n      add\n        /* \"#utility.yul\":35591:35638   */\n      mstore\n        /* \"#utility.yul\":35655:35786   */\n      tag_703\n        /* \"#utility.yul\":35781:35785   */\n      dup2\n        /* \"#utility.yul\":35655:35786   */\n      tag_377\n      jump\t// in\n    tag_703:\n        /* \"#utility.yul\":35647:35786   */\n      swap1\n      pop\n        /* \"#utility.yul\":35374:35793   */\n      swap2\n      swap1\n      pop\n      jump\t// out\n        /* \"#utility.yul\":35799:36222   */\n    tag_264:\n        /* \"#utility.yul\":35940:35944   */\n      0x00\n        /* \"#utility.yul\":35978:35980   */\n      0x40\n        /* \"#utility.yul\":35967:35976   */\n      dup3\n        /* \"#utility.yul\":35963:35981   */\n      add\n        /* \"#utility.yul\":35955:35981   */\n      swap1\n      pop\n        /* \"#utility.yul\":36027:36036   */\n      dup2\n        /* \"#utility.yul\":36021:36025   */\n      dup2\n        /* \"#utility.yul\":36017:36037   */\n      sub\n        /* \"#utility.yul\":36013:36014   */\n      0x00\n        /* \"#utility.yul\":36002:36011   */\n      dup4\n        /* \"#utility.yul\":35998:36015   */\n      add\n        /* \"#utility.yul\":35991:36038   */\n      mstore\n        /* \"#utility.yul\":36055:36133   */\n      tag_705\n        /* \"#utility.yul\":36128:36132   */\n      dup2\n        /* \"#utility.yul\":36119:36125   */\n      dup6\n        /* \"#utility.yul\":36055:36133   */\n      tag_322\n      jump\t// in\n    tag_705:\n        /* \"#utility.yul\":36047:36133   */\n      swap1\n      pop\n        /* \"#utility.yul\":36143:36215   */\n      tag_706\n        /* \"#utility.yul\":36211:36213   */\n      0x20\n        /* \"#utility.yul\":36200:36209   */\n      dup4\n        /* \"#utility.yul\":36196:36214   */\n      add\n        /* \"#utility.yul\":36187:36193   */\n      dup5\n        /* \"#utility.yul\":36143:36215   */\n      tag_323\n      jump\t// in\n    tag_706:\n        /* \"#utility.yul\":35799:36222   */\n      swap4\n      swap3\n      pop\n      pop\n      pop\n      jump\t// out\n        /* \"#utility.yul\":36228:36461   */\n    tag_378:\n        /* \"#utility.yul\":36368:36402   */\n      0x50726f647563742068617276657374656420616e642072656769737465726564\n        /* \"#utility.yul\":36364:36365   */\n      0x00\n        /* \"#utility.yul\":36356:36362   */\n      dup3\n        /* \"#utility.yul\":36352:36366   */\n      add\n        /* \"#utility.yul\":36345:36403   */\n      mstore\n        /* \"#utility.yul\":36437:36453   */\n      0x206f6e20626c6f636b636861696e000000000000000000000000000000000000\n        /* \"#utility.yul\":36432:36434   */\n      0x20\n        /* \"#utility.yul\":36424:36430   */\n      dup3\n        /* \"#utility.yul\":36420:36435   */\n      add\n        /* \"#utility.yul\":36413:36454   */\n      mstore\n        /* \"#utility.yul\":36228:36461   */\n      pop\n      jump\t// out\n        /* \"#utility.yul\":36467:36833   */\n    tag_379:\n        /* \"#utility.yul\":36609:36612   */\n      0x00\n        /* \"#utility.yul\":36630:36697   */\n      tag_709\n        /* \"#utility.yul\":36694:36696   */\n      0x2e\n        /* \"#utility.yul\":36689:36692   */\n      dup4\n        /* \"#utility.yul\":36630:36697   */\n      tag_320\n      jump\t// in\n    tag_709:\n        /* \"#utility.yul\":36623:36697   */\n      swap2\n      pop\n        /* \"#utility.yul\":36706:36799   */\n      tag_710\n        /* \"#utility.yul\":36795:36798   */\n      dup3\n        /* \"#utility.yul\":36706:36799   */\n      tag_378\n      jump\t// in\n    tag_710:\n        /* \"#utility.yul\":36824:36826   */\n      0x40\n        /* \"#utility.yul\":36819:36822   */\n      dup3\n        /* \"#utility.yul\":36815:36827   */\n      add\n        /* \"#utility.yul\":36808:36827   */\n      swap1\n      pop\n        /* \"#utility.yul\":36467:36833   */\n      swap2\n      swap1\n      pop\n      jump\t// out\n        /* \"#utility.yul\":36839:37478   */\n    tag_267:\n        /* \"#utility.yul\":37061:37065   */\n      0x00\n        /* \"#utility.yul\":37099:37101   */\n      0x60\n        /* \"#utility.yul\":37088:37097   */\n      dup3\n        /* \"#utility.yul\":37084:37102   */\n      add\n        /* \"#utility.yul\":37076:37102   */\n      swap1\n      pop\n        /* \"#utility.yul\":37112:37183   */\n      tag_712\n        /* \"#utility.yul\":37180:37181   */\n      0x00\n        /* \"#utility.yul\":37169:37178   */\n      dup4\n        /* \"#utility.yul\":37165:37182   */\n      add\n        /* \"#utility.yul\":37156:37162   */\n      dup6\n        /* \"#utility.yul\":37112:37183   */\n      tag_323\n      jump\t// in\n    tag_712:\n        /* \"#utility.yul\":37230:37239   */\n      dup2\n        /* \"#utility.yul\":37224:37228   */\n      dup2\n        /* \"#utility.yul\":37220:37240   */\n      sub\n        /* \"#utility.yul\":37215:37217   */\n      0x20\n        /* \"#utility.yul\":37204:37213   */\n      dup4\n        /* \"#utility.yul\":37200:37218   */\n      add\n        /* \"#utility.yul\":37193:37241   */\n      mstore\n        /* \"#utility.yul\":37258:37389   */\n      tag_713\n        /* \"#utility.yul\":37384:37388   */\n      dup2\n        /* \"#utility.yul\":37258:37389   */\n      tag_379\n      jump\t// in\n    tag_713:\n        /* \"#utility.yul\":37250:37389   */\n      swap1\n      pop\n        /* \"#utility.yul\":37399:37471   */\n      tag_714\n        /* \"#utility.yul\":37467:37469   */\n      0x40\n        /* \"#utility.yul\":37456:37465   */\n      dup4\n        /* \"#utility.yul\":37452:37470   */\n      add\n        /* \"#utility.yul\":37443:37449   */\n      dup5\n        /* \"#utility.yul\":37399:37471   */\n      tag_318\n      jump\t// in\n    tag_714:\n        /* \"#utility.yul\":36839:37478   */\n      swap4\n      swap3\n      pop\n      pop\n      pop\n      jump\t// out\n    stop\n    data_1226666703af27f64f82d0e5c2a4b4b54cb6d56ca6a543a6ff168a1b8128db96 50726f647563742068617276657374656420616e642072656769737465726564206f6e20626c6f636b636861696e\n\n    auxdata: 0xa26469706673582212205dd2a063972015663ec3fff6e1a449349d981c46c6bf4c8a8d191d649a0eb74f64736f6c63430008220033\n}\n",
				"bytecode": {
					"linkReferences": {},
					"object": "6080604052348015600e575f5ffd5b503360035f6101000a81548173ffffffffffffffffffffffffffffffffffffffff021916908373ffffffffffffffffffffffffffffffffffffffff160217905550600560025f3373ffffffffffffffffffffffffffffffffffffffff1673ffffffffffffffffffffffffffffffffffffffff1681526020019081526020015f205f6101000a81548160ff0219169083600581111560ac5760ab60b5565b5b021790555060e2565b7f4e487b71000000000000000000000000000000000000000000000000000000005f52602160045260245ffd5b612c82806100ef5f395ff3fe608060405234801561000f575f5ffd5b50600436106100b2575f3560e01c80638da5cb5b1161006f5780638da5cb5b1461019f57806399374642146101bd578063a252d8a7146101ed578063a775e4cc1461021d578063a97e4d3e14610252578063d54d5b921461026e576100b2565b80631e0e5bc4146100b657806344276733146100d2578063630a195b146101025780636e2be8821461011e578063798ac3581461013a5780637ef1446a1461016a575b5f5ffd5b6100d060048036038101906100cb9190611b34565b61029e565b005b6100ec60048036038101906100e79190611bd5565b6103fa565b6040516100f99190611c73565b60405180910390f35b61011c60048036038101906101179190611caf565b61044c565b005b61013860048036038101906101339190611d20565b610591565b005b610154600480360381019061014f9190611b34565b610a05565b6040516101619190611df0565b60405180910390f35b610184600480360381019061017f9190611b34565b610a9c565b60405161019696959493929190611e92565b60405180910390f35b6101a7610ca9565b6040516101b49190611f06565b60405180910390f35b6101d760048036038101906101d29190611bd5565b610cce565b6040516101e49190611c73565b60405180910390f35b61020760048036038101906102029190611b34565b610ceb565b60405161021491906120dc565b60405180910390f35b61023760048036038101906102329190612126565b610f64565b6040516102499695949392919061218f565b60405180910390f35b61026c600480360381019061026791906121fc565b6110f9565b005b61028860048036038101906102839190611b34565b6116cf565b6040516102959190612357565b60405180910390f35b60058060058111156102b3576102b2611c00565b5b60025f3373ffffffffffffffffffffffffffffffffffffffff1673ffffffffffffffffffffffffffffffffffffffff1681526020019081526020015f205f9054906101000a900460ff16600581111561030f5761030e611c00565b5b1461034f576040517f08c379a0000000000000000000000000000000000000000000000000000000008152600401610346906123c1565b60405180910390fd5b815f8160405161035f9190612419565b908152602001604051809103902060040160149054906101000a900460ff166103bd576040517f08c379a00000000000000000000000000000000000000000000000000000000081526004016103b49061249f565b60405180910390fd5b5f5f846040516103cd9190612419565b908152602001604051809103902060040160146101000a81548160ff021916908315150217905550505050565b5f60025f8373ffffffffffffffffffffffffffffffffffffffff1673ffffffffffffffffffffffffffffffffffffffff1681526020019081526020015f205f9054906101000a900460ff169050919050565b60035f9054906101000a900473ffffffffffffffffffffffffffffffffffffffff1673ffffffffffffffffffffffffffffffffffffffff163373ffffffffffffffffffffffffffffffffffffffff16146104db576040517f08c379a00000000000000000000000000000000000000000000000000000000081526004016104d290612507565b60405180910390fd5b8060025f8473ffffffffffffffffffffffffffffffffffffffff1673ffffffffffffffffffffffffffffffffffffffff1681526020019081526020015f205f6101000a81548160ff0219169083600581111561053a57610539611c00565b5b02179055508173ffffffffffffffffffffffffffffffffffffffff167f4ac36fa53f167ceb85964be512e01de2a3b8bdb9862f917da079deeeff689b38826040516105859190611c73565b60405180910390a25050565b835f816040516105a19190612419565b908152602001604051809103902060040160149054906101000a900460ff166105ff576040517f08c379a00000000000000000000000000000000000000000000000000000000081526004016105f69061249f565b60405180910390fd5b5f600581111561061257610611611c00565b5b60025f3373ffffffffffffffffffffffffffffffffffffffff1673ffffffffffffffffffffffffffffffffffffffff1681526020019081526020015f205f9054906101000a900460ff16600581111561066e5761066d611c00565b5b036106ae576040517f08c379a00000000000000000000000000000000000000000000000000000000081526004016106a590612595565b60405180910390fd5b6001856040516106be9190612419565b908152602001604051809103902060018160018154018082558091505003905f5260205f209050505f600180876040516106f89190612419565b90815260200160405180910390208054905061071491906125e0565b9050336001876040516107279190612419565b9081526020016040518091039020828154811061074757610746612613565b5b905f5260205f2090600602015f015f6101000a81548173ffffffffffffffffffffffffffffffffffffffff021916908373ffffffffffffffffffffffffffffffffffffffff16021790555060025f3373ffffffffffffffffffffffffffffffffffffffff1673ffffffffffffffffffffffffffffffffffffffff1681526020019081526020015f205f9054906101000a900460ff1660058111156107ee576107ed611c00565b5b6001876040516107fe9190612419565b9081526020016040518091039020828154811061081e5761081d612613565b5b905f5260205f20906006020160010181905550846001876040516108429190612419565b9081526020016040518091039020828154811061086257610861612613565b5b905f5260205f209060060201600201908161087d919061284e565b508360018760405161088f9190612419565b908152602001604051809103902082815481106108af576108ae612613565b5b905f5260205f20906006020160030190816108ca919061284e565b50826001876040516108dc9190612419565b908152602001604051809103902082815481106108fc576108fb612613565b5b905f5260205f20906006020160040181905550426001876040516109209190612419565b908152602001604051809103902082815481106109405761093f612613565b5b905f5260205f2090600602016005018190555060508313156109ac578560405161096a9190612419565b60405180910390207f26dc7d14878587176903d5487d42f16c5f65c16bdd4515f4d4b1759adca6644b84336040516109a392919061291d565b60405180910390a25b856040516109ba9190612419565b60405180910390207f6ab2ce4a47bf01ae08a862a18f5e8b1faf85f05c105bbb0298a7c831859da5e33386426040516109f593929190612944565b60405180910390a2505050505050565b5f5f5f83604051610a169190612419565b90815260200160405180910390205f018054610a319061266d565b905011610a73576040517f08c379a0000000000000000000000000000000000000000000000000000000008152600401610a6a906129ca565b60405180910390fd5b600182604051610a839190612419565b9081526020016040518091039020805490509050919050565b5f818051602081018201805184825260208301602085012081835280955050505050505f91509050805f018054610ad29061266d565b80601f0160208091040260200160405190810160405280929190818152602001828054610afe9061266d565b8015610b495780601f10610b2057610100808354040283529160200191610b49565b820191905f5260205f20905b815481529060010190602001808311610b2c57829003601f168201915b505050505090806001018054610b5e9061266d565b80601f0160208091040260200160405190810160405280929190818152602001828054610b8a9061266d565b8015610bd55780601f10610bac57610100808354040283529160200191610bd5565b820191905f5260205f20905b815481529060010190602001808311610bb857829003601f168201915b505050505090806002018054610bea9061266d565b80601f0160208091040260200160405190810160405280929190818152602001828054610c169061266d565b8015610c615780601f10610c3857610100808354040283529160200191610c61565b820191905f5260205f20905b815481529060010190602001808311610c4457829003601f168201915b505050505090806003015490806004015f9054906101000a900473ffffffffffffffffffffffffffffffffffffffff16908060040160149054906101000a900460ff16905086565b60035f9054906101000a900473ffffffffffffffffffffffffffffffffffffffff1681565b6002602052805f5260405f205f915054906101000a900460ff1681565b60605f5f83604051610cfd9190612419565b90815260200160405180910390205f018054610d189061266d565b905011610d5a576040517f08c379a0000000000000000000000000000000000000000000000000000000008152600401610d51906129ca565b60405180910390fd5b600182604051610d6a9190612419565b9081526020016040518091039020805480602002602001604051908101604052809291908181526020015f905b82821015610f59578382905f5260205f2090600602016040518060c00160405290815f82015f9054906101000a900473ffffffffffffffffffffffffffffffffffffffff1673ffffffffffffffffffffffffffffffffffffffff1673ffffffffffffffffffffffffffffffffffffffff16815260200160018201548152602001600282018054610e269061266d565b80601f0160208091040260200160405190810160405280929190818152602001828054610e529061266d565b8015610e9d5780601f10610e7457610100808354040283529160200191610e9d565b820191905f5260205f20905b815481529060010190602001808311610e8057829003601f168201915b50505050508152602001600382018054610eb69061266d565b80601f0160208091040260200160405190810160405280929190818152602001828054610ee29061266d565b8015610f2d5780601f10610f0457610100808354040283529160200191610f2d565b820191905f5260205f20905b815481529060010190602001808311610f1057829003601f168201915b505050505081526020016004820154815260200160058201548152505081526020019060010190610d97565b505050509050919050565b6001828051602081018201805184825260208301602085012081835280955050505050508181548110610f95575f80fd5b905f5260205f2090600602015f9150915050805f015f9054906101000a900473ffffffffffffffffffffffffffffffffffffffff1690806001015490806002018054610fe09061266d565b80601f016020809104026020016040519081016040528092919081815260200182805461100c9061266d565b80156110575780601f1061102e57610100808354040283529160200191611057565b820191905f5260205f20905b81548152906001019060200180831161103a57829003601f168201915b50505050509080600301805461106c9061266d565b80601f01602080910402602001604051908101604052809291908181526020018280546110989061266d565b80156110e35780601f106110ba576101008083540402835291602001916110e3565b820191905f5260205f20905b8154815290600101906020018083116110c657829003601f168201915b5050505050908060040154908060050154905086565b600180600581111561110e5761110d611c00565b5b60025f3373ffffffffffffffffffffffffffffffffffffffff1673ffffffffffffffffffffffffffffffffffffffff1681526020019081526020015f205f9054906101000a900460ff16600581111561116a57611169611c00565b5b146111aa576040517f08c379a00000000000000000000000000000000000000000000000000000000081526004016111a1906123c1565b60405180910390fd5b5f8551116111ed576040517f08c379a00000000000000000000000000000000000000000000000000000000081526004016111e490612a32565b60405180910390fd5b5f5f866040516111fd9190612419565b90815260200160405180910390205f0180546112189061266d565b90501461125a576040517f08c379a000000000000000000000000000000000000000000000000000000000815260040161125190612a9a565b60405180910390fd5b4282111561129d576040517f08c379a000000000000000000000000000000000000000000000000000000000815260040161129490612b28565b60405180910390fd5b6040518060c001604052808681526020018581526020018481526020018381526020013373ffffffffffffffffffffffffffffffffffffffff168152602001600115158152505f866040516112f29190612419565b90815260200160405180910390205f820151815f019081611313919061284e565b506020820151816001019081611329919061284e565b50604082015181600201908161133f919061284e565b50606082015181600301556080820151816004015f6101000a81548173ffffffffffffffffffffffffffffffffffffffff021916908373ffffffffffffffffffffffffffffffffffffffff16021790555060a08201518160040160146101000a81548160ff0219169083151502179055509050506001856040516113c39190612419565b908152602001604051809103902060018160018154018082558091505003905f5260205f209050505f600180876040516113fd9190612419565b90815260200160405180910390208054905061141991906125e0565b90503360018760405161142c9190612419565b9081526020016040518091039020828154811061144c5761144b612613565b5b905f5260205f2090600602015f015f6101000a81548173ffffffffffffffffffffffffffffffffffffffff021916908373ffffffffffffffffffffffffffffffffffffffff160217905550600160058111156114ab576114aa611c00565b5b6001876040516114bb9190612419565b908152602001604051809103902082815481106114db576114da612613565b5b905f5260205f20906006020160010181905550836001876040516114ff9190612419565b9081526020016040518091039020828154811061151f5761151e612613565b5b905f5260205f209060060201600201908161153a919061284e565b506040518060600160405280602e8152602001612c1f602e91396001876040516115649190612419565b9081526020016040518091039020828154811061158457611583612613565b5b905f5260205f209060060201600301908161159f919061284e565b5060fa6001876040516115b29190612419565b908152602001604051809103902082815481106115d2576115d1612613565b5b905f5260205f20906006020160040181905550426001876040516115f69190612419565b9081526020016040518091039020828154811061161657611615612613565b5b905f5260205f20906006020160050181905550856040516116379190612419565b60405180910390207fe187ef62f610f162883fdada619504c09c0981be2dc09fbc1029e7a09db45a938633604051611670929190612b46565b60405180910390a2856040516116869190612419565b60405180910390207f6ab2ce4a47bf01ae08a862a18f5e8b1faf85f05c105bbb0298a7c831859da5e333426040516116bf929190612be4565b60405180910390a2505050505050565b6116d761199c565b5f5f836040516116e79190612419565b90815260200160405180910390205f0180546117029061266d565b905011611744576040517f08c379a000000000000000000000000000000000000000000000000000000000815260040161173b906129ca565b60405180910390fd5b5f826040516117539190612419565b90815260200160405180910390206040518060c00160405290815f8201805461177b9061266d565b80601f01602080910402602001604051908101604052809291908181526020018280546117a79061266d565b80156117f25780601f106117c9576101008083540402835291602001916117f2565b820191905f5260205f20905b8154815290600101906020018083116117d557829003601f168201915b5050505050815260200160018201805461180b9061266d565b80601f01602080910402602001604051908101604052809291908181526020018280546118379061266d565b80156118825780601f1061185957610100808354040283529160200191611882565b820191905f5260205f20905b81548152906001019060200180831161186557829003601f168201915b5050505050815260200160028201805461189b9061266d565b80601f01602080910402602001604051908101604052809291908181526020018280546118c79061266d565b80156119125780601f106118e957610100808354040283529160200191611912565b820191905f5260205f20905b8154815290600101906020018083116118f557829003601f168201915b5050505050815260200160038201548152602001600482015f9054906101000a900473ffffffffffffffffffffffffffffffffffffffff1673ffffffffffffffffffffffffffffffffffffffff1673ffffffffffffffffffffffffffffffffffffffff1681526020016004820160149054906101000a900460ff1615151515815250509050919050565b6040518060c001604052806060815260200160608152602001606081526020015f81526020015f73ffffffffffffffffffffffffffffffffffffffff1681526020015f151581525090565b5f604051905090565b5f5ffd5b5f5ffd5b5f5ffd5b5f5ffd5b5f601f19601f8301169050919050565b7f4e487b71000000000000000000000000000000000000000000000000000000005f52604160045260245ffd5b611a4682611a00565b810181811067ffffffffffffffff82111715611a6557611a64611a10565b5b80604052505050565b5f611a776119e7565b9050611a838282611a3d565b919050565b5f67ffffffffffffffff821115611aa257611aa1611a10565b5b611aab82611a00565b9050602081019050919050565b828183375f83830152505050565b5f611ad8611ad384611a88565b611a6e565b905082815260208101848484011115611af457611af36119fc565b5b611aff848285611ab8565b509392505050565b5f82601f830112611b1b57611b1a6119f8565b5b8135611b2b848260208601611ac6565b91505092915050565b5f60208284031215611b4957611b486119f0565b5b5f82013567ffffffffffffffff811115611b6657611b656119f4565b5b611b7284828501611b07565b91505092915050565b5f73ffffffffffffffffffffffffffffffffffffffff82169050919050565b5f611ba482611b7b565b9050919050565b611bb481611b9a565b8114611bbe575f5ffd5b50565b5f81359050611bcf81611bab565b92915050565b5f60208284031215611bea57611be96119f0565b5b5f611bf784828501611bc1565b91505092915050565b7f4e487b71000000000000000000000000000000000000000000000000000000005f52602160045260245ffd5b60068110611c3e57611c3d611c00565b5b50565b5f819050611c4e82611c2d565b919050565b5f611c5d82611c41565b9050919050565b611c6d81611c53565b82525050565b5f602082019050611c865f830184611c64565b92915050565b60068110611c98575f5ffd5b50565b5f81359050611ca981611c8c565b92915050565b5f5f60408385031215611cc557611cc46119f0565b5b5f611cd285828601611bc1565b9250506020611ce385828601611c9b565b9150509250929050565b5f819050919050565b611cff81611ced565b8114611d09575f5ffd5b50565b5f81359050611d1a81611cf6565b92915050565b5f5f5f5f60808587031215611d3857611d376119f0565b5b5f85013567ffffffffffffffff811115611d5557611d546119f4565b5b611d6187828801611b07565b945050602085013567ffffffffffffffff811115611d8257611d816119f4565b5b611d8e87828801611b07565b935050604085013567ffffffffffffffff811115611daf57611dae6119f4565b5b611dbb87828801611b07565b9250506060611dcc87828801611d0c565b91505092959194509250565b5f819050919050565b611dea81611dd8565b82525050565b5f602082019050611e035f830184611de1565b92915050565b5f81519050919050565b5f82825260208201905092915050565b8281835e5f83830152505050565b5f611e3b82611e09565b611e458185611e13565b9350611e55818560208601611e23565b611e5e81611a00565b840191505092915050565b611e7281611b9a565b82525050565b5f8115159050919050565b611e8c81611e78565b82525050565b5f60c0820190508181035f830152611eaa8189611e31565b90508181036020830152611ebe8188611e31565b90508181036040830152611ed28187611e31565b9050611ee16060830186611de1565b611eee6080830185611e69565b611efb60a0830184611e83565b979650505050505050565b5f602082019050611f195f830184611e69565b92915050565b5f81519050919050565b5f82825260208201905092915050565b5f819050602082019050919050565b611f5181611b9a565b82525050565b611f6081611dd8565b82525050565b5f82825260208201905092915050565b5f611f8082611e09565b611f8a8185611f66565b9350611f9a818560208601611e23565b611fa381611a00565b840191505092915050565b611fb781611ced565b82525050565b5f60c083015f830151611fd25f860182611f48565b506020830151611fe56020860182611f57565b5060408301518482036040860152611ffd8282611f76565b915050606083015184820360608601526120178282611f76565b915050608083015161202c6080860182611fae565b5060a083015161203f60a0860182611f57565b508091505092915050565b5f6120558383611fbd565b905092915050565b5f602082019050919050565b5f61207382611f1f565b61207d8185611f29565b93508360208202850161208f85611f39565b805f5b858110156120ca57848403895281516120ab858261204a565b94506120b68361205d565b925060208a01995050600181019050612092565b50829750879550505050505092915050565b5f6020820190508181035f8301526120f48184612069565b905092915050565b61210581611dd8565b811461210f575f5ffd5b50565b5f81359050612120816120fc565b92915050565b5f5f6040838503121561213c5761213b6119f0565b5b5f83013567ffffffffffffffff811115612159576121586119f4565b5b61216585828601611b07565b925050602061217685828601612112565b9150509250929050565b61218981611ced565b82525050565b5f60c0820190506121a25f830189611e69565b6121af6020830188611de1565b81810360408301526121c18187611e31565b905081810360608301526121d58186611e31565b90506121e46080830185612180565b6121f160a0830184611de1565b979650505050505050565b5f5f5f5f60808587031215612214576122136119f0565b5b5f85013567ffffffffffffffff811115612231576122306119f4565b5b61223d87828801611b07565b945050602085013567ffffffffffffffff81111561225e5761225d6119f4565b5b61226a87828801611b07565b935050604085013567ffffffffffffffff81111561228b5761228a6119f4565b5b61229787828801611b07565b92505060606122a887828801612112565b91505092959194509250565b6122bd81611e78565b82525050565b5f60c083015f8301518482035f8601526122dd8282611f76565b915050602083015184820360208601526122f78282611f76565b915050604083015184820360408601526123118282611f76565b91505060608301516123266060860182611f57565b5060808301516123396080860182611f48565b5060a083015161234c60a08601826122b4565b508091505092915050565b5f6020820190508181035f83015261236f81846122c3565b905092915050565b7f556e617574686f72697a65643a20696e636f727265637420726f6c65000000005f82015250565b5f6123ab601c83611e13565b91506123b682612377565b602082019050919050565b5f6020820190508181035f8301526123d88161239f565b9050919050565b5f81905092915050565b5f6123f382611e09565b6123fd81856123df565b935061240d818560208601611e23565b80840191505092915050565b5f61242482846123e9565b915081905092915050565b7f426174636820646f6573206e6f74206578697374206f7220697320696e6163745f8201527f6976650000000000000000000000000000000000000000000000000000000000602082015250565b5f612489602383611e13565b91506124948261242f565b604082019050919050565b5f6020820190508181035f8301526124b68161247d565b9050919050565b7f4f6e6c79206f776e65722063616e2063616c6c207468697300000000000000005f82015250565b5f6124f1601883611e13565b91506124fc826124bd565b602082019050919050565b5f6020820190508181035f83015261251e816124e5565b9050919050565b7f43616c6c6572206973206e6f74206120726567697374657265642070617274695f8201527f636970616e740000000000000000000000000000000000000000000000000000602082015250565b5f61257f602683611e13565b915061258a82612525565b604082019050919050565b5f6020820190508181035f8301526125ac81612573565b9050919050565b7f4e487b71000000000000000000000000000000000000000000000000000000005f52601160045260245ffd5b5f6125ea82611dd8565b91506125f583611dd8565b925082820390508181111561260d5761260c6125b3565b5b92915050565b7f4e487b71000000000000000000000000000000000000000000000000000000005f52603260045260245ffd5b7f4e487b71000000000000000000000000000000000000000000000000000000005f52602260045260245ffd5b5f600282049050600182168061268457607f821691505b60208210810361269757612696612640565b5b50919050565b5f819050815f5260205f209050919050565b5f6020601f8301049050919050565b5f82821b905092915050565b5f600883026126f97fffffffffffffffffffffffffffffffffffffffffffffffffffffffffffffffff826126be565b61270386836126be565b95508019841693508086168417925050509392505050565b5f819050919050565b5f61273e61273961273484611dd8565b61271b565b611dd8565b9050919050565b5f819050919050565b61275783612724565b61276b61276382612745565b8484546126ca565b825550505050565b5f5f905090565b612782612773565b61278d81848461274e565b505050565b5f5b828110156127b3576127a85f82840161277a565b600181019050612794565b505050565b601f8211156128065782821115612805576127d28161269d565b6127db836126af565b6127e4856126af565b60208610156127f1575f90505b80830161280082840382612792565b505050505b5b505050565b5f82821c905092915050565b5f6128265f198460080261280b565b1980831691505092915050565b5f61283e8383612817565b9150826002028217905092915050565b61285782611e09565b67ffffffffffffffff8111156128705761286f611a10565b5b61287a825461266d565b6128858282856127b8565b5f60209050601f8311600181146128b6575f84156128a4578287015190505b6128ae8582612833565b865550612915565b601f1984166128c48661269d565b5f5b828110156128eb578489015182556001820191506020850194506020810190506128c6565b868310156129085784890151612904601f891682612817565b8355505b6001600288020188555050505b505050505050565b5f6040820190506129305f830185612180565b61293d6020830184611e69565b9392505050565b5f6060820190506129575f830186611e69565b81810360208301526129698185611e31565b90506129786040830184611de1565b949350505050565b7f4261746368206e6f7420666f756e6400000000000000000000000000000000005f82015250565b5f6129b4600f83611e13565b91506129bf82612980565b602082019050919050565b5f6020820190508181035f8301526129e1816129a8565b9050919050565b7f42617463682049442063616e6e6f7420626520656d70747900000000000000005f82015250565b5f612a1c601883611e13565b9150612a27826129e8565b602082019050919050565b5f6020820190508181035f830152612a4981612a10565b9050919050565b7f426174636820494420616c7265616479207265676973746572656400000000005f82015250565b5f612a84601b83611e13565b9150612a8f82612a50565b602082019050919050565b5f6020820190508181035f830152612ab181612a78565b9050919050565b7f50726f64756374696f6e20646174652063616e6e6f7420626520696e207468655f8201527f2066757475726500000000000000000000000000000000000000000000000000602082015250565b5f612b12602783611e13565b9150612b1d82612ab8565b604082019050919050565b5f6020820190508181035f830152612b3f81612b06565b9050919050565b5f6040820190508181035f830152612b5e8185611e31565b9050612b6d6020830184611e69565b9392505050565b7f50726f647563742068617276657374656420616e6420726567697374657265645f8201527f206f6e20626c6f636b636861696e000000000000000000000000000000000000602082015250565b5f612bce602e83611e13565b9150612bd982612b74565b604082019050919050565b5f606082019050612bf75f830185611e69565b8181036020830152612c0881612bc2565b9050612c176040830184611de1565b939250505056fe50726f647563742068617276657374656420616e642072656769737465726564206f6e20626c6f636b636861696ea26469706673582212205dd2a063972015663ec3fff6e1a449349d981c46c6bf4c8a8d191d649a0eb74f64736f6c63430008220033",
					"opcodes": "PUSH1 0x80 PUSH1 0x40 MSTORE CALLVALUE DUP1 ISZERO PUSH1 0xE JUMPI PUSH0 PUSH0 REVERT JUMPDEST POP CALLER PUSH1 0x3 PUSH0 PUSH2 0x100 EXP DUP2 SLOAD DUP2 PUSH20 0xFFFFFFFFFFFFFFFFFFFFFFFFFFFFFFFFFFFFFFFF MUL NOT AND SWAP1 DUP4 PUSH20 0xFFFFFFFFFFFFFFFFFFFFFFFFFFFFFFFFFFFFFFFF AND MUL OR SWAP1 SSTORE POP PUSH1 0x5 PUSH1 0x2 PUSH0 CALLER PUSH20 0xFFFFFFFFFFFFFFFFFFFFFFFFFFFFFFFFFFFFFFFF AND PUSH20 0xFFFFFFFFFFFFFFFFFFFFFFFFFFFFFFFFFFFFFFFF AND DUP2 MSTORE PUSH1 0x20 ADD SWAP1 DUP2 MSTORE PUSH1 0x20 ADD PUSH0 KECCAK256 PUSH0 PUSH2 0x100 EXP DUP2 SLOAD DUP2 PUSH1 0xFF MUL NOT AND SWAP1 DUP4 PUSH1 0x5 DUP2 GT ISZERO PUSH1 0xAC JUMPI PUSH1 0xAB PUSH1 0xB5 JUMP JUMPDEST JUMPDEST MUL OR SWAP1 SSTORE POP PUSH1 0xE2 JUMP JUMPDEST PUSH32 0x4E487B7100000000000000000000000000000000000000000000000000000000 PUSH0 MSTORE PUSH1 0x21 PUSH1 0x4 MSTORE PUSH1 0x24 PUSH0 REVERT JUMPDEST PUSH2 0x2C82 DUP1 PUSH2 0xEF PUSH0 CODECOPY PUSH0 RETURN INVALID PUSH1 0x80 PUSH1 0x40 MSTORE CALLVALUE DUP1 ISZERO PUSH2 0xF JUMPI PUSH0 PUSH0 REVERT JUMPDEST POP PUSH1 0x4 CALLDATASIZE LT PUSH2 0xB2 JUMPI PUSH0 CALLDATALOAD PUSH1 0xE0 SHR DUP1 PUSH4 0x8DA5CB5B GT PUSH2 0x6F JUMPI DUP1 PUSH4 0x8DA5CB5B EQ PUSH2 0x19F JUMPI DUP1 PUSH4 0x99374642 EQ PUSH2 0x1BD JUMPI DUP1 PUSH4 0xA252D8A7 EQ PUSH2 0x1ED JUMPI DUP1 PUSH4 0xA775E4CC EQ PUSH2 0x21D JUMPI DUP1 PUSH4 0xA97E4D3E EQ PUSH2 0x252 JUMPI DUP1 PUSH4 0xD54D5B92 EQ PUSH2 0x26E JUMPI PUSH2 0xB2 JUMP JUMPDEST DUP1 PUSH4 0x1E0E5BC4 EQ PUSH2 0xB6 JUMPI DUP1 PUSH4 0x44276733 EQ PUSH2 0xD2 JUMPI DUP1 PUSH4 0x630A195B EQ PUSH2 0x102 JUMPI DUP1 PUSH4 0x6E2BE882 EQ PUSH2 0x11E JUMPI DUP1 PUSH4 0x798AC358 EQ PUSH2 0x13A JUMPI DUP1 PUSH4 0x7EF1446A EQ PUSH2 0x16A JUMPI JUMPDEST PUSH0 PUSH0 REVERT JUMPDEST PUSH2 0xD0 PUSH1 0x4 DUP1 CALLDATASIZE SUB DUP2 ADD SWAP1 PUSH2 0xCB SWAP2 SWAP1 PUSH2 0x1B34 JUMP JUMPDEST PUSH2 0x29E JUMP JUMPDEST STOP JUMPDEST PUSH2 0xEC PUSH1 0x4 DUP1 CALLDATASIZE SUB DUP2 ADD SWAP1 PUSH2 0xE7 SWAP2 SWAP1 PUSH2 0x1BD5 JUMP JUMPDEST PUSH2 0x3FA JUMP JUMPDEST PUSH1 0x40 MLOAD PUSH2 0xF9 SWAP2 SWAP1 PUSH2 0x1C73 JUMP JUMPDEST PUSH1 0x40 MLOAD DUP1 SWAP2 SUB SWAP1 RETURN JUMPDEST PUSH2 0x11C PUSH1 0x4 DUP1 CALLDATASIZE SUB DUP2 ADD SWAP1 PUSH2 0x117 SWAP2 SWAP1 PUSH2 0x1CAF JUMP JUMPDEST PUSH2 0x44C JUMP JUMPDEST STOP JUMPDEST PUSH2 0x138 PUSH1 0x4 DUP1 CALLDATASIZE SUB DUP2 ADD SWAP1 PUSH2 0x133 SWAP2 SWAP1 PUSH2 0x1D20 JUMP JUMPDEST PUSH2 0x591 JUMP JUMPDEST STOP JUMPDEST PUSH2 0x154 PUSH1 0x4 DUP1 CALLDATASIZE SUB DUP2 ADD SWAP1 PUSH2 0x14F SWAP2 SWAP1 PUSH2 0x1B34 JUMP JUMPDEST PUSH2 0xA05 JUMP JUMPDEST PUSH1 0x40 MLOAD PUSH2 0x161 SWAP2 SWAP1 PUSH2 0x1DF0 JUMP JUMPDEST PUSH1 0x40 MLOAD DUP1 SWAP2 SUB SWAP1 RETURN JUMPDEST PUSH2 0x184 PUSH1 0x4 DUP1 CALLDATASIZE SUB DUP2 ADD SWAP1 PUSH2 0x17F SWAP2 SWAP1 PUSH2 0x1B34 JUMP JUMPDEST PUSH2 0xA9C JUMP JUMPDEST PUSH1 0x40 MLOAD PUSH2 0x196 SWAP7 SWAP6 SWAP5 SWAP4 SWAP3 SWAP2 SWAP1 PUSH2 0x1E92 JUMP JUMPDEST PUSH1 0x40 MLOAD DUP1 SWAP2 SUB SWAP1 RETURN JUMPDEST PUSH2 0x1A7 PUSH2 0xCA9 JUMP JUMPDEST PUSH1 0x40 MLOAD PUSH2 0x1B4 SWAP2 SWAP1 PUSH2 0x1F06 JUMP JUMPDEST PUSH1 0x40 MLOAD DUP1 SWAP2 SUB SWAP1 RETURN JUMPDEST PUSH2 0x1D7 PUSH1 0x4 DUP1 CALLDATASIZE SUB DUP2 ADD SWAP1 PUSH2 0x1D2 SWAP2 SWAP1 PUSH2 0x1BD5 JUMP JUMPDEST PUSH2 0xCCE JUMP JUMPDEST PUSH1 0x40 MLOAD PUSH2 0x1E4 SWAP2 SWAP1 PUSH2 0x1C73 JUMP JUMPDEST PUSH1 0x40 MLOAD DUP1 SWAP2 SUB SWAP1 RETURN JUMPDEST PUSH2 0x207 PUSH1 0x4 DUP1 CALLDATASIZE SUB DUP2 ADD SWAP1 PUSH2 0x202 SWAP2 SWAP1 PUSH2 0x1B34 JUMP JUMPDEST PUSH2 0xCEB JUMP JUMPDEST PUSH1 0x40 MLOAD PUSH2 0x214 SWAP2 SWAP1 PUSH2 0x20DC JUMP JUMPDEST PUSH1 0x40 MLOAD DUP1 SWAP2 SUB SWAP1 RETURN JUMPDEST PUSH2 0x237 PUSH1 0x4 DUP1 CALLDATASIZE SUB DUP2 ADD SWAP1 PUSH2 0x232 SWAP2 SWAP1 PUSH2 0x2126 JUMP JUMPDEST PUSH2 0xF64 JUMP JUMPDEST PUSH1 0x40 MLOAD PUSH2 0x249 SWAP7 SWAP6 SWAP5 SWAP4 SWAP3 SWAP2 SWAP1 PUSH2 0x218F JUMP JUMPDEST PUSH1 0x40 MLOAD DUP1 SWAP2 SUB SWAP1 RETURN JUMPDEST PUSH2 0x26C PUSH1 0x4 DUP1 CALLDATASIZE SUB DUP2 ADD SWAP1 PUSH2 0x267 SWAP2 SWAP1 PUSH2 0x21FC JUMP JUMPDEST PUSH2 0x10F9 JUMP JUMPDEST STOP JUMPDEST PUSH2 0x288 PUSH1 0x4 DUP1 CALLDATASIZE SUB DUP2 ADD SWAP1 PUSH2 0x283 SWAP2 SWAP1 PUSH2 0x1B34 JUMP JUMPDEST PUSH2 0x16CF JUMP JUMPDEST PUSH1 0x40 MLOAD PUSH2 0x295 SWAP2 SWAP1 PUSH2 0x2357 JUMP JUMPDEST PUSH1 0x40 MLOAD DUP1 SWAP2 SUB SWAP1 RETURN JUMPDEST PUSH1 0x5 DUP1 PUSH1 0x5 DUP2 GT ISZERO PUSH2 0x2B3 JUMPI PUSH2 0x2B2 PUSH2 0x1C00 JUMP JUMPDEST JUMPDEST PUSH1 0x2 PUSH0 CALLER PUSH20 0xFFFFFFFFFFFFFFFFFFFFFFFFFFFFFFFFFFFFFFFF AND PUSH20 0xFFFFFFFFFFFFFFFFFFFFFFFFFFFFFFFFFFFFFFFF AND DUP2 MSTORE PUSH1 0x20 ADD SWAP1 DUP2 MSTORE PUSH1 0x20 ADD PUSH0 KECCAK256 PUSH0 SWAP1 SLOAD SWAP1 PUSH2 0x100 EXP SWAP1 DIV PUSH1 0xFF AND PUSH1 0x5 DUP2 GT ISZERO PUSH2 0x30F JUMPI PUSH2 0x30E PUSH2 0x1C00 JUMP JUMPDEST JUMPDEST EQ PUSH2 0x34F JUMPI PUSH1 0x40 MLOAD PUSH32 0x8C379A000000000000000000000000000000000000000000000000000000000 DUP2 MSTORE PUSH1 0x4 ADD PUSH2 0x346 SWAP1 PUSH2 0x23C1 JUMP JUMPDEST PUSH1 0x40 MLOAD DUP1 SWAP2 SUB SWAP1 REVERT JUMPDEST DUP2 PUSH0 DUP2 PUSH1 0x40 MLOAD PUSH2 0x35F SWAP2 SWAP1 PUSH2 0x2419 JUMP JUMPDEST SWAP1 DUP2 MSTORE PUSH1 0x20 ADD PUSH1 0x40 MLOAD DUP1 SWAP2 SUB SWAP1 KECCAK256 PUSH1 0x4 ADD PUSH1 0x14 SWAP1 SLOAD SWAP1 PUSH2 0x100 EXP SWAP1 DIV PUSH1 0xFF AND PUSH2 0x3BD JUMPI PUSH1 0x40 MLOAD PUSH32 0x8C379A000000000000000000000000000000000000000000000000000000000 DUP2 MSTORE PUSH1 0x4 ADD PUSH2 0x3B4 SWAP1 PUSH2 0x249F JUMP JUMPDEST PUSH1 0x40 MLOAD DUP1 SWAP2 SUB SWAP1 REVERT JUMPDEST PUSH0 PUSH0 DUP5 PUSH1 0x40 MLOAD PUSH2 0x3CD SWAP2 SWAP1 PUSH2 0x2419 JUMP JUMPDEST SWAP1 DUP2 MSTORE PUSH1 0x20 ADD PUSH1 0x40 MLOAD DUP1 SWAP2 SUB SWAP1 KECCAK256 PUSH1 0x4 ADD PUSH1 0x14 PUSH2 0x100 EXP DUP2 SLOAD DUP2 PUSH1 0xFF MUL NOT AND SWAP1 DUP4 ISZERO ISZERO MUL OR SWAP1 SSTORE POP POP POP POP JUMP JUMPDEST PUSH0 PUSH1 0x2 PUSH0 DUP4 PUSH20 0xFFFFFFFFFFFFFFFFFFFFFFFFFFFFFFFFFFFFFFFF AND PUSH20 0xFFFFFFFFFFFFFFFFFFFFFFFFFFFFFFFFFFFFFFFF AND DUP2 MSTORE PUSH1 0x20 ADD SWAP1 DUP2 MSTORE PUSH1 0x20 ADD PUSH0 KECCAK256 PUSH0 SWAP1 SLOAD SWAP1 PUSH2 0x100 EXP SWAP1 DIV PUSH1 0xFF AND SWAP1 POP SWAP2 SWAP1 POP JUMP JUMPDEST PUSH1 0x3 PUSH0 SWAP1 SLOAD SWAP1 PUSH2 0x100 EXP SWAP1 DIV PUSH20 0xFFFFFFFFFFFFFFFFFFFFFFFFFFFFFFFFFFFFFFFF AND PUSH20 0xFFFFFFFFFFFFFFFFFFFFFFFFFFFFFFFFFFFFFFFF AND CALLER PUSH20 0xFFFFFFFFFFFFFFFFFFFFFFFFFFFFFFFFFFFFFFFF AND EQ PUSH2 0x4DB JUMPI PUSH1 0x40 MLOAD PUSH32 0x8C379A000000000000000000000000000000000000000000000000000000000 DUP2 MSTORE PUSH1 0x4 ADD PUSH2 0x4D2 SWAP1 PUSH2 0x2507 JUMP JUMPDEST PUSH1 0x40 MLOAD DUP1 SWAP2 SUB SWAP1 REVERT JUMPDEST DUP1 PUSH1 0x2 PUSH0 DUP5 PUSH20 0xFFFFFFFFFFFFFFFFFFFFFFFFFFFFFFFFFFFFFFFF AND PUSH20 0xFFFFFFFFFFFFFFFFFFFFFFFFFFFFFFFFFFFFFFFF AND DUP2 MSTORE PUSH1 0x20 ADD SWAP1 DUP2 MSTORE PUSH1 0x20 ADD PUSH0 KECCAK256 PUSH0 PUSH2 0x100 EXP DUP2 SLOAD DUP2 PUSH1 0xFF MUL NOT AND SWAP1 DUP4 PUSH1 0x5 DUP2 GT ISZERO PUSH2 0x53A JUMPI PUSH2 0x539 PUSH2 0x1C00 JUMP JUMPDEST JUMPDEST MUL OR SWAP1 SSTORE POP DUP2 PUSH20 0xFFFFFFFFFFFFFFFFFFFFFFFFFFFFFFFFFFFFFFFF AND PUSH32 0x4AC36FA53F167CEB85964BE512E01DE2A3B8BDB9862F917DA079DEEEFF689B38 DUP3 PUSH1 0x40 MLOAD PUSH2 0x585 SWAP2 SWAP1 PUSH2 0x1C73 JUMP JUMPDEST PUSH1 0x40 MLOAD DUP1 SWAP2 SUB SWAP1 LOG2 POP POP JUMP JUMPDEST DUP4 PUSH0 DUP2 PUSH1 0x40 MLOAD PUSH2 0x5A1 SWAP2 SWAP1 PUSH2 0x2419 JUMP JUMPDEST SWAP1 DUP2 MSTORE PUSH1 0x20 ADD PUSH1 0x40 MLOAD DUP1 SWAP2 SUB SWAP1 KECCAK256 PUSH1 0x4 ADD PUSH1 0x14 SWAP1 SLOAD SWAP1 PUSH2 0x100 EXP SWAP1 DIV PUSH1 0xFF AND PUSH2 0x5FF JUMPI PUSH1 0x40 MLOAD PUSH32 0x8C379A000000000000000000000000000000000000000000000000000000000 DUP2 MSTORE PUSH1 0x4 ADD PUSH2 0x5F6 SWAP1 PUSH2 0x249F JUMP JUMPDEST PUSH1 0x40 MLOAD DUP1 SWAP2 SUB SWAP1 REVERT JUMPDEST PUSH0 PUSH1 0x5 DUP2 GT ISZERO PUSH2 0x612 JUMPI PUSH2 0x611 PUSH2 0x1C00 JUMP JUMPDEST JUMPDEST PUSH1 0x2 PUSH0 CALLER PUSH20 0xFFFFFFFFFFFFFFFFFFFFFFFFFFFFFFFFFFFFFFFF AND PUSH20 0xFFFFFFFFFFFFFFFFFFFFFFFFFFFFFFFFFFFFFFFF AND DUP2 MSTORE PUSH1 0x20 ADD SWAP1 DUP2 MSTORE PUSH1 0x20 ADD PUSH0 KECCAK256 PUSH0 SWAP1 SLOAD SWAP1 PUSH2 0x100 EXP SWAP1 DIV PUSH1 0xFF AND PUSH1 0x5 DUP2 GT ISZERO PUSH2 0x66E JUMPI PUSH2 0x66D PUSH2 0x1C00 JUMP JUMPDEST JUMPDEST SUB PUSH2 0x6AE JUMPI PUSH1 0x40 MLOAD PUSH32 0x8C379A000000000000000000000000000000000000000000000000000000000 DUP2 MSTORE PUSH1 0x4 ADD PUSH2 0x6A5 SWAP1 PUSH2 0x2595 JUMP JUMPDEST PUSH1 0x40 MLOAD DUP1 SWAP2 SUB SWAP1 REVERT JUMPDEST PUSH1 0x1 DUP6 PUSH1 0x40 MLOAD PUSH2 0x6BE SWAP2 SWAP1 PUSH2 0x2419 JUMP JUMPDEST SWAP1 DUP2 MSTORE PUSH1 0x20 ADD PUSH1 0x40 MLOAD DUP1 SWAP2 SUB SWAP1 KECCAK256 PUSH1 0x1 DUP2 PUSH1 0x1 DUP2 SLOAD ADD DUP1 DUP3 SSTORE DUP1 SWAP2 POP POP SUB SWAP1 PUSH0 MSTORE PUSH1 0x20 PUSH0 KECCAK256 SWAP1 POP POP PUSH0 PUSH1 0x1 DUP1 DUP8 PUSH1 0x40 MLOAD PUSH2 0x6F8 SWAP2 SWAP1 PUSH2 0x2419 JUMP JUMPDEST SWAP1 DUP2 MSTORE PUSH1 0x20 ADD PUSH1 0x40 MLOAD DUP1 SWAP2 SUB SWAP1 KECCAK256 DUP1 SLOAD SWAP1 POP PUSH2 0x714 SWAP2 SWAP1 PUSH2 0x25E0 JUMP JUMPDEST SWAP1 POP CALLER PUSH1 0x1 DUP8 PUSH1 0x40 MLOAD PUSH2 0x727 SWAP2 SWAP1 PUSH2 0x2419 JUMP JUMPDEST SWAP1 DUP2 MSTORE PUSH1 0x20 ADD PUSH1 0x40 MLOAD DUP1 SWAP2 SUB SWAP1 KECCAK256 DUP3 DUP2 SLOAD DUP2 LT PUSH2 0x747 JUMPI PUSH2 0x746 PUSH2 0x2613 JUMP JUMPDEST JUMPDEST SWAP1 PUSH0 MSTORE PUSH1 0x20 PUSH0 KECCAK256 SWAP1 PUSH1 0x6 MUL ADD PUSH0 ADD PUSH0 PUSH2 0x100 EXP DUP2 SLOAD DUP2 PUSH20 0xFFFFFFFFFFFFFFFFFFFFFFFFFFFFFFFFFFFFFFFF MUL NOT AND SWAP1 DUP4 PUSH20 0xFFFFFFFFFFFFFFFFFFFFFFFFFFFFFFFFFFFFFFFF AND MUL OR SWAP1 SSTORE POP PUSH1 0x2 PUSH0 CALLER PUSH20 0xFFFFFFFFFFFFFFFFFFFFFFFFFFFFFFFFFFFFFFFF AND PUSH20 0xFFFFFFFFFFFFFFFFFFFFFFFFFFFFFFFFFFFFFFFF AND DUP2 MSTORE PUSH1 0x20 ADD SWAP1 DUP2 MSTORE PUSH1 0x20 ADD PUSH0 KECCAK256 PUSH0 SWAP1 SLOAD SWAP1 PUSH2 0x100 EXP SWAP1 DIV PUSH1 0xFF AND PUSH1 0x5 DUP2 GT ISZERO PUSH2 0x7EE JUMPI PUSH2 0x7ED PUSH2 0x1C00 JUMP JUMPDEST JUMPDEST PUSH1 0x1 DUP8 PUSH1 0x40 MLOAD PUSH2 0x7FE SWAP2 SWAP1 PUSH2 0x2419 JUMP JUMPDEST SWAP1 DUP2 MSTORE PUSH1 0x20 ADD PUSH1 0x40 MLOAD DUP1 SWAP2 SUB SWAP1 KECCAK256 DUP3 DUP2 SLOAD DUP2 LT PUSH2 0x81E JUMPI PUSH2 0x81D PUSH2 0x2613 JUMP JUMPDEST JUMPDEST SWAP1 PUSH0 MSTORE PUSH1 0x20 PUSH0 KECCAK256 SWAP1 PUSH1 0x6 MUL ADD PUSH1 0x1 ADD DUP2 SWAP1 SSTORE POP DUP5 PUSH1 0x1 DUP8 PUSH1 0x40 MLOAD PUSH2 0x842 SWAP2 SWAP1 PUSH2 0x2419 JUMP JUMPDEST SWAP1 DUP2 MSTORE PUSH1 0x20 ADD PUSH1 0x40 MLOAD DUP1 SWAP2 SUB SWAP1 KECCAK256 DUP3 DUP2 SLOAD DUP2 LT PUSH2 0x862 JUMPI PUSH2 0x861 PUSH2 0x2613 JUMP JUMPDEST JUMPDEST SWAP1 PUSH0 MSTORE PUSH1 0x20 PUSH0 KECCAK256 SWAP1 PUSH1 0x6 MUL ADD PUSH1 0x2 ADD SWAP1 DUP2 PUSH2 0x87D SWAP2 SWAP1 PUSH2 0x284E JUMP JUMPDEST POP DUP4 PUSH1 0x1 DUP8 PUSH1 0x40 MLOAD PUSH2 0x88F SWAP2 SWAP1 PUSH2 0x2419 JUMP JUMPDEST SWAP1 DUP2 MSTORE PUSH1 0x20 ADD PUSH1 0x40 MLOAD DUP1 SWAP2 SUB SWAP1 KECCAK256 DUP3 DUP2 SLOAD DUP2 LT PUSH2 0x8AF JUMPI PUSH2 0x8AE PUSH2 0x2613 JUMP JUMPDEST JUMPDEST SWAP1 PUSH0 MSTORE PUSH1 0x20 PUSH0 KECCAK256 SWAP1 PUSH1 0x6 MUL ADD PUSH1 0x3 ADD SWAP1 DUP2 PUSH2 0x8CA SWAP2 SWAP1 PUSH2 0x284E JUMP JUMPDEST POP DUP3 PUSH1 0x1 DUP8 PUSH1 0x40 MLOAD PUSH2 0x8DC SWAP2 SWAP1 PUSH2 0x2419 JUMP JUMPDEST SWAP1 DUP2 MSTORE PUSH1 0x20 ADD PUSH1 0x40 MLOAD DUP1 SWAP2 SUB SWAP1 KECCAK256 DUP3 DUP2 SLOAD DUP2 LT PUSH2 0x8FC JUMPI PUSH2 0x8FB PUSH2 0x2613 JUMP JUMPDEST JUMPDEST SWAP1 PUSH0 MSTORE PUSH1 0x20 PUSH0 KECCAK256 SWAP1 PUSH1 0x6 MUL ADD PUSH1 0x4 ADD DUP2 SWAP1 SSTORE POP TIMESTAMP PUSH1 0x1 DUP8 PUSH1 0x40 MLOAD PUSH2 0x920 SWAP2 SWAP1 PUSH2 0x2419 JUMP JUMPDEST SWAP1 DUP2 MSTORE PUSH1 0x20 ADD PUSH1 0x40 MLOAD DUP1 SWAP2 SUB SWAP1 KECCAK256 DUP3 DUP2 SLOAD DUP2 LT PUSH2 0x940 JUMPI PUSH2 0x93F PUSH2 0x2613 JUMP JUMPDEST JUMPDEST SWAP1 PUSH0 MSTORE PUSH1 0x20 PUSH0 KECCAK256 SWAP1 PUSH1 0x6 MUL ADD PUSH1 0x5 ADD DUP2 SWAP1 SSTORE POP PUSH1 0x50 DUP4 SGT ISZERO PUSH2 0x9AC JUMPI DUP6 PUSH1 0x40 MLOAD PUSH2 0x96A SWAP2 SWAP1 PUSH2 0x2419 JUMP JUMPDEST PUSH1 0x40 MLOAD DUP1 SWAP2 SUB SWAP1 KECCAK256 PUSH32 0x26DC7D14878587176903D5487D42F16C5F65C16BDD4515F4D4B1759ADCA6644B DUP5 CALLER PUSH1 0x40 MLOAD PUSH2 0x9A3 SWAP3 SWAP2 SWAP1 PUSH2 0x291D JUMP JUMPDEST PUSH1 0x40 MLOAD DUP1 SWAP2 SUB SWAP1 LOG2 JUMPDEST DUP6 PUSH1 0x40 MLOAD PUSH2 0x9BA SWAP2 SWAP1 PUSH2 0x2419 JUMP JUMPDEST PUSH1 0x40 MLOAD DUP1 SWAP2 SUB SWAP1 KECCAK256 PUSH32 0x6AB2CE4A47BF01AE08A862A18F5E8B1FAF85F05C105BBB0298A7C831859DA5E3 CALLER DUP7 TIMESTAMP PUSH1 0x40 MLOAD PUSH2 0x9F5 SWAP4 SWAP3 SWAP2 SWAP1 PUSH2 0x2944 JUMP JUMPDEST PUSH1 0x40 MLOAD DUP1 SWAP2 SUB SWAP1 LOG2 POP POP POP POP POP POP JUMP JUMPDEST PUSH0 PUSH0 PUSH0 DUP4 PUSH1 0x40 MLOAD PUSH2 0xA16 SWAP2 SWAP1 PUSH2 0x2419 JUMP JUMPDEST SWAP1 DUP2 MSTORE PUSH1 0x20 ADD PUSH1 0x40 MLOAD DUP1 SWAP2 SUB SWAP1 KECCAK256 PUSH0 ADD DUP1 SLOAD PUSH2 0xA31 SWAP1 PUSH2 0x266D JUMP JUMPDEST SWAP1 POP GT PUSH2 0xA73 JUMPI PUSH1 0x40 MLOAD PUSH32 0x8C379A000000000000000000000000000000000000000000000000000000000 DUP2 MSTORE PUSH1 0x4 ADD PUSH2 0xA6A SWAP1 PUSH2 0x29CA JUMP JUMPDEST PUSH1 0x40 MLOAD DUP1 SWAP2 SUB SWAP1 REVERT JUMPDEST PUSH1 0x1 DUP3 PUSH1 0x40 MLOAD PUSH2 0xA83 SWAP2 SWAP1 PUSH2 0x2419 JUMP JUMPDEST SWAP1 DUP2 MSTORE PUSH1 0x20 ADD PUSH1 0x40 MLOAD DUP1 SWAP2 SUB SWAP1 KECCAK256 DUP1 SLOAD SWAP1 POP SWAP1 POP SWAP2 SWAP1 POP JUMP JUMPDEST PUSH0 DUP2 DUP1 MLOAD PUSH1 0x20 DUP2 ADD DUP3 ADD DUP1 MLOAD DUP5 DUP3 MSTORE PUSH1 0x20 DUP4 ADD PUSH1 0x20 DUP6 ADD KECCAK256 DUP2 DUP4 MSTORE DUP1 SWAP6 POP POP POP POP POP POP PUSH0 SWAP2 POP SWAP1 POP DUP1 PUSH0 ADD DUP1 SLOAD PUSH2 0xAD2 SWAP1 PUSH2 0x266D JUMP JUMPDEST DUP1 PUSH1 0x1F ADD PUSH1 0x20 DUP1 SWAP2 DIV MUL PUSH1 0x20 ADD PUSH1 0x40 MLOAD SWAP1 DUP2 ADD PUSH1 0x40 MSTORE DUP1 SWAP3 SWAP2 SWAP1 DUP2 DUP2 MSTORE PUSH1 0x20 ADD DUP3 DUP1 SLOAD PUSH2 0xAFE SWAP1 PUSH2 0x266D JUMP JUMPDEST DUP1 ISZERO PUSH2 0xB49 JUMPI DUP1 PUSH1 0x1F LT PUSH2 0xB20 JUMPI PUSH2 0x100 DUP1 DUP4 SLOAD DIV MUL DUP4 MSTORE SWAP2 PUSH1 0x20 ADD SWAP2 PUSH2 0xB49 JUMP JUMPDEST DUP3 ADD SWAP2 SWAP1 PUSH0 MSTORE PUSH1 0x20 PUSH0 KECCAK256 SWAP1 JUMPDEST DUP2 SLOAD DUP2 MSTORE SWAP1 PUSH1 0x1 ADD SWAP1 PUSH1 0x20 ADD DUP1 DUP4 GT PUSH2 0xB2C JUMPI DUP3 SWAP1 SUB PUSH1 0x1F AND DUP3 ADD SWAP2 JUMPDEST POP POP POP POP POP SWAP1 DUP1 PUSH1 0x1 ADD DUP1 SLOAD PUSH2 0xB5E SWAP1 PUSH2 0x266D JUMP JUMPDEST DUP1 PUSH1 0x1F ADD PUSH1 0x20 DUP1 SWAP2 DIV MUL PUSH1 0x20 ADD PUSH1 0x40 MLOAD SWAP1 DUP2 ADD PUSH1 0x40 MSTORE DUP1 SWAP3 SWAP2 SWAP1 DUP2 DUP2 MSTORE PUSH1 0x20 ADD DUP3 DUP1 SLOAD PUSH2 0xB8A SWAP1 PUSH2 0x266D JUMP JUMPDEST DUP1 ISZERO PUSH2 0xBD5 JUMPI DUP1 PUSH1 0x1F LT PUSH2 0xBAC JUMPI PUSH2 0x100 DUP1 DUP4 SLOAD DIV MUL DUP4 MSTORE SWAP2 PUSH1 0x20 ADD SWAP2 PUSH2 0xBD5 JUMP JUMPDEST DUP3 ADD SWAP2 SWAP1 PUSH0 MSTORE PUSH1 0x20 PUSH0 KECCAK256 SWAP1 JUMPDEST DUP2 SLOAD DUP2 MSTORE SWAP1 PUSH1 0x1 ADD SWAP1 PUSH1 0x20 ADD DUP1 DUP4 GT PUSH2 0xBB8 JUMPI DUP3 SWAP1 SUB PUSH1 0x1F AND DUP3 ADD SWAP2 JUMPDEST POP POP POP POP POP SWAP1 DUP1 PUSH1 0x2 ADD DUP1 SLOAD PUSH2 0xBEA SWAP1 PUSH2 0x266D JUMP JUMPDEST DUP1 PUSH1 0x1F ADD PUSH1 0x20 DUP1 SWAP2 DIV MUL PUSH1 0x20 ADD PUSH1 0x40 MLOAD SWAP1 DUP2 ADD PUSH1 0x40 MSTORE DUP1 SWAP3 SWAP2 SWAP1 DUP2 DUP2 MSTORE PUSH1 0x20 ADD DUP3 DUP1 SLOAD PUSH2 0xC16 SWAP1 PUSH2 0x266D JUMP JUMPDEST DUP1 ISZERO PUSH2 0xC61 JUMPI DUP1 PUSH1 0x1F LT PUSH2 0xC38 JUMPI PUSH2 0x100 DUP1 DUP4 SLOAD DIV MUL DUP4 MSTORE SWAP2 PUSH1 0x20 ADD SWAP2 PUSH2 0xC61 JUMP JUMPDEST DUP3 ADD SWAP2 SWAP1 PUSH0 MSTORE PUSH1 0x20 PUSH0 KECCAK256 SWAP1 JUMPDEST DUP2 SLOAD DUP2 MSTORE SWAP1 PUSH1 0x1 ADD SWAP1 PUSH1 0x20 ADD DUP1 DUP4 GT PUSH2 0xC44 JUMPI DUP3 SWAP1 SUB PUSH1 0x1F AND DUP3 ADD SWAP2 JUMPDEST POP POP POP POP POP SWAP1 DUP1 PUSH1 0x3 ADD SLOAD SWAP1 DUP1 PUSH1 0x4 ADD PUSH0 SWAP1 SLOAD SWAP1 PUSH2 0x100 EXP SWAP1 DIV PUSH20 0xFFFFFFFFFFFFFFFFFFFFFFFFFFFFFFFFFFFFFFFF AND SWAP1 DUP1 PUSH1 0x4 ADD PUSH1 0x14 SWAP1 SLOAD SWAP1 PUSH2 0x100 EXP SWAP1 DIV PUSH1 0xFF AND SWAP1 POP DUP7 JUMP JUMPDEST PUSH1 0x3 PUSH0 SWAP1 SLOAD SWAP1 PUSH2 0x100 EXP SWAP1 DIV PUSH20 0xFFFFFFFFFFFFFFFFFFFFFFFFFFFFFFFFFFFFFFFF AND DUP2 JUMP JUMPDEST PUSH1 0x2 PUSH1 0x20 MSTORE DUP1 PUSH0 MSTORE PUSH1 0x40 PUSH0 KECCAK256 PUSH0 SWAP2 POP SLOAD SWAP1 PUSH2 0x100 EXP SWAP1 DIV PUSH1 0xFF AND DUP2 JUMP JUMPDEST PUSH1 0x60 PUSH0 PUSH0 DUP4 PUSH1 0x40 MLOAD PUSH2 0xCFD SWAP2 SWAP1 PUSH2 0x2419 JUMP JUMPDEST SWAP1 DUP2 MSTORE PUSH1 0x20 ADD PUSH1 0x40 MLOAD DUP1 SWAP2 SUB SWAP1 KECCAK256 PUSH0 ADD DUP1 SLOAD PUSH2 0xD18 SWAP1 PUSH2 0x266D JUMP JUMPDEST SWAP1 POP GT PUSH2 0xD5A JUMPI PUSH1 0x40 MLOAD PUSH32 0x8C379A000000000000000000000000000000000000000000000000000000000 DUP2 MSTORE PUSH1 0x4 ADD PUSH2 0xD51 SWAP1 PUSH2 0x29CA JUMP JUMPDEST PUSH1 0x40 MLOAD DUP1 SWAP2 SUB SWAP1 REVERT JUMPDEST PUSH1 0x1 DUP3 PUSH1 0x40 MLOAD PUSH2 0xD6A SWAP2 SWAP1 PUSH2 0x2419 JUMP JUMPDEST SWAP1 DUP2 MSTORE PUSH1 0x20 ADD PUSH1 0x40 MLOAD DUP1 SWAP2 SUB SWAP1 KECCAK256 DUP1 SLOAD DUP1 PUSH1 0x20 MUL PUSH1 0x20 ADD PUSH1 0x40 MLOAD SWAP1 DUP2 ADD PUSH1 0x40 MSTORE DUP1 SWAP3 SWAP2 SWAP1 DUP2 DUP2 MSTORE PUSH1 0x20 ADD PUSH0 SWAP1 JUMPDEST DUP3 DUP3 LT ISZERO PUSH2 0xF59 JUMPI DUP4 DUP3 SWAP1 PUSH0 MSTORE PUSH1 0x20 PUSH0 KECCAK256 SWAP1 PUSH1 0x6 MUL ADD PUSH1 0x40 MLOAD DUP1 PUSH1 0xC0 ADD PUSH1 0x40 MSTORE SWAP1 DUP2 PUSH0 DUP3 ADD PUSH0 SWAP1 SLOAD SWAP1 PUSH2 0x100 EXP SWAP1 DIV PUSH20 0xFFFFFFFFFFFFFFFFFFFFFFFFFFFFFFFFFFFFFFFF AND PUSH20 0xFFFFFFFFFFFFFFFFFFFFFFFFFFFFFFFFFFFFFFFF AND PUSH20 0xFFFFFFFFFFFFFFFFFFFFFFFFFFFFFFFFFFFFFFFF AND DUP2 MSTORE PUSH1 0x20 ADD PUSH1 0x1 DUP3 ADD SLOAD DUP2 MSTORE PUSH1 0x20 ADD PUSH1 0x2 DUP3 ADD DUP1 SLOAD PUSH2 0xE26 SWAP1 PUSH2 0x266D JUMP JUMPDEST DUP1 PUSH1 0x1F ADD PUSH1 0x20 DUP1 SWAP2 DIV MUL PUSH1 0x20 ADD PUSH1 0x40 MLOAD SWAP1 DUP2 ADD PUSH1 0x40 MSTORE DUP1 SWAP3 SWAP2 SWAP1 DUP2 DUP2 MSTORE PUSH1 0x20 ADD DUP3 DUP1 SLOAD PUSH2 0xE52 SWAP1 PUSH2 0x266D JUMP JUMPDEST DUP1 ISZERO PUSH2 0xE9D JUMPI DUP1 PUSH1 0x1F LT PUSH2 0xE74 JUMPI PUSH2 0x100 DUP1 DUP4 SLOAD DIV MUL DUP4 MSTORE SWAP2 PUSH1 0x20 ADD SWAP2 PUSH2 0xE9D JUMP JUMPDEST DUP3 ADD SWAP2 SWAP1 PUSH0 MSTORE PUSH1 0x20 PUSH0 KECCAK256 SWAP1 JUMPDEST DUP2 SLOAD DUP2 MSTORE SWAP1 PUSH1 0x1 ADD SWAP1 PUSH1 0x20 ADD DUP1 DUP4 GT PUSH2 0xE80 JUMPI DUP3 SWAP1 SUB PUSH1 0x1F AND DUP3 ADD SWAP2 JUMPDEST POP POP POP POP POP DUP2 MSTORE PUSH1 0x20 ADD PUSH1 0x3 DUP3 ADD DUP1 SLOAD PUSH2 0xEB6 SWAP1 PUSH2 0x266D JUMP JUMPDEST DUP1 PUSH1 0x1F ADD PUSH1 0x20 DUP1 SWAP2 DIV MUL PUSH1 0x20 ADD PUSH1 0x40 MLOAD SWAP1 DUP2 ADD PUSH1 0x40 MSTORE DUP1 SWAP3 SWAP2 SWAP1 DUP2 DUP2 MSTORE PUSH1 0x20 ADD DUP3 DUP1 SLOAD PUSH2 0xEE2 SWAP1 PUSH2 0x266D JUMP JUMPDEST DUP1 ISZERO PUSH2 0xF2D JUMPI DUP1 PUSH1 0x1F LT PUSH2 0xF04 JUMPI PUSH2 0x100 DUP1 DUP4 SLOAD DIV MUL DUP4 MSTORE SWAP2 PUSH1 0x20 ADD SWAP2 PUSH2 0xF2D JUMP JUMPDEST DUP3 ADD SWAP2 SWAP1 PUSH0 MSTORE PUSH1 0x20 PUSH0 KECCAK256 SWAP1 JUMPDEST DUP2 SLOAD DUP2 MSTORE SWAP1 PUSH1 0x1 ADD SWAP1 PUSH1 0x20 ADD DUP1 DUP4 GT PUSH2 0xF10 JUMPI DUP3 SWAP1 SUB PUSH1 0x1F AND DUP3 ADD SWAP2 JUMPDEST POP POP POP POP POP DUP2 MSTORE PUSH1 0x20 ADD PUSH1 0x4 DUP3 ADD SLOAD DUP2 MSTORE PUSH1 0x20 ADD PUSH1 0x5 DUP3 ADD SLOAD DUP2 MSTORE POP POP DUP2 MSTORE PUSH1 0x20 ADD SWAP1 PUSH1 0x1 ADD SWAP1 PUSH2 0xD97 JUMP JUMPDEST POP POP POP POP SWAP1 POP SWAP2 SWAP1 POP JUMP JUMPDEST PUSH1 0x1 DUP3 DUP1 MLOAD PUSH1 0x20 DUP2 ADD DUP3 ADD DUP1 MLOAD DUP5 DUP3 MSTORE PUSH1 0x20 DUP4 ADD PUSH1 0x20 DUP6 ADD KECCAK256 DUP2 DUP4 MSTORE DUP1 SWAP6 POP POP POP POP POP POP DUP2 DUP2 SLOAD DUP2 LT PUSH2 0xF95 JUMPI PUSH0 DUP1 REVERT JUMPDEST SWAP1 PUSH0 MSTORE PUSH1 0x20 PUSH0 KECCAK256 SWAP1 PUSH1 0x6 MUL ADD PUSH0 SWAP2 POP SWAP2 POP POP DUP1 PUSH0 ADD PUSH0 SWAP1 SLOAD SWAP1 PUSH2 0x100 EXP SWAP1 DIV PUSH20 0xFFFFFFFFFFFFFFFFFFFFFFFFFFFFFFFFFFFFFFFF AND SWAP1 DUP1 PUSH1 0x1 ADD SLOAD SWAP1 DUP1 PUSH1 0x2 ADD DUP1 SLOAD PUSH2 0xFE0 SWAP1 PUSH2 0x266D JUMP JUMPDEST DUP1 PUSH1 0x1F ADD PUSH1 0x20 DUP1 SWAP2 DIV MUL PUSH1 0x20 ADD PUSH1 0x40 MLOAD SWAP1 DUP2 ADD PUSH1 0x40 MSTORE DUP1 SWAP3 SWAP2 SWAP1 DUP2 DUP2 MSTORE PUSH1 0x20 ADD DUP3 DUP1 SLOAD PUSH2 0x100C SWAP1 PUSH2 0x266D JUMP JUMPDEST DUP1 ISZERO PUSH2 0x1057 JUMPI DUP1 PUSH1 0x1F LT PUSH2 0x102E JUMPI PUSH2 0x100 DUP1 DUP4 SLOAD DIV MUL DUP4 MSTORE SWAP2 PUSH1 0x20 ADD SWAP2 PUSH2 0x1057 JUMP JUMPDEST DUP3 ADD SWAP2 SWAP1 PUSH0 MSTORE PUSH1 0x20 PUSH0 KECCAK256 SWAP1 JUMPDEST DUP2 SLOAD DUP2 MSTORE SWAP1 PUSH1 0x1 ADD SWAP1 PUSH1 0x20 ADD DUP1 DUP4 GT PUSH2 0x103A JUMPI DUP3 SWAP1 SUB PUSH1 0x1F AND DUP3 ADD SWAP2 JUMPDEST POP POP POP POP POP SWAP1 DUP1 PUSH1 0x3 ADD DUP1 SLOAD PUSH2 0x106C SWAP1 PUSH2 0x266D JUMP JUMPDEST DUP1 PUSH1 0x1F ADD PUSH1 0x20 DUP1 SWAP2 DIV MUL PUSH1 0x20 ADD PUSH1 0x40 MLOAD SWAP1 DUP2 ADD PUSH1 0x40 MSTORE DUP1 SWAP3 SWAP2 SWAP1 DUP2 DUP2 MSTORE PUSH1 0x20 ADD DUP3 DUP1 SLOAD PUSH2 0x1098 SWAP1 PUSH2 0x266D JUMP JUMPDEST DUP1 ISZERO PUSH2 0x10E3 JUMPI DUP1 PUSH1 0x1F LT PUSH2 0x10BA JUMPI PUSH2 0x100 DUP1 DUP4 SLOAD DIV MUL DUP4 MSTORE SWAP2 PUSH1 0x20 ADD SWAP2 PUSH2 0x10E3 JUMP JUMPDEST DUP3 ADD SWAP2 SWAP1 PUSH0 MSTORE PUSH1 0x20 PUSH0 KECCAK256 SWAP1 JUMPDEST DUP2 SLOAD DUP2 MSTORE SWAP1 PUSH1 0x1 ADD SWAP1 PUSH1 0x20 ADD DUP1 DUP4 GT PUSH2 0x10C6 JUMPI DUP3 SWAP1 SUB PUSH1 0x1F AND DUP3 ADD SWAP2 JUMPDEST POP POP POP POP POP SWAP1 DUP1 PUSH1 0x4 ADD SLOAD SWAP1 DUP1 PUSH1 0x5 ADD SLOAD SWAP1 POP DUP7 JUMP JUMPDEST PUSH1 0x1 DUP1 PUSH1 0x5 DUP2 GT ISZERO PUSH2 0x110E JUMPI PUSH2 0x110D PUSH2 0x1C00 JUMP JUMPDEST JUMPDEST PUSH1 0x2 PUSH0 CALLER PUSH20 0xFFFFFFFFFFFFFFFFFFFFFFFFFFFFFFFFFFFFFFFF AND PUSH20 0xFFFFFFFFFFFFFFFFFFFFFFFFFFFFFFFFFFFFFFFF AND DUP2 MSTORE PUSH1 0x20 ADD SWAP1 DUP2 MSTORE PUSH1 0x20 ADD PUSH0 KECCAK256 PUSH0 SWAP1 SLOAD SWAP1 PUSH2 0x100 EXP SWAP1 DIV PUSH1 0xFF AND PUSH1 0x5 DUP2 GT ISZERO PUSH2 0x116A JUMPI PUSH2 0x1169 PUSH2 0x1C00 JUMP JUMPDEST JUMPDEST EQ PUSH2 0x11AA JUMPI PUSH1 0x40 MLOAD PUSH32 0x8C379A000000000000000000000000000000000000000000000000000000000 DUP2 MSTORE PUSH1 0x4 ADD PUSH2 0x11A1 SWAP1 PUSH2 0x23C1 JUMP JUMPDEST PUSH1 0x40 MLOAD DUP1 SWAP2 SUB SWAP1 REVERT JUMPDEST PUSH0 DUP6 MLOAD GT PUSH2 0x11ED JUMPI PUSH1 0x40 MLOAD PUSH32 0x8C379A000000000000000000000000000000000000000000000000000000000 DUP2 MSTORE PUSH1 0x4 ADD PUSH2 0x11E4 SWAP1 PUSH2 0x2A32 JUMP JUMPDEST PUSH1 0x40 MLOAD DUP1 SWAP2 SUB SWAP1 REVERT JUMPDEST PUSH0 PUSH0 DUP7 PUSH1 0x40 MLOAD PUSH2 0x11FD SWAP2 SWAP1 PUSH2 0x2419 JUMP JUMPDEST SWAP1 DUP2 MSTORE PUSH1 0x20 ADD PUSH1 0x40 MLOAD DUP1 SWAP2 SUB SWAP1 KECCAK256 PUSH0 ADD DUP1 SLOAD PUSH2 0x1218 SWAP1 PUSH2 0x266D JUMP JUMPDEST SWAP1 POP EQ PUSH2 0x125A JUMPI PUSH1 0x40 MLOAD PUSH32 0x8C379A000000000000000000000000000000000000000000000000000000000 DUP2 MSTORE PUSH1 0x4 ADD PUSH2 0x1251 SWAP1 PUSH2 0x2A9A JUMP JUMPDEST PUSH1 0x40 MLOAD DUP1 SWAP2 SUB SWAP1 REVERT JUMPDEST TIMESTAMP DUP3 GT ISZERO PUSH2 0x129D JUMPI PUSH1 0x40 MLOAD PUSH32 0x8C379A000000000000000000000000000000000000000000000000000000000 DUP2 MSTORE PUSH1 0x4 ADD PUSH2 0x1294 SWAP1 PUSH2 0x2B28 JUMP JUMPDEST PUSH1 0x40 MLOAD DUP1 SWAP2 SUB SWAP1 REVERT JUMPDEST PUSH1 0x40 MLOAD DUP1 PUSH1 0xC0 ADD PUSH1 0x40 MSTORE DUP1 DUP7 DUP2 MSTORE PUSH1 0x20 ADD DUP6 DUP2 MSTORE PUSH1 0x20 ADD DUP5 DUP2 MSTORE PUSH1 0x20 ADD DUP4 DUP2 MSTORE PUSH1 0x20 ADD CALLER PUSH20 0xFFFFFFFFFFFFFFFFFFFFFFFFFFFFFFFFFFFFFFFF AND DUP2 MSTORE PUSH1 0x20 ADD PUSH1 0x1 ISZERO ISZERO DUP2 MSTORE POP PUSH0 DUP7 PUSH1 0x40 MLOAD PUSH2 0x12F2 SWAP2 SWAP1 PUSH2 0x2419 JUMP JUMPDEST SWAP1 DUP2 MSTORE PUSH1 0x20 ADD PUSH1 0x40 MLOAD DUP1 SWAP2 SUB SWAP1 KECCAK256 PUSH0 DUP3 ADD MLOAD DUP2 PUSH0 ADD SWAP1 DUP2 PUSH2 0x1313 SWAP2 SWAP1 PUSH2 0x284E JUMP JUMPDEST POP PUSH1 0x20 DUP3 ADD MLOAD DUP2 PUSH1 0x1 ADD SWAP1 DUP2 PUSH2 0x1329 SWAP2 SWAP1 PUSH2 0x284E JUMP JUMPDEST POP PUSH1 0x40 DUP3 ADD MLOAD DUP2 PUSH1 0x2 ADD SWAP1 DUP2 PUSH2 0x133F SWAP2 SWAP1 PUSH2 0x284E JUMP JUMPDEST POP PUSH1 0x60 DUP3 ADD MLOAD DUP2 PUSH1 0x3 ADD SSTORE PUSH1 0x80 DUP3 ADD MLOAD DUP2 PUSH1 0x4 ADD PUSH0 PUSH2 0x100 EXP DUP2 SLOAD DUP2 PUSH20 0xFFFFFFFFFFFFFFFFFFFFFFFFFFFFFFFFFFFFFFFF MUL NOT AND SWAP1 DUP4 PUSH20 0xFFFFFFFFFFFFFFFFFFFFFFFFFFFFFFFFFFFFFFFF AND MUL OR SWAP1 SSTORE POP PUSH1 0xA0 DUP3 ADD MLOAD DUP2 PUSH1 0x4 ADD PUSH1 0x14 PUSH2 0x100 EXP DUP2 SLOAD DUP2 PUSH1 0xFF MUL NOT AND SWAP1 DUP4 ISZERO ISZERO MUL OR SWAP1 SSTORE POP SWAP1 POP POP PUSH1 0x1 DUP6 PUSH1 0x40 MLOAD PUSH2 0x13C3 SWAP2 SWAP1 PUSH2 0x2419 JUMP JUMPDEST SWAP1 DUP2 MSTORE PUSH1 0x20 ADD PUSH1 0x40 MLOAD DUP1 SWAP2 SUB SWAP1 KECCAK256 PUSH1 0x1 DUP2 PUSH1 0x1 DUP2 SLOAD ADD DUP1 DUP3 SSTORE DUP1 SWAP2 POP POP SUB SWAP1 PUSH0 MSTORE PUSH1 0x20 PUSH0 KECCAK256 SWAP1 POP POP PUSH0 PUSH1 0x1 DUP1 DUP8 PUSH1 0x40 MLOAD PUSH2 0x13FD SWAP2 SWAP1 PUSH2 0x2419 JUMP JUMPDEST SWAP1 DUP2 MSTORE PUSH1 0x20 ADD PUSH1 0x40 MLOAD DUP1 SWAP2 SUB SWAP1 KECCAK256 DUP1 SLOAD SWAP1 POP PUSH2 0x1419 SWAP2 SWAP1 PUSH2 0x25E0 JUMP JUMPDEST SWAP1 POP CALLER PUSH1 0x1 DUP8 PUSH1 0x40 MLOAD PUSH2 0x142C SWAP2 SWAP1 PUSH2 0x2419 JUMP JUMPDEST SWAP1 DUP2 MSTORE PUSH1 0x20 ADD PUSH1 0x40 MLOAD DUP1 SWAP2 SUB SWAP1 KECCAK256 DUP3 DUP2 SLOAD DUP2 LT PUSH2 0x144C JUMPI PUSH2 0x144B PUSH2 0x2613 JUMP JUMPDEST JUMPDEST SWAP1 PUSH0 MSTORE PUSH1 0x20 PUSH0 KECCAK256 SWAP1 PUSH1 0x6 MUL ADD PUSH0 ADD PUSH0 PUSH2 0x100 EXP DUP2 SLOAD DUP2 PUSH20 0xFFFFFFFFFFFFFFFFFFFFFFFFFFFFFFFFFFFFFFFF MUL NOT AND SWAP1 DUP4 PUSH20 0xFFFFFFFFFFFFFFFFFFFFFFFFFFFFFFFFFFFFFFFF AND MUL OR SWAP1 SSTORE POP PUSH1 0x1 PUSH1 0x5 DUP2 GT ISZERO PUSH2 0x14AB JUMPI PUSH2 0x14AA PUSH2 0x1C00 JUMP JUMPDEST JUMPDEST PUSH1 0x1 DUP8 PUSH1 0x40 MLOAD PUSH2 0x14BB SWAP2 SWAP1 PUSH2 0x2419 JUMP JUMPDEST SWAP1 DUP2 MSTORE PUSH1 0x20 ADD PUSH1 0x40 MLOAD DUP1 SWAP2 SUB SWAP1 KECCAK256 DUP3 DUP2 SLOAD DUP2 LT PUSH2 0x14DB JUMPI PUSH2 0x14DA PUSH2 0x2613 JUMP JUMPDEST JUMPDEST SWAP1 PUSH0 MSTORE PUSH1 0x20 PUSH0 KECCAK256 SWAP1 PUSH1 0x6 MUL ADD PUSH1 0x1 ADD DUP2 SWAP1 SSTORE POP DUP4 PUSH1 0x1 DUP8 PUSH1 0x40 MLOAD PUSH2 0x14FF SWAP2 SWAP1 PUSH2 0x2419 JUMP JUMPDEST SWAP1 DUP2 MSTORE PUSH1 0x20 ADD PUSH1 0x40 MLOAD DUP1 SWAP2 SUB SWAP1 KECCAK256 DUP3 DUP2 SLOAD DUP2 LT PUSH2 0x151F JUMPI PUSH2 0x151E PUSH2 0x2613 JUMP JUMPDEST JUMPDEST SWAP1 PUSH0 MSTORE PUSH1 0x20 PUSH0 KECCAK256 SWAP1 PUSH1 0x6 MUL ADD PUSH1 0x2 ADD SWAP1 DUP2 PUSH2 0x153A SWAP2 SWAP1 PUSH2 0x284E JUMP JUMPDEST POP PUSH1 0x40 MLOAD DUP1 PUSH1 0x60 ADD PUSH1 0x40 MSTORE DUP1 PUSH1 0x2E DUP2 MSTORE PUSH1 0x20 ADD PUSH2 0x2C1F PUSH1 0x2E SWAP2 CODECOPY PUSH1 0x1 DUP8 PUSH1 0x40 MLOAD PUSH2 0x1564 SWAP2 SWAP1 PUSH2 0x2419 JUMP JUMPDEST SWAP1 DUP2 MSTORE PUSH1 0x20 ADD PUSH1 0x40 MLOAD DUP1 SWAP2 SUB SWAP1 KECCAK256 DUP3 DUP2 SLOAD DUP2 LT PUSH2 0x1584 JUMPI PUSH2 0x1583 PUSH2 0x2613 JUMP JUMPDEST JUMPDEST SWAP1 PUSH0 MSTORE PUSH1 0x20 PUSH0 KECCAK256 SWAP1 PUSH1 0x6 MUL ADD PUSH1 0x3 ADD SWAP1 DUP2 PUSH2 0x159F SWAP2 SWAP1 PUSH2 0x284E JUMP JUMPDEST POP PUSH1 0xFA PUSH1 0x1 DUP8 PUSH1 0x40 MLOAD PUSH2 0x15B2 SWAP2 SWAP1 PUSH2 0x2419 JUMP JUMPDEST SWAP1 DUP2 MSTORE PUSH1 0x20 ADD PUSH1 0x40 MLOAD DUP1 SWAP2 SUB SWAP1 KECCAK256 DUP3 DUP2 SLOAD DUP2 LT PUSH2 0x15D2 JUMPI PUSH2 0x15D1 PUSH2 0x2613 JUMP JUMPDEST JUMPDEST SWAP1 PUSH0 MSTORE PUSH1 0x20 PUSH0 KECCAK256 SWAP1 PUSH1 0x6 MUL ADD PUSH1 0x4 ADD DUP2 SWAP1 SSTORE POP TIMESTAMP PUSH1 0x1 DUP8 PUSH1 0x40 MLOAD PUSH2 0x15F6 SWAP2 SWAP1 PUSH2 0x2419 JUMP JUMPDEST SWAP1 DUP2 MSTORE PUSH1 0x20 ADD PUSH1 0x40 MLOAD DUP1 SWAP2 SUB SWAP1 KECCAK256 DUP3 DUP2 SLOAD DUP2 LT PUSH2 0x1616 JUMPI PUSH2 0x1615 PUSH2 0x2613 JUMP JUMPDEST JUMPDEST SWAP1 PUSH0 MSTORE PUSH1 0x20 PUSH0 KECCAK256 SWAP1 PUSH1 0x6 MUL ADD PUSH1 0x5 ADD DUP2 SWAP1 SSTORE POP DUP6 PUSH1 0x40 MLOAD PUSH2 0x1637 SWAP2 SWAP1 PUSH2 0x2419 JUMP JUMPDEST PUSH1 0x40 MLOAD DUP1 SWAP2 SUB SWAP1 KECCAK256 PUSH32 0xE187EF62F610F162883FDADA619504C09C0981BE2DC09FBC1029E7A09DB45A93 DUP7 CALLER PUSH1 0x40 MLOAD PUSH2 0x1670 SWAP3 SWAP2 SWAP1 PUSH2 0x2B46 JUMP JUMPDEST PUSH1 0x40 MLOAD DUP1 SWAP2 SUB SWAP1 LOG2 DUP6 PUSH1 0x40 MLOAD PUSH2 0x1686 SWAP2 SWAP1 PUSH2 0x2419 JUMP JUMPDEST PUSH1 0x40 MLOAD DUP1 SWAP2 SUB SWAP1 KECCAK256 PUSH32 0x6AB2CE4A47BF01AE08A862A18F5E8B1FAF85F05C105BBB0298A7C831859DA5E3 CALLER TIMESTAMP PUSH1 0x40 MLOAD PUSH2 0x16BF SWAP3 SWAP2 SWAP1 PUSH2 0x2BE4 JUMP JUMPDEST PUSH1 0x40 MLOAD DUP1 SWAP2 SUB SWAP1 LOG2 POP POP POP POP POP POP JUMP JUMPDEST PUSH2 0x16D7 PUSH2 0x199C JUMP JUMPDEST PUSH0 PUSH0 DUP4 PUSH1 0x40 MLOAD PUSH2 0x16E7 SWAP2 SWAP1 PUSH2 0x2419 JUMP JUMPDEST SWAP1 DUP2 MSTORE PUSH1 0x20 ADD PUSH1 0x40 MLOAD DUP1 SWAP2 SUB SWAP1 KECCAK256 PUSH0 ADD DUP1 SLOAD PUSH2 0x1702 SWAP1 PUSH2 0x266D JUMP JUMPDEST SWAP1 POP GT PUSH2 0x1744 JUMPI PUSH1 0x40 MLOAD PUSH32 0x8C379A000000000000000000000000000000000000000000000000000000000 DUP2 MSTORE PUSH1 0x4 ADD PUSH2 0x173B SWAP1 PUSH2 0x29CA JUMP JUMPDEST PUSH1 0x40 MLOAD DUP1 SWAP2 SUB SWAP1 REVERT JUMPDEST PUSH0 DUP3 PUSH1 0x40 MLOAD PUSH2 0x1753 SWAP2 SWAP1 PUSH2 0x2419 JUMP JUMPDEST SWAP1 DUP2 MSTORE PUSH1 0x20 ADD PUSH1 0x40 MLOAD DUP1 SWAP2 SUB SWAP1 KECCAK256 PUSH1 0x40 MLOAD DUP1 PUSH1 0xC0 ADD PUSH1 0x40 MSTORE SWAP1 DUP2 PUSH0 DUP3 ADD DUP1 SLOAD PUSH2 0x177B SWAP1 PUSH2 0x266D JUMP JUMPDEST DUP1 PUSH1 0x1F ADD PUSH1 0x20 DUP1 SWAP2 DIV MUL PUSH1 0x20 ADD PUSH1 0x40 MLOAD SWAP1 DUP2 ADD PUSH1 0x40 MSTORE DUP1 SWAP3 SWAP2 SWAP1 DUP2 DUP2 MSTORE PUSH1 0x20 ADD DUP3 DUP1 SLOAD PUSH2 0x17A7 SWAP1 PUSH2 0x266D JUMP JUMPDEST DUP1 ISZERO PUSH2 0x17F2 JUMPI DUP1 PUSH1 0x1F LT PUSH2 0x17C9 JUMPI PUSH2 0x100 DUP1 DUP4 SLOAD DIV MUL DUP4 MSTORE SWAP2 PUSH1 0x20 ADD SWAP2 PUSH2 0x17F2 JUMP JUMPDEST DUP3 ADD SWAP2 SWAP1 PUSH0 MSTORE PUSH1 0x20 PUSH0 KECCAK256 SWAP1 JUMPDEST DUP2 SLOAD DUP2 MSTORE SWAP1 PUSH1 0x1 ADD SWAP1 PUSH1 0x20 ADD DUP1 DUP4 GT PUSH2 0x17D5 JUMPI DUP3 SWAP1 SUB PUSH1 0x1F AND DUP3 ADD SWAP2 JUMPDEST POP POP POP POP POP DUP2 MSTORE PUSH1 0x20 ADD PUSH1 0x1 DUP3 ADD DUP1 SLOAD PUSH2 0x180B SWAP1 PUSH2 0x266D JUMP JUMPDEST DUP1 PUSH1 0x1F ADD PUSH1 0x20 DUP1 SWAP2 DIV MUL PUSH1 0x20 ADD PUSH1 0x40 MLOAD SWAP1 DUP2 ADD PUSH1 0x40 MSTORE DUP1 SWAP3 SWAP2 SWAP1 DUP2 DUP2 MSTORE PUSH1 0x20 ADD DUP3 DUP1 SLOAD PUSH2 0x1837 SWAP1 PUSH2 0x266D JUMP JUMPDEST DUP1 ISZERO PUSH2 0x1882 JUMPI DUP1 PUSH1 0x1F LT PUSH2 0x1859 JUMPI PUSH2 0x100 DUP1 DUP4 SLOAD DIV MUL DUP4 MSTORE SWAP2 PUSH1 0x20 ADD SWAP2 PUSH2 0x1882 JUMP JUMPDEST DUP3 ADD SWAP2 SWAP1 PUSH0 MSTORE PUSH1 0x20 PUSH0 KECCAK256 SWAP1 JUMPDEST DUP2 SLOAD DUP2 MSTORE SWAP1 PUSH1 0x1 ADD SWAP1 PUSH1 0x20 ADD DUP1 DUP4 GT PUSH2 0x1865 JUMPI DUP3 SWAP1 SUB PUSH1 0x1F AND DUP3 ADD SWAP2 JUMPDEST POP POP POP POP POP DUP2 MSTORE PUSH1 0x20 ADD PUSH1 0x2 DUP3 ADD DUP1 SLOAD PUSH2 0x189B SWAP1 PUSH2 0x266D JUMP JUMPDEST DUP1 PUSH1 0x1F ADD PUSH1 0x20 DUP1 SWAP2 DIV MUL PUSH1 0x20 ADD PUSH1 0x40 MLOAD SWAP1 DUP2 ADD PUSH1 0x40 MSTORE DUP1 SWAP3 SWAP2 SWAP1 DUP2 DUP2 MSTORE PUSH1 0x20 ADD DUP3 DUP1 SLOAD PUSH2 0x18C7 SWAP1 PUSH2 0x266D JUMP JUMPDEST DUP1 ISZERO PUSH2 0x1912 JUMPI DUP1 PUSH1 0x1F LT PUSH2 0x18E9 JUMPI PUSH2 0x100 DUP1 DUP4 SLOAD DIV MUL DUP4 MSTORE SWAP2 PUSH1 0x20 ADD SWAP2 PUSH2 0x1912 JUMP JUMPDEST DUP3 ADD SWAP2 SWAP1 PUSH0 MSTORE PUSH1 0x20 PUSH0 KECCAK256 SWAP1 JUMPDEST DUP2 SLOAD DUP2 MSTORE SWAP1 PUSH1 0x1 ADD SWAP1 PUSH1 0x20 ADD DUP1 DUP4 GT PUSH2 0x18F5 JUMPI DUP3 SWAP1 SUB PUSH1 0x1F AND DUP3 ADD SWAP2 JUMPDEST POP POP POP POP POP DUP2 MSTORE PUSH1 0x20 ADD PUSH1 0x3 DUP3 ADD SLOAD DUP2 MSTORE PUSH1 0x20 ADD PUSH1 0x4 DUP3 ADD PUSH0 SWAP1 SLOAD SWAP1 PUSH2 0x100 EXP SWAP1 DIV PUSH20 0xFFFFFFFFFFFFFFFFFFFFFFFFFFFFFFFFFFFFFFFF AND PUSH20 0xFFFFFFFFFFFFFFFFFFFFFFFFFFFFFFFFFFFFFFFF AND PUSH20 0xFFFFFFFFFFFFFFFFFFFFFFFFFFFFFFFFFFFFFFFF AND DUP2 MSTORE PUSH1 0x20 ADD PUSH1 0x4 DUP3 ADD PUSH1 0x14 SWAP1 SLOAD SWAP1 PUSH2 0x100 EXP SWAP1 DIV PUSH1 0xFF AND ISZERO ISZERO ISZERO ISZERO DUP2 MSTORE POP POP SWAP1 POP SWAP2 SWAP1 POP JUMP JUMPDEST PUSH1 0x40 MLOAD DUP1 PUSH1 0xC0 ADD PUSH1 0x40 MSTORE DUP1 PUSH1 0x60 DUP2 MSTORE PUSH1 0x20 ADD PUSH1 0x60 DUP2 MSTORE PUSH1 0x20 ADD PUSH1 0x60 DUP2 MSTORE PUSH1 0x20 ADD PUSH0 DUP2 MSTORE PUSH1 0x20 ADD PUSH0 PUSH20 0xFFFFFFFFFFFFFFFFFFFFFFFFFFFFFFFFFFFFFFFF AND DUP2 MSTORE PUSH1 0x20 ADD PUSH0 ISZERO ISZERO DUP2 MSTORE POP SWAP1 JUMP JUMPDEST PUSH0 PUSH1 0x40 MLOAD SWAP1 POP SWAP1 JUMP JUMPDEST PUSH0 PUSH0 REVERT JUMPDEST PUSH0 PUSH0 REVERT JUMPDEST PUSH0 PUSH0 REVERT JUMPDEST PUSH0 PUSH0 REVERT JUMPDEST PUSH0 PUSH1 0x1F NOT PUSH1 0x1F DUP4 ADD AND SWAP1 POP SWAP2 SWAP1 POP JUMP JUMPDEST PUSH32 0x4E487B7100000000000000000000000000000000000000000000000000000000 PUSH0 MSTORE PUSH1 0x41 PUSH1 0x4 MSTORE PUSH1 0x24 PUSH0 REVERT JUMPDEST PUSH2 0x1A46 DUP3 PUSH2 0x1A00 JUMP JUMPDEST DUP2 ADD DUP2 DUP2 LT PUSH8 0xFFFFFFFFFFFFFFFF DUP3 GT OR ISZERO PUSH2 0x1A65 JUMPI PUSH2 0x1A64 PUSH2 0x1A10 JUMP JUMPDEST JUMPDEST DUP1 PUSH1 0x40 MSTORE POP POP POP JUMP JUMPDEST PUSH0 PUSH2 0x1A77 PUSH2 0x19E7 JUMP JUMPDEST SWAP1 POP PUSH2 0x1A83 DUP3 DUP3 PUSH2 0x1A3D JUMP JUMPDEST SWAP2 SWAP1 POP JUMP JUMPDEST PUSH0 PUSH8 0xFFFFFFFFFFFFFFFF DUP3 GT ISZERO PUSH2 0x1AA2 JUMPI PUSH2 0x1AA1 PUSH2 0x1A10 JUMP JUMPDEST JUMPDEST PUSH2 0x1AAB DUP3 PUSH2 0x1A00 JUMP JUMPDEST SWAP1 POP PUSH1 0x20 DUP2 ADD SWAP1 POP SWAP2 SWAP1 POP JUMP JUMPDEST DUP3 DUP2 DUP4 CALLDATACOPY PUSH0 DUP4 DUP4 ADD MSTORE POP POP POP JUMP JUMPDEST PUSH0 PUSH2 0x1AD8 PUSH2 0x1AD3 DUP5 PUSH2 0x1A88 JUMP JUMPDEST PUSH2 0x1A6E JUMP JUMPDEST SWAP1 POP DUP3 DUP2 MSTORE PUSH1 0x20 DUP2 ADD DUP5 DUP5 DUP5 ADD GT ISZERO PUSH2 0x1AF4 JUMPI PUSH2 0x1AF3 PUSH2 0x19FC JUMP JUMPDEST JUMPDEST PUSH2 0x1AFF DUP5 DUP3 DUP6 PUSH2 0x1AB8 JUMP JUMPDEST POP SWAP4 SWAP3 POP POP POP JUMP JUMPDEST PUSH0 DUP3 PUSH1 0x1F DUP4 ADD SLT PUSH2 0x1B1B JUMPI PUSH2 0x1B1A PUSH2 0x19F8 JUMP JUMPDEST JUMPDEST DUP2 CALLDATALOAD PUSH2 0x1B2B DUP5 DUP3 PUSH1 0x20 DUP7 ADD PUSH2 0x1AC6 JUMP JUMPDEST SWAP2 POP POP SWAP3 SWAP2 POP POP JUMP JUMPDEST PUSH0 PUSH1 0x20 DUP3 DUP5 SUB SLT ISZERO PUSH2 0x1B49 JUMPI PUSH2 0x1B48 PUSH2 0x19F0 JUMP JUMPDEST JUMPDEST PUSH0 DUP3 ADD CALLDATALOAD PUSH8 0xFFFFFFFFFFFFFFFF DUP2 GT ISZERO PUSH2 0x1B66 JUMPI PUSH2 0x1B65 PUSH2 0x19F4 JUMP JUMPDEST JUMPDEST PUSH2 0x1B72 DUP5 DUP3 DUP6 ADD PUSH2 0x1B07 JUMP JUMPDEST SWAP2 POP POP SWAP3 SWAP2 POP POP JUMP JUMPDEST PUSH0 PUSH20 0xFFFFFFFFFFFFFFFFFFFFFFFFFFFFFFFFFFFFFFFF DUP3 AND SWAP1 POP SWAP2 SWAP1 POP JUMP JUMPDEST PUSH0 PUSH2 0x1BA4 DUP3 PUSH2 0x1B7B JUMP JUMPDEST SWAP1 POP SWAP2 SWAP1 POP JUMP JUMPDEST PUSH2 0x1BB4 DUP2 PUSH2 0x1B9A JUMP JUMPDEST DUP2 EQ PUSH2 0x1BBE JUMPI PUSH0 PUSH0 REVERT JUMPDEST POP JUMP JUMPDEST PUSH0 DUP2 CALLDATALOAD SWAP1 POP PUSH2 0x1BCF DUP2 PUSH2 0x1BAB JUMP JUMPDEST SWAP3 SWAP2 POP POP JUMP JUMPDEST PUSH0 PUSH1 0x20 DUP3 DUP5 SUB SLT ISZERO PUSH2 0x1BEA JUMPI PUSH2 0x1BE9 PUSH2 0x19F0 JUMP JUMPDEST JUMPDEST PUSH0 PUSH2 0x1BF7 DUP5 DUP3 DUP6 ADD PUSH2 0x1BC1 JUMP JUMPDEST SWAP2 POP POP SWAP3 SWAP2 POP POP JUMP JUMPDEST PUSH32 0x4E487B7100000000000000000000000000000000000000000000000000000000 PUSH0 MSTORE PUSH1 0x21 PUSH1 0x4 MSTORE PUSH1 0x24 PUSH0 REVERT JUMPDEST PUSH1 0x6 DUP2 LT PUSH2 0x1C3E JUMPI PUSH2 0x1C3D PUSH2 0x1C00 JUMP JUMPDEST JUMPDEST POP JUMP JUMPDEST PUSH0 DUP2 SWAP1 POP PUSH2 0x1C4E DUP3 PUSH2 0x1C2D JUMP JUMPDEST SWAP2 SWAP1 POP JUMP JUMPDEST PUSH0 PUSH2 0x1C5D DUP3 PUSH2 0x1C41 JUMP JUMPDEST SWAP1 POP SWAP2 SWAP1 POP JUMP JUMPDEST PUSH2 0x1C6D DUP2 PUSH2 0x1C53 JUMP JUMPDEST DUP3 MSTORE POP POP JUMP JUMPDEST PUSH0 PUSH1 0x20 DUP3 ADD SWAP1 POP PUSH2 0x1C86 PUSH0 DUP4 ADD DUP5 PUSH2 0x1C64 JUMP JUMPDEST SWAP3 SWAP2 POP POP JUMP JUMPDEST PUSH1 0x6 DUP2 LT PUSH2 0x1C98 JUMPI PUSH0 PUSH0 REVERT JUMPDEST POP JUMP JUMPDEST PUSH0 DUP2 CALLDATALOAD SWAP1 POP PUSH2 0x1CA9 DUP2 PUSH2 0x1C8C JUMP JUMPDEST SWAP3 SWAP2 POP POP JUMP JUMPDEST PUSH0 PUSH0 PUSH1 0x40 DUP4 DUP6 SUB SLT ISZERO PUSH2 0x1CC5 JUMPI PUSH2 0x1CC4 PUSH2 0x19F0 JUMP JUMPDEST JUMPDEST PUSH0 PUSH2 0x1CD2 DUP6 DUP3 DUP7 ADD PUSH2 0x1BC1 JUMP JUMPDEST SWAP3 POP POP PUSH1 0x20 PUSH2 0x1CE3 DUP6 DUP3 DUP7 ADD PUSH2 0x1C9B JUMP JUMPDEST SWAP2 POP POP SWAP3 POP SWAP3 SWAP1 POP JUMP JUMPDEST PUSH0 DUP2 SWAP1 POP SWAP2 SWAP1 POP JUMP JUMPDEST PUSH2 0x1CFF DUP2 PUSH2 0x1CED JUMP JUMPDEST DUP2 EQ PUSH2 0x1D09 JUMPI PUSH0 PUSH0 REVERT JUMPDEST POP JUMP JUMPDEST PUSH0 DUP2 CALLDATALOAD SWAP1 POP PUSH2 0x1D1A DUP2 PUSH2 0x1CF6 JUMP JUMPDEST SWAP3 SWAP2 POP POP JUMP JUMPDEST PUSH0 PUSH0 PUSH0 PUSH0 PUSH1 0x80 DUP6 DUP8 SUB SLT ISZERO PUSH2 0x1D38 JUMPI PUSH2 0x1D37 PUSH2 0x19F0 JUMP JUMPDEST JUMPDEST PUSH0 DUP6 ADD CALLDATALOAD PUSH8 0xFFFFFFFFFFFFFFFF DUP2 GT ISZERO PUSH2 0x1D55 JUMPI PUSH2 0x1D54 PUSH2 0x19F4 JUMP JUMPDEST JUMPDEST PUSH2 0x1D61 DUP8 DUP3 DUP9 ADD PUSH2 0x1B07 JUMP JUMPDEST SWAP5 POP POP PUSH1 0x20 DUP6 ADD CALLDATALOAD PUSH8 0xFFFFFFFFFFFFFFFF DUP2 GT ISZERO PUSH2 0x1D82 JUMPI PUSH2 0x1D81 PUSH2 0x19F4 JUMP JUMPDEST JUMPDEST PUSH2 0x1D8E DUP8 DUP3 DUP9 ADD PUSH2 0x1B07 JUMP JUMPDEST SWAP4 POP POP PUSH1 0x40 DUP6 ADD CALLDATALOAD PUSH8 0xFFFFFFFFFFFFFFFF DUP2 GT ISZERO PUSH2 0x1DAF JUMPI PUSH2 0x1DAE PUSH2 0x19F4 JUMP JUMPDEST JUMPDEST PUSH2 0x1DBB DUP8 DUP3 DUP9 ADD PUSH2 0x1B07 JUMP JUMPDEST SWAP3 POP POP PUSH1 0x60 PUSH2 0x1DCC DUP8 DUP3 DUP9 ADD PUSH2 0x1D0C JUMP JUMPDEST SWAP2 POP POP SWAP3 SWAP6 SWAP2 SWAP5 POP SWAP3 POP JUMP JUMPDEST PUSH0 DUP2 SWAP1 POP SWAP2 SWAP1 POP JUMP JUMPDEST PUSH2 0x1DEA DUP2 PUSH2 0x1DD8 JUMP JUMPDEST DUP3 MSTORE POP POP JUMP JUMPDEST PUSH0 PUSH1 0x20 DUP3 ADD SWAP1 POP PUSH2 0x1E03 PUSH0 DUP4 ADD DUP5 PUSH2 0x1DE1 JUMP JUMPDEST SWAP3 SWAP2 POP POP JUMP JUMPDEST PUSH0 DUP2 MLOAD SWAP1 POP SWAP2 SWAP1 POP JUMP JUMPDEST PUSH0 DUP3 DUP3 MSTORE PUSH1 0x20 DUP3 ADD SWAP1 POP SWAP3 SWAP2 POP POP JUMP JUMPDEST DUP3 DUP2 DUP4 MCOPY PUSH0 DUP4 DUP4 ADD MSTORE POP POP POP JUMP JUMPDEST PUSH0 PUSH2 0x1E3B DUP3 PUSH2 0x1E09 JUMP JUMPDEST PUSH2 0x1E45 DUP2 DUP6 PUSH2 0x1E13 JUMP JUMPDEST SWAP4 POP PUSH2 0x1E55 DUP2 DUP6 PUSH1 0x20 DUP7 ADD PUSH2 0x1E23 JUMP JUMPDEST PUSH2 0x1E5E DUP2 PUSH2 0x1A00 JUMP JUMPDEST DUP5 ADD SWAP2 POP POP SWAP3 SWAP2 POP POP JUMP JUMPDEST PUSH2 0x1E72 DUP2 PUSH2 0x1B9A JUMP JUMPDEST DUP3 MSTORE POP POP JUMP JUMPDEST PUSH0 DUP2 ISZERO ISZERO SWAP1 POP SWAP2 SWAP1 POP JUMP JUMPDEST PUSH2 0x1E8C DUP2 PUSH2 0x1E78 JUMP JUMPDEST DUP3 MSTORE POP POP JUMP JUMPDEST PUSH0 PUSH1 0xC0 DUP3 ADD SWAP1 POP DUP2 DUP2 SUB PUSH0 DUP4 ADD MSTORE PUSH2 0x1EAA DUP2 DUP10 PUSH2 0x1E31 JUMP JUMPDEST SWAP1 POP DUP2 DUP2 SUB PUSH1 0x20 DUP4 ADD MSTORE PUSH2 0x1EBE DUP2 DUP9 PUSH2 0x1E31 JUMP JUMPDEST SWAP1 POP DUP2 DUP2 SUB PUSH1 0x40 DUP4 ADD MSTORE PUSH2 0x1ED2 DUP2 DUP8 PUSH2 0x1E31 JUMP JUMPDEST SWAP1 POP PUSH2 0x1EE1 PUSH1 0x60 DUP4 ADD DUP7 PUSH2 0x1DE1 JUMP JUMPDEST PUSH2 0x1EEE PUSH1 0x80 DUP4 ADD DUP6 PUSH2 0x1E69 JUMP JUMPDEST PUSH2 0x1EFB PUSH1 0xA0 DUP4 ADD DUP5 PUSH2 0x1E83 JUMP JUMPDEST SWAP8 SWAP7 POP POP POP POP POP POP POP JUMP JUMPDEST PUSH0 PUSH1 0x20 DUP3 ADD SWAP1 POP PUSH2 0x1F19 PUSH0 DUP4 ADD DUP5 PUSH2 0x1E69 JUMP JUMPDEST SWAP3 SWAP2 POP POP JUMP JUMPDEST PUSH0 DUP2 MLOAD SWAP1 POP SWAP2 SWAP1 POP JUMP JUMPDEST PUSH0 DUP3 DUP3 MSTORE PUSH1 0x20 DUP3 ADD SWAP1 POP SWAP3 SWAP2 POP POP JUMP JUMPDEST PUSH0 DUP2 SWAP1 POP PUSH1 0x20 DUP3 ADD SWAP1 POP SWAP2 SWAP1 POP JUMP JUMPDEST PUSH2 0x1F51 DUP2 PUSH2 0x1B9A JUMP JUMPDEST DUP3 MSTORE POP POP JUMP JUMPDEST PUSH2 0x1F60 DUP2 PUSH2 0x1DD8 JUMP JUMPDEST DUP3 MSTORE POP POP JUMP JUMPDEST PUSH0 DUP3 DUP3 MSTORE PUSH1 0x20 DUP3 ADD SWAP1 POP SWAP3 SWAP2 POP POP JUMP JUMPDEST PUSH0 PUSH2 0x1F80 DUP3 PUSH2 0x1E09 JUMP JUMPDEST PUSH2 0x1F8A DUP2 DUP6 PUSH2 0x1F66 JUMP JUMPDEST SWAP4 POP PUSH2 0x1F9A DUP2 DUP6 PUSH1 0x20 DUP7 ADD PUSH2 0x1E23 JUMP JUMPDEST PUSH2 0x1FA3 DUP2 PUSH2 0x1A00 JUMP JUMPDEST DUP5 ADD SWAP2 POP POP SWAP3 SWAP2 POP POP JUMP JUMPDEST PUSH2 0x1FB7 DUP2 PUSH2 0x1CED JUMP JUMPDEST DUP3 MSTORE POP POP JUMP JUMPDEST PUSH0 PUSH1 0xC0 DUP4 ADD PUSH0 DUP4 ADD MLOAD PUSH2 0x1FD2 PUSH0 DUP7 ADD DUP3 PUSH2 0x1F48 JUMP JUMPDEST POP PUSH1 0x20 DUP4 ADD MLOAD PUSH2 0x1FE5 PUSH1 0x20 DUP7 ADD DUP3 PUSH2 0x1F57 JUMP JUMPDEST POP PUSH1 0x40 DUP4 ADD MLOAD DUP5 DUP3 SUB PUSH1 0x40 DUP7 ADD MSTORE PUSH2 0x1FFD DUP3 DUP3 PUSH2 0x1F76 JUMP JUMPDEST SWAP2 POP POP PUSH1 0x60 DUP4 ADD MLOAD DUP5 DUP3 SUB PUSH1 0x60 DUP7 ADD MSTORE PUSH2 0x2017 DUP3 DUP3 PUSH2 0x1F76 JUMP JUMPDEST SWAP2 POP POP PUSH1 0x80 DUP4 ADD MLOAD PUSH2 0x202C PUSH1 0x80 DUP7 ADD DUP3 PUSH2 0x1FAE JUMP JUMPDEST POP PUSH1 0xA0 DUP4 ADD MLOAD PUSH2 0x203F PUSH1 0xA0 DUP7 ADD DUP3 PUSH2 0x1F57 JUMP JUMPDEST POP DUP1 SWAP2 POP POP SWAP3 SWAP2 POP POP JUMP JUMPDEST PUSH0 PUSH2 0x2055 DUP4 DUP4 PUSH2 0x1FBD JUMP JUMPDEST SWAP1 POP SWAP3 SWAP2 POP POP JUMP JUMPDEST PUSH0 PUSH1 0x20 DUP3 ADD SWAP1 POP SWAP2 SWAP1 POP JUMP JUMPDEST PUSH0 PUSH2 0x2073 DUP3 PUSH2 0x1F1F JUMP JUMPDEST PUSH2 0x207D DUP2 DUP6 PUSH2 0x1F29 JUMP JUMPDEST SWAP4 POP DUP4 PUSH1 0x20 DUP3 MUL DUP6 ADD PUSH2 0x208F DUP6 PUSH2 0x1F39 JUMP JUMPDEST DUP1 PUSH0 JUMPDEST DUP6 DUP2 LT ISZERO PUSH2 0x20CA JUMPI DUP5 DUP5 SUB DUP10 MSTORE DUP2 MLOAD PUSH2 0x20AB DUP6 DUP3 PUSH2 0x204A JUMP JUMPDEST SWAP5 POP PUSH2 0x20B6 DUP4 PUSH2 0x205D JUMP JUMPDEST SWAP3 POP PUSH1 0x20 DUP11 ADD SWAP10 POP POP PUSH1 0x1 DUP2 ADD SWAP1 POP PUSH2 0x2092 JUMP JUMPDEST POP DUP3 SWAP8 POP DUP8 SWAP6 POP POP POP POP POP POP SWAP3 SWAP2 POP POP JUMP JUMPDEST PUSH0 PUSH1 0x20 DUP3 ADD SWAP1 POP DUP2 DUP2 SUB PUSH0 DUP4 ADD MSTORE PUSH2 0x20F4 DUP2 DUP5 PUSH2 0x2069 JUMP JUMPDEST SWAP1 POP SWAP3 SWAP2 POP POP JUMP JUMPDEST PUSH2 0x2105 DUP2 PUSH2 0x1DD8 JUMP JUMPDEST DUP2 EQ PUSH2 0x210F JUMPI PUSH0 PUSH0 REVERT JUMPDEST POP JUMP JUMPDEST PUSH0 DUP2 CALLDATALOAD SWAP1 POP PUSH2 0x2120 DUP2 PUSH2 0x20FC JUMP JUMPDEST SWAP3 SWAP2 POP POP JUMP JUMPDEST PUSH0 PUSH0 PUSH1 0x40 DUP4 DUP6 SUB SLT ISZERO PUSH2 0x213C JUMPI PUSH2 0x213B PUSH2 0x19F0 JUMP JUMPDEST JUMPDEST PUSH0 DUP4 ADD CALLDATALOAD PUSH8 0xFFFFFFFFFFFFFFFF DUP2 GT ISZERO PUSH2 0x2159 JUMPI PUSH2 0x2158 PUSH2 0x19F4 JUMP JUMPDEST JUMPDEST PUSH2 0x2165 DUP6 DUP3 DUP7 ADD PUSH2 0x1B07 JUMP JUMPDEST SWAP3 POP POP PUSH1 0x20 PUSH2 0x2176 DUP6 DUP3 DUP7 ADD PUSH2 0x2112 JUMP JUMPDEST SWAP2 POP POP SWAP3 POP SWAP3 SWAP1 POP JUMP JUMPDEST PUSH2 0x2189 DUP2 PUSH2 0x1CED JUMP JUMPDEST DUP3 MSTORE POP POP JUMP JUMPDEST PUSH0 PUSH1 0xC0 DUP3 ADD SWAP1 POP PUSH2 0x21A2 PUSH0 DUP4 ADD DUP10 PUSH2 0x1E69 JUMP JUMPDEST PUSH2 0x21AF PUSH1 0x20 DUP4 ADD DUP9 PUSH2 0x1DE1 JUMP JUMPDEST DUP2 DUP2 SUB PUSH1 0x40 DUP4 ADD MSTORE PUSH2 0x21C1 DUP2 DUP8 PUSH2 0x1E31 JUMP JUMPDEST SWAP1 POP DUP2 DUP2 SUB PUSH1 0x60 DUP4 ADD MSTORE PUSH2 0x21D5 DUP2 DUP7 PUSH2 0x1E31 JUMP JUMPDEST SWAP1 POP PUSH2 0x21E4 PUSH1 0x80 DUP4 ADD DUP6 PUSH2 0x2180 JUMP JUMPDEST PUSH2 0x21F1 PUSH1 0xA0 DUP4 ADD DUP5 PUSH2 0x1DE1 JUMP JUMPDEST SWAP8 SWAP7 POP POP POP POP POP POP POP JUMP JUMPDEST PUSH0 PUSH0 PUSH0 PUSH0 PUSH1 0x80 DUP6 DUP8 SUB SLT ISZERO PUSH2 0x2214 JUMPI PUSH2 0x2213 PUSH2 0x19F0 JUMP JUMPDEST JUMPDEST PUSH0 DUP6 ADD CALLDATALOAD PUSH8 0xFFFFFFFFFFFFFFFF DUP2 GT ISZERO PUSH2 0x2231 JUMPI PUSH2 0x2230 PUSH2 0x19F4 JUMP JUMPDEST JUMPDEST PUSH2 0x223D DUP8 DUP3 DUP9 ADD PUSH2 0x1B07 JUMP JUMPDEST SWAP5 POP POP PUSH1 0x20 DUP6 ADD CALLDATALOAD PUSH8 0xFFFFFFFFFFFFFFFF DUP2 GT ISZERO PUSH2 0x225E JUMPI PUSH2 0x225D PUSH2 0x19F4 JUMP JUMPDEST JUMPDEST PUSH2 0x226A DUP8 DUP3 DUP9 ADD PUSH2 0x1B07 JUMP JUMPDEST SWAP4 POP POP PUSH1 0x40 DUP6 ADD CALLDATALOAD PUSH8 0xFFFFFFFFFFFFFFFF DUP2 GT ISZERO PUSH2 0x228B JUMPI PUSH2 0x228A PUSH2 0x19F4 JUMP JUMPDEST JUMPDEST PUSH2 0x2297 DUP8 DUP3 DUP9 ADD PUSH2 0x1B07 JUMP JUMPDEST SWAP3 POP POP PUSH1 0x60 PUSH2 0x22A8 DUP8 DUP3 DUP9 ADD PUSH2 0x2112 JUMP JUMPDEST SWAP2 POP POP SWAP3 SWAP6 SWAP2 SWAP5 POP SWAP3 POP JUMP JUMPDEST PUSH2 0x22BD DUP2 PUSH2 0x1E78 JUMP JUMPDEST DUP3 MSTORE POP POP JUMP JUMPDEST PUSH0 PUSH1 0xC0 DUP4 ADD PUSH0 DUP4 ADD MLOAD DUP5 DUP3 SUB PUSH0 DUP7 ADD MSTORE PUSH2 0x22DD DUP3 DUP3 PUSH2 0x1F76 JUMP JUMPDEST SWAP2 POP POP PUSH1 0x20 DUP4 ADD MLOAD DUP5 DUP3 SUB PUSH1 0x20 DUP7 ADD MSTORE PUSH2 0x22F7 DUP3 DUP3 PUSH2 0x1F76 JUMP JUMPDEST SWAP2 POP POP PUSH1 0x40 DUP4 ADD MLOAD DUP5 DUP3 SUB PUSH1 0x40 DUP7 ADD MSTORE PUSH2 0x2311 DUP3 DUP3 PUSH2 0x1F76 JUMP JUMPDEST SWAP2 POP POP PUSH1 0x60 DUP4 ADD MLOAD PUSH2 0x2326 PUSH1 0x60 DUP7 ADD DUP3 PUSH2 0x1F57 JUMP JUMPDEST POP PUSH1 0x80 DUP4 ADD MLOAD PUSH2 0x2339 PUSH1 0x80 DUP7 ADD DUP3 PUSH2 0x1F48 JUMP JUMPDEST POP PUSH1 0xA0 DUP4 ADD MLOAD PUSH2 0x234C PUSH1 0xA0 DUP7 ADD DUP3 PUSH2 0x22B4 JUMP JUMPDEST POP DUP1 SWAP2 POP POP SWAP3 SWAP2 POP POP JUMP JUMPDEST PUSH0 PUSH1 0x20 DUP3 ADD SWAP1 POP DUP2 DUP2 SUB PUSH0 DUP4 ADD MSTORE PUSH2 0x236F DUP2 DUP5 PUSH2 0x22C3 JUMP JUMPDEST SWAP1 POP SWAP3 SWAP2 POP POP JUMP JUMPDEST PUSH32 0x556E617574686F72697A65643A20696E636F727265637420726F6C6500000000 PUSH0 DUP3 ADD MSTORE POP JUMP JUMPDEST PUSH0 PUSH2 0x23AB PUSH1 0x1C DUP4 PUSH2 0x1E13 JUMP JUMPDEST SWAP2 POP PUSH2 0x23B6 DUP3 PUSH2 0x2377 JUMP JUMPDEST PUSH1 0x20 DUP3 ADD SWAP1 POP SWAP2 SWAP1 POP JUMP JUMPDEST PUSH0 PUSH1 0x20 DUP3 ADD SWAP1 POP DUP2 DUP2 SUB PUSH0 DUP4 ADD MSTORE PUSH2 0x23D8 DUP2 PUSH2 0x239F JUMP JUMPDEST SWAP1 POP SWAP2 SWAP1 POP JUMP JUMPDEST PUSH0 DUP2 SWAP1 POP SWAP3 SWAP2 POP POP JUMP JUMPDEST PUSH0 PUSH2 0x23F3 DUP3 PUSH2 0x1E09 JUMP JUMPDEST PUSH2 0x23FD DUP2 DUP6 PUSH2 0x23DF JUMP JUMPDEST SWAP4 POP PUSH2 0x240D DUP2 DUP6 PUSH1 0x20 DUP7 ADD PUSH2 0x1E23 JUMP JUMPDEST DUP1 DUP5 ADD SWAP2 POP POP SWAP3 SWAP2 POP POP JUMP JUMPDEST PUSH0 PUSH2 0x2424 DUP3 DUP5 PUSH2 0x23E9 JUMP JUMPDEST SWAP2 POP DUP2 SWAP1 POP SWAP3 SWAP2 POP POP JUMP JUMPDEST PUSH32 0x426174636820646F6573206E6F74206578697374206F7220697320696E616374 PUSH0 DUP3 ADD MSTORE PUSH32 0x6976650000000000000000000000000000000000000000000000000000000000 PUSH1 0x20 DUP3 ADD MSTORE POP JUMP JUMPDEST PUSH0 PUSH2 0x2489 PUSH1 0x23 DUP4 PUSH2 0x1E13 JUMP JUMPDEST SWAP2 POP PUSH2 0x2494 DUP3 PUSH2 0x242F JUMP JUMPDEST PUSH1 0x40 DUP3 ADD SWAP1 POP SWAP2 SWAP1 POP JUMP JUMPDEST PUSH0 PUSH1 0x20 DUP3 ADD SWAP1 POP DUP2 DUP2 SUB PUSH0 DUP4 ADD MSTORE PUSH2 0x24B6 DUP2 PUSH2 0x247D JUMP JUMPDEST SWAP1 POP SWAP2 SWAP1 POP JUMP JUMPDEST PUSH32 0x4F6E6C79206F776E65722063616E2063616C6C20746869730000000000000000 PUSH0 DUP3 ADD MSTORE POP JUMP JUMPDEST PUSH0 PUSH2 0x24F1 PUSH1 0x18 DUP4 PUSH2 0x1E13 JUMP JUMPDEST SWAP2 POP PUSH2 0x24FC DUP3 PUSH2 0x24BD JUMP JUMPDEST PUSH1 0x20 DUP3 ADD SWAP1 POP SWAP2 SWAP1 POP JUMP JUMPDEST PUSH0 PUSH1 0x20 DUP3 ADD SWAP1 POP DUP2 DUP2 SUB PUSH0 DUP4 ADD MSTORE PUSH2 0x251E DUP2 PUSH2 0x24E5 JUMP JUMPDEST SWAP1 POP SWAP2 SWAP1 POP JUMP JUMPDEST PUSH32 0x43616C6C6572206973206E6F7420612072656769737465726564207061727469 PUSH0 DUP3 ADD MSTORE PUSH32 0x636970616E740000000000000000000000000000000000000000000000000000 PUSH1 0x20 DUP3 ADD MSTORE POP JUMP JUMPDEST PUSH0 PUSH2 0x257F PUSH1 0x26 DUP4 PUSH2 0x1E13 JUMP JUMPDEST SWAP2 POP PUSH2 0x258A DUP3 PUSH2 0x2525 JUMP JUMPDEST PUSH1 0x40 DUP3 ADD SWAP1 POP SWAP2 SWAP1 POP JUMP JUMPDEST PUSH0 PUSH1 0x20 DUP3 ADD SWAP1 POP DUP2 DUP2 SUB PUSH0 DUP4 ADD MSTORE PUSH2 0x25AC DUP2 PUSH2 0x2573 JUMP JUMPDEST SWAP1 POP SWAP2 SWAP1 POP JUMP JUMPDEST PUSH32 0x4E487B7100000000000000000000000000000000000000000000000000000000 PUSH0 MSTORE PUSH1 0x11 PUSH1 0x4 MSTORE PUSH1 0x24 PUSH0 REVERT JUMPDEST PUSH0 PUSH2 0x25EA DUP3 PUSH2 0x1DD8 JUMP JUMPDEST SWAP2 POP PUSH2 0x25F5 DUP4 PUSH2 0x1DD8 JUMP JUMPDEST SWAP3 POP DUP3 DUP3 SUB SWAP1 POP DUP2 DUP2 GT ISZERO PUSH2 0x260D JUMPI PUSH2 0x260C PUSH2 0x25B3 JUMP JUMPDEST JUMPDEST SWAP3 SWAP2 POP POP JUMP JUMPDEST PUSH32 0x4E487B7100000000000000000000000000000000000000000000000000000000 PUSH0 MSTORE PUSH1 0x32 PUSH1 0x4 MSTORE PUSH1 0x24 PUSH0 REVERT JUMPDEST PUSH32 0x4E487B7100000000000000000000000000000000000000000000000000000000 PUSH0 MSTORE PUSH1 0x22 PUSH1 0x4 MSTORE PUSH1 0x24 PUSH0 REVERT JUMPDEST PUSH0 PUSH1 0x2 DUP3 DIV SWAP1 POP PUSH1 0x1 DUP3 AND DUP1 PUSH2 0x2684 JUMPI PUSH1 0x7F DUP3 AND SWAP2 POP JUMPDEST PUSH1 0x20 DUP3 LT DUP2 SUB PUSH2 0x2697 JUMPI PUSH2 0x2696 PUSH2 0x2640 JUMP JUMPDEST JUMPDEST POP SWAP2 SWAP1 POP JUMP JUMPDEST PUSH0 DUP2 SWAP1 POP DUP2 PUSH0 MSTORE PUSH1 0x20 PUSH0 KECCAK256 SWAP1 POP SWAP2 SWAP1 POP JUMP JUMPDEST PUSH0 PUSH1 0x20 PUSH1 0x1F DUP4 ADD DIV SWAP1 POP SWAP2 SWAP1 POP JUMP JUMPDEST PUSH0 DUP3 DUP3 SHL SWAP1 POP SWAP3 SWAP2 POP POP JUMP JUMPDEST PUSH0 PUSH1 0x8 DUP4 MUL PUSH2 0x26F9 PUSH32 0xFFFFFFFFFFFFFFFFFFFFFFFFFFFFFFFFFFFFFFFFFFFFFFFFFFFFFFFFFFFFFFFF DUP3 PUSH2 0x26BE JUMP JUMPDEST PUSH2 0x2703 DUP7 DUP4 PUSH2 0x26BE JUMP JUMPDEST SWAP6 POP DUP1 NOT DUP5 AND SWAP4 POP DUP1 DUP7 AND DUP5 OR SWAP3 POP POP POP SWAP4 SWAP3 POP POP POP JUMP JUMPDEST PUSH0 DUP2 SWAP1 POP SWAP2 SWAP1 POP JUMP JUMPDEST PUSH0 PUSH2 0x273E PUSH2 0x2739 PUSH2 0x2734 DUP5 PUSH2 0x1DD8 JUMP JUMPDEST PUSH2 0x271B JUMP JUMPDEST PUSH2 0x1DD8 JUMP JUMPDEST SWAP1 POP SWAP2 SWAP1 POP JUMP JUMPDEST PUSH0 DUP2 SWAP1 POP SWAP2 SWAP1 POP JUMP JUMPDEST PUSH2 0x2757 DUP4 PUSH2 0x2724 JUMP JUMPDEST PUSH2 0x276B PUSH2 0x2763 DUP3 PUSH2 0x2745 JUMP JUMPDEST DUP5 DUP5 SLOAD PUSH2 0x26CA JUMP JUMPDEST DUP3 SSTORE POP POP POP POP JUMP JUMPDEST PUSH0 PUSH0 SWAP1 POP SWAP1 JUMP JUMPDEST PUSH2 0x2782 PUSH2 0x2773 JUMP JUMPDEST PUSH2 0x278D DUP2 DUP5 DUP5 PUSH2 0x274E JUMP JUMPDEST POP POP POP JUMP JUMPDEST PUSH0 JUMPDEST DUP3 DUP2 LT ISZERO PUSH2 0x27B3 JUMPI PUSH2 0x27A8 PUSH0 DUP3 DUP5 ADD PUSH2 0x277A JUMP JUMPDEST PUSH1 0x1 DUP2 ADD SWAP1 POP PUSH2 0x2794 JUMP JUMPDEST POP POP POP JUMP JUMPDEST PUSH1 0x1F DUP3 GT ISZERO PUSH2 0x2806 JUMPI DUP3 DUP3 GT ISZERO PUSH2 0x2805 JUMPI PUSH2 0x27D2 DUP2 PUSH2 0x269D JUMP JUMPDEST PUSH2 0x27DB DUP4 PUSH2 0x26AF JUMP JUMPDEST PUSH2 0x27E4 DUP6 PUSH2 0x26AF JUMP JUMPDEST PUSH1 0x20 DUP7 LT ISZERO PUSH2 0x27F1 JUMPI PUSH0 SWAP1 POP JUMPDEST DUP1 DUP4 ADD PUSH2 0x2800 DUP3 DUP5 SUB DUP3 PUSH2 0x2792 JUMP JUMPDEST POP POP POP POP JUMPDEST JUMPDEST POP POP POP JUMP JUMPDEST PUSH0 DUP3 DUP3 SHR SWAP1 POP SWAP3 SWAP2 POP POP JUMP JUMPDEST PUSH0 PUSH2 0x2826 PUSH0 NOT DUP5 PUSH1 0x8 MUL PUSH2 0x280B JUMP JUMPDEST NOT DUP1 DUP4 AND SWAP2 POP POP SWAP3 SWAP2 POP POP JUMP JUMPDEST PUSH0 PUSH2 0x283E DUP4 DUP4 PUSH2 0x2817 JUMP JUMPDEST SWAP2 POP DUP3 PUSH1 0x2 MUL DUP3 OR SWAP1 POP SWAP3 SWAP2 POP POP JUMP JUMPDEST PUSH2 0x2857 DUP3 PUSH2 0x1E09 JUMP JUMPDEST PUSH8 0xFFFFFFFFFFFFFFFF DUP2 GT ISZERO PUSH2 0x2870 JUMPI PUSH2 0x286F PUSH2 0x1A10 JUMP JUMPDEST JUMPDEST PUSH2 0x287A DUP3 SLOAD PUSH2 0x266D JUMP JUMPDEST PUSH2 0x2885 DUP3 DUP3 DUP6 PUSH2 0x27B8 JUMP JUMPDEST PUSH0 PUSH1 0x20 SWAP1 POP PUSH1 0x1F DUP4 GT PUSH1 0x1 DUP2 EQ PUSH2 0x28B6 JUMPI PUSH0 DUP5 ISZERO PUSH2 0x28A4 JUMPI DUP3 DUP8 ADD MLOAD SWAP1 POP JUMPDEST PUSH2 0x28AE DUP6 DUP3 PUSH2 0x2833 JUMP JUMPDEST DUP7 SSTORE POP PUSH2 0x2915 JUMP JUMPDEST PUSH1 0x1F NOT DUP5 AND PUSH2 0x28C4 DUP7 PUSH2 0x269D JUMP JUMPDEST PUSH0 JUMPDEST DUP3 DUP2 LT ISZERO PUSH2 0x28EB JUMPI DUP5 DUP10 ADD MLOAD DUP3 SSTORE PUSH1 0x1 DUP3 ADD SWAP2 POP PUSH1 0x20 DUP6 ADD SWAP5 POP PUSH1 0x20 DUP2 ADD SWAP1 POP PUSH2 0x28C6 JUMP JUMPDEST DUP7 DUP4 LT ISZERO PUSH2 0x2908 JUMPI DUP5 DUP10 ADD MLOAD PUSH2 0x2904 PUSH1 0x1F DUP10 AND DUP3 PUSH2 0x2817 JUMP JUMPDEST DUP4 SSTORE POP JUMPDEST PUSH1 0x1 PUSH1 0x2 DUP9 MUL ADD DUP9 SSTORE POP POP POP JUMPDEST POP POP POP POP POP POP JUMP JUMPDEST PUSH0 PUSH1 0x40 DUP3 ADD SWAP1 POP PUSH2 0x2930 PUSH0 DUP4 ADD DUP6 PUSH2 0x2180 JUMP JUMPDEST PUSH2 0x293D PUSH1 0x20 DUP4 ADD DUP5 PUSH2 0x1E69 JUMP JUMPDEST SWAP4 SWAP3 POP POP POP JUMP JUMPDEST PUSH0 PUSH1 0x60 DUP3 ADD SWAP1 POP PUSH2 0x2957 PUSH0 DUP4 ADD DUP7 PUSH2 0x1E69 JUMP JUMPDEST DUP2 DUP2 SUB PUSH1 0x20 DUP4 ADD MSTORE PUSH2 0x2969 DUP2 DUP6 PUSH2 0x1E31 JUMP JUMPDEST SWAP1 POP PUSH2 0x2978 PUSH1 0x40 DUP4 ADD DUP5 PUSH2 0x1DE1 JUMP JUMPDEST SWAP5 SWAP4 POP POP POP POP JUMP JUMPDEST PUSH32 0x4261746368206E6F7420666F756E640000000000000000000000000000000000 PUSH0 DUP3 ADD MSTORE POP JUMP JUMPDEST PUSH0 PUSH2 0x29B4 PUSH1 0xF DUP4 PUSH2 0x1E13 JUMP JUMPDEST SWAP2 POP PUSH2 0x29BF DUP3 PUSH2 0x2980 JUMP JUMPDEST PUSH1 0x20 DUP3 ADD SWAP1 POP SWAP2 SWAP1 POP JUMP JUMPDEST PUSH0 PUSH1 0x20 DUP3 ADD SWAP1 POP DUP2 DUP2 SUB PUSH0 DUP4 ADD MSTORE PUSH2 0x29E1 DUP2 PUSH2 0x29A8 JUMP JUMPDEST SWAP1 POP SWAP2 SWAP1 POP JUMP JUMPDEST PUSH32 0x42617463682049442063616E6E6F7420626520656D7074790000000000000000 PUSH0 DUP3 ADD MSTORE POP JUMP JUMPDEST PUSH0 PUSH2 0x2A1C PUSH1 0x18 DUP4 PUSH2 0x1E13 JUMP JUMPDEST SWAP2 POP PUSH2 0x2A27 DUP3 PUSH2 0x29E8 JUMP JUMPDEST PUSH1 0x20 DUP3 ADD SWAP1 POP SWAP2 SWAP1 POP JUMP JUMPDEST PUSH0 PUSH1 0x20 DUP3 ADD SWAP1 POP DUP2 DUP2 SUB PUSH0 DUP4 ADD MSTORE PUSH2 0x2A49 DUP2 PUSH2 0x2A10 JUMP JUMPDEST SWAP1 POP SWAP2 SWAP1 POP JUMP JUMPDEST PUSH32 0x426174636820494420616C726561647920726567697374657265640000000000 PUSH0 DUP3 ADD MSTORE POP JUMP JUMPDEST PUSH0 PUSH2 0x2A84 PUSH1 0x1B DUP4 PUSH2 0x1E13 JUMP JUMPDEST SWAP2 POP PUSH2 0x2A8F DUP3 PUSH2 0x2A50 JUMP JUMPDEST PUSH1 0x20 DUP3 ADD SWAP1 POP SWAP2 SWAP1 POP JUMP JUMPDEST PUSH0 PUSH1 0x20 DUP3 ADD SWAP1 POP DUP2 DUP2 SUB PUSH0 DUP4 ADD MSTORE PUSH2 0x2AB1 DUP2 PUSH2 0x2A78 JUMP JUMPDEST SWAP1 POP SWAP2 SWAP1 POP JUMP JUMPDEST PUSH32 0x50726F64756374696F6E20646174652063616E6E6F7420626520696E20746865 PUSH0 DUP3 ADD MSTORE PUSH32 0x2066757475726500000000000000000000000000000000000000000000000000 PUSH1 0x20 DUP3 ADD MSTORE POP JUMP JUMPDEST PUSH0 PUSH2 0x2B12 PUSH1 0x27 DUP4 PUSH2 0x1E13 JUMP JUMPDEST SWAP2 POP PUSH2 0x2B1D DUP3 PUSH2 0x2AB8 JUMP JUMPDEST PUSH1 0x40 DUP3 ADD SWAP1 POP SWAP2 SWAP1 POP JUMP JUMPDEST PUSH0 PUSH1 0x20 DUP3 ADD SWAP1 POP DUP2 DUP2 SUB PUSH0 DUP4 ADD MSTORE PUSH2 0x2B3F DUP2 PUSH2 0x2B06 JUMP JUMPDEST SWAP1 POP SWAP2 SWAP1 POP JUMP JUMPDEST PUSH0 PUSH1 0x40 DUP3 ADD SWAP1 POP DUP2 DUP2 SUB PUSH0 DUP4 ADD MSTORE PUSH2 0x2B5E DUP2 DUP6 PUSH2 0x1E31 JUMP JUMPDEST SWAP1 POP PUSH2 0x2B6D PUSH1 0x20 DUP4 ADD DUP5 PUSH2 0x1E69 JUMP JUMPDEST SWAP4 SWAP3 POP POP POP JUMP JUMPDEST PUSH32 0x50726F647563742068617276657374656420616E642072656769737465726564 PUSH0 DUP3 ADD MSTORE PUSH32 0x206F6E20626C6F636B636861696E000000000000000000000000000000000000 PUSH1 0x20 DUP3 ADD MSTORE POP JUMP JUMPDEST PUSH0 PUSH2 0x2BCE PUSH1 0x2E DUP4 PUSH2 0x1E13 JUMP JUMPDEST SWAP2 POP PUSH2 0x2BD9 DUP3 PUSH2 0x2B74 JUMP JUMPDEST PUSH1 0x40 DUP3 ADD SWAP1 POP SWAP2 SWAP1 POP JUMP JUMPDEST PUSH0 PUSH1 0x60 DUP3 ADD SWAP1 POP PUSH2 0x2BF7 PUSH0 DUP4 ADD DUP6 PUSH2 0x1E69 JUMP JUMPDEST DUP2 DUP2 SUB PUSH1 0x20 DUP4 ADD MSTORE PUSH2 0x2C08 DUP2 PUSH2 0x2BC2 JUMP JUMPDEST SWAP1 POP PUSH2 0x2C17 PUSH1 0x40 DUP4 ADD DUP5 PUSH2 0x1DE1 JUMP JUMPDEST SWAP4 SWAP3 POP POP POP JUMP INVALID POP PUSH19 0x6F647563742068617276657374656420616E64 KECCAK256 PUSH19 0x656769737465726564206F6E20626C6F636B63 PUSH9 0x61696EA26469706673 PC 0x22 SLT KECCAK256 TSTORE 0xD2 LOG0 PUSH4 0x97201566 RETURNDATACOPY 0xC3 SELFDESTRUCT 0xF6 RJUMPI 0xA449 CALLVALUE SWAP14 SWAP9 SHR CHAINID 0xC6 0xBF 0x4C DUP11 DUP14 NOT SAR PUSH5 0x9A0EB74F64 PUSH20 0x6F6C634300082200330000000000000000000000 "
				},
				"gasEstimates": {
					"creation": {
						"codeDepositCost": "2278800",
						"executionCost": "51089",
						"totalCost": "2329889"
					},
					"external": {
						"addTraceRecord(string,string,string,int256)": "infinite",
						"assignRole(address,uint8)": "28831",
						"batches(string)": "infinite",
						"deactivateBatch(string)": "infinite",
						"getBatchHistory(string)": "infinite",
						"getBatchInfo(string)": "infinite",
						"getRole(address)": "2981",
						"getTraceCount(string)": "infinite",
						"owner()": "2508",
						"registerBatch(string,string,string,uint256)": "infinite",
						"roles(address)": "2943",
						"traceHistory(string,uint256)": "infinite"
					}
				},
				"methodIdentifiers": {
					"addTraceRecord(string,string,string,int256)": "6e2be882",
					"assignRole(address,uint8)": "630a195b",
					"batches(string)": "7ef1446a",
					"deactivateBatch(string)": "1e0e5bc4",
					"getBatchHistory(string)": "a252d8a7",
					"getBatchInfo(string)": "d54d5b92",
					"getRole(address)": "44276733",
					"getTraceCount(string)": "798ac358",
					"owner()": "8da5cb5b",
					"registerBatch(string,string,string,uint256)": "a97e4d3e",
					"roles(address)": "99374642",
					"traceHistory(string,uint256)": "a775e4cc"
				}
			},
			"storageLayout": {
				"storage": [
					{
						"astId": 42,
						"contract": "codes/FoodTraceability.sol:FoodTraceability",
						"label": "batches",
						"offset": 0,
						"slot": "0",
						"type": "t_mapping(t_string_memory_ptr,t_struct(FoodBatch)37_storage)"
					},
					{
						"astId": 48,
						"contract": "codes/FoodTraceability.sol:FoodTraceability",
						"label": "traceHistory",
						"offset": 0,
						"slot": "1",
						"type": "t_mapping(t_string_memory_ptr,t_array(t_struct(TraceRecord)23_storage)dyn_storage)"
					},
					{
						"astId": 53,
						"contract": "codes/FoodTraceability.sol:FoodTraceability",
						"label": "roles",
						"offset": 0,
						"slot": "2",
						"type": "t_mapping(t_address,t_enum(Role)9)"
					},
					{
						"astId": 55,
						"contract": "codes/FoodTraceability.sol:FoodTraceability",
						"label": "owner",
						"offset": 0,
						"slot": "3",
						"type": "t_address"
					}
				],
				"types": {
					"t_address": {
						"encoding": "inplace",
						"label": "address",
						"numberOfBytes": "20"
					},
					"t_array(t_struct(TraceRecord)23_storage)dyn_storage": {
						"base": "t_struct(TraceRecord)23_storage",
						"encoding": "dynamic_array",
						"label": "struct FoodTraceability.TraceRecord[]",
						"numberOfBytes": "32"
					},
					"t_bool": {
						"encoding": "inplace",
						"label": "bool",
						"numberOfBytes": "1"
					},
					"t_enum(Role)9": {
						"encoding": "inplace",
						"label": "enum FoodTraceability.Role",
						"numberOfBytes": "1"
					},
					"t_int256": {
						"encoding": "inplace",
						"label": "int256",
						"numberOfBytes": "32"
					},
					"t_mapping(t_address,t_enum(Role)9)": {
						"encoding": "mapping",
						"key": "t_address",
						"label": "mapping(address => enum FoodTraceability.Role)",
						"numberOfBytes": "32",
						"value": "t_enum(Role)9"
					},
					"t_mapping(t_string_memory_ptr,t_array(t_struct(TraceRecord)23_storage)dyn_storage)": {
						"encoding": "mapping",
						"key": "t_string_memory_ptr",
						"label": "mapping(string => struct FoodTraceability.TraceRecord[])",
						"numberOfBytes": "32",
						"value": "t_array(t_struct(TraceRecord)23_storage)dyn_storage"
					},
					"t_mapping(t_string_memory_ptr,t_struct(FoodBatch)37_storage)": {
						"encoding": "mapping",
						"key": "t_string_memory_ptr",
						"label": "mapping(string => struct FoodTraceability.FoodBatch)",
						"numberOfBytes": "32",
						"value": "t_struct(FoodBatch)37_storage"
					},
					"t_string_memory_ptr": {
						"encoding": "bytes",
						"label": "string",
						"numberOfBytes": "32"
					},
					"t_string_storage": {
						"encoding": "bytes",
						"label": "string",
						"numberOfBytes": "32"
					},
					"t_struct(FoodBatch)37_storage": {
						"encoding": "inplace",
						"label": "struct FoodTraceability.FoodBatch",
						"members": [
							{
								"astId": 26,
								"contract": "codes/FoodTraceability.sol:FoodTraceability",
								"label": "batchId",
								"offset": 0,
								"slot": "0",
								"type": "t_string_storage"
							},
							{
								"astId": 28,
								"contract": "codes/FoodTraceability.sol:FoodTraceability",
								"label": "productName",
								"offset": 0,
								"slot": "1",
								"type": "t_string_storage"
							},
							{
								"astId": 30,
								"contract": "codes/FoodTraceability.sol:FoodTraceability",
								"label": "origin",
								"offset": 0,
								"slot": "2",
								"type": "t_string_storage"
							},
							{
								"astId": 32,
								"contract": "codes/FoodTraceability.sol:FoodTraceability",
								"label": "productionDate",
								"offset": 0,
								"slot": "3",
								"type": "t_uint256"
							},
							{
								"astId": 34,
								"contract": "codes/FoodTraceability.sol:FoodTraceability",
								"label": "producer",
								"offset": 0,
								"slot": "4",
								"type": "t_address"
							},
							{
								"astId": 36,
								"contract": "codes/FoodTraceability.sol:FoodTraceability",
								"label": "isActive",
								"offset": 20,
								"slot": "4",
								"type": "t_bool"
							}
						],
						"numberOfBytes": "160"
					},
					"t_struct(TraceRecord)23_storage": {
						"encoding": "inplace",
						"label": "struct FoodTraceability.TraceRecord",
						"members": [
							{
								"astId": 12,
								"contract": "codes/FoodTraceability.sol:FoodTraceability",
								"label": "handler",
								"offset": 0,
								"slot": "0",
								"type": "t_address"
							},
							{
								"astId": 14,
								"contract": "codes/FoodTraceability.sol:FoodTraceability",
								"label": "role",
								"offset": 0,
								"slot": "1",
								"type": "t_uint256"
							},
							{
								"astId": 16,
								"contract": "codes/FoodTraceability.sol:FoodTraceability",
								"label": "location",
								"offset": 0,
								"slot": "2",
								"type": "t_string_storage"
							},
							{
								"astId": 18,
								"contract": "codes/FoodTraceability.sol:FoodTraceability",
								"label": "action",
								"offset": 0,
								"slot": "3",
								"type": "t_string_storage"
							},
							{
								"astId": 20,
								"contract": "codes/FoodTraceability.sol:FoodTraceability",
								"label": "temperature",
								"offset": 0,
								"slot": "4",
								"type": "t_int256"
							},
							{
								"astId": 22,
								"contract": "codes/FoodTraceability.sol:FoodTraceability",
								"label": "timestamp",
								"offset": 0,
								"slot": "5",
								"type": "t_uint256"
							}
						],
						"numberOfBytes": "192"
					},
					"t_uint256": {
						"encoding": "inplace",
						"label": "uint256",
						"numberOfBytes": "32"
					}
				}
			},
			"userdoc": {
				"kind": "user",
				"methods": {
					"addTraceRecord(string,string,string,int256)": {
						"notice": "新增供應鏈環節記錄（所有已登記參與者均可呼叫）"
					},
					"assignRole(address,uint8)": {
						"notice": "指派角色給指定地址（僅限合約擁有者）"
					},
					"deactivateBatch(string)": {
						"notice": "停用批次（例：召回或下架，僅限 Regulator）"
					},
					"getBatchHistory(string)": {
						"notice": "查詢批次完整供應鏈履歷（批次召回後仍可查詢，供追責用）"
					},
					"getBatchInfo(string)": {
						"notice": "查詢批次基本資訊"
					},
					"getRole(address)": {
						"notice": "查詢指定地址的角色"
					},
					"getTraceCount(string)": {
						"notice": "查詢批次追蹤記錄總筆數（批次召回後仍可查詢）"
					},
					"registerBatch(string,string,string,uint256)": {
						"notice": "登記新食品批次（僅限 Producer 角色）"
					}
				},
				"notice": "食品供應鏈溯源智能合約（Proof of Concept）",
				"version": 1
			}
		}
	}
}